{
  "contractName": "Medianizer",
  "abi": [
    {
      "constant": false,
      "inputs": [
        {
          "name": "owner_",
          "type": "address"
        }
      ],
      "name": "setOwner",
      "outputs": [],
      "payable": false,
      "stateMutability": "nonpayable",
      "type": "function"
    },
    {
      "constant": true,
      "inputs": [
        {
          "name": "",
          "type": "address"
        }
      ],
      "name": "indexes",
      "outputs": [
        {
          "name": "",
          "type": "bytes12"
        }
      ],
      "payable": false,
      "stateMutability": "view",
      "type": "function"
    },
    {
      "constant": true,
      "inputs": [],
      "name": "next",
      "outputs": [
        {
          "name": "",
          "type": "bytes12"
        }
      ],
      "payable": false,
      "stateMutability": "view",
      "type": "function"
    },
    {
      "constant": true,
      "inputs": [],
      "name": "read",
      "outputs": [
        {
          "name": "",
          "type": "bytes32"
        }
      ],
      "payable": false,
      "stateMutability": "view",
      "type": "function"
    },
    {
      "constant": true,
      "inputs": [],
      "name": "peek",
      "outputs": [
        {
          "name": "",
          "type": "bytes32"
        },
        {
          "name": "",
          "type": "bool"
        }
      ],
      "payable": false,
      "stateMutability": "view",
      "type": "function"
    },
    {
      "constant": true,
      "inputs": [
        {
          "name": "",
          "type": "bytes12"
        }
      ],
      "name": "values",
      "outputs": [
        {
          "name": "",
          "type": "address"
        }
      ],
      "payable": false,
      "stateMutability": "view",
      "type": "function"
    },
    {
      "constant": false,
      "inputs": [
        {
          "name": "authority_",
          "type": "address"
        }
      ],
      "name": "setAuthority",
      "outputs": [],
      "payable": false,
      "stateMutability": "nonpayable",
      "type": "function"
    },
    {
      "constant": true,
      "inputs": [],
      "name": "owner",
      "outputs": [
        {
          "name": "",
          "type": "address"
        }
      ],
      "payable": false,
      "stateMutability": "view",
      "type": "function"
    },
    {
      "constant": false,
      "inputs": [],
      "name": "void",
      "outputs": [],
      "payable": false,
      "stateMutability": "nonpayable",
      "type": "function"
    },
    {
      "constant": true,
      "inputs": [],
      "name": "authority",
      "outputs": [
        {
          "name": "",
          "type": "address"
        }
      ],
      "payable": false,
      "stateMutability": "view",
      "type": "function"
    },
    {
      "constant": true,
      "inputs": [],
      "name": "min",
      "outputs": [
        {
          "name": "",
          "type": "uint96"
        }
      ],
      "payable": false,
      "stateMutability": "view",
      "type": "function"
    },
    {
      "anonymous": true,
      "inputs": [
        {
          "indexed": true,
          "name": "sig",
          "type": "bytes4"
        },
        {
          "indexed": true,
          "name": "guy",
          "type": "address"
        },
        {
          "indexed": true,
          "name": "foo",
          "type": "bytes32"
        },
        {
          "indexed": true,
          "name": "bar",
          "type": "bytes32"
        },
        {
          "indexed": false,
          "name": "wad",
          "type": "uint256"
        },
        {
          "indexed": false,
          "name": "fax",
          "type": "bytes"
        }
      ],
      "name": "LogNote",
      "type": "event"
    },
    {
      "anonymous": false,
      "inputs": [
        {
          "indexed": true,
          "name": "authority",
          "type": "address"
        }
      ],
      "name": "LogSetAuthority",
      "type": "event"
    },
    {
      "anonymous": false,
      "inputs": [
        {
          "indexed": true,
          "name": "owner",
          "type": "address"
        }
      ],
      "name": "LogSetOwner",
      "type": "event"
    },
    {
      "constant": false,
      "inputs": [
        {
          "name": "wat",
          "type": "address"
        }
      ],
      "name": "set",
      "outputs": [],
      "payable": false,
      "stateMutability": "nonpayable",
      "type": "function"
    },
    {
      "constant": false,
      "inputs": [
        {
          "name": "pos",
          "type": "bytes12"
        },
        {
          "name": "wat",
          "type": "address"
        }
      ],
      "name": "set",
      "outputs": [],
      "payable": false,
      "stateMutability": "nonpayable",
      "type": "function"
    },
    {
      "constant": false,
      "inputs": [
        {
          "name": "min_",
          "type": "uint96"
        }
      ],
      "name": "setMin",
      "outputs": [],
      "payable": false,
      "stateMutability": "nonpayable",
      "type": "function"
    },
    {
      "constant": false,
      "inputs": [
        {
          "name": "next_",
          "type": "bytes12"
        }
      ],
      "name": "setNext",
      "outputs": [],
      "payable": false,
      "stateMutability": "nonpayable",
      "type": "function"
    },
    {
      "constant": false,
      "inputs": [
        {
          "name": "wat",
          "type": "address"
        }
      ],
      "name": "unset",
      "outputs": [],
      "payable": false,
      "stateMutability": "nonpayable",
      "type": "function"
    },
    {
      "constant": false,
      "inputs": [
        {
          "name": "pos",
          "type": "bytes12"
        }
      ],
      "name": "unset",
      "outputs": [],
      "payable": false,
      "stateMutability": "nonpayable",
      "type": "function"
    },
    {
      "constant": false,
      "inputs": [
        {
          "name": "",
          "type": "bytes32"
        }
      ],
      "name": "poke",
      "outputs": [],
      "payable": false,
      "stateMutability": "nonpayable",
      "type": "function"
    },
    {
      "constant": false,
      "inputs": [],
      "name": "poke",
      "outputs": [],
      "payable": false,
      "stateMutability": "nonpayable",
      "type": "function"
    },
    {
      "constant": true,
      "inputs": [],
      "name": "compute",
      "outputs": [
        {
          "name": "",
          "type": "bytes32"
        },
        {
          "name": "",
          "type": "bool"
        }
      ],
      "payable": false,
      "stateMutability": "view",
      "type": "function"
    }
  ],
  "bytecode": "0x60806040819052600580546c0100000000000000000000000060016001606060020a03199092168217606060020a60c060020a03191617909155805433600160a060020a03199091168117909155907fce241d7ca1f669fee44b6fc00b8eba2df3bb514eed0f6f668f8f89096e81ed9490600090a2610fd4806100836000396000f3006080604052600436106101115763ffffffff7c010000000000000000000000000000000000000000000000000000000060003504166313af403581146101165780631504460f1461013957806318178358146101515780631a43c338146101665780632801617e146101945780632966d1b9146101b55780632db78d93146101d65780634c8fe5261461021457806357de26a41461022957806359e02dd714610250578063651dd0de146102655780636ba5ef0d146102a35780637a9e5e4b146102c45780638da5cb5b146102e5578063ac4c25b2146102fa578063beb38b431461030f578063bf7e214f1461033d578063e0a1fdad14610352578063f2c5925d14610374578063f889794514610396575b600080fd5b34801561012257600080fd5b50610137600160a060020a03600435166103c7565b005b34801561014557600080fd5b50610137600435610435565b34801561015d57600080fd5b506101376104c3565b34801561017257600080fd5b5061017b6104cf565b6040805192835290151560208301528051918290030190f35b3480156101a057600080fd5b50610137600160a060020a03600435166108a3565b3480156101c157600080fd5b50610137600160a060020a036004351661091d565b3480156101e257600080fd5b506101f7600160a060020a036004351661094b565b60408051600160a060020a03199092168252519081900360200190f35b34801561022057600080fd5b506101f7610963565b34801561023557600080fd5b5061023e61096f565b60408051918252519081900360200190f35b34801561025c57600080fd5b5061017b61098f565b34801561027157600080fd5b50610287600160a060020a0319600435166109a4565b60408051600160a060020a039092168252519081900360200190f35b3480156102af57600080fd5b506101376001606060020a03600435166109bf565b3480156102d057600080fd5b50610137600160a060020a0360043516610a83565b3480156102f157600080fd5b50610287610ae8565b34801561030657600080fd5b50610137610af7565b34801561031b57600080fd5b50610137600160a060020a031960043516602435600160a060020a0316610b83565b34801561034957600080fd5b50610287610cfe565b34801561035e57600080fd5b50610137600160a060020a031960043516610d0d565b34801561038057600080fd5b50610137600160a060020a031960043516610d18565b3480156103a257600080fd5b506103ab610dbd565b604080516001606060020a039092168252519081900360200190f35b6103e56103e033600035600160e060020a031916610ddc565b610ee5565b60018054600160a060020a031916600160a060020a0383811691909117918290556040519116907fce241d7ca1f669fee44b6fc00b8eba2df3bb514eed0f6f668f8f89096e81ed9490600090a250565b60408051348082526020820183815236938301849052600435936024359384938693339360008035600160e060020a031916949092606082018484808284376040519201829003965090945050505050a461048e6104cf565b6001805491151560a060020a0274ff000000000000000000000000000000000000000019909216919091179055600255505050565b6104cd6000610435565b565b600080606060008060008060008060008060006001600560009054906101000a900460a060020a0260a060020a9004036001606060020a0316604051908082528060200260200182016040528015610531578160200160208202803883390190505b50995060009850600197505b60055460a060020a908102046001606060020a03908116908916101561078557600160a060020a031960a060020a890216600090815260036020526040902054600160a060020a03161561077a5760a060020a8802600160a060020a0319166000908152600360205260408082205481517f59e02dd70000000000000000000000000000000000000000000000000000000081528251600160a060020a03909216936359e02dd79360048084019491939192918390030190829087803b15801561060657600080fd5b505af115801561061a573d6000803e3d6000fd5b505050506040513d604081101561063057600080fd5b5080516020909101519097509550851561077a576001606060020a038916158061067d57508960018a036001606060020a031681518110151561066f57fe5b602090810290910101518710155b156106a957868a8a6001606060020a031681518110151561069a57fe5b60209081029091010152610773565b600094505b89856001606060020a03168151811015156106c557fe5b6020908102909101015187106106e0576001909401936106ae565b8893505b846001606060020a0316846001606060020a031611156107505789600185036001606060020a031681518110151561071857fe5b906020019060200201518a856001606060020a031681518110151561073957fe5b6020908102909101015260001993909301926106e4565b868a866001606060020a031681518110151561076857fe5b602090810290910101525b6001909801975b60019097019661053d565b6005546001606060020a036c010000000000000000000000009091048116908a1610156107ba5760025460009b509b50610895565b6001891615156108595789600160026001606060020a038c1604036001606060020a03168151811015156107ea57fe5b6020908102909101015191508960026001606060020a038b16046001606060020a031681518110151561081957fe5b6020908102909101015190506108406108328383610ef1565b671bc16d674ec80000610f13565b6fffffffffffffffffffffffffffffffff16925061088d565b8960026001606060020a036000198c0116046001606060020a031681518110151561088057fe5b9060200190602002015192505b8260019b509b505b505050505050505050509091565b60006108be6103e033600035600160e060020a031916610ddc565b5060055460a060020a908102819004600101026108e6600160a060020a031982161515610ee5565b6005546108f99060a060020a0283610b83565b600580546bffffffffffffffffffffffff191660a060020a90920491909117905550565b600160a060020a0381166000908152600460205260408120546109489160a060020a90910290610b83565b50565b60046020526000908152604090205460a060020a0281565b60055460a060020a0281565b600080600061097c61098f565b9150915061098981610ee5565b50919050565b60025460015460ff60a060020a909104169091565b600360205260009081526040902054600160a060020a031681565b60408051348082526020820183815236938301849052600435936024359384938693339360008035600160e060020a031916949092606082018484808284376040519201829003965090945050505050a4610a296103e033600035600160e060020a031916610ddc565b6001606060020a0383161515610a3e57600080fd5b5050600580546001606060020a039092166c010000000000000000000000000277ffffffffffffffffffffffff00000000000000000000000019909216919091179055565b610a9c6103e033600035600160e060020a031916610ddc565b60008054600160a060020a031916600160a060020a03838116919091178083556040519116917f1abebea81bfa2637f28358c371278fb15ede7ea8dd28d2e03b112ff6d936ada491a250565b600154600160a060020a031681565b60408051348082526020820183815236938301849052600435936024359384938693339360008035600160e060020a031916949092606082018484808284376040519201829003965090945050505050a4610b616103e033600035600160e060020a031916610ddc565b50506001805474ff000000000000000000000000000000000000000019169055565b60408051348082526020820183815236938301849052600435936024359384938693339360008035600160e060020a031916949092606082018484808284376040519201829003965090945050505050a4610bed6103e033600035600160e060020a031916610ddc565b600160a060020a031984161515610c0357600080fd5b600160a060020a03831615801590610c425750600160a060020a03831660009081526004602052604090205460a060020a02600160a060020a03191615155b15610c4c57600080fd5b600160a060020a03198416600090815260036020908152604080832054600160a060020a039081168452600490925290912080546bffffffffffffffffffffffff19169055831615610ccc57600160a060020a038316600090815260046020526040902080546bffffffffffffffffffffffff191660a060020a86041790555b5050600160a060020a031991821660009081526003602052604090208054600160a060020a0390921691909216179055565b600054600160a060020a031681565b610948816000610b83565b60408051348082526020820183815236938301849052600435936024359384938693339360008035600160e060020a031916949092606082018484808284376040519201829003965090945050505050a4610d826103e033600035600160e060020a031916610ddc565b600160a060020a031983161515610d9857600080fd5b5050600580546bffffffffffffffffffffffff191660a060020a909204919091179055565b6005546c0100000000000000000000000090046001606060020a031681565b6000600160a060020a038316301415610df757506001610edf565b600154600160a060020a0384811691161415610e1557506001610edf565b600054600160a060020a03161515610e2f57506000610edf565b60008054604080517fb7009613000000000000000000000000000000000000000000000000000000008152600160a060020a038781166004830152306024830152600160e060020a0319871660448301529151919092169263b700961392606480820193602093909283900390910190829087803b158015610eb057600080fd5b505af1158015610ec4573d6000803e3d6000fd5b505050506040513d6020811015610eda57600080fd5b505190505b92915050565b80151561094857600080fd5b8082016fffffffffffffffffffffffffffffffff8084169082161015610edf57fe5b6000610f806fffffffffffffffffffffffffffffffff8316600281046fffffffffffffffffffffffffffffffff16670de0b6b3a76400006fffffffffffffffffffffffffffffffff16866fffffffffffffffffffffffffffffffff160201811515610f7a57fe5b04610f87565b9392505050565b806fffffffffffffffffffffffffffffffff81168114610fa357fe5b9190505600a165627a7a723058208acff351c28d7ecd583dc4b3ee6db6e76dbad9c13742db9471af75e1f593c4410029",
  "source": "/// return median value of feeds\n\n// Copyright (C) 2017  DappHub, LLC\n\n// Licensed under the Apache License, Version 2.0 (the \"License\").\n// You may not use this file except in compliance with the License.\n\n// Unless required by applicable law or agreed to in writing, software\n// distributed under the License is distributed on an \"AS IS\" BASIS,\n// WITHOUT WARRANTIES OR CONDITIONS OF ANY KIND (express or implied).\n\npragma solidity ^0.4.8;\n\ncontract DSAuthority {\n    function canCall(\n        address src, address dst, bytes4 sig\n    ) constant returns (bool);\n}\n\ncontract DSAuthEvents {\n    event LogSetAuthority (address indexed authority);\n    event LogSetOwner     (address indexed owner);\n}\n\ncontract DSAuth is DSAuthEvents {\n    DSAuthority  public  authority;\n    address      public  owner;\n\n    function DSAuth() {\n        owner = msg.sender;\n        LogSetOwner(msg.sender);\n    }\n\n    function setOwner(address owner_)\n        auth\n    {\n        owner = owner_;\n        LogSetOwner(owner);\n    }\n\n    function setAuthority(DSAuthority authority_)\n        auth\n    {\n        authority = authority_;\n        LogSetAuthority(authority);\n    }\n\n    modifier auth {\n        assert(isAuthorized(msg.sender, msg.sig));\n        _;\n    }\n\n    modifier authorized(bytes4 sig) {\n        assert(isAuthorized(msg.sender, sig));\n        _;\n    }\n\n    function isAuthorized(address src, bytes4 sig) internal returns (bool) {\n        if (src == address(this)) {\n            return true;\n        } else if (src == owner) {\n            return true;\n        } else if (authority == DSAuthority(0)) {\n            return false;\n        } else {\n            return authority.canCall(src, this, sig);\n        }\n    }\n\n    function assert(bool x) internal {\n        if (!x) throw;\n    }\n}\n\ncontract DSNote {\n    event LogNote(\n        bytes4   indexed  sig,\n        address  indexed  guy,\n        bytes32  indexed  foo,\n        bytes32  indexed  bar,\n\tuint\t \t  wad,\n        bytes             fax\n    ) anonymous;\n\n    modifier note {\n        bytes32 foo;\n        bytes32 bar;\n\n        assembly {\n            foo := calldataload(4)\n            bar := calldataload(36)\n        }\n\n        LogNote(msg.sig, msg.sender, foo, bar, msg.value, msg.data);\n\n        _;\n    }\n}\n\ncontract DSMath {\n    \n    /*\n    standard uint256 functions\n     */\n\n    function add(uint256 x, uint256 y) constant internal returns (uint256 z) {\n        assert((z = x + y) >= x);\n    }\n\n    function sub(uint256 x, uint256 y) constant internal returns (uint256 z) {\n        assert((z = x - y) <= x);\n    }\n\n    function mul(uint256 x, uint256 y) constant internal returns (uint256 z) {\n        assert((z = x * y) >= x);\n    }\n\n    function div(uint256 x, uint256 y) constant internal returns (uint256 z) {\n        z = x / y;\n    }\n\n    function min(uint256 x, uint256 y) constant internal returns (uint256 z) {\n        return x <= y ? x : y;\n    }\n    function max(uint256 x, uint256 y) constant internal returns (uint256 z) {\n        return x >= y ? x : y;\n    }\n\n    /*\n    uint128 functions (h is for half)\n     */\n\n\n    function hadd(uint128 x, uint128 y) constant internal returns (uint128 z) {\n        assert((z = x + y) >= x);\n    }\n\n    function hsub(uint128 x, uint128 y) constant internal returns (uint128 z) {\n        assert((z = x - y) <= x);\n    }\n\n    function hmul(uint128 x, uint128 y) constant internal returns (uint128 z) {\n        assert((z = x * y) >= x);\n    }\n\n    function hdiv(uint128 x, uint128 y) constant internal returns (uint128 z) {\n        z = x / y;\n    }\n\n    function hmin(uint128 x, uint128 y) constant internal returns (uint128 z) {\n        return x <= y ? x : y;\n    }\n    function hmax(uint128 x, uint128 y) constant internal returns (uint128 z) {\n        return x >= y ? x : y;\n    }\n\n\n    /*\n    int256 functions\n     */\n\n    function imin(int256 x, int256 y) constant internal returns (int256 z) {\n        return x <= y ? x : y;\n    }\n    function imax(int256 x, int256 y) constant internal returns (int256 z) {\n        return x >= y ? x : y;\n    }\n\n    /*\n    WAD math\n     */\n\n    uint128 constant WAD = 10 ** 18;\n\n    function wadd(uint128 x, uint128 y) constant internal returns (uint128) {\n        return hadd(x, y);\n    }\n\n    function wsub(uint128 x, uint128 y) constant internal returns (uint128) {\n        return hsub(x, y);\n    }\n\n    function wmul(uint128 x, uint128 y) constant internal returns (uint128 z) {\n        z = cast((uint256(x) * y + WAD / 2) / WAD);\n    }\n\n    function wdiv(uint128 x, uint128 y) constant internal returns (uint128 z) {\n        z = cast((uint256(x) * WAD + y / 2) / y);\n    }\n\n    function wmin(uint128 x, uint128 y) constant internal returns (uint128) {\n        return hmin(x, y);\n    }\n    function wmax(uint128 x, uint128 y) constant internal returns (uint128) {\n        return hmax(x, y);\n    }\n\n    /*\n    RAY math\n     */\n\n    uint128 constant RAY = 10 ** 27;\n\n    function radd(uint128 x, uint128 y) constant internal returns (uint128) {\n        return hadd(x, y);\n    }\n\n    function rsub(uint128 x, uint128 y) constant internal returns (uint128) {\n        return hsub(x, y);\n    }\n\n    function rmul(uint128 x, uint128 y) constant internal returns (uint128 z) {\n        z = cast((uint256(x) * y + RAY / 2) / RAY);\n    }\n\n    function rdiv(uint128 x, uint128 y) constant internal returns (uint128 z) {\n        z = cast((uint256(x) * RAY + y / 2) / y);\n    }\n\n    function rpow(uint128 x, uint64 n) constant internal returns (uint128 z) {\n        // This famous algorithm is called \"exponentiation by squaring\"\n        // and calculates x^n with x as fixed-point and n as regular unsigned.\n        //\n        // It's O(log n), instead of O(n) for naive repeated multiplication.\n        //\n        // These facts are why it works:\n        //\n        //  If n is even, then x^n = (x^2)^(n/2).\n        //  If n is odd,  then x^n = x * x^(n-1),\n        //   and applying the equation for even x gives\n        //    x^n = x * (x^2)^((n-1) / 2).\n        //\n        //  Also, EVM division is flooring and\n        //    floor[(n-1) / 2] = floor[n / 2].\n\n        z = n % 2 != 0 ? x : RAY;\n\n        for (n /= 2; n != 0; n /= 2) {\n            x = rmul(x, x);\n\n            if (n % 2 != 0) {\n                z = rmul(z, x);\n            }\n        }\n    }\n\n    function rmin(uint128 x, uint128 y) constant internal returns (uint128) {\n        return hmin(x, y);\n    }\n    function rmax(uint128 x, uint128 y) constant internal returns (uint128) {\n        return hmax(x, y);\n    }\n\n    function cast(uint256 x) constant internal returns (uint128 z) {\n        assert((z = uint128(x)) == x);\n    }\n\n}\n\ncontract DSThing is DSAuth, DSNote, DSMath {\n}\n\ncontract DSValue is DSThing {\n    bool    has;\n    bytes32 val;\n    function peek() constant returns (bytes32, bool) {\n        return (val,has);\n    }\n    function read() constant returns (bytes32) {\n        var (wut, has) = peek();\n        assert(has);\n        return wut;\n    }\n    function poke(bytes32 wut) note auth {\n        val = wut;\n        has = true;\n    }\n    function void() note auth { // unset the value\n        has = false;\n    }\n}\n\ncontract Medianizer is DSValue {\n    mapping (bytes12 => address) public values;\n    mapping (address => bytes12) public indexes;\n    bytes12 public next = 0x1;\n\n    uint96 public min = 0x1;\n\n    function set(address wat) auth {\n        bytes12 nextId = bytes12(uint96(next) + 1);\n        assert(nextId != 0x0);\n        set(next, wat);\n        next = nextId;\n    }\n\n    function set(bytes12 pos, address wat) note auth {\n        if (pos == 0x0) throw;\n\n        if (wat != 0 && indexes[wat] != 0) throw;\n\n        indexes[values[pos]] = 0; // Making sure to remove a possible existing address in that position\n\n        if (wat != 0) {\n            indexes[wat] = pos;\n        }\n\n        values[pos] = wat;\n    }\n\n    function setMin(uint96 min_) note auth {\n        if (min_ == 0x0) throw;\n        min = min_;\n    }\n\n    function setNext(bytes12 next_) note auth {\n        if (next_ == 0x0) throw;\n        next = next_;\n    }\n\n    function unset(bytes12 pos) {\n        set(pos, 0);\n    }\n\n    function unset(address wat) {\n        set(indexes[wat], 0);\n    }\n\n    function poke() {\n        poke(0);\n    }\n\n    function poke(bytes32) note {\n        (val, has) = compute();\n    }\n\n    function compute() constant returns (bytes32, bool) {\n        bytes32[] memory wuts = new bytes32[](uint96(next) - 1);\n        uint96 ctr = 0;\n        for (uint96 i = 1; i < uint96(next); i++) {\n            if (values[bytes12(i)] != 0) {\n                var (wut, wuz) = DSValue(values[bytes12(i)]).peek();\n                if (wuz) {\n                    if (ctr == 0 || wut >= wuts[ctr - 1]) {\n                        wuts[ctr] = wut;\n                    } else {\n                        uint96 j = 0;\n                        while (wut >= wuts[j]) {\n                            j++;\n                        }\n                        for (uint96 k = ctr; k > j; k--) {\n                            wuts[k] = wuts[k - 1];\n                        }\n                        wuts[j] = wut;\n                    }\n                    ctr++;\n                }\n            }\n        }\n\n        if (ctr < min) return (val, false);\n\n        bytes32 value;\n        if (ctr % 2 == 0) {\n            uint128 val1 = uint128(wuts[(ctr / 2) - 1]);\n            uint128 val2 = uint128(wuts[ctr / 2]);\n            value = bytes32(wdiv(hadd(val1, val2), 2 ether));\n        } else {\n            value = wuts[(ctr - 1) / 2];\n        }\n\n        return (value, true);\n    }\n\n}",
  "sourcePath": "/Users/charlescrain/dev/superrare/truffle/contracts/Medianizer.sol",
  "compiler": {
    "name": "solc",
    "version": "0.4.24+commit.e67f0147.Emscripten.clang"
  },
  "schemaVersion": "2.0.1",
  "updatedAt": "2019-03-28T17:54:23.188Z"
}