{
  "contractName": "ERC20Metadata",
  "abi": [
    {
      "constant": false,
      "inputs": [
        {
          "name": "spender",
          "type": "address"
        },
        {
          "name": "value",
          "type": "uint256"
        }
      ],
      "name": "approve",
      "outputs": [
        {
          "name": "",
          "type": "bool"
        }
      ],
      "payable": false,
      "stateMutability": "nonpayable",
      "type": "function"
    },
    {
      "constant": true,
      "inputs": [],
      "name": "totalSupply",
      "outputs": [
        {
          "name": "",
          "type": "uint256"
        }
      ],
      "payable": false,
      "stateMutability": "view",
      "type": "function"
    },
    {
      "constant": false,
      "inputs": [
        {
          "name": "from",
          "type": "address"
        },
        {
          "name": "to",
          "type": "address"
        },
        {
          "name": "value",
          "type": "uint256"
        }
      ],
      "name": "transferFrom",
      "outputs": [
        {
          "name": "",
          "type": "bool"
        }
      ],
      "payable": false,
      "stateMutability": "nonpayable",
      "type": "function"
    },
    {
      "constant": false,
      "inputs": [
        {
          "name": "spender",
          "type": "address"
        },
        {
          "name": "addedValue",
          "type": "uint256"
        }
      ],
      "name": "increaseAllowance",
      "outputs": [
        {
          "name": "",
          "type": "bool"
        }
      ],
      "payable": false,
      "stateMutability": "nonpayable",
      "type": "function"
    },
    {
      "constant": true,
      "inputs": [
        {
          "name": "owner",
          "type": "address"
        }
      ],
      "name": "balanceOf",
      "outputs": [
        {
          "name": "",
          "type": "uint256"
        }
      ],
      "payable": false,
      "stateMutability": "view",
      "type": "function"
    },
    {
      "constant": false,
      "inputs": [],
      "name": "renounceOwnership",
      "outputs": [],
      "payable": false,
      "stateMutability": "nonpayable",
      "type": "function"
    },
    {
      "constant": true,
      "inputs": [],
      "name": "owner",
      "outputs": [
        {
          "name": "",
          "type": "address"
        }
      ],
      "payable": false,
      "stateMutability": "view",
      "type": "function"
    },
    {
      "constant": true,
      "inputs": [],
      "name": "isOwner",
      "outputs": [
        {
          "name": "",
          "type": "bool"
        }
      ],
      "payable": false,
      "stateMutability": "view",
      "type": "function"
    },
    {
      "constant": false,
      "inputs": [
        {
          "name": "spender",
          "type": "address"
        },
        {
          "name": "subtractedValue",
          "type": "uint256"
        }
      ],
      "name": "decreaseAllowance",
      "outputs": [
        {
          "name": "",
          "type": "bool"
        }
      ],
      "payable": false,
      "stateMutability": "nonpayable",
      "type": "function"
    },
    {
      "constant": false,
      "inputs": [
        {
          "name": "to",
          "type": "address"
        },
        {
          "name": "value",
          "type": "uint256"
        }
      ],
      "name": "transfer",
      "outputs": [
        {
          "name": "",
          "type": "bool"
        }
      ],
      "payable": false,
      "stateMutability": "nonpayable",
      "type": "function"
    },
    {
      "constant": true,
      "inputs": [
        {
          "name": "owner",
          "type": "address"
        },
        {
          "name": "spender",
          "type": "address"
        }
      ],
      "name": "allowance",
      "outputs": [
        {
          "name": "",
          "type": "uint256"
        }
      ],
      "payable": false,
      "stateMutability": "view",
      "type": "function"
    },
    {
      "constant": false,
      "inputs": [
        {
          "name": "newOwner",
          "type": "address"
        }
      ],
      "name": "transferOwnership",
      "outputs": [],
      "payable": false,
      "stateMutability": "nonpayable",
      "type": "function"
    },
    {
      "inputs": [
        {
          "name": "uri",
          "type": "string"
        }
      ],
      "payable": false,
      "stateMutability": "nonpayable",
      "type": "constructor"
    },
    {
      "anonymous": false,
      "inputs": [
        {
          "indexed": true,
          "name": "tokenURI",
          "type": "string"
        }
      ],
      "name": "TokenURIUpdated",
      "type": "event"
    },
    {
      "anonymous": false,
      "inputs": [
        {
          "indexed": true,
          "name": "previousOwner",
          "type": "address"
        },
        {
          "indexed": true,
          "name": "newOwner",
          "type": "address"
        }
      ],
      "name": "OwnershipTransferred",
      "type": "event"
    },
    {
      "anonymous": false,
      "inputs": [
        {
          "indexed": true,
          "name": "from",
          "type": "address"
        },
        {
          "indexed": true,
          "name": "to",
          "type": "address"
        },
        {
          "indexed": false,
          "name": "value",
          "type": "uint256"
        }
      ],
      "name": "Transfer",
      "type": "event"
    },
    {
      "anonymous": false,
      "inputs": [
        {
          "indexed": true,
          "name": "owner",
          "type": "address"
        },
        {
          "indexed": true,
          "name": "spender",
          "type": "address"
        },
        {
          "indexed": false,
          "name": "value",
          "type": "uint256"
        }
      ],
      "name": "Approval",
      "type": "event"
    },
    {
      "constant": true,
      "inputs": [],
      "name": "tokenURI",
      "outputs": [
        {
          "name": "",
          "type": "string"
        }
      ],
      "payable": false,
      "stateMutability": "view",
      "type": "function"
    },
    {
      "constant": false,
      "inputs": [
        {
          "name": "uri",
          "type": "string"
        }
      ],
      "name": "updateTokenURI",
      "outputs": [],
      "payable": false,
      "stateMutability": "nonpayable",
      "type": "function"
    }
  ],
  "bytecode": "0x608060405234801561001057600080fd5b50604051610b70380380610b70833981016040819052815160038054600160a060020a031916331790819055920191600160a060020a0316906000907f8be0079c531659141344cd1fd0a4f28419497f9722a3daafe3b4186f6b6457e0908290a3805161008490600490602084019061008b565b5050610126565b828054600181600116156101000203166002900490600052602060002090601f016020900481019282601f106100cc57805160ff19168380011785556100f9565b828001600101855582156100f9579182015b828111156100f95782518255916020019190600101906100de565b50610105929150610109565b5090565b61012391905b80821115610105576000815560010161010f565b90565b610a3b806101356000396000f3006080604052600436106100cf5763ffffffff7c0100000000000000000000000000000000000000000000000000000000600035041663095ea7b381146100d457806318160ddd1461010c57806323b872dd14610133578063395093511461015d5780633c130d901461018157806370a082311461020b578063715018a61461022c5780638da5cb5b146102435780638f32d59b1461027457806398cd615314610289578063a457c2d7146102e2578063a9059cbb14610306578063dd62ed3e1461032a578063f2fde38b14610351575b600080fd5b3480156100e057600080fd5b506100f8600160a060020a0360043516602435610372565b604080519115158252519081900360200190f35b34801561011857600080fd5b506101216103f0565b60408051918252519081900360200190f35b34801561013f57600080fd5b506100f8600160a060020a03600435811690602435166044356103f7565b34801561016957600080fd5b506100f8600160a060020a0360043516602435610494565b34801561018d57600080fd5b50610196610544565b6040805160208082528351818301528351919283929083019185019080838360005b838110156101d05781810151838201526020016101b8565b50505050905090810190601f1680156101fd5780820380516001836020036101000a031916815260200191505b509250505060405180910390f35b34801561021757600080fd5b50610121600160a060020a03600435166105da565b34801561023857600080fd5b506102416105f5565b005b34801561024f57600080fd5b5061025861065f565b60408051600160a060020a039092168252519081900360200190f35b34801561028057600080fd5b506100f861066e565b34801561029557600080fd5b506040805160206004803580820135601f810184900484028501840190955284845261024194369492936024939284019190819084018382808284375094975061067f9650505050505050565b3480156102ee57600080fd5b506100f8600160a060020a036004351660243561072c565b34801561031257600080fd5b506100f8600160a060020a0360043516602435610777565b34801561033657600080fd5b50610121600160a060020a036004358116906024351661078d565b34801561035d57600080fd5b50610241600160a060020a03600435166107b8565b6000600160a060020a038316151561038957600080fd5b336000818152600160209081526040808320600160a060020a03881680855290835292819020869055805186815290519293927f8c5be1e5ebec7d5bd14f71427d1e84f3dd0314c0f7b2291e5b200ac8c7c3b925929181900390910190a350600192915050565b6002545b90565b600160a060020a038316600090815260016020908152604080832033845290915281205482111561042757600080fd5b600160a060020a038416600090815260016020908152604080832033845290915290205461045b908363ffffffff6107d716565b600160a060020a038516600090815260016020908152604080832033845290915290205561048a8484846107ee565b5060019392505050565b6000600160a060020a03831615156104ab57600080fd5b336000908152600160209081526040808320600160a060020a03871684529091529020546104df908363ffffffff6108e016565b336000818152600160209081526040808320600160a060020a0389168085529083529281902085905580519485525191937f8c5be1e5ebec7d5bd14f71427d1e84f3dd0314c0f7b2291e5b200ac8c7c3b925929081900390910190a350600192915050565b60048054604080516020601f60026000196101006001881615020190951694909404938401819004810282018101909252828152606093909290918301828280156105d05780601f106105a5576101008083540402835291602001916105d0565b820191906000526020600020905b8154815290600101906020018083116105b357829003601f168201915b5050505050905090565b600160a060020a031660009081526020819052604090205490565b6105fd61066e565b151561060857600080fd5b600354604051600091600160a060020a0316907f8be0079c531659141344cd1fd0a4f28419497f9722a3daafe3b4186f6b6457e0908390a36003805473ffffffffffffffffffffffffffffffffffffffff19169055565b600354600160a060020a031690565b600354600160a060020a0316331490565b61068761066e565b151561069257600080fd5b806040518082805190602001908083835b602083106106c25780518252601f1990920191602091820191016106a3565b5181516020939093036101000a60001901801990911692169190911790526040519201829003822093507f3d25540fafb277423a5c9552c25096f7c0c69178c044fd61c947046f08fb09ca92506000919050a28051610728906004906020840190610977565b5050565b6000600160a060020a038316151561074357600080fd5b336000908152600160209081526040808320600160a060020a03871684529091529020546104df908363ffffffff6107d716565b60006107843384846107ee565b50600192915050565b600160a060020a03918216600090815260016020908152604080832093909416825291909152205490565b6107c061066e565b15156107cb57600080fd5b6107d4816108f9565b50565b600080838311156107e757600080fd5b5050900390565b600160a060020a03831660009081526020819052604090205481111561081357600080fd5b600160a060020a038216151561082857600080fd5b600160a060020a038316600090815260208190526040902054610851908263ffffffff6107d716565b600160a060020a038085166000908152602081905260408082209390935590841681522054610886908263ffffffff6108e016565b600160a060020a038084166000818152602081815260409182902094909455805185815290519193928716927fddf252ad1be2c89b69c2b068fc378daa952ba7f163c4a11628f55a4df523b3ef92918290030190a3505050565b6000828201838110156108f257600080fd5b9392505050565b600160a060020a038116151561090e57600080fd5b600354604051600160a060020a038084169216907f8be0079c531659141344cd1fd0a4f28419497f9722a3daafe3b4186f6b6457e090600090a36003805473ffffffffffffffffffffffffffffffffffffffff1916600160a060020a0392909216919091179055565b828054600181600116156101000203166002900490600052602060002090601f016020900481019282601f106109b857805160ff19168380011785556109e5565b828001600101855582156109e5579182015b828111156109e55782518255916020019190600101906109ca565b506109f19291506109f5565b5090565b6103f491905b808211156109f157600081556001016109fb5600a165627a7a723058203a23c8ffc19e1c60c7713818d47eabc865a5b846ca6c17146f86decaaf92f07f0029",
  "source": "pragma solidity ^0.4.24;\n\nimport \"../node_modules/openzeppelin-solidity/contracts/token/ERC20/ERC20.sol\";\nimport \"../node_modules/openzeppelin-solidity/contracts/ownership/Ownable.sol\";\nimport \"../node_modules/openzeppelin-solidity/contracts/math/SafeMath.sol\";\n\ncontract ERC20Metadata is ERC20, Ownable {\n    using SafeMath for uint256;\n\n    // String uri holding the metadata for the token.\n    string private _uri;\n\n    event TokenURIUpdated(string indexed tokenURI);\n\n    constructor(\n      string memory uri\n    )\n    {\n        _uri = uri;\n    }\n\n    /**\n     * @dev Update the token metadata URI.\n     * @return string\n     */\n    function tokenURI() external view returns (string) {\n        return _uri;\n    }\n\n    /**\n     * @dev Update the token metadata URI.\n     * @param uri string new uri.\n     */\n    function updateTokenURI(string memory uri) public onlyOwner {\n        emit TokenURIUpdated(uri);\n        _uri = uri;\n    }\n\n}",
  "sourcePath": "/Users/charlescrain/dev/pixura-contracts/truffle/contracts/ERC20Metadata.sol",
  "compiler": {
    "name": "solc",
    "version": "0.4.24+commit.e67f0147.Emscripten.clang"
  },
  "schemaVersion": "2.0.1",
  "updatedAt": "2019-08-06T23:43:51.863Z"
}