{
  "contractName": "ERC20CappedMetadata",
  "abi": [
    {
      "constant": true,
      "inputs": [],
      "name": "name",
      "outputs": [
        {
          "name": "",
          "type": "string"
        }
      ],
      "payable": false,
      "stateMutability": "view",
      "type": "function"
    },
    {
      "constant": false,
      "inputs": [
        {
          "name": "spender",
          "type": "address"
        },
        {
          "name": "value",
          "type": "uint256"
        }
      ],
      "name": "approve",
      "outputs": [
        {
          "name": "",
          "type": "bool"
        }
      ],
      "payable": false,
      "stateMutability": "nonpayable",
      "type": "function"
    },
    {
      "constant": true,
      "inputs": [],
      "name": "totalSupply",
      "outputs": [
        {
          "name": "",
          "type": "uint256"
        }
      ],
      "payable": false,
      "stateMutability": "view",
      "type": "function"
    },
    {
      "constant": false,
      "inputs": [
        {
          "name": "from",
          "type": "address"
        },
        {
          "name": "to",
          "type": "address"
        },
        {
          "name": "value",
          "type": "uint256"
        }
      ],
      "name": "transferFrom",
      "outputs": [
        {
          "name": "",
          "type": "bool"
        }
      ],
      "payable": false,
      "stateMutability": "nonpayable",
      "type": "function"
    },
    {
      "constant": true,
      "inputs": [],
      "name": "decimals",
      "outputs": [
        {
          "name": "",
          "type": "uint8"
        }
      ],
      "payable": false,
      "stateMutability": "view",
      "type": "function"
    },
    {
      "constant": true,
      "inputs": [],
      "name": "cap",
      "outputs": [
        {
          "name": "",
          "type": "uint256"
        }
      ],
      "payable": false,
      "stateMutability": "view",
      "type": "function"
    },
    {
      "constant": false,
      "inputs": [
        {
          "name": "spender",
          "type": "address"
        },
        {
          "name": "addedValue",
          "type": "uint256"
        }
      ],
      "name": "increaseAllowance",
      "outputs": [
        {
          "name": "",
          "type": "bool"
        }
      ],
      "payable": false,
      "stateMutability": "nonpayable",
      "type": "function"
    },
    {
      "constant": true,
      "inputs": [],
      "name": "tokenURI",
      "outputs": [
        {
          "name": "",
          "type": "string"
        }
      ],
      "payable": false,
      "stateMutability": "view",
      "type": "function"
    },
    {
      "constant": false,
      "inputs": [
        {
          "name": "to",
          "type": "address"
        },
        {
          "name": "value",
          "type": "uint256"
        }
      ],
      "name": "mint",
      "outputs": [
        {
          "name": "",
          "type": "bool"
        }
      ],
      "payable": false,
      "stateMutability": "nonpayable",
      "type": "function"
    },
    {
      "constant": true,
      "inputs": [
        {
          "name": "owner",
          "type": "address"
        }
      ],
      "name": "balanceOf",
      "outputs": [
        {
          "name": "",
          "type": "uint256"
        }
      ],
      "payable": false,
      "stateMutability": "view",
      "type": "function"
    },
    {
      "constant": false,
      "inputs": [],
      "name": "renounceOwnership",
      "outputs": [],
      "payable": false,
      "stateMutability": "nonpayable",
      "type": "function"
    },
    {
      "constant": true,
      "inputs": [],
      "name": "owner",
      "outputs": [
        {
          "name": "",
          "type": "address"
        }
      ],
      "payable": false,
      "stateMutability": "view",
      "type": "function"
    },
    {
      "constant": true,
      "inputs": [],
      "name": "isOwner",
      "outputs": [
        {
          "name": "",
          "type": "bool"
        }
      ],
      "payable": false,
      "stateMutability": "view",
      "type": "function"
    },
    {
      "constant": true,
      "inputs": [],
      "name": "symbol",
      "outputs": [
        {
          "name": "",
          "type": "string"
        }
      ],
      "payable": false,
      "stateMutability": "view",
      "type": "function"
    },
    {
      "constant": false,
      "inputs": [
        {
          "name": "account",
          "type": "address"
        }
      ],
      "name": "addMinter",
      "outputs": [],
      "payable": false,
      "stateMutability": "nonpayable",
      "type": "function"
    },
    {
      "constant": false,
      "inputs": [],
      "name": "renounceMinter",
      "outputs": [],
      "payable": false,
      "stateMutability": "nonpayable",
      "type": "function"
    },
    {
      "constant": false,
      "inputs": [
        {
          "name": "uri",
          "type": "string"
        }
      ],
      "name": "updateTokenURI",
      "outputs": [],
      "payable": false,
      "stateMutability": "nonpayable",
      "type": "function"
    },
    {
      "constant": false,
      "inputs": [
        {
          "name": "spender",
          "type": "address"
        },
        {
          "name": "subtractedValue",
          "type": "uint256"
        }
      ],
      "name": "decreaseAllowance",
      "outputs": [
        {
          "name": "",
          "type": "bool"
        }
      ],
      "payable": false,
      "stateMutability": "nonpayable",
      "type": "function"
    },
    {
      "constant": false,
      "inputs": [
        {
          "name": "to",
          "type": "address"
        },
        {
          "name": "value",
          "type": "uint256"
        }
      ],
      "name": "transfer",
      "outputs": [
        {
          "name": "",
          "type": "bool"
        }
      ],
      "payable": false,
      "stateMutability": "nonpayable",
      "type": "function"
    },
    {
      "constant": true,
      "inputs": [
        {
          "name": "account",
          "type": "address"
        }
      ],
      "name": "isMinter",
      "outputs": [
        {
          "name": "",
          "type": "bool"
        }
      ],
      "payable": false,
      "stateMutability": "view",
      "type": "function"
    },
    {
      "constant": true,
      "inputs": [
        {
          "name": "owner",
          "type": "address"
        },
        {
          "name": "spender",
          "type": "address"
        }
      ],
      "name": "allowance",
      "outputs": [
        {
          "name": "",
          "type": "uint256"
        }
      ],
      "payable": false,
      "stateMutability": "view",
      "type": "function"
    },
    {
      "constant": false,
      "inputs": [
        {
          "name": "newOwner",
          "type": "address"
        }
      ],
      "name": "transferOwnership",
      "outputs": [],
      "payable": false,
      "stateMutability": "nonpayable",
      "type": "function"
    },
    {
      "inputs": [
        {
          "name": "name",
          "type": "string"
        },
        {
          "name": "symbol",
          "type": "string"
        },
        {
          "name": "decimals",
          "type": "uint8"
        },
        {
          "name": "uri",
          "type": "string"
        },
        {
          "name": "cap",
          "type": "uint256"
        }
      ],
      "payable": false,
      "stateMutability": "nonpayable",
      "type": "constructor"
    },
    {
      "anonymous": false,
      "inputs": [
        {
          "indexed": true,
          "name": "tokenURI",
          "type": "string"
        }
      ],
      "name": "TokenURIUpdated",
      "type": "event"
    },
    {
      "anonymous": false,
      "inputs": [
        {
          "indexed": true,
          "name": "previousOwner",
          "type": "address"
        },
        {
          "indexed": true,
          "name": "newOwner",
          "type": "address"
        }
      ],
      "name": "OwnershipTransferred",
      "type": "event"
    },
    {
      "anonymous": false,
      "inputs": [
        {
          "indexed": true,
          "name": "account",
          "type": "address"
        }
      ],
      "name": "MinterAdded",
      "type": "event"
    },
    {
      "anonymous": false,
      "inputs": [
        {
          "indexed": true,
          "name": "account",
          "type": "address"
        }
      ],
      "name": "MinterRemoved",
      "type": "event"
    },
    {
      "anonymous": false,
      "inputs": [
        {
          "indexed": true,
          "name": "from",
          "type": "address"
        },
        {
          "indexed": true,
          "name": "to",
          "type": "address"
        },
        {
          "indexed": false,
          "name": "value",
          "type": "uint256"
        }
      ],
      "name": "Transfer",
      "type": "event"
    },
    {
      "anonymous": false,
      "inputs": [
        {
          "indexed": true,
          "name": "owner",
          "type": "address"
        },
        {
          "indexed": true,
          "name": "spender",
          "type": "address"
        },
        {
          "indexed": false,
          "name": "value",
          "type": "uint256"
        }
      ],
      "name": "Approval",
      "type": "event"
    }
  ],
  "bytecode": "0x60806040523480156200001157600080fd5b50604051620011c3380380620011c3833981016040908152815160208301519183015160608401516080850151928501949384019391929101908185858584620000643364010000000062000129810204565b600081116200007257600080fd5b60045582516200008a9060059060208601906200020e565b508151620000a09060069060208501906200020e565b506007805460ff191660ff929092169190911761010060a860020a0319166101003381029190911791829055604051600160a060020a0391909204169250600091507f8be0079c531659141344cd1fd0a4f28419497f9722a3daafe3b4186f6b6457e0908290a380516200011c9060089060208401906200020e565b50505050505050620002b3565b6200014460038264010000000062000da26200017b82021704565b604051600160a060020a038216907f6ae172837ea30b801fbfcdd4108aa1d5bf8ff775444fd70256b44e6bf3dfc3f690600090a250565b600160a060020a03811615156200019157600080fd5b620001a68282640100000000620001d6810204565b15620001b157600080fd5b600160a060020a0316600090815260209190915260409020805460ff19166001179055565b6000600160a060020a0382161515620001ee57600080fd5b50600160a060020a03166000908152602091909152604090205460ff1690565b828054600181600116156101000203166002900490600052602060002090601f016020900481019282601f106200025157805160ff191683800117855562000281565b8280016001018555821562000281579182015b828111156200028157825182559160200191906001019062000264565b506200028f92915062000293565b5090565b620002b091905b808211156200028f57600081556001016200029a565b90565b610f0080620002c36000396000f3006080604052600436106101275763ffffffff7c010000000000000000000000000000000000000000000000000000000060003504166306fdde03811461012c578063095ea7b3146101b657806318160ddd146101ee57806323b872dd14610215578063313ce5671461023f578063355274ea1461026a578063395093511461027f5780633c130d90146102a357806340c10f19146102b857806370a08231146102dc578063715018a6146102fd5780638da5cb5b146103145780638f32d59b1461034557806395d89b411461035a578063983b2d561461036f578063986502751461039057806398cd6153146103a5578063a457c2d7146103fe578063a9059cbb14610422578063aa271e1a14610446578063dd62ed3e14610467578063f2fde38b1461048e575b600080fd5b34801561013857600080fd5b506101416104af565b6040805160208082528351818301528351919283929083019185019080838360005b8381101561017b578181015183820152602001610163565b50505050905090810190601f1680156101a85780820380516001836020036101000a031916815260200191505b509250505060405180910390f35b3480156101c257600080fd5b506101da600160a060020a0360043516602435610546565b604080519115158252519081900360200190f35b3480156101fa57600080fd5b506102036105c4565b60408051918252519081900360200190f35b34801561022157600080fd5b506101da600160a060020a03600435811690602435166044356105ca565b34801561024b57600080fd5b50610254610667565b6040805160ff9092168252519081900360200190f35b34801561027657600080fd5b50610203610670565b34801561028b57600080fd5b506101da600160a060020a0360043516602435610676565b3480156102af57600080fd5b50610141610726565b3480156102c457600080fd5b506101da600160a060020a0360043516602435610787565b3480156102e857600080fd5b50610203600160a060020a03600435166107b0565b34801561030957600080fd5b506103126107cb565b005b34801561032057600080fd5b5061032961083b565b60408051600160a060020a039092168252519081900360200190f35b34801561035157600080fd5b506101da61084f565b34801561036657600080fd5b50610141610865565b34801561037b57600080fd5b50610312600160a060020a03600435166108c6565b34801561039c57600080fd5b506103126108e6565b3480156103b157600080fd5b506040805160206004803580820135601f81018490048402850184019095528484526103129436949293602493928401919081908401838280828437509497506108f19650505050505050565b34801561040a57600080fd5b506101da600160a060020a036004351660243561099e565b34801561042e57600080fd5b506101da600160a060020a03600435166024356109e9565b34801561045257600080fd5b506101da600160a060020a03600435166109f6565b34801561047357600080fd5b50610203600160a060020a0360043581169060243516610a0f565b34801561049a57600080fd5b50610312600160a060020a0360043516610a3a565b60058054604080516020601f600260001961010060018816150201909516949094049384018190048102820181019092528281526060939092909183018282801561053b5780601f106105105761010080835404028352916020019161053b565b820191906000526020600020905b81548152906001019060200180831161051e57829003601f168201915b505050505090505b90565b6000600160a060020a038316151561055d57600080fd5b336000818152600160209081526040808320600160a060020a03881680855290835292819020869055805186815290519293927f8c5be1e5ebec7d5bd14f71427d1e84f3dd0314c0f7b2291e5b200ac8c7c3b925929181900390910190a350600192915050565b60025490565b600160a060020a03831660009081526001602090815260408083203384529091528120548211156105fa57600080fd5b600160a060020a038416600090815260016020908152604080832033845290915290205461062e908363ffffffff610a5616565b600160a060020a038516600090815260016020908152604080832033845290915290205561065d848484610a6d565b5060019392505050565b60075460ff1690565b60045490565b6000600160a060020a038316151561068d57600080fd5b336000908152600160209081526040808320600160a060020a03871684529091529020546106c1908363ffffffff610b5f16565b336000818152600160209081526040808320600160a060020a0389168085529083529281902085905580519485525191937f8c5be1e5ebec7d5bd14f71427d1e84f3dd0314c0f7b2291e5b200ac8c7c3b925929081900390910190a350600192915050565b60088054604080516020601f600260001961010060018816150201909516949094049384018190048102820181019092528281526060939092909183018282801561053b5780601f106105105761010080835404028352916020019161053b565b6000610792336109f6565b151561079d57600080fd5b6107a78383610b78565b50600192915050565b600160a060020a031660009081526020819052604090205490565b6107d361084f565b15156107de57600080fd5b6007546040516000916101009004600160a060020a0316907f8be0079c531659141344cd1fd0a4f28419497f9722a3daafe3b4186f6b6457e0908390a36007805474ffffffffffffffffffffffffffffffffffffffff0019169055565b6007546101009004600160a060020a031690565b6007546101009004600160a060020a0316331490565b60068054604080516020601f600260001961010060018816150201909516949094049384018190048102820181019092528281526060939092909183018282801561053b5780601f106105105761010080835404028352916020019161053b565b6108cf336109f6565b15156108da57600080fd5b6108e381610ba8565b50565b6108ef33610bf0565b565b6108f961084f565b151561090457600080fd5b806040518082805190602001908083835b602083106109345780518252601f199092019160209182019101610915565b5181516020939093036101000a60001901801990911692169190911790526040519201829003822093507f3d25540fafb277423a5c9552c25096f7c0c69178c044fd61c947046f08fb09ca92506000919050a2805161099a906008906020840190610e3c565b5050565b6000600160a060020a03831615156109b557600080fd5b336000908152600160209081526040808320600160a060020a03871684529091529020546106c1908363ffffffff610a5616565b60006107a7338484610a6d565b6000610a0960038363ffffffff610c3816565b92915050565b600160a060020a03918216600090815260016020908152604080832093909416825291909152205490565b610a4261084f565b1515610a4d57600080fd5b6108e381610c6f565b60008083831115610a6657600080fd5b5050900390565b600160a060020a038316600090815260208190526040902054811115610a9257600080fd5b600160a060020a0382161515610aa757600080fd5b600160a060020a038316600090815260208190526040902054610ad0908263ffffffff610a5616565b600160a060020a038085166000908152602081905260408082209390935590841681522054610b05908263ffffffff610b5f16565b600160a060020a038084166000818152602081815260409182902094909455805185815290519193928716927fddf252ad1be2c89b69c2b068fc378daa952ba7f163c4a11628f55a4df523b3ef92918290030190a3505050565b600082820183811015610b7157600080fd5b9392505050565b600454610b9382610b876105c4565b9063ffffffff610b5f16565b1115610b9e57600080fd5b61099a8282610cf8565b610bb960038263ffffffff610da216565b604051600160a060020a038216907f6ae172837ea30b801fbfcdd4108aa1d5bf8ff775444fd70256b44e6bf3dfc3f690600090a250565b610c0160038263ffffffff610df016565b604051600160a060020a038216907fe94479a9f7e1952cc78f2d6baab678adc1b772d936c6583def489e524cb6669290600090a250565b6000600160a060020a0382161515610c4f57600080fd5b50600160a060020a03166000908152602091909152604090205460ff1690565b600160a060020a0381161515610c8457600080fd5b600754604051600160a060020a0380841692610100900416907f8be0079c531659141344cd1fd0a4f28419497f9722a3daafe3b4186f6b6457e090600090a360078054600160a060020a039092166101000274ffffffffffffffffffffffffffffffffffffffff0019909216919091179055565b600160a060020a0382161515610d0d57600080fd5b600254610d20908263ffffffff610b5f16565b600255600160a060020a038216600090815260208190526040902054610d4c908263ffffffff610b5f16565b600160a060020a0383166000818152602081815260408083209490945583518581529351929391927fddf252ad1be2c89b69c2b068fc378daa952ba7f163c4a11628f55a4df523b3ef9281900390910190a35050565b600160a060020a0381161515610db757600080fd5b610dc18282610c38565b15610dcb57600080fd5b600160a060020a0316600090815260209190915260409020805460ff19166001179055565b600160a060020a0381161515610e0557600080fd5b610e0f8282610c38565b1515610e1a57600080fd5b600160a060020a0316600090815260209190915260409020805460ff19169055565b828054600181600116156101000203166002900490600052602060002090601f016020900481019282601f10610e7d57805160ff1916838001178555610eaa565b82800160010185558215610eaa579182015b82811115610eaa578251825591602001919060010190610e8f565b50610eb6929150610eba565b5090565b61054391905b80821115610eb65760008155600101610ec05600a165627a7a723058202e798c2f8abcef6bd9f8fbcd21a77383a70ddb5a85851cad77c29b8e20351d860029",
  "source": "pragma solidity ^0.4.24;\n\nimport \"../node_modules/openzeppelin-solidity/contracts/token/ERC20/ERC20Capped.sol\";\nimport \"../node_modules/openzeppelin-solidity/contracts/token/ERC20/ERC20Detailed.sol\";\nimport \"./ERC20Metadata.sol\";\nimport \"../node_modules/openzeppelin-solidity/contracts/math/SafeMath.sol\";\n\ncontract ERC20CappedMetadata is ERC20Capped, ERC20Detailed, ERC20Metadata {\n    using SafeMath for uint256;\n\n    constructor(\n      string memory name,\n      string memory symbol,\n      uint8 decimals,\n      string memory uri,\n      uint256 cap\n    )\n    ERC20Capped(cap)\n    ERC20Detailed(name, symbol, decimals)\n    ERC20Metadata(uri)\n    { }\n}",
  "sourcePath": "/Users/charlescrain/dev/pixura-contracts/truffle/contracts/ERC20CappedMetadata.sol",
  "compiler": {
    "name": "solc",
    "version": "0.4.24+commit.e67f0147.Emscripten.clang"
  },
  "schemaVersion": "2.0.1",
  "updatedAt": "2019-07-08T22:27:04.520Z"
}