{
  "contractName": "ERC20MintableMetadata",
  "abi": [
    {
      "constant": true,
      "inputs": [],
      "name": "name",
      "outputs": [
        {
          "name": "",
          "type": "string"
        }
      ],
      "payable": false,
      "stateMutability": "view",
      "type": "function"
    },
    {
      "constant": false,
      "inputs": [
        {
          "name": "spender",
          "type": "address"
        },
        {
          "name": "value",
          "type": "uint256"
        }
      ],
      "name": "approve",
      "outputs": [
        {
          "name": "",
          "type": "bool"
        }
      ],
      "payable": false,
      "stateMutability": "nonpayable",
      "type": "function"
    },
    {
      "constant": true,
      "inputs": [],
      "name": "totalSupply",
      "outputs": [
        {
          "name": "",
          "type": "uint256"
        }
      ],
      "payable": false,
      "stateMutability": "view",
      "type": "function"
    },
    {
      "constant": false,
      "inputs": [
        {
          "name": "from",
          "type": "address"
        },
        {
          "name": "to",
          "type": "address"
        },
        {
          "name": "value",
          "type": "uint256"
        }
      ],
      "name": "transferFrom",
      "outputs": [
        {
          "name": "",
          "type": "bool"
        }
      ],
      "payable": false,
      "stateMutability": "nonpayable",
      "type": "function"
    },
    {
      "constant": true,
      "inputs": [],
      "name": "decimals",
      "outputs": [
        {
          "name": "",
          "type": "uint8"
        }
      ],
      "payable": false,
      "stateMutability": "view",
      "type": "function"
    },
    {
      "constant": false,
      "inputs": [
        {
          "name": "spender",
          "type": "address"
        },
        {
          "name": "addedValue",
          "type": "uint256"
        }
      ],
      "name": "increaseAllowance",
      "outputs": [
        {
          "name": "",
          "type": "bool"
        }
      ],
      "payable": false,
      "stateMutability": "nonpayable",
      "type": "function"
    },
    {
      "constant": true,
      "inputs": [],
      "name": "tokenURI",
      "outputs": [
        {
          "name": "",
          "type": "string"
        }
      ],
      "payable": false,
      "stateMutability": "view",
      "type": "function"
    },
    {
      "constant": false,
      "inputs": [
        {
          "name": "to",
          "type": "address"
        },
        {
          "name": "value",
          "type": "uint256"
        }
      ],
      "name": "mint",
      "outputs": [
        {
          "name": "",
          "type": "bool"
        }
      ],
      "payable": false,
      "stateMutability": "nonpayable",
      "type": "function"
    },
    {
      "constant": true,
      "inputs": [
        {
          "name": "owner",
          "type": "address"
        }
      ],
      "name": "balanceOf",
      "outputs": [
        {
          "name": "",
          "type": "uint256"
        }
      ],
      "payable": false,
      "stateMutability": "view",
      "type": "function"
    },
    {
      "constant": false,
      "inputs": [],
      "name": "renounceOwnership",
      "outputs": [],
      "payable": false,
      "stateMutability": "nonpayable",
      "type": "function"
    },
    {
      "constant": true,
      "inputs": [],
      "name": "owner",
      "outputs": [
        {
          "name": "",
          "type": "address"
        }
      ],
      "payable": false,
      "stateMutability": "view",
      "type": "function"
    },
    {
      "constant": true,
      "inputs": [],
      "name": "isOwner",
      "outputs": [
        {
          "name": "",
          "type": "bool"
        }
      ],
      "payable": false,
      "stateMutability": "view",
      "type": "function"
    },
    {
      "constant": true,
      "inputs": [],
      "name": "symbol",
      "outputs": [
        {
          "name": "",
          "type": "string"
        }
      ],
      "payable": false,
      "stateMutability": "view",
      "type": "function"
    },
    {
      "constant": false,
      "inputs": [
        {
          "name": "account",
          "type": "address"
        }
      ],
      "name": "addMinter",
      "outputs": [],
      "payable": false,
      "stateMutability": "nonpayable",
      "type": "function"
    },
    {
      "constant": false,
      "inputs": [],
      "name": "renounceMinter",
      "outputs": [],
      "payable": false,
      "stateMutability": "nonpayable",
      "type": "function"
    },
    {
      "constant": false,
      "inputs": [
        {
          "name": "uri",
          "type": "string"
        }
      ],
      "name": "updateTokenURI",
      "outputs": [],
      "payable": false,
      "stateMutability": "nonpayable",
      "type": "function"
    },
    {
      "constant": false,
      "inputs": [
        {
          "name": "spender",
          "type": "address"
        },
        {
          "name": "subtractedValue",
          "type": "uint256"
        }
      ],
      "name": "decreaseAllowance",
      "outputs": [
        {
          "name": "",
          "type": "bool"
        }
      ],
      "payable": false,
      "stateMutability": "nonpayable",
      "type": "function"
    },
    {
      "constant": false,
      "inputs": [
        {
          "name": "to",
          "type": "address"
        },
        {
          "name": "value",
          "type": "uint256"
        }
      ],
      "name": "transfer",
      "outputs": [
        {
          "name": "",
          "type": "bool"
        }
      ],
      "payable": false,
      "stateMutability": "nonpayable",
      "type": "function"
    },
    {
      "constant": true,
      "inputs": [
        {
          "name": "account",
          "type": "address"
        }
      ],
      "name": "isMinter",
      "outputs": [
        {
          "name": "",
          "type": "bool"
        }
      ],
      "payable": false,
      "stateMutability": "view",
      "type": "function"
    },
    {
      "constant": true,
      "inputs": [
        {
          "name": "owner",
          "type": "address"
        },
        {
          "name": "spender",
          "type": "address"
        }
      ],
      "name": "allowance",
      "outputs": [
        {
          "name": "",
          "type": "uint256"
        }
      ],
      "payable": false,
      "stateMutability": "view",
      "type": "function"
    },
    {
      "constant": false,
      "inputs": [
        {
          "name": "newOwner",
          "type": "address"
        }
      ],
      "name": "transferOwnership",
      "outputs": [],
      "payable": false,
      "stateMutability": "nonpayable",
      "type": "function"
    },
    {
      "inputs": [
        {
          "name": "name",
          "type": "string"
        },
        {
          "name": "symbol",
          "type": "string"
        },
        {
          "name": "decimals",
          "type": "uint8"
        },
        {
          "name": "uri",
          "type": "string"
        }
      ],
      "payable": false,
      "stateMutability": "nonpayable",
      "type": "constructor"
    },
    {
      "anonymous": false,
      "inputs": [
        {
          "indexed": true,
          "name": "tokenURI",
          "type": "string"
        }
      ],
      "name": "TokenURIUpdated",
      "type": "event"
    },
    {
      "anonymous": false,
      "inputs": [
        {
          "indexed": true,
          "name": "previousOwner",
          "type": "address"
        },
        {
          "indexed": true,
          "name": "newOwner",
          "type": "address"
        }
      ],
      "name": "OwnershipTransferred",
      "type": "event"
    },
    {
      "anonymous": false,
      "inputs": [
        {
          "indexed": true,
          "name": "account",
          "type": "address"
        }
      ],
      "name": "MinterAdded",
      "type": "event"
    },
    {
      "anonymous": false,
      "inputs": [
        {
          "indexed": true,
          "name": "account",
          "type": "address"
        }
      ],
      "name": "MinterRemoved",
      "type": "event"
    },
    {
      "anonymous": false,
      "inputs": [
        {
          "indexed": true,
          "name": "from",
          "type": "address"
        },
        {
          "indexed": true,
          "name": "to",
          "type": "address"
        },
        {
          "indexed": false,
          "name": "value",
          "type": "uint256"
        }
      ],
      "name": "Transfer",
      "type": "event"
    },
    {
      "anonymous": false,
      "inputs": [
        {
          "indexed": true,
          "name": "owner",
          "type": "address"
        },
        {
          "indexed": true,
          "name": "spender",
          "type": "address"
        },
        {
          "indexed": false,
          "name": "value",
          "type": "uint256"
        }
      ],
      "name": "Approval",
      "type": "event"
    }
  ],
  "bytecode": "0x60806040523480156200001157600080fd5b506040516200115338038062001153833981016040908152815160208301519183015160608401519184019392830192909101808484846200005c336401000000006200010f810204565b825162000071906004906020860190620001f4565b50815162000087906005906020850190620001f4565b506006805460ff191660ff929092169190911761010060a860020a0319166101003381029190911791829055604051600160a060020a0391909204169250600091507f8be0079c531659141344cd1fd0a4f28419497f9722a3daafe3b4186f6b6457e0908290a3805162000103906007906020840190620001f4565b50505050505062000299565b6200012a60038264010000000062000d4c6200016182021704565b604051600160a060020a038216907f6ae172837ea30b801fbfcdd4108aa1d5bf8ff775444fd70256b44e6bf3dfc3f690600090a250565b600160a060020a03811615156200017757600080fd5b6200018c8282640100000000620001bc810204565b156200019757600080fd5b600160a060020a0316600090815260209190915260409020805460ff19166001179055565b6000600160a060020a0382161515620001d457600080fd5b50600160a060020a03166000908152602091909152604090205460ff1690565b828054600181600116156101000203166002900490600052602060002090601f016020900481019282601f106200023757805160ff191683800117855562000267565b8280016001018555821562000267579182015b82811115620002675782518255916020019190600101906200024a565b506200027592915062000279565b5090565b6200029691905b8082111562000275576000815560010162000280565b90565b610eaa80620002a96000396000f30060806040526004361061011c5763ffffffff7c010000000000000000000000000000000000000000000000000000000060003504166306fdde038114610121578063095ea7b3146101ab57806318160ddd146101e357806323b872dd1461020a578063313ce56714610234578063395093511461025f5780633c130d901461028357806340c10f191461029857806370a08231146102bc578063715018a6146102dd5780638da5cb5b146102f45780638f32d59b1461032557806395d89b411461033a578063983b2d561461034f578063986502751461037057806398cd615314610385578063a457c2d7146103de578063a9059cbb14610402578063aa271e1a14610426578063dd62ed3e14610447578063f2fde38b1461046e575b600080fd5b34801561012d57600080fd5b5061013661048f565b6040805160208082528351818301528351919283929083019185019080838360005b83811015610170578181015183820152602001610158565b50505050905090810190601f16801561019d5780820380516001836020036101000a031916815260200191505b509250505060405180910390f35b3480156101b757600080fd5b506101cf600160a060020a0360043516602435610526565b604080519115158252519081900360200190f35b3480156101ef57600080fd5b506101f86105a4565b60408051918252519081900360200190f35b34801561021657600080fd5b506101cf600160a060020a03600435811690602435166044356105aa565b34801561024057600080fd5b50610249610647565b6040805160ff9092168252519081900360200190f35b34801561026b57600080fd5b506101cf600160a060020a0360043516602435610650565b34801561028f57600080fd5b50610136610700565b3480156102a457600080fd5b506101cf600160a060020a0360043516602435610761565b3480156102c857600080fd5b506101f8600160a060020a036004351661078a565b3480156102e957600080fd5b506102f26107a5565b005b34801561030057600080fd5b50610309610815565b60408051600160a060020a039092168252519081900360200190f35b34801561033157600080fd5b506101cf610829565b34801561034657600080fd5b5061013661083f565b34801561035b57600080fd5b506102f2600160a060020a03600435166108a0565b34801561037c57600080fd5b506102f26108c0565b34801561039157600080fd5b506040805160206004803580820135601f81018490048402850184019095528484526102f29436949293602493928401919081908401838280828437509497506108cb9650505050505050565b3480156103ea57600080fd5b506101cf600160a060020a0360043516602435610978565b34801561040e57600080fd5b506101cf600160a060020a03600435166024356109c3565b34801561043257600080fd5b506101cf600160a060020a03600435166109d0565b34801561045357600080fd5b506101f8600160a060020a03600435811690602435166109e9565b34801561047a57600080fd5b506102f2600160a060020a0360043516610a14565b60048054604080516020601f600260001961010060018816150201909516949094049384018190048102820181019092528281526060939092909183018282801561051b5780601f106104f05761010080835404028352916020019161051b565b820191906000526020600020905b8154815290600101906020018083116104fe57829003601f168201915b505050505090505b90565b6000600160a060020a038316151561053d57600080fd5b336000818152600160209081526040808320600160a060020a03881680855290835292819020869055805186815290519293927f8c5be1e5ebec7d5bd14f71427d1e84f3dd0314c0f7b2291e5b200ac8c7c3b925929181900390910190a350600192915050565b60025490565b600160a060020a03831660009081526001602090815260408083203384529091528120548211156105da57600080fd5b600160a060020a038416600090815260016020908152604080832033845290915290205461060e908363ffffffff610a3016565b600160a060020a038516600090815260016020908152604080832033845290915290205561063d848484610a47565b5060019392505050565b60065460ff1690565b6000600160a060020a038316151561066757600080fd5b336000908152600160209081526040808320600160a060020a038716845290915290205461069b908363ffffffff610b3916565b336000818152600160209081526040808320600160a060020a0389168085529083529281902085905580519485525191937f8c5be1e5ebec7d5bd14f71427d1e84f3dd0314c0f7b2291e5b200ac8c7c3b925929081900390910190a350600192915050565b60078054604080516020601f600260001961010060018816150201909516949094049384018190048102820181019092528281526060939092909183018282801561051b5780601f106104f05761010080835404028352916020019161051b565b600061076c336109d0565b151561077757600080fd5b6107818383610b52565b50600192915050565b600160a060020a031660009081526020819052604090205490565b6107ad610829565b15156107b857600080fd5b6006546040516000916101009004600160a060020a0316907f8be0079c531659141344cd1fd0a4f28419497f9722a3daafe3b4186f6b6457e0908390a36006805474ffffffffffffffffffffffffffffffffffffffff0019169055565b6006546101009004600160a060020a031690565b6006546101009004600160a060020a0316331490565b60058054604080516020601f600260001961010060018816150201909516949094049384018190048102820181019092528281526060939092909183018282801561051b5780601f106104f05761010080835404028352916020019161051b565b6108a9336109d0565b15156108b457600080fd5b6108bd81610bfc565b50565b6108c933610c44565b565b6108d3610829565b15156108de57600080fd5b806040518082805190602001908083835b6020831061090e5780518252601f1990920191602091820191016108ef565b5181516020939093036101000a60001901801990911692169190911790526040519201829003822093507f3d25540fafb277423a5c9552c25096f7c0c69178c044fd61c947046f08fb09ca92506000919050a28051610974906007906020840190610de6565b5050565b6000600160a060020a038316151561098f57600080fd5b336000908152600160209081526040808320600160a060020a038716845290915290205461069b908363ffffffff610a3016565b6000610781338484610a47565b60006109e360038363ffffffff610c8c16565b92915050565b600160a060020a03918216600090815260016020908152604080832093909416825291909152205490565b610a1c610829565b1515610a2757600080fd5b6108bd81610cc3565b60008083831115610a4057600080fd5b5050900390565b600160a060020a038316600090815260208190526040902054811115610a6c57600080fd5b600160a060020a0382161515610a8157600080fd5b600160a060020a038316600090815260208190526040902054610aaa908263ffffffff610a3016565b600160a060020a038085166000908152602081905260408082209390935590841681522054610adf908263ffffffff610b3916565b600160a060020a038084166000818152602081815260409182902094909455805185815290519193928716927fddf252ad1be2c89b69c2b068fc378daa952ba7f163c4a11628f55a4df523b3ef92918290030190a3505050565b600082820183811015610b4b57600080fd5b9392505050565b600160a060020a0382161515610b6757600080fd5b600254610b7a908263ffffffff610b3916565b600255600160a060020a038216600090815260208190526040902054610ba6908263ffffffff610b3916565b600160a060020a0383166000818152602081815260408083209490945583518581529351929391927fddf252ad1be2c89b69c2b068fc378daa952ba7f163c4a11628f55a4df523b3ef9281900390910190a35050565b610c0d60038263ffffffff610d4c16565b604051600160a060020a038216907f6ae172837ea30b801fbfcdd4108aa1d5bf8ff775444fd70256b44e6bf3dfc3f690600090a250565b610c5560038263ffffffff610d9a16565b604051600160a060020a038216907fe94479a9f7e1952cc78f2d6baab678adc1b772d936c6583def489e524cb6669290600090a250565b6000600160a060020a0382161515610ca357600080fd5b50600160a060020a03166000908152602091909152604090205460ff1690565b600160a060020a0381161515610cd857600080fd5b600654604051600160a060020a0380841692610100900416907f8be0079c531659141344cd1fd0a4f28419497f9722a3daafe3b4186f6b6457e090600090a360068054600160a060020a039092166101000274ffffffffffffffffffffffffffffffffffffffff0019909216919091179055565b600160a060020a0381161515610d6157600080fd5b610d6b8282610c8c565b15610d7557600080fd5b600160a060020a0316600090815260209190915260409020805460ff19166001179055565b600160a060020a0381161515610daf57600080fd5b610db98282610c8c565b1515610dc457600080fd5b600160a060020a0316600090815260209190915260409020805460ff19169055565b828054600181600116156101000203166002900490600052602060002090601f016020900481019282601f10610e2757805160ff1916838001178555610e54565b82800160010185558215610e54579182015b82811115610e54578251825591602001919060010190610e39565b50610e60929150610e64565b5090565b61052391905b80821115610e605760008155600101610e6a5600a165627a7a723058201dded0ae7a80776daad53550503d91833e08e788da9c705b4870377a8d1157b50029",
  "source": "pragma solidity ^0.4.24;\n\nimport \"../node_modules/openzeppelin-solidity/contracts/token/ERC20/ERC20Mintable.sol\";\nimport \"../node_modules/openzeppelin-solidity/contracts/token/ERC20/ERC20Detailed.sol\";\nimport \"../node_modules/openzeppelin-solidity/contracts/math/SafeMath.sol\";\nimport \"./ERC20Metadata.sol\";\n\ncontract ERC20MintableMetadata is ERC20Mintable, ERC20Detailed, ERC20Metadata {\n    using SafeMath for uint256;\n\n    constructor(\n      string memory name,\n      string memory symbol,\n      uint8 decimals,\n      string memory uri\n    )\n    ERC20Detailed(name, symbol, decimals)\n    ERC20Metadata(uri)\n    { }\n}",
  "sourcePath": "/Users/charlescrain/dev/pixura-contracts/truffle/contracts/ERC20MintableMetadata.sol",
  "compiler": {
    "name": "solc",
    "version": "0.4.24+commit.e67f0147.Emscripten.clang"
  },
  "schemaVersion": "2.0.1",
  "updatedAt": "2019-07-08T21:48:56.049Z"
}