{
  "contractName": "ERC721Market",
  "abi": [
    {
      "anonymous": false,
      "inputs": [
        {
          "indexed": true,
          "name": "_originContract",
          "type": "address"
        },
        {
          "indexed": true,
          "name": "_buyer",
          "type": "address"
        },
        {
          "indexed": true,
          "name": "_seller",
          "type": "address"
        },
        {
          "indexed": false,
          "name": "_amount",
          "type": "uint256"
        },
        {
          "indexed": false,
          "name": "_tokenId",
          "type": "uint256"
        }
      ],
      "name": "Sold",
      "type": "event"
    },
    {
      "anonymous": false,
      "inputs": [
        {
          "indexed": true,
          "name": "_originContract",
          "type": "address"
        },
        {
          "indexed": false,
          "name": "_amount",
          "type": "uint256"
        },
        {
          "indexed": false,
          "name": "_tokenId",
          "type": "uint256"
        }
      ],
      "name": "SetSalePrice",
      "type": "event"
    },
    {
      "constant": false,
      "inputs": [
        {
          "name": "_originContract",
          "type": "address"
        },
        {
          "name": "_tokenId",
          "type": "uint256"
        }
      ],
      "name": "buy",
      "outputs": [],
      "payable": true,
      "stateMutability": "payable",
      "type": "function"
    },
    {
      "constant": false,
      "inputs": [
        {
          "name": "_originContract",
          "type": "address"
        },
        {
          "name": "_tokenId",
          "type": "uint256"
        },
        {
          "name": "_amount",
          "type": "uint256"
        }
      ],
      "name": "setSalePrice",
      "outputs": [],
      "payable": true,
      "stateMutability": "payable",
      "type": "function"
    },
    {
      "constant": true,
      "inputs": [
        {
          "name": "_originContract",
          "type": "address"
        },
        {
          "name": "_tokenId",
          "type": "uint256"
        }
      ],
      "name": "tokenPrice",
      "outputs": [
        {
          "name": "",
          "type": "uint256"
        }
      ],
      "payable": false,
      "stateMutability": "view",
      "type": "function"
    }
  ],
  "bytecode": "0x608060405234801561001057600080fd5b50610671806100206000396000f30060806040526004361061003d5763ffffffff60e060020a600035041663508c1dbd8114610042578063916c03ba1461005e578063cce7ec1314610094575b600080fd5b61005c600160a060020a03600435166024356044356100ab565b005b34801561006a57600080fd5b50610082600160a060020a036004351660243561024d565b60408051918252519081900360200190f35b61005c600160a060020a0360043516602435610273565b604080517fe985e9c5000000000000000000000000000000000000000000000000000000008152336004820152306024820152905184918291600160a060020a0383169163e985e9c59160448083019260209291908290030181600087803b15801561011657600080fd5b505af115801561012a573d6000803e3d6000fd5b505050506040513d602081101561014057600080fd5b5051151561014d57600080fd5b8484600082905033600160a060020a031681600160a060020a0316636352211e846040518263ffffffff1660e060020a02815260040180828152602001915050602060405180830381600087803b1580156101a757600080fd5b505af11580156101bb573d6000803e3d6000fd5b505050506040513d60208110156101d157600080fd5b5051600160a060020a0316146101e657600080fd5b600160a060020a0388166000818152602081815260408083208b845282529182902089905581518981529081018a905281517fb0b0e4adf2724af8f1646eae3a16f45d696c9334594729d09bf192da1f783871929181900390910190a25050505050505050565b600160a060020a0391909116600090815260208181526040808320938352929052205490565b6000806000848460008083915081600160a060020a0316636352211e846040518263ffffffff1660e060020a02815260040180828152602001915050602060405180830381600087803b1580156102c957600080fd5b505af11580156102dd573d6000803e3d6000fd5b505050506040513d60208110156102f357600080fd5b5051604080517fe985e9c5000000000000000000000000000000000000000000000000000000008152600160a060020a03808416600483015230602483015291519293509084169163e985e9c5916044808201926020929091908290030181600087803b15801561036357600080fd5b505af1158015610377573d6000803e3d6000fd5b505050506040513d602081101561038d57600080fd5b5051151561039a57600080fd5b6103a48989610587565b600160a060020a0389166000908152602081815260408083208b8452909152812054975087116103d357600080fd5b3487146103df57600080fd5b88955085600160a060020a0316636352211e896040518263ffffffff1660e060020a02815260040180828152602001915050602060405180830381600087803b15801561042b57600080fd5b505af115801561043f573d6000803e3d6000fd5b505050506040513d602081101561045557600080fd5b5051604051909550600160a060020a0386169088156108fc029089906000818181858888f19350505050158015610490573d6000803e3d6000fd5b50604080517f42842e0e000000000000000000000000000000000000000000000000000000008152600160a060020a038781166004830152336024830152604482018b90529151918816916342842e0e9160648082019260009290919082900301818387803b15801561050257600080fd5b505af1158015610516573d6000803e3d6000fd5b50505050600160a060020a038981166000818152602081815260408083208d845282528083209290925581518b81529081018c90528151938916933393927f5764dbcef91eb6f946584f4ea671217c686fa7e858ce4f9f42d08422b86556a9928290030190a4505050505050505050565b600080600084925082600160a060020a0316636352211e856040518263ffffffff1660e060020a02815260040180828152602001915050602060405180830381600087803b1580156105d857600080fd5b505af11580156105ec573d6000803e3d6000fd5b505050506040513d602081101561060257600080fd5b5051600160a060020a03808716600090815260016020908152604080832089845290915290205491935090811691508216811461063e57600080fd5b50505050505600a165627a7a7230582002d46448f9e1da6f788867ef8e5f488fd8b56d57f7f7e030f97ae870bbd5f51c0029",
  "source": "pragma solidity ^0.4.24;\n\n\nimport '../node_modules/zeppelin-solidity/contracts/token/ERC721/ERC721Basic.sol';\nimport '../node_modules/zeppelin-solidity/contracts/math/SafeMath.sol';\n\ncontract ERC721Market {\n    using SafeMath for uint256;\n\n    // Mapping from ERC721 contract to mapping of tokenId to sale price\n    mapping(address => mapping (uint256 => uint256)) private tokenPrices; \n\n    // Mapping from ERC721 contract to mapping of tokenId to token owner that set the sale price.\n    mapping(address => mapping (uint256 => address)) private tokenOwners; \n\n    event Sold(\n      address indexed _originContract,\n      address indexed _buyer,\n      address indexed _seller,\n      uint256 _amount,\n      uint256 _tokenId\n    );\n\n    event SetSalePrice(\n      address indexed _originContract,\n      uint256 _amount,\n      uint256 _tokenId\n    );\n\n    /**\n     * @dev Checks that the token owner is approved for the ERC721Market\n     * @param _originContract address of the contract storing the token.\n     * @param _tokenId uint256 ID of the token\n     */\n    modifier approvedForOwner(address _originContract, uint256 _tokenId) {\n      ERC721Basic erc721 = ERC721Basic(_originContract);\n      address owner = erc721.ownerOf(_tokenId);\n      require(erc721.isApprovedForAll(owner, this));\n      _;\n    }\n\n    /**\n     * @dev Checks that the msg.sender is approved for the ERC721Market\n     * @param _originContract address of the contract storing the token.\n     */\n    modifier approvedForSender(address _originContract) {\n      ERC721Basic erc721 = ERC721Basic(_originContract);\n      require(erc721.isApprovedForAll(msg.sender, this));\n      _;\n    }\n    \n\n    /**\n     * @dev Checks that the token owned by the sender\n     * @param _originContract address of the contract storing the token.\n     * @param _tokenId uint256 ID of the token\n     */\n    modifier tokenOwner(address _originContract, uint256 _tokenId) {\n      ERC721Basic erc721 = ERC721Basic(_originContract);\n      require(erc721.ownerOf(_tokenId) == msg.sender);\n      _;\n    }\n\n    /**\n     * @dev Purchases the token if it is for sakle\n     * @param _originContract address of the contract storing the token.\n     * @param _tokenId uint256 ID of the token\n     */\n    function buy(\n      address _originContract,\n      uint256 _tokenId\n    )\n      public\n      approvedForOwner(_originContract, _tokenId)\n      payable\n    {\n      priceSetByOwner(_originContract, _tokenId);\n      uint256 tokenPrice = tokenPrices[_originContract][_tokenId];\n      require(tokenPrice > 0);\n      require(tokenPrice == msg.value);\n      ERC721Basic erc721 = ERC721Basic(_originContract);\n\n      // pay owner\n      address owner = erc721.ownerOf(_tokenId);\n      owner.transfer(tokenPrice);\n\n      // transfer token\n      erc721.safeTransferFrom(owner, msg.sender, _tokenId);\n\n      // wipe the token price\n      tokenPrices[_originContract][_tokenId] = 0;\n\n      emit Sold(_originContract, msg.sender, owner, tokenPrice, _tokenId);\n    }\n\n    /**\n     * @dev Set the token for sale\n     * @param _originContract address of the contract storing the token.\n     * @param _tokenId uint256 ID of the token\n     * @param _amount uint256 wei value that the item is for sale\n     */\n    function setSalePrice(\n      address _originContract,\n      uint256 _tokenId,\n      uint256 _amount\n    )\n      public\n      approvedForSender(_originContract)\n      tokenOwner(_originContract, _tokenId)\n      payable\n    {\n      tokenPrices[_originContract][_tokenId] = _amount;\n      emit SetSalePrice(_originContract, _amount, _tokenId);\n    }\n\n    /**\n     * @dev Gets the sale price of the token\n     * @param _originContract address of the contract storing the token.\n     * @param _tokenId uint256 ID of the token\n     * @return sale price of the token\n     */\n    function tokenPrice(\n      address _originContract,\n      uint256 _tokenId\n    )\n      public view returns (uint256)\n    {\n      return tokenPrices[_originContract][_tokenId];\n    }\n    \n    /**\n     * @dev Checks that the token is owned by the same person who set the sale price\n     * @param _originContract address of the contract storing the token.\n     * @param _tokenId address of the contract storing the token.\n     */\n    function priceSetByOwner(address _originContract, uint256 _tokenId) internal view {\n      ERC721Basic erc721 = ERC721Basic(_originContract);\n      address owner = erc721.ownerOf(_tokenId);\n      address perceivedOwner = tokenOwners[_originContract][_tokenId];\n      require(owner == perceivedOwner);\n    }\n}\n",
  "sourcePath": "/Users/charlescrain/dev/pixura-contracts/truffle/contracts/ERC721Market.sol",
  "compiler": {
    "name": "solc",
    "version": "0.4.24+commit.e67f0147.Emscripten.clang"
  },
  "schemaVersion": "2.0.1",
  "updatedAt": "2018-12-10T21:24:41.907Z"
}