{
  "contractName": "ERC721Market",
  "abi": [
    {
      "constant": false,
      "inputs": [],
      "name": "renounceOwnership",
      "outputs": [],
      "payable": false,
      "stateMutability": "nonpayable",
      "type": "function"
    },
    {
      "constant": true,
      "inputs": [],
      "name": "owner",
      "outputs": [
        {
          "name": "",
          "type": "address"
        }
      ],
      "payable": false,
      "stateMutability": "view",
      "type": "function"
    },
    {
      "constant": true,
      "inputs": [],
      "name": "isOwner",
      "outputs": [
        {
          "name": "",
          "type": "bool"
        }
      ],
      "payable": false,
      "stateMutability": "view",
      "type": "function"
    },
    {
      "constant": false,
      "inputs": [
        {
          "name": "newOwner",
          "type": "address"
        }
      ],
      "name": "transferOwnership",
      "outputs": [],
      "payable": false,
      "stateMutability": "nonpayable",
      "type": "function"
    },
    {
      "anonymous": false,
      "inputs": [
        {
          "indexed": true,
          "name": "_originContract",
          "type": "address"
        },
        {
          "indexed": true,
          "name": "_buyer",
          "type": "address"
        },
        {
          "indexed": true,
          "name": "_seller",
          "type": "address"
        },
        {
          "indexed": false,
          "name": "_amount",
          "type": "uint256"
        },
        {
          "indexed": false,
          "name": "_tokenId",
          "type": "uint256"
        }
      ],
      "name": "Sold",
      "type": "event"
    },
    {
      "anonymous": false,
      "inputs": [
        {
          "indexed": true,
          "name": "_originContract",
          "type": "address"
        },
        {
          "indexed": false,
          "name": "_amount",
          "type": "uint256"
        },
        {
          "indexed": false,
          "name": "_tokenId",
          "type": "uint256"
        }
      ],
      "name": "SetSalePrice",
      "type": "event"
    },
    {
      "anonymous": false,
      "inputs": [
        {
          "indexed": true,
          "name": "previousOwner",
          "type": "address"
        },
        {
          "indexed": true,
          "name": "newOwner",
          "type": "address"
        }
      ],
      "name": "OwnershipTransferred",
      "type": "event"
    },
    {
      "constant": false,
      "inputs": [
        {
          "name": "_originContract",
          "type": "address"
        },
        {
          "name": "_tokenId",
          "type": "uint256"
        }
      ],
      "name": "buy",
      "outputs": [],
      "payable": true,
      "stateMutability": "payable",
      "type": "function"
    },
    {
      "constant": false,
      "inputs": [
        {
          "name": "_originContract",
          "type": "address"
        },
        {
          "name": "_tokenId",
          "type": "uint256"
        },
        {
          "name": "_amount",
          "type": "uint256"
        }
      ],
      "name": "setSalePrice",
      "outputs": [],
      "payable": true,
      "stateMutability": "payable",
      "type": "function"
    },
    {
      "constant": true,
      "inputs": [
        {
          "name": "_originContract",
          "type": "address"
        },
        {
          "name": "_tokenId",
          "type": "uint256"
        }
      ],
      "name": "tokenPrice",
      "outputs": [
        {
          "name": "",
          "type": "uint256"
        }
      ],
      "payable": false,
      "stateMutability": "view",
      "type": "function"
    }
  ],
  "bytecode": "0x608060408190526003805560008054600160a060020a0319163317808255600160a060020a0316917f8be0079c531659141344cd1fd0a4f28419497f9722a3daafe3b4186f6b6457e0908290a3610b828061005b6000396000f3006080604052600436106100695763ffffffff60e060020a600035041663508c1dbd811461006e578063715018a61461008a5780638da5cb5b1461009f5780638f32d59b146100d0578063916c03ba146100f9578063cce7ec131461012f578063f2fde38b14610146575b600080fd5b610088600160a060020a0360043516602435604435610167565b005b34801561009657600080fd5b5061008861033a565b3480156100ab57600080fd5b506100b46103a4565b60408051600160a060020a039092168252519081900360200190f35b3480156100dc57600080fd5b506100e56103b3565b604080519115158252519081900360200190f35b34801561010557600080fd5b5061011d600160a060020a03600435166024356103c4565b60408051918252519081900360200190f35b610088600160a060020a03600435166024356103ec565b34801561015257600080fd5b50610088600160a060020a0360043516610974565b604080517fe985e9c5000000000000000000000000000000000000000000000000000000008152336004820152306024820152905184918291600160a060020a0383169163e985e9c59160448083019260209291908290030181600087803b1580156101d257600080fd5b505af11580156101e6573d6000803e3d6000fd5b505050506040513d60208110156101fc57600080fd5b5051151561020957600080fd5b8484600082905033600160a060020a031681600160a060020a0316636352211e846040518263ffffffff1660e060020a02815260040180828152602001915050602060405180830381600087803b15801561026357600080fd5b505af1158015610277573d6000803e3d6000fd5b505050506040513d602081101561028d57600080fd5b5051600160a060020a0316146102a257600080fd5b600160a060020a03881660008181526001602090815260408083208b845282528083208a9055838352600282528083208b8452825291829020805473ffffffffffffffffffffffffffffffffffffffff19163317905581518981529081018a905281517fb0b0e4adf2724af8f1646eae3a16f45d696c9334594729d09bf192da1f783871929181900390910190a25050505050505050565b6103426103b3565b151561034d57600080fd5b60008054604051600160a060020a03909116907f8be0079c531659141344cd1fd0a4f28419497f9722a3daafe3b4186f6b6457e0908390a36000805473ffffffffffffffffffffffffffffffffffffffff19169055565b600054600160a060020a031690565b600054600160a060020a0316331490565b600160a060020a03919091166000908152600160209081526040808320938352929052205490565b600080600080600080878760008083915081600160a060020a0316636352211e846040518263ffffffff1660e060020a02815260040180828152602001915050602060405180830381600087803b15801561044657600080fd5b505af115801561045a573d6000803e3d6000fd5b505050506040513d602081101561047057600080fd5b5051604080517fe985e9c5000000000000000000000000000000000000000000000000000000008152600160a060020a03808416600483015230602483015291519293509084169163e985e9c5916044808201926020929091908290030181600087803b1580156104e057600080fd5b505af11580156104f4573d6000803e3d6000fd5b505050506040513d602081101561050a57600080fd5b5051151561051757600080fd5b6105218c8c610993565b600160a060020a038c1660009081526001602090815260408083208e84529091528120549a508a116105d957604080517f08c379a0000000000000000000000000000000000000000000000000000000008152602060048201526024808201527f546f6b656e7320707269636564206174203020617265206e6f7420666f72207360448201527f616c652e00000000000000000000000000000000000000000000000000000000606482015290519081900360840190fd5b348a1461066d57604080517f08c379a000000000000000000000000000000000000000000000000000000000815260206004820152602d60248201527f4d7573742070757263686173652074686520746f6b656e20666f72207468652060448201527f636f727265637420707269636500000000000000000000000000000000000000606482015290519081900360840190fd5b8b985088600160a060020a0316636352211e8c6040518263ffffffff1660e060020a02815260040180828152602001915050602060405180830381600087803b1580156106b957600080fd5b505af11580156106cd573d6000803e3d6000fd5b505050506040513d60208110156106e357600080fd5b5051604080517f8da5cb5b00000000000000000000000000000000000000000000000000000000815290519199503091638da5cb5b916004808201926020929091908290030181600087803b15801561073b57600080fd5b505af115801561074f573d6000803e3d6000fd5b505050506040513d602081101561076557600080fd5b50516003546040519198506064908c02049650868b039550600160a060020a0389169086156108fc029087906000818181858888f193505050501580156107b0573d6000803e3d6000fd5b50604051600160a060020a0388169087156108fc029088906000818181858888f193505050501580156107e7573d6000803e3d6000fd5b50604080517f42842e0e000000000000000000000000000000000000000000000000000000008152600160a060020a038a81166004830152336024830152604482018e90529151918b16916342842e0e9160648082019260009290919082900301818387803b15801561085957600080fd5b505af115801561086d573d6000803e3d6000fd5b505050506000600160008e600160a060020a0316600160a060020a0316815260200190815260200160002060008d8152602001908152602001600020819055506000600260008e600160a060020a0316600160a060020a0316815260200190815260200160002060008d815260200190815260200160002060006101000a815481600160a060020a030219169083600160a060020a0316021790555087600160a060020a031633600160a060020a03168d600160a060020a03167f5764dbcef91eb6f946584f4ea671217c686fa7e858ce4f9f42d08422b86556a98d8f604051808381526020018281526020019250505060405180910390a4505050505050505050505050565b61097c6103b3565b151561098757600080fd5b61099081610ad9565b50565b600080600084925082600160a060020a0316636352211e856040518263ffffffff1660e060020a02815260040180828152602001915050602060405180830381600087803b1580156109e457600080fd5b505af11580156109f8573d6000803e3d6000fd5b505050506040513d6020811015610a0e57600080fd5b5051600160a060020a038087166000908152600260209081526040808320898452909152902054919350908116915082168114610ad257604080517f08c379a000000000000000000000000000000000000000000000000000000000815260206004820152602481018290527f43757272656e7420746f6b656e206f776e6572206d757374206265207468652060448201527f706572736f6e20746f206861766520746865206c61746573742070726963652e606482015290519081900360840190fd5b5050505050565b600160a060020a0381161515610aee57600080fd5b60008054604051600160a060020a03808516939216917f8be0079c531659141344cd1fd0a4f28419497f9722a3daafe3b4186f6b6457e091a36000805473ffffffffffffffffffffffffffffffffffffffff1916600160a060020a03929092169190911790555600a165627a7a72305820295543be88a141be4c1c426c6eeb1c87ce9661d9d35c671d2f9a346ba83ee9c60029",
  "source": "pragma solidity ^0.4.24;\n\n\nimport \"../node_modules/openzeppelin-solidity/contracts/token/ERC721/IERC721.sol\";\nimport \"../node_modules/openzeppelin-solidity/contracts/math/SafeMath.sol\";\nimport \"../node_modules/openzeppelin-solidity/contracts/ownership/Ownable.sol\";\n\ncontract ERC721Market is Ownable {\n    using SafeMath for uint256;\n\n    // Mapping from ERC721 contract to mapping of tokenId to sale price\n    mapping(address => mapping (uint256 => uint256)) private tokenPrices; \n\n    // Mapping from ERC721 contract to mapping of tokenId to token owner that set the sale price.\n    mapping(address => mapping (uint256 => address)) private tokenOwners; \n\n    // Marketplace fee paid to the owner of the contract.\n    uint256 private marketplaceFee = 3; // 3 %\n\n    event Sold(\n      address indexed _originContract,\n      address indexed _buyer,\n      address indexed _seller,\n      uint256 _amount,\n      uint256 _tokenId\n    );\n\n    event SetSalePrice(\n      address indexed _originContract,\n      uint256 _amount,\n      uint256 _tokenId\n    );\n\n    /**\n     * @dev Checks that the token owner is approved for the ERC721Market\n     * @param _originContract address of the contract storing the token.\n     * @param _tokenId uint256 ID of the token\n     */\n    modifier ownerMustHaveMarketplaceApproved(address _originContract, uint256 _tokenId) {\n      IERC721 erc721 = IERC721(_originContract);\n      address owner = erc721.ownerOf(_tokenId);\n      require(erc721.isApprovedForAll(owner, this));\n      _;\n    }\n\n    /**\n     * @dev Checks that the msg.sender is approved for the ERC721Market\n     * @param _originContract address of the contract storing the token.\n     */\n    modifier senderMustHaveMarketplaceApproved(address _originContract) {\n      IERC721 erc721 = IERC721(_originContract);\n      require(erc721.isApprovedForAll(msg.sender, this));\n      _;\n    }\n    \n\n    /**\n     * @dev Checks that the token owned by the sender\n     * @param _originContract address of the contract storing the token.\n     * @param _tokenId uint256 ID of the token\n     */\n    modifier senderMustBeTokenOwner(address _originContract, uint256 _tokenId) {\n      IERC721 erc721 = IERC721(_originContract);\n      require(erc721.ownerOf(_tokenId) == msg.sender);\n      _;\n    }\n\n    /**\n     * @dev Purchases the token if it is for sakle\n     * @param _originContract address of the contract storing the token.\n     * @param _tokenId uint256 ID of the token\n     */\n    function buy(\n      address _originContract,\n      uint256 _tokenId\n    )\n      public\n      ownerMustHaveMarketplaceApproved(_originContract, _tokenId)\n      payable\n    {\n      doesPriceSetterStillOwnTheToken(_originContract, _tokenId);\n      uint256 tokenPrice = tokenPrices[_originContract][_tokenId];\n      require(tokenPrice > 0, \"Tokens priced at 0 are not for sale.\");\n      require(tokenPrice == msg.value, \"Must purchase the token for the correct price\");\n      IERC721 erc721 = IERC721(_originContract);\n\n      // pay owner and pay marketplace owner\n      address owner = erc721.ownerOf(_tokenId);\n      address marketplaceOwner = this.owner();\n\n      uint256 marketFeePayment = tokenPrice * marketplaceFee / 100;\n      uint256 ownerPayment = tokenPrice - marketFeePayment;\n\n      owner.transfer(ownerPayment);\n      marketplaceOwner.transfer(marketFeePayment);\n\n      // transfer token\n      erc721.safeTransferFrom(owner, msg.sender, _tokenId);\n\n      // wipe the token price\n      tokenPrices[_originContract][_tokenId] = 0;\n      tokenOwners[_originContract][_tokenId] = address(0);\n\n      emit Sold(_originContract, msg.sender, owner, tokenPrice, _tokenId);\n    }\n\n    /**\n     * @dev Set the token for sale\n     * @param _originContract address of the contract storing the token.\n     * @param _tokenId uint256 ID of the token\n     * @param _amount uint256 wei value that the item is for sale\n     */\n    function setSalePrice(\n      address _originContract,\n      uint256 _tokenId,\n      uint256 _amount\n    )\n      public\n      senderMustHaveMarketplaceApproved(_originContract)\n      senderMustBeTokenOwner(_originContract, _tokenId)\n      payable\n    {\n      tokenPrices[_originContract][_tokenId] = _amount;\n      tokenOwners[_originContract][_tokenId] = msg.sender;\n      emit SetSalePrice(_originContract, _amount, _tokenId);\n    }\n\n    /**\n     * @dev Gets the sale price of the token\n     * @param _originContract address of the contract storing the token.\n     * @param _tokenId uint256 ID of the token\n     * @return sale price of the token\n     */\n    function tokenPrice(\n      address _originContract,\n      uint256 _tokenId\n    )\n      public view returns (uint256)\n    {\n      return tokenPrices[_originContract][_tokenId];\n    }\n    \n    /**\n     * @dev Checks that the token is owned by the same person who set the sale price\n     * @param _originContract address of the contract storing the token.\n     * @param _tokenId address of the contract storing the token.\n     */\n    function doesPriceSetterStillOwnTheToken(address _originContract, uint256 _tokenId) internal view {\n      IERC721 erc721 = IERC721(_originContract);\n      address owner = erc721.ownerOf(_tokenId);\n      address perceivedOwner = tokenOwners[_originContract][_tokenId];\n      require(owner == perceivedOwner, \"Current token owner must be the person to have the latest price.\");\n    }\n}\n",
  "sourcePath": "/Users/charlescrain/dev/pixura-contracts/truffle/contracts/ERC721Market.sol",
  "compiler": {
    "name": "solc",
    "version": "0.4.24+commit.e67f0147.Emscripten.clang"
  },
  "schemaVersion": "2.0.1",
  "updatedAt": "2019-08-06T23:43:51.871Z"
}