{
  "contractName": "Exchange",
  "abi": [
    {
      "constant": true,
      "inputs": [
        {
          "name": "",
          "type": "bytes32"
        }
      ],
      "name": "filled",
      "outputs": [
        {
          "name": "",
          "type": "uint256"
        }
      ],
      "payable": false,
      "stateMutability": "view",
      "type": "function"
    },
    {
      "constant": false,
      "inputs": [
        {
          "components": [
            {
              "name": "makerAddress",
              "type": "address"
            },
            {
              "name": "takerAddress",
              "type": "address"
            },
            {
              "name": "feeRecipientAddress",
              "type": "address"
            },
            {
              "name": "senderAddress",
              "type": "address"
            },
            {
              "name": "makerAssetAmount",
              "type": "uint256"
            },
            {
              "name": "takerAssetAmount",
              "type": "uint256"
            },
            {
              "name": "makerFee",
              "type": "uint256"
            },
            {
              "name": "takerFee",
              "type": "uint256"
            },
            {
              "name": "expirationTimeSeconds",
              "type": "uint256"
            },
            {
              "name": "salt",
              "type": "uint256"
            },
            {
              "name": "makerAssetData",
              "type": "bytes"
            },
            {
              "name": "takerAssetData",
              "type": "bytes"
            }
          ],
          "name": "orders",
          "type": "tuple[]"
        },
        {
          "name": "takerAssetFillAmounts",
          "type": "uint256[]"
        },
        {
          "name": "signatures",
          "type": "bytes[]"
        }
      ],
      "name": "batchFillOrders",
      "outputs": [
        {
          "components": [
            {
              "name": "makerAssetFilledAmount",
              "type": "uint256"
            },
            {
              "name": "takerAssetFilledAmount",
              "type": "uint256"
            },
            {
              "name": "makerFeePaid",
              "type": "uint256"
            },
            {
              "name": "takerFeePaid",
              "type": "uint256"
            }
          ],
          "name": "totalFillResults",
          "type": "tuple"
        }
      ],
      "payable": false,
      "stateMutability": "nonpayable",
      "type": "function"
    },
    {
      "constant": true,
      "inputs": [
        {
          "name": "",
          "type": "bytes32"
        }
      ],
      "name": "cancelled",
      "outputs": [
        {
          "name": "",
          "type": "bool"
        }
      ],
      "payable": false,
      "stateMutability": "view",
      "type": "function"
    },
    {
      "constant": false,
      "inputs": [
        {
          "name": "hash",
          "type": "bytes32"
        },
        {
          "name": "signerAddress",
          "type": "address"
        },
        {
          "name": "signature",
          "type": "bytes"
        }
      ],
      "name": "preSign",
      "outputs": [],
      "payable": false,
      "stateMutability": "nonpayable",
      "type": "function"
    },
    {
      "constant": false,
      "inputs": [
        {
          "components": [
            {
              "name": "makerAddress",
              "type": "address"
            },
            {
              "name": "takerAddress",
              "type": "address"
            },
            {
              "name": "feeRecipientAddress",
              "type": "address"
            },
            {
              "name": "senderAddress",
              "type": "address"
            },
            {
              "name": "makerAssetAmount",
              "type": "uint256"
            },
            {
              "name": "takerAssetAmount",
              "type": "uint256"
            },
            {
              "name": "makerFee",
              "type": "uint256"
            },
            {
              "name": "takerFee",
              "type": "uint256"
            },
            {
              "name": "expirationTimeSeconds",
              "type": "uint256"
            },
            {
              "name": "salt",
              "type": "uint256"
            },
            {
              "name": "makerAssetData",
              "type": "bytes"
            },
            {
              "name": "takerAssetData",
              "type": "bytes"
            }
          ],
          "name": "leftOrder",
          "type": "tuple"
        },
        {
          "components": [
            {
              "name": "makerAddress",
              "type": "address"
            },
            {
              "name": "takerAddress",
              "type": "address"
            },
            {
              "name": "feeRecipientAddress",
              "type": "address"
            },
            {
              "name": "senderAddress",
              "type": "address"
            },
            {
              "name": "makerAssetAmount",
              "type": "uint256"
            },
            {
              "name": "takerAssetAmount",
              "type": "uint256"
            },
            {
              "name": "makerFee",
              "type": "uint256"
            },
            {
              "name": "takerFee",
              "type": "uint256"
            },
            {
              "name": "expirationTimeSeconds",
              "type": "uint256"
            },
            {
              "name": "salt",
              "type": "uint256"
            },
            {
              "name": "makerAssetData",
              "type": "bytes"
            },
            {
              "name": "takerAssetData",
              "type": "bytes"
            }
          ],
          "name": "rightOrder",
          "type": "tuple"
        },
        {
          "name": "leftSignature",
          "type": "bytes"
        },
        {
          "name": "rightSignature",
          "type": "bytes"
        }
      ],
      "name": "matchOrders",
      "outputs": [
        {
          "components": [
            {
              "components": [
                {
                  "name": "makerAssetFilledAmount",
                  "type": "uint256"
                },
                {
                  "name": "takerAssetFilledAmount",
                  "type": "uint256"
                },
                {
                  "name": "makerFeePaid",
                  "type": "uint256"
                },
                {
                  "name": "takerFeePaid",
                  "type": "uint256"
                }
              ],
              "name": "left",
              "type": "tuple"
            },
            {
              "components": [
                {
                  "name": "makerAssetFilledAmount",
                  "type": "uint256"
                },
                {
                  "name": "takerAssetFilledAmount",
                  "type": "uint256"
                },
                {
                  "name": "makerFeePaid",
                  "type": "uint256"
                },
                {
                  "name": "takerFeePaid",
                  "type": "uint256"
                }
              ],
              "name": "right",
              "type": "tuple"
            },
            {
              "name": "leftMakerAssetSpreadAmount",
              "type": "uint256"
            }
          ],
          "name": "matchedFillResults",
          "type": "tuple"
        }
      ],
      "payable": false,
      "stateMutability": "nonpayable",
      "type": "function"
    },
    {
      "constant": false,
      "inputs": [
        {
          "components": [
            {
              "name": "makerAddress",
              "type": "address"
            },
            {
              "name": "takerAddress",
              "type": "address"
            },
            {
              "name": "feeRecipientAddress",
              "type": "address"
            },
            {
              "name": "senderAddress",
              "type": "address"
            },
            {
              "name": "makerAssetAmount",
              "type": "uint256"
            },
            {
              "name": "takerAssetAmount",
              "type": "uint256"
            },
            {
              "name": "makerFee",
              "type": "uint256"
            },
            {
              "name": "takerFee",
              "type": "uint256"
            },
            {
              "name": "expirationTimeSeconds",
              "type": "uint256"
            },
            {
              "name": "salt",
              "type": "uint256"
            },
            {
              "name": "makerAssetData",
              "type": "bytes"
            },
            {
              "name": "takerAssetData",
              "type": "bytes"
            }
          ],
          "name": "order",
          "type": "tuple"
        },
        {
          "name": "takerAssetFillAmount",
          "type": "uint256"
        },
        {
          "name": "signature",
          "type": "bytes"
        }
      ],
      "name": "fillOrderNoThrow",
      "outputs": [
        {
          "components": [
            {
              "name": "makerAssetFilledAmount",
              "type": "uint256"
            },
            {
              "name": "takerAssetFilledAmount",
              "type": "uint256"
            },
            {
              "name": "makerFeePaid",
              "type": "uint256"
            },
            {
              "name": "takerFeePaid",
              "type": "uint256"
            }
          ],
          "name": "fillResults",
          "type": "tuple"
        }
      ],
      "payable": false,
      "stateMutability": "nonpayable",
      "type": "function"
    },
    {
      "constant": true,
      "inputs": [
        {
          "name": "",
          "type": "bytes4"
        }
      ],
      "name": "assetProxies",
      "outputs": [
        {
          "name": "",
          "type": "address"
        }
      ],
      "payable": false,
      "stateMutability": "view",
      "type": "function"
    },
    {
      "constant": false,
      "inputs": [
        {
          "components": [
            {
              "name": "makerAddress",
              "type": "address"
            },
            {
              "name": "takerAddress",
              "type": "address"
            },
            {
              "name": "feeRecipientAddress",
              "type": "address"
            },
            {
              "name": "senderAddress",
              "type": "address"
            },
            {
              "name": "makerAssetAmount",
              "type": "uint256"
            },
            {
              "name": "takerAssetAmount",
              "type": "uint256"
            },
            {
              "name": "makerFee",
              "type": "uint256"
            },
            {
              "name": "takerFee",
              "type": "uint256"
            },
            {
              "name": "expirationTimeSeconds",
              "type": "uint256"
            },
            {
              "name": "salt",
              "type": "uint256"
            },
            {
              "name": "makerAssetData",
              "type": "bytes"
            },
            {
              "name": "takerAssetData",
              "type": "bytes"
            }
          ],
          "name": "orders",
          "type": "tuple[]"
        }
      ],
      "name": "batchCancelOrders",
      "outputs": [],
      "payable": false,
      "stateMutability": "nonpayable",
      "type": "function"
    },
    {
      "constant": false,
      "inputs": [
        {
          "components": [
            {
              "name": "makerAddress",
              "type": "address"
            },
            {
              "name": "takerAddress",
              "type": "address"
            },
            {
              "name": "feeRecipientAddress",
              "type": "address"
            },
            {
              "name": "senderAddress",
              "type": "address"
            },
            {
              "name": "makerAssetAmount",
              "type": "uint256"
            },
            {
              "name": "takerAssetAmount",
              "type": "uint256"
            },
            {
              "name": "makerFee",
              "type": "uint256"
            },
            {
              "name": "takerFee",
              "type": "uint256"
            },
            {
              "name": "expirationTimeSeconds",
              "type": "uint256"
            },
            {
              "name": "salt",
              "type": "uint256"
            },
            {
              "name": "makerAssetData",
              "type": "bytes"
            },
            {
              "name": "takerAssetData",
              "type": "bytes"
            }
          ],
          "name": "orders",
          "type": "tuple[]"
        },
        {
          "name": "takerAssetFillAmounts",
          "type": "uint256[]"
        },
        {
          "name": "signatures",
          "type": "bytes[]"
        }
      ],
      "name": "batchFillOrKillOrders",
      "outputs": [
        {
          "components": [
            {
              "name": "makerAssetFilledAmount",
              "type": "uint256"
            },
            {
              "name": "takerAssetFilledAmount",
              "type": "uint256"
            },
            {
              "name": "makerFeePaid",
              "type": "uint256"
            },
            {
              "name": "takerFeePaid",
              "type": "uint256"
            }
          ],
          "name": "totalFillResults",
          "type": "tuple"
        }
      ],
      "payable": false,
      "stateMutability": "nonpayable",
      "type": "function"
    },
    {
      "constant": false,
      "inputs": [
        {
          "name": "targetOrderEpoch",
          "type": "uint256"
        }
      ],
      "name": "cancelOrdersUpTo",
      "outputs": [],
      "payable": false,
      "stateMutability": "nonpayable",
      "type": "function"
    },
    {
      "constant": false,
      "inputs": [
        {
          "components": [
            {
              "name": "makerAddress",
              "type": "address"
            },
            {
              "name": "takerAddress",
              "type": "address"
            },
            {
              "name": "feeRecipientAddress",
              "type": "address"
            },
            {
              "name": "senderAddress",
              "type": "address"
            },
            {
              "name": "makerAssetAmount",
              "type": "uint256"
            },
            {
              "name": "takerAssetAmount",
              "type": "uint256"
            },
            {
              "name": "makerFee",
              "type": "uint256"
            },
            {
              "name": "takerFee",
              "type": "uint256"
            },
            {
              "name": "expirationTimeSeconds",
              "type": "uint256"
            },
            {
              "name": "salt",
              "type": "uint256"
            },
            {
              "name": "makerAssetData",
              "type": "bytes"
            },
            {
              "name": "takerAssetData",
              "type": "bytes"
            }
          ],
          "name": "orders",
          "type": "tuple[]"
        },
        {
          "name": "takerAssetFillAmounts",
          "type": "uint256[]"
        },
        {
          "name": "signatures",
          "type": "bytes[]"
        }
      ],
      "name": "batchFillOrdersNoThrow",
      "outputs": [
        {
          "components": [
            {
              "name": "makerAssetFilledAmount",
              "type": "uint256"
            },
            {
              "name": "takerAssetFilledAmount",
              "type": "uint256"
            },
            {
              "name": "makerFeePaid",
              "type": "uint256"
            },
            {
              "name": "takerFeePaid",
              "type": "uint256"
            }
          ],
          "name": "totalFillResults",
          "type": "tuple"
        }
      ],
      "payable": false,
      "stateMutability": "nonpayable",
      "type": "function"
    },
    {
      "constant": true,
      "inputs": [
        {
          "name": "assetProxyId",
          "type": "bytes4"
        }
      ],
      "name": "getAssetProxy",
      "outputs": [
        {
          "name": "",
          "type": "address"
        }
      ],
      "payable": false,
      "stateMutability": "view",
      "type": "function"
    },
    {
      "constant": true,
      "inputs": [
        {
          "name": "",
          "type": "bytes32"
        }
      ],
      "name": "transactions",
      "outputs": [
        {
          "name": "",
          "type": "bool"
        }
      ],
      "payable": false,
      "stateMutability": "view",
      "type": "function"
    },
    {
      "constant": false,
      "inputs": [
        {
          "components": [
            {
              "name": "makerAddress",
              "type": "address"
            },
            {
              "name": "takerAddress",
              "type": "address"
            },
            {
              "name": "feeRecipientAddress",
              "type": "address"
            },
            {
              "name": "senderAddress",
              "type": "address"
            },
            {
              "name": "makerAssetAmount",
              "type": "uint256"
            },
            {
              "name": "takerAssetAmount",
              "type": "uint256"
            },
            {
              "name": "makerFee",
              "type": "uint256"
            },
            {
              "name": "takerFee",
              "type": "uint256"
            },
            {
              "name": "expirationTimeSeconds",
              "type": "uint256"
            },
            {
              "name": "salt",
              "type": "uint256"
            },
            {
              "name": "makerAssetData",
              "type": "bytes"
            },
            {
              "name": "takerAssetData",
              "type": "bytes"
            }
          ],
          "name": "order",
          "type": "tuple"
        },
        {
          "name": "takerAssetFillAmount",
          "type": "uint256"
        },
        {
          "name": "signature",
          "type": "bytes"
        }
      ],
      "name": "fillOrKillOrder",
      "outputs": [
        {
          "components": [
            {
              "name": "makerAssetFilledAmount",
              "type": "uint256"
            },
            {
              "name": "takerAssetFilledAmount",
              "type": "uint256"
            },
            {
              "name": "makerFeePaid",
              "type": "uint256"
            },
            {
              "name": "takerFeePaid",
              "type": "uint256"
            }
          ],
          "name": "fillResults",
          "type": "tuple"
        }
      ],
      "payable": false,
      "stateMutability": "nonpayable",
      "type": "function"
    },
    {
      "constant": false,
      "inputs": [
        {
          "name": "validatorAddress",
          "type": "address"
        },
        {
          "name": "approval",
          "type": "bool"
        }
      ],
      "name": "setSignatureValidatorApproval",
      "outputs": [],
      "payable": false,
      "stateMutability": "nonpayable",
      "type": "function"
    },
    {
      "constant": true,
      "inputs": [
        {
          "name": "",
          "type": "address"
        },
        {
          "name": "",
          "type": "address"
        }
      ],
      "name": "allowedValidators",
      "outputs": [
        {
          "name": "",
          "type": "bool"
        }
      ],
      "payable": false,
      "stateMutability": "view",
      "type": "function"
    },
    {
      "constant": false,
      "inputs": [
        {
          "components": [
            {
              "name": "makerAddress",
              "type": "address"
            },
            {
              "name": "takerAddress",
              "type": "address"
            },
            {
              "name": "feeRecipientAddress",
              "type": "address"
            },
            {
              "name": "senderAddress",
              "type": "address"
            },
            {
              "name": "makerAssetAmount",
              "type": "uint256"
            },
            {
              "name": "takerAssetAmount",
              "type": "uint256"
            },
            {
              "name": "makerFee",
              "type": "uint256"
            },
            {
              "name": "takerFee",
              "type": "uint256"
            },
            {
              "name": "expirationTimeSeconds",
              "type": "uint256"
            },
            {
              "name": "salt",
              "type": "uint256"
            },
            {
              "name": "makerAssetData",
              "type": "bytes"
            },
            {
              "name": "takerAssetData",
              "type": "bytes"
            }
          ],
          "name": "orders",
          "type": "tuple[]"
        },
        {
          "name": "takerAssetFillAmount",
          "type": "uint256"
        },
        {
          "name": "signatures",
          "type": "bytes[]"
        }
      ],
      "name": "marketSellOrders",
      "outputs": [
        {
          "components": [
            {
              "name": "makerAssetFilledAmount",
              "type": "uint256"
            },
            {
              "name": "takerAssetFilledAmount",
              "type": "uint256"
            },
            {
              "name": "makerFeePaid",
              "type": "uint256"
            },
            {
              "name": "takerFeePaid",
              "type": "uint256"
            }
          ],
          "name": "totalFillResults",
          "type": "tuple"
        }
      ],
      "payable": false,
      "stateMutability": "nonpayable",
      "type": "function"
    },
    {
      "constant": true,
      "inputs": [
        {
          "components": [
            {
              "name": "makerAddress",
              "type": "address"
            },
            {
              "name": "takerAddress",
              "type": "address"
            },
            {
              "name": "feeRecipientAddress",
              "type": "address"
            },
            {
              "name": "senderAddress",
              "type": "address"
            },
            {
              "name": "makerAssetAmount",
              "type": "uint256"
            },
            {
              "name": "takerAssetAmount",
              "type": "uint256"
            },
            {
              "name": "makerFee",
              "type": "uint256"
            },
            {
              "name": "takerFee",
              "type": "uint256"
            },
            {
              "name": "expirationTimeSeconds",
              "type": "uint256"
            },
            {
              "name": "salt",
              "type": "uint256"
            },
            {
              "name": "makerAssetData",
              "type": "bytes"
            },
            {
              "name": "takerAssetData",
              "type": "bytes"
            }
          ],
          "name": "orders",
          "type": "tuple[]"
        }
      ],
      "name": "getOrdersInfo",
      "outputs": [
        {
          "components": [
            {
              "name": "orderStatus",
              "type": "uint8"
            },
            {
              "name": "orderHash",
              "type": "bytes32"
            },
            {
              "name": "orderTakerAssetFilledAmount",
              "type": "uint256"
            }
          ],
          "name": "",
          "type": "tuple[]"
        }
      ],
      "payable": false,
      "stateMutability": "view",
      "type": "function"
    },
    {
      "constant": true,
      "inputs": [
        {
          "name": "",
          "type": "bytes32"
        },
        {
          "name": "",
          "type": "address"
        }
      ],
      "name": "preSigned",
      "outputs": [
        {
          "name": "",
          "type": "bool"
        }
      ],
      "payable": false,
      "stateMutability": "view",
      "type": "function"
    },
    {
      "constant": true,
      "inputs": [],
      "name": "owner",
      "outputs": [
        {
          "name": "",
          "type": "address"
        }
      ],
      "payable": false,
      "stateMutability": "view",
      "type": "function"
    },
    {
      "constant": true,
      "inputs": [
        {
          "name": "hash",
          "type": "bytes32"
        },
        {
          "name": "signerAddress",
          "type": "address"
        },
        {
          "name": "signature",
          "type": "bytes"
        }
      ],
      "name": "isValidSignature",
      "outputs": [
        {
          "name": "isValid",
          "type": "bool"
        }
      ],
      "payable": false,
      "stateMutability": "view",
      "type": "function"
    },
    {
      "constant": false,
      "inputs": [
        {
          "components": [
            {
              "name": "makerAddress",
              "type": "address"
            },
            {
              "name": "takerAddress",
              "type": "address"
            },
            {
              "name": "feeRecipientAddress",
              "type": "address"
            },
            {
              "name": "senderAddress",
              "type": "address"
            },
            {
              "name": "makerAssetAmount",
              "type": "uint256"
            },
            {
              "name": "takerAssetAmount",
              "type": "uint256"
            },
            {
              "name": "makerFee",
              "type": "uint256"
            },
            {
              "name": "takerFee",
              "type": "uint256"
            },
            {
              "name": "expirationTimeSeconds",
              "type": "uint256"
            },
            {
              "name": "salt",
              "type": "uint256"
            },
            {
              "name": "makerAssetData",
              "type": "bytes"
            },
            {
              "name": "takerAssetData",
              "type": "bytes"
            }
          ],
          "name": "orders",
          "type": "tuple[]"
        },
        {
          "name": "makerAssetFillAmount",
          "type": "uint256"
        },
        {
          "name": "signatures",
          "type": "bytes[]"
        }
      ],
      "name": "marketBuyOrdersNoThrow",
      "outputs": [
        {
          "components": [
            {
              "name": "makerAssetFilledAmount",
              "type": "uint256"
            },
            {
              "name": "takerAssetFilledAmount",
              "type": "uint256"
            },
            {
              "name": "makerFeePaid",
              "type": "uint256"
            },
            {
              "name": "takerFeePaid",
              "type": "uint256"
            }
          ],
          "name": "totalFillResults",
          "type": "tuple"
        }
      ],
      "payable": false,
      "stateMutability": "nonpayable",
      "type": "function"
    },
    {
      "constant": false,
      "inputs": [
        {
          "components": [
            {
              "name": "makerAddress",
              "type": "address"
            },
            {
              "name": "takerAddress",
              "type": "address"
            },
            {
              "name": "feeRecipientAddress",
              "type": "address"
            },
            {
              "name": "senderAddress",
              "type": "address"
            },
            {
              "name": "makerAssetAmount",
              "type": "uint256"
            },
            {
              "name": "takerAssetAmount",
              "type": "uint256"
            },
            {
              "name": "makerFee",
              "type": "uint256"
            },
            {
              "name": "takerFee",
              "type": "uint256"
            },
            {
              "name": "expirationTimeSeconds",
              "type": "uint256"
            },
            {
              "name": "salt",
              "type": "uint256"
            },
            {
              "name": "makerAssetData",
              "type": "bytes"
            },
            {
              "name": "takerAssetData",
              "type": "bytes"
            }
          ],
          "name": "order",
          "type": "tuple"
        },
        {
          "name": "takerAssetFillAmount",
          "type": "uint256"
        },
        {
          "name": "signature",
          "type": "bytes"
        }
      ],
      "name": "fillOrder",
      "outputs": [
        {
          "components": [
            {
              "name": "makerAssetFilledAmount",
              "type": "uint256"
            },
            {
              "name": "takerAssetFilledAmount",
              "type": "uint256"
            },
            {
              "name": "makerFeePaid",
              "type": "uint256"
            },
            {
              "name": "takerFeePaid",
              "type": "uint256"
            }
          ],
          "name": "fillResults",
          "type": "tuple"
        }
      ],
      "payable": false,
      "stateMutability": "nonpayable",
      "type": "function"
    },
    {
      "constant": false,
      "inputs": [
        {
          "name": "salt",
          "type": "uint256"
        },
        {
          "name": "signerAddress",
          "type": "address"
        },
        {
          "name": "data",
          "type": "bytes"
        },
        {
          "name": "signature",
          "type": "bytes"
        }
      ],
      "name": "executeTransaction",
      "outputs": [],
      "payable": false,
      "stateMutability": "nonpayable",
      "type": "function"
    },
    {
      "constant": false,
      "inputs": [
        {
          "name": "assetProxy",
          "type": "address"
        }
      ],
      "name": "registerAssetProxy",
      "outputs": [],
      "payable": false,
      "stateMutability": "nonpayable",
      "type": "function"
    },
    {
      "constant": true,
      "inputs": [
        {
          "components": [
            {
              "name": "makerAddress",
              "type": "address"
            },
            {
              "name": "takerAddress",
              "type": "address"
            },
            {
              "name": "feeRecipientAddress",
              "type": "address"
            },
            {
              "name": "senderAddress",
              "type": "address"
            },
            {
              "name": "makerAssetAmount",
              "type": "uint256"
            },
            {
              "name": "takerAssetAmount",
              "type": "uint256"
            },
            {
              "name": "makerFee",
              "type": "uint256"
            },
            {
              "name": "takerFee",
              "type": "uint256"
            },
            {
              "name": "expirationTimeSeconds",
              "type": "uint256"
            },
            {
              "name": "salt",
              "type": "uint256"
            },
            {
              "name": "makerAssetData",
              "type": "bytes"
            },
            {
              "name": "takerAssetData",
              "type": "bytes"
            }
          ],
          "name": "order",
          "type": "tuple"
        }
      ],
      "name": "getOrderInfo",
      "outputs": [
        {
          "components": [
            {
              "name": "orderStatus",
              "type": "uint8"
            },
            {
              "name": "orderHash",
              "type": "bytes32"
            },
            {
              "name": "orderTakerAssetFilledAmount",
              "type": "uint256"
            }
          ],
          "name": "orderInfo",
          "type": "tuple"
        }
      ],
      "payable": false,
      "stateMutability": "view",
      "type": "function"
    },
    {
      "constant": false,
      "inputs": [
        {
          "components": [
            {
              "name": "makerAddress",
              "type": "address"
            },
            {
              "name": "takerAddress",
              "type": "address"
            },
            {
              "name": "feeRecipientAddress",
              "type": "address"
            },
            {
              "name": "senderAddress",
              "type": "address"
            },
            {
              "name": "makerAssetAmount",
              "type": "uint256"
            },
            {
              "name": "takerAssetAmount",
              "type": "uint256"
            },
            {
              "name": "makerFee",
              "type": "uint256"
            },
            {
              "name": "takerFee",
              "type": "uint256"
            },
            {
              "name": "expirationTimeSeconds",
              "type": "uint256"
            },
            {
              "name": "salt",
              "type": "uint256"
            },
            {
              "name": "makerAssetData",
              "type": "bytes"
            },
            {
              "name": "takerAssetData",
              "type": "bytes"
            }
          ],
          "name": "order",
          "type": "tuple"
        }
      ],
      "name": "cancelOrder",
      "outputs": [],
      "payable": false,
      "stateMutability": "nonpayable",
      "type": "function"
    },
    {
      "constant": true,
      "inputs": [
        {
          "name": "",
          "type": "address"
        },
        {
          "name": "",
          "type": "address"
        }
      ],
      "name": "orderEpoch",
      "outputs": [
        {
          "name": "",
          "type": "uint256"
        }
      ],
      "payable": false,
      "stateMutability": "view",
      "type": "function"
    },
    {
      "constant": true,
      "inputs": [],
      "name": "ZRX_ASSET_DATA",
      "outputs": [
        {
          "name": "",
          "type": "bytes"
        }
      ],
      "payable": false,
      "stateMutability": "view",
      "type": "function"
    },
    {
      "constant": false,
      "inputs": [
        {
          "components": [
            {
              "name": "makerAddress",
              "type": "address"
            },
            {
              "name": "takerAddress",
              "type": "address"
            },
            {
              "name": "feeRecipientAddress",
              "type": "address"
            },
            {
              "name": "senderAddress",
              "type": "address"
            },
            {
              "name": "makerAssetAmount",
              "type": "uint256"
            },
            {
              "name": "takerAssetAmount",
              "type": "uint256"
            },
            {
              "name": "makerFee",
              "type": "uint256"
            },
            {
              "name": "takerFee",
              "type": "uint256"
            },
            {
              "name": "expirationTimeSeconds",
              "type": "uint256"
            },
            {
              "name": "salt",
              "type": "uint256"
            },
            {
              "name": "makerAssetData",
              "type": "bytes"
            },
            {
              "name": "takerAssetData",
              "type": "bytes"
            }
          ],
          "name": "orders",
          "type": "tuple[]"
        },
        {
          "name": "takerAssetFillAmount",
          "type": "uint256"
        },
        {
          "name": "signatures",
          "type": "bytes[]"
        }
      ],
      "name": "marketSellOrdersNoThrow",
      "outputs": [
        {
          "components": [
            {
              "name": "makerAssetFilledAmount",
              "type": "uint256"
            },
            {
              "name": "takerAssetFilledAmount",
              "type": "uint256"
            },
            {
              "name": "makerFeePaid",
              "type": "uint256"
            },
            {
              "name": "takerFeePaid",
              "type": "uint256"
            }
          ],
          "name": "totalFillResults",
          "type": "tuple"
        }
      ],
      "payable": false,
      "stateMutability": "nonpayable",
      "type": "function"
    },
    {
      "constant": true,
      "inputs": [],
      "name": "EIP712_DOMAIN_HASH",
      "outputs": [
        {
          "name": "",
          "type": "bytes32"
        }
      ],
      "payable": false,
      "stateMutability": "view",
      "type": "function"
    },
    {
      "constant": false,
      "inputs": [
        {
          "components": [
            {
              "name": "makerAddress",
              "type": "address"
            },
            {
              "name": "takerAddress",
              "type": "address"
            },
            {
              "name": "feeRecipientAddress",
              "type": "address"
            },
            {
              "name": "senderAddress",
              "type": "address"
            },
            {
              "name": "makerAssetAmount",
              "type": "uint256"
            },
            {
              "name": "takerAssetAmount",
              "type": "uint256"
            },
            {
              "name": "makerFee",
              "type": "uint256"
            },
            {
              "name": "takerFee",
              "type": "uint256"
            },
            {
              "name": "expirationTimeSeconds",
              "type": "uint256"
            },
            {
              "name": "salt",
              "type": "uint256"
            },
            {
              "name": "makerAssetData",
              "type": "bytes"
            },
            {
              "name": "takerAssetData",
              "type": "bytes"
            }
          ],
          "name": "orders",
          "type": "tuple[]"
        },
        {
          "name": "makerAssetFillAmount",
          "type": "uint256"
        },
        {
          "name": "signatures",
          "type": "bytes[]"
        }
      ],
      "name": "marketBuyOrders",
      "outputs": [
        {
          "components": [
            {
              "name": "makerAssetFilledAmount",
              "type": "uint256"
            },
            {
              "name": "takerAssetFilledAmount",
              "type": "uint256"
            },
            {
              "name": "makerFeePaid",
              "type": "uint256"
            },
            {
              "name": "takerFeePaid",
              "type": "uint256"
            }
          ],
          "name": "totalFillResults",
          "type": "tuple"
        }
      ],
      "payable": false,
      "stateMutability": "nonpayable",
      "type": "function"
    },
    {
      "constant": true,
      "inputs": [],
      "name": "currentContextAddress",
      "outputs": [
        {
          "name": "",
          "type": "address"
        }
      ],
      "payable": false,
      "stateMutability": "view",
      "type": "function"
    },
    {
      "constant": false,
      "inputs": [
        {
          "name": "newOwner",
          "type": "address"
        }
      ],
      "name": "transferOwnership",
      "outputs": [],
      "payable": false,
      "stateMutability": "nonpayable",
      "type": "function"
    },
    {
      "constant": true,
      "inputs": [],
      "name": "VERSION",
      "outputs": [
        {
          "name": "",
          "type": "string"
        }
      ],
      "payable": false,
      "stateMutability": "view",
      "type": "function"
    },
    {
      "inputs": [
        {
          "name": "_zrxAssetData",
          "type": "bytes"
        }
      ],
      "payable": false,
      "stateMutability": "nonpayable",
      "type": "constructor"
    },
    {
      "anonymous": false,
      "inputs": [
        {
          "indexed": true,
          "name": "signerAddress",
          "type": "address"
        },
        {
          "indexed": true,
          "name": "validatorAddress",
          "type": "address"
        },
        {
          "indexed": false,
          "name": "approved",
          "type": "bool"
        }
      ],
      "name": "SignatureValidatorApproval",
      "type": "event"
    },
    {
      "anonymous": false,
      "inputs": [
        {
          "indexed": true,
          "name": "makerAddress",
          "type": "address"
        },
        {
          "indexed": true,
          "name": "feeRecipientAddress",
          "type": "address"
        },
        {
          "indexed": false,
          "name": "takerAddress",
          "type": "address"
        },
        {
          "indexed": false,
          "name": "senderAddress",
          "type": "address"
        },
        {
          "indexed": false,
          "name": "makerAssetFilledAmount",
          "type": "uint256"
        },
        {
          "indexed": false,
          "name": "takerAssetFilledAmount",
          "type": "uint256"
        },
        {
          "indexed": false,
          "name": "makerFeePaid",
          "type": "uint256"
        },
        {
          "indexed": false,
          "name": "takerFeePaid",
          "type": "uint256"
        },
        {
          "indexed": true,
          "name": "orderHash",
          "type": "bytes32"
        },
        {
          "indexed": false,
          "name": "makerAssetData",
          "type": "bytes"
        },
        {
          "indexed": false,
          "name": "takerAssetData",
          "type": "bytes"
        }
      ],
      "name": "Fill",
      "type": "event"
    },
    {
      "anonymous": false,
      "inputs": [
        {
          "indexed": true,
          "name": "makerAddress",
          "type": "address"
        },
        {
          "indexed": true,
          "name": "feeRecipientAddress",
          "type": "address"
        },
        {
          "indexed": false,
          "name": "senderAddress",
          "type": "address"
        },
        {
          "indexed": true,
          "name": "orderHash",
          "type": "bytes32"
        },
        {
          "indexed": false,
          "name": "makerAssetData",
          "type": "bytes"
        },
        {
          "indexed": false,
          "name": "takerAssetData",
          "type": "bytes"
        }
      ],
      "name": "Cancel",
      "type": "event"
    },
    {
      "anonymous": false,
      "inputs": [
        {
          "indexed": true,
          "name": "makerAddress",
          "type": "address"
        },
        {
          "indexed": true,
          "name": "senderAddress",
          "type": "address"
        },
        {
          "indexed": false,
          "name": "orderEpoch",
          "type": "uint256"
        }
      ],
      "name": "CancelUpTo",
      "type": "event"
    },
    {
      "anonymous": false,
      "inputs": [
        {
          "indexed": false,
          "name": "id",
          "type": "bytes4"
        },
        {
          "indexed": false,
          "name": "assetProxy",
          "type": "address"
        }
      ],
      "name": "AssetProxyRegistered",
      "type": "event"
    }
  ],
  "bytecode": "0x60806040526000805460ff191690553480156200001b57600080fd5b50604051620050323803806200503283398101806040526200004191908101906200044d565b80518190620000589060019060208401906200034c565b5050604080517f454950373132446f6d61696e28000000000000000000000000000000000000006020808301919091527f737472696e67206e616d652c0000000000000000000000000000000000000000602d8301527f737472696e672076657273696f6e2c000000000000000000000000000000000060398301527f6164647265737320766572696679696e67436f6e74726163740000000000000060488301527f2900000000000000000000000000000000000000000000000000000000000000606183015282516042818403018152606290920192839052815191929182918401908083835b60208310620001625780518252601f19909201916020918201910162000141565b51815160209384036101000a6000190180199092169116179052604080519290940182900382208285018552600b8084527f30782050726f746f636f6c000000000000000000000000000000000000000000928401928352945190965091945090928392508083835b60208310620001ec5780518252601f199092019160209182019101620001cb565b51815160209384036101000a600019018019909216911617905260408051929094018290038220828501855260018084527f3200000000000000000000000000000000000000000000000000000000000000928401928352945190965091945090928392508083835b60208310620002765780518252601f19909201916020918201910162000255565b51815160209384036101000a6000190180199092169116179052604080519290940182900382208282019890985281840196909652606081019690965250306080808701919091528151808703909101815260a09095019081905284519093849350850191508083835b60208310620003015780518252601f199092019160209182019101620002e0565b5181516000196020949094036101000a939093019283169219169190911790526040519201829003909120600255505060038054600160a060020a03191633179055506200050f9050565b828054600181600116156101000203166002900490600052602060002090601f016020900481019282601f106200038f57805160ff1916838001178555620003bf565b82800160010185558215620003bf579182015b82811115620003bf578251825591602001919060010190620003a2565b50620003cd929150620003d1565b5090565b620003ee91905b80821115620003cd5760008155600101620003d8565b90565b6000601f820183136200040357600080fd5b81516200041a6200041482620004b4565b6200048d565b915080825260208301602083018583830111156200043757600080fd5b62000444838284620004dc565b50505092915050565b6000602082840312156200046057600080fd5b81516001604060020a038111156200047757600080fd5b6200048584828501620003f1565b949350505050565b6040518181016001604060020a0381118282101715620004ac57600080fd5b604052919050565b60006001604060020a03821115620004cb57600080fd5b506020601f91909101601f19160190565b60005b83811015620004f9578181015183820152602001620004df565b8381111562000509576000848401525b50505050565b614b13806200051f6000396000f3006080604052600436106101b65763ffffffff7c0100000000000000000000000000000000000000000000000000000000600035041663288cdc9181146101bb578063297bb70b146101f15780632ac126221461021e5780633683ef8e1461024b5780633c28d8611461026d5780633e228bae1461029a5780633fd3c997146102ba5780634ac14782146102e75780634d0ae546146103075780634f9559b11461032757806350dde190146103475780636070410814610367578063642f2eaf1461039457806364a3bc15146103b457806377fcce68146103d45780637b8e3514146103f45780637e1d9808146104145780637e9d74dc1461043457806382c174d0146104615780638da5cb5b146104815780639363470214610496578063a3e20380146104b6578063b4be83d5146104d6578063bfc8bfce146104f6578063c585bb9314610516578063c75e0a8114610536578063d46b02c314610563578063d9bfa73e14610583578063db123b1a146105a3578063dd1c7d18146105c5578063e306f779146105e5578063e5fa431b146105fa578063eea086ba1461061a578063f2fde38b1461062f578063ffa1ad741461064f575b600080fd5b3480156101c757600080fd5b506101db6101d6366004613ac1565b610664565b6040516101e891906146e6565b60405180910390f35b3480156101fd57600080fd5b5061021161020c3660046139e4565b610676565b6040516101e891906149c0565b34801561022a57600080fd5b5061023e610239366004613ac1565b61074e565b6040516101e891906146d8565b34801561025757600080fd5b5061026b610266366004613afe565b610763565b005b34801561027957600080fd5b5061028d610288366004613c32565b610801565b6040516101e891906149ce565b3480156102a657600080fd5b506102116102b5366004613cf2565b610945565b3480156102c657600080fd5b506102da6102d5366004613bc1565b61099b565b6040516101e891906147a2565b3480156102f357600080fd5b5061026b6103023660046139af565b6109b6565b34801561031357600080fd5b506102116103223660046139e4565b610a30565b34801561033357600080fd5b5061026b610342366004613ac1565b610aeb565b34801561035357600080fd5b506102116103623660046139e4565b610c0f565b34801561037357600080fd5b50610387610382366004613bc1565b610ca3565b6040516101e891906145f8565b3480156103a057600080fd5b5061023e6103af366004613ac1565b610ccc565b3480156103c057600080fd5b506102116103cf366004613cf2565b610ce1565b3480156103e057600080fd5b5061026b6103ef36600461397f565b610d39565b34801561040057600080fd5b5061023e61040f366004613945565b610df5565b34801561042057600080fd5b5061021161042f366004613a78565b610e15565b34801561044057600080fd5b5061045461044f3660046139af565b610f26565b6040516101e891906146c7565b34801561046d57600080fd5b5061023e61047c366004613adf565b610fbb565b34801561048d57600080fd5b50610387610fdb565b3480156104a257600080fd5b5061023e6104b1366004613b66565b610fea565b3480156104c257600080fd5b506102116104d1366004613a78565b6113f7565b3480156104e257600080fd5b506102116104f1366004613cf2565b61150a565b34801561050257600080fd5b5061026b610511366004613d3b565b611550565b34801561052257600080fd5b5061026b610531366004613927565b611725565b34801561054257600080fd5b50610556610551366004613bfd565b6118b3565b6040516101e891906149dd565b34801561056f57600080fd5b5061026b61057e366004613bfd565b6119a0565b34801561058f57600080fd5b506101db61059e366004613945565b6119e9565b3480156105af57600080fd5b506105b8611a06565b6040516101e89190614791565b3480156105d157600080fd5b506102116105e0366004613a78565b611a93565b3480156105f157600080fd5b506101db611b68565b34801561060657600080fd5b50610211610615366004613a78565b611b6e565b34801561062657600080fd5b50610387611c8d565b34801561063b57600080fd5b5061026b61064a366004613927565b611c9c565b34801561065b57600080fd5b506105b8611d04565b60046020526000908152604090205481565b61067e613559565b600080610689613559565b60005460ff16156106b85760405160e560020a62461bcd0281526004016106af90614940565b60405180910390fd5b6000805460ff191660011781558751935091505b81831461073a5761072387838151811015156106e457fe5b9060200190602002015187848151811015156106fc57fe5b90602001906020020151878581518110151561071457fe5b90602001906020020151611d3b565b905061072f8482611dd9565b6001909101906106cc565b50506000805460ff19169055509392505050565b60056020526000908152604090205460ff1681565b600160a060020a03831633146107cf576107ae848484848080601f01602080910402602001604051908101604052809392919081815260200183838082843750610fea945050505050565b15156107cf5760405160e560020a62461bcd0281526004016106af90614870565b50506000918252600760209081526040808420600160a060020a0390931684529190529020805460ff19166001179055565b610809613582565b6108116135b1565b6108196135b1565b6000805460ff16156108405760405160e560020a62461bcd0281526004016106af90614940565b6000805460ff1916600117905561016080890151610140808a01919091528901519088015261086e886118b3565b9250610879876118b3565b9150610883611e3b565b905061089188848389611e60565b61089d87838388611e60565b6108a78888611f5b565b6108bb888885604001518560400151611fa4565b8051602081015190519195506108d6918a918691819061212b565b6020808501519081015190516108f2918991859190819061212b565b61090b88828560200151866040015188600001516121e8565b61092487828460200151856040015188602001516121e8565b61093088888387612287565b50506000805460ff1916905550949350505050565b61094d613559565b606061095a858585612427565b9050608081825160208401305af4801561099157815183526020820151602084015260408201516040840152606082015160608401525b505b509392505050565b600b60205260009081526040902054600160a060020a031681565b60008054819060ff16156109df5760405160e560020a62461bcd0281526004016106af90614940565b50506000805460ff191660011781558151905b808214610a2157610a198382815181101515610a0a57fe5b906020019060200201516125db565b6001016109f2565b50506000805460ff1916905550565b610a38613559565b600080610a43613559565b60005460ff1615610a695760405160e560020a62461bcd0281526004016106af90614940565b6000805460ff191660011781558751935091505b81831461073a57610ad48783815181101515610a9557fe5b906020019060200201518784815181101515610aad57fe5b906020019060200201518785815181101515610ac557fe5b90602001906020020151612606565b9050610ae08482611dd9565b600190910190610a7d565b6000805481908190819060ff1615610b185760405160e560020a62461bcd0281526004016106af90614940565b6000805460ff19166001179055610b2d611e3b565b9350600160a060020a0384163314610b455733610b48565b60005b600160a060020a038086166000908152600660209081526040808320938516835292905220549093506001860192509050808211610b9b5760405160e560020a62461bcd0281526004016106af90614900565b600160a060020a0380851660008181526006602090815260408083209488168084529490915290819020859055517f82af639571738f4ebd4268fb0363d8957ebe1bbb9e78dba5ebd69eed39b154f090610bf69086906146e6565b60405180910390a350506000805460ff19169055505050565b610c17613559565b600080610c22613559565b86519250600091505b818314610c9957610c828783815181101515610c4357fe5b906020019060200201518784815181101515610c5b57fe5b906020019060200201518785815181101515610c7357fe5b90602001906020020151610945565b9050610c8e8482611dd9565b600190910190610c2b565b5050509392505050565b600160e060020a031981166000908152600b6020526040902054600160a060020a03165b919050565b60096020526000908152604090205460ff1681565b610ce9613559565b60005460ff1615610d0f5760405160e560020a62461bcd0281526004016106af90614940565b6000805460ff19166001179055610d27848484612606565b6000805460ff19169055949350505050565b6000805460ff1615610d605760405160e560020a62461bcd0281526004016106af90614940565b6000805460ff19166001179055610d75611e3b565b600160a060020a0381811660008181526008602090815260408083209489168084529490915290819020805460ff19168715151790555192935090917fa8656e308026eeabce8f0bc18048433252318ab80ac79da0b3d3d8697dfba89190610dde9086906146d8565b60405180910390a350506000805460ff1916905550565b600860209081526000928352604080842090915290825290205460ff1681565b610e1d613559565b60606000806000610e2c613559565b60005460ff1615610e525760405160e560020a62461bcd0281526004016106af90614940565b6000805460ff1916600117815589518a91908110610e6c57fe5b906020019060200201516101600151945088519350600092505b828414610f0f57848984815181101515610e9c57fe5b906020019060200201516101600181905250610ebc888760200151612642565b9150610ee88984815181101515610ecf57fe5b9060200190602002015183898681518110151561071457fe5b9050610ef48682611dd9565b60208601518811610f0457610f0f565b600190920191610e86565b50506000805460ff19169055509195945050505050565b60606000606060008451925082604051908082528060200260200182016040528015610f6c57816020015b610f596135b1565b815260200190600190039081610f515790505b509150600090505b80831461099357610f9b8582815181101515610f8c57fe5b906020019060200201516118b3565b8282815181101515610fa957fe5b60209081029091010152600101610f74565b600760209081526000928352604080842090915290825290205460ff1681565b600354600160a060020a031681565b6000806000806000806000806000895111151561101c5760405160e560020a62461bcd0281526004016106af906148f0565b61102589612672565b60f860020a90049650600760ff8816106110545760405160e560020a62461bcd0281526004016106af90614810565b8660ff16600781111561106357fe5b9550600086600781111561107357fe5b14156110945760405160e560020a62461bcd0281526004016106af906148e0565b60018660078111156110a257fe5b14156110d3578851156110ca5760405160e560020a62461bcd0281526004016106af906149b0565b600097506113e9565b60028660078111156110e157fe5b14156111be57885160411461110b5760405160e560020a62461bcd0281526004016106af906147b0565b88600081518110151561111a57fe5b016020015160f860020a90819004810204945061113e89600163ffffffff6126c716565b935061115189602163ffffffff6126c716565b925060018b868686604051600081526020016040526040516111769493929190614741565b60206040516020810390808403906000865af115801561119a573d6000803e3d6000fd5b5050604051601f190151600160a060020a038c811690821614995092506113e99050565b60038660078111156111cc57fe5b14156113035788516041146111f65760405160e560020a62461bcd0281526004016106af906147b0565b88600081518110151561120557fe5b016020015160f860020a90819004810204945061122989600163ffffffff6126c716565b935061123c89602163ffffffff6126c716565b925060018b60405160200180807f19457468657265756d205369676e6564204d6573736167653a0a333200000000815250601c0182600019166000191681526020019150506040516020818303038152906040526040518082805190602001908083835b602083106112bf5780518252601f1990920191602091820191016112a0565b51815160209384036101000a600019018019909216911617905260408051929094018290038220600083529101928390526111769450925089918991508890614741565b600486600781111561131157fe5b1415611329576113228b8b8b6126fb565b97506113e9565b600586600781111561133757fe5b141561138d5761134689612803565b600160a060020a03808c1660009081526008602090815260408083209385168352929052205490915060ff16151561138157600097506113e9565b611322818c8c8c612847565b600686600781111561139b57fe5b14156113ce5760008b8152600760209081526040808320600160a060020a038e16845290915290205460ff1697506113e9565b60405160e560020a62461bcd0281526004016106af90614810565b505050505050509392505050565b6113ff613559565b606060008060008061140f613559565b89600081518110151561141e57fe5b906020019060200201516101400151955089519450600093505b8385146114fd57858a8581518110151561144e57fe5b602090810290910101516101400152865161146a908a90612642565b92506114ad8a8581518110151561147d57fe5b9060200190602002015160a001518b8681518110151561149957fe5b906020019060200201516080015185612956565b91506114d98a858151811015156114c057fe5b90602001906020020151838a87815181101515610c7357fe5b90506114e58782611dd9565b865189116114f2576114fd565b600190930192611438565b5050505050509392505050565b611512613559565b60005460ff16156115385760405160e560020a62461bcd0281526004016106af90614940565b6000805460ff19166001179055610d27848484611d3b565b600a54600090600160a060020a03161561157f5760405160e560020a62461bcd0281526004016106af90614940565b6115c26115bd888888888080601f01602080910402602001604051908101604052809392919081815260200183838082843750612995945050505050565b612b51565b60008181526009602052604090205490915060ff16156115f75760405160e560020a62461bcd0281526004016106af90614860565b600160a060020a038616331461168c57611642818785858080601f01602080910402602001604051908101604052809392919081815260200183838082843750610fea945050505050565b15156116635760405160e560020a62461bcd0281526004016106af906149a0565b600a805473ffffffffffffffffffffffffffffffffffffffff1916600160a060020a0388161790555b60008181526009602052604090819020805460ff191660011790555130908690869080838380828437820191505092505050600060405180830381855af491505015156116ee5760405160e560020a62461bcd0281526004016106af90614890565b600160a060020a038616331461171c57600a805473ffffffffffffffffffffffffffffffffffffffff191690555b50505050505050565b60035460009081908190600160a060020a031633146117595760405160e560020a62461bcd0281526004016106af90614950565b83925082600160a060020a031663ae25532e6040518163ffffffff167c0100000000000000000000000000000000000000000000000000000000028152600401602060405180830381600087803b1580156117b357600080fd5b505af11580156117c7573d6000803e3d6000fd5b505050506040513d601f19601f820116820180604052506117eb9190810190613bdf565b600160e060020a031981166000908152600b6020526040902054909250600160a060020a0316905080156118345760405160e560020a62461bcd0281526004016106af906147f0565b600160e060020a031982166000908152600b602052604090819020805473ffffffffffffffffffffffffffffffffffffffff1916600160a060020a038616179055517fd2c6b762299c609bdb96520b58a49bfb80186934d4f71a86a367571a15c03194906118a59084908790614776565b60405180910390a150505050565b6118bb6135b1565b6118c482612b8e565b60208083018290526000918252600490526040908190205490820152608082015115156118f85760015b60ff168152610cc7565b60a0820151151561190a5760026118ee565b60a08201516040820151106119205760056118ee565b61010082015142106119335760046118ee565b60208082015160009081526005909152604090205460ff16156119575760066118ee565b6101208201518251600160a060020a03908116600090815260066020908152604080832060608801519094168352929052205411156119975760066118ee565b60038152919050565b60005460ff16156119c65760405160e560020a62461bcd0281526004016106af90614940565b6000805460ff191660011790556119dc816125db565b506000805460ff19169055565b600660209081526000928352604080842090915290825290205481565b60018054604080516020600284861615610100026000190190941693909304601f81018490048402820184019092528181529291830182828015611a8b5780601f10611a6057610100808354040283529160200191611a8b565b820191906000526020600020905b815481529060010190602001808311611a6e57829003601f168201915b505050505081565b611a9b613559565b60606000806000611aaa613559565b886000815181101515611ab957fe5b906020019060200201516101600151945088519350600092505b828414611b5c57848984815181101515611ae957fe5b906020019060200201516101600181905250611b09888760200151612642565b9150611b358984815181101515611b1c57fe5b90602001906020020151838986815181101515610c7357fe5b9050611b418682611dd9565b60208601518811611b5157611b5c565b600190920191611ad3565b50505050509392505050565b60025481565b611b76613559565b6060600080600080611b86613559565b60005460ff1615611bac5760405160e560020a62461bcd0281526004016106af90614940565b6000805460ff191660011781558a518b91908110611bc657fe5b906020019060200201516101400151955089519450600093505b838514611c7557858a85815181101515611bf657fe5b6020908102909101015161014001528651611c12908a90612642565b9250611c258a8581518110151561147d57fe5b9150611c518a85815181101515611c3857fe5b90602001906020020151838a8781518110151561071457fe5b9050611c5d8782611dd9565b86518911611c6a57611c75565b600190930192611be0565b50506000805460ff1916905550929695505050505050565b600a54600160a060020a031681565b600354600160a060020a03163314611cc95760405160e560020a62461bcd0281526004016106af90614950565b600160a060020a03811615611d01576003805473ffffffffffffffffffffffffffffffffffffffff1916600160a060020a0383161790555b50565b60408051808201909152600b81527f322e302e312d616c706861000000000000000000000000000000000000000000602082015281565b611d43613559565b611d4b6135b1565b6000806000611d59886118b3565b9350611d63611e3b565b9250611d7188858589611e60565b611d838860a001518560400151612642565b9150611d8f8783612b9c565b9050611da288858984896000015161212b565b611dac8882612bb2565b9450611dc3888486602001518760400151896121e8565b611dce888487612c13565b505050509392505050565b81518151611de79190612d03565b825260208083015190820151611dfd9190612d03565b602083015260408083015190820151611e169190612d03565b604083015260608083015190820151611e2f9190612d03565b60609092019190915250565b600a54600090600160a060020a0316818115611e575781611e59565b335b9392505050565b825160ff16600314611e875760405160e560020a62461bcd0281526004016106af90614970565b6060840151600160a060020a031615611ec9576060840151600160a060020a03163314611ec95760405160e560020a62461bcd0281526004016106af90614980565b6020840151600160a060020a031615611f165781600160a060020a03168460200151600160a060020a0316141515611f165760405160e560020a62461bcd0281526004016106af906147c0565b60408301511515611f5557611f348360200151856000015183610fea565b1515611f555760405160e560020a62461bcd0281526004016106af90614830565b50505050565b611f6d8260a001518260a00151612d36565b611f7f83608001518360800151612d36565b1015611fa05760405160e560020a62461bcd0281526004016106af90614990565b5050565b611fac613582565b600080600080611fc08960a0015188612642565b9350611fd589608001518a60a0015186612d7a565b9250611fe58860a0015187612642565b9150611ffa88608001518960a0015184612d7a565b905080841061203d5760208086018051839052805182018490525151865182015260808a015160a08b01518751909201516120359290612d7a565b85515261207a565b845183905284516020908101859052855181015190860180519190915260a089015160808a01519151516120719290612dc9565b60208087015101525b845151602080870151015161208f9190612642565b604086015284515160808a015160c08b01516120ac929190612d7a565b85516040015284516020015160a08a015160e08b01516120cd929190612d7a565b855160600152602085015151608089015160c08a01516120ee929190612d7a565b856020015160400181815250506121168560200151602001518960a001518a60e00151612d7a565b60208601516060015250505050949350505050565b82151561214d5760405160e560020a62461bcd0281526004016106af906148b0565b828211156121705760405160e560020a62461bcd0281526004016106af906148a0565b8460a00151612183856040015184612d03565b11156121a45760405160e560020a62461bcd0281526004016106af906147d0565b6121b2856080015183612d36565b6121c0828760a00151612d36565b11156121e15760405160e560020a62461bcd0281526004016106af90614930565b5050505050565b6121f6828260200151612d03565b600084815260046020908152604091829020929092558681015187518451938501518584015160608701516101408c01516101608d015196518b98600160a060020a039788169897909616967f0bcc4c97732e47d9946f229edb95f5b6323f601300e4690de719993f3c37112996612278968f96339692959194909390614606565b60405180910390a45050505050565b60018054604080516020601f600260001961010087891615020190951694909404938401819004810282018101909252828152606093909290918301828280156123125780601f106122e757610100808354040283529160200191612312565b820191906000526020600020905b8154815290600101906020018083116122f557829003601f168201915b5050505050905061233a85610140015186600001518660000151856020015160200151612e38565b6101408401518451865184516020015161235693929190612e38565b61236f8561014001518660000151858560400151612e38565b61238b8186600001518760400151856000015160400151612e38565b6123a78185600001518660400151856020015160400151612e38565b8360400151600160a060020a03168560400151600160a060020a031614156123f7576123f2818487604001516123ed866000015160600151876020015160600151612d03565b612e38565b6121e1565b61240f81848760400151856000015160600151612e38565b6121e181848660400151856020015160600151612e38565b604080517fb4be83d5000000000000000000000000000000000000000000000000000000006020808301919091526060602483018181528751608485019081528884015160a48601529488015160c48501529087015160e4840152608087015161010484015260a087015161012484015260c087015161014484015260e08701516101648401526101008701516101848401526101208701516101a4840152610140870180516101c485019081526101608901516101e4860152610180905251805161020485018190529394919384936044870192849261022489019291820191601f82010460005b8181101561252e578351855260209485019490930192600101612510565b50505050818103610160808401919091528a0151805180835260209283019291820191601f82010460005b81811015612577578351855260209485019490930192600101612559565b50505089845250848103602093840190815288518083529093918201918981019190601f82010460005b818110156125bf5783518552602094850194909301926001016125a1565b505050601f198883030188525060405250505050509392505050565b6125e36135b1565b6125ec826118b3565b90506125f88282612f7b565b611fa0828260200151613026565b61260e613559565b612619848484611d3b565b60208101519091508314611e595760405160e560020a62461bcd0281526004016106af90614920565b6000828211156126675760405160e560020a62461bcd0281526004016106af906147e0565b508082035b92915050565b60008082511115156126995760405160e560020a62461bcd0281526004016106af906148d0565b8151829060001981019081106126ab57fe5b01602001518251600019019092525060f860020a908190040290565b6000816020018351101515156126f25760405160e560020a62461bcd0281526004016106af90614800565b50016020015190565b6040516000906060907f1626ba7e00000000000000000000000000000000000000000000000000000000906127369087908690602401614721565b60408051601f19818403018152919052602080820180517bffffffffffffffffffffffffffffffffffffffffffffffffffffffff16600160e060020a0319909416939093178352815191935090829081885afa80801561279d57600181146127f757611dce565b60e560020a62461bcd026000527c20000000000000000000000000000000000000000000000000000000006020527c0c57414c4c45545f4552524f5200000000000000000000000000000000604052600060605260646000fd5b50505195945050505050565b6000601482511015151561282c5760405160e560020a62461bcd0281526004016106af90614960565b61283a8260148451036130a2565b8251601319019092525090565b6040516000906060907f936347020000000000000000000000000000000000000000000000000000000090612884908790879087906024016146f4565b60408051601f19818403018152919052602080820180517bffffffffffffffffffffffffffffffffffffffffffffffffffffffff16600160e060020a03199094169390931783528151919350908290818a5afa8080156128eb57600181146129455761294a565b60e560020a62461bcd026000527c20000000000000000000000000000000000000000000000000000000006020527c0f56414c494441544f525f4552524f5200000000000000000000000000604052600060605260646000fd5b825194505b50505050949350505050565b600080831161297a5760405160e560020a62461bcd0281526004016106af90614820565b61298d6129878584612d36565b846130df565b949350505050565b604080517f5a65726f45785472616e73616374696f6e2800000000000000000000000000006020808301919091527f75696e743235362073616c742c0000000000000000000000000000000000000060328301527f61646472657373207369676e6572416464726573732c00000000000000000000603f8301527f627974657320646174610000000000000000000000000000000000000000000060558301527f2900000000000000000000000000000000000000000000000000000000000000605f830152825180830384018152606090920192839052815160009384938493909282918401908083835b60208310612aa05780518252601f199092019160209182019101612a81565b51815160209384036101000a600019018019909216911617905260405191909301819003812089519097508995509093508392850191508083835b60208310612afa5780518252601f199092019160209182019101612adb565b51815160209384036101000a60001901801990921691161790526040805192909401829003822097825281019a909a5250600160a060020a0397909716968801969096525050606085015250506080909120919050565b600280546040517f190100000000000000000000000000000000000000000000000000000000000081529182015260228101919091526042902090565b600061266c6115bd836130f6565b6000818310612bab5781611e59565b5090919050565b612bba613559565b6020810182905260a08301516080840151612bd6918491612d7a565b808252608084015160c0850151612bee929190612d7a565b604082015260a083015160e0840151612c08918491612d7a565b606082015292915050565b60018054604080516020601f60026000196101008789161502019095169490940493840181900481028201810190925282815260609390929091830182828015612c9e5780601f10612c7357610100808354040283529160200191612c9e565b820191906000526020600020905b815481529060010190602001808311612c8157829003601f168201915b50505050509050612cbe8461014001518560000151858560000151612e38565b612cd78461016001518486600001518560200151612e38565b612cef81856000015186604001518560400151612e38565b611f55818486604001518560600151612e38565b600082820183811015612d2b5760405160e560020a62461bcd0281526004016106af90614850565b8091505b5092915050565b600080831515612d495760009150612d2f565b50828202828482811515612d5957fe5b0414612d2b5760405160e560020a62461bcd0281526004016106af90614850565b6000808311612d9e5760405160e560020a62461bcd0281526004016106af90614820565b612da984848461347d565b1561297a5760405160e560020a62461bcd0281526004016106af90614880565b6000808311612ded5760405160e560020a62461bcd0281526004016106af90614820565b612df88484846134eb565b15612e185760405160e560020a62461bcd0281526004016106af90614880565b61298d612987612e288685612d36565b612e33866001612642565b612d03565b600080600083118015612e5d575083600160a060020a031685600160a060020a031614155b15612f73578551600310612e865760405160e560020a62461bcd0281526004016106af90614910565b5050602084810151600160e060020a0319166000818152600b909252604090912054600160a060020a0316801515612ed35760405160e560020a62461bcd0281526004016106af906148c0565b604051660fffffffffffe0603f885101168060840182017fa85e59e400000000000000000000000000000000000000000000000000000000835260806004840152600160a060020a0388166024840152600160a060020a0387166044840152856064840152608483015b81811015612f5557895181526020998a019901612f3d565b61020084858403866000895af1801515612f6d573d85fd5b50505050505b505050505050565b805160009060ff16600314612fa55760405160e560020a62461bcd0281526004016106af90614970565b6060830151600160a060020a031615612fe7576060830151600160a060020a03163314612fe75760405160e560020a62461bcd0281526004016106af90614980565b612fef611e3b565b8351909150600160a060020a038083169116146130215760405160e560020a62461bcd0281526004016106af90614840565b505050565b60008181526005602052604090819020805460ff1916600117905582810151835161014085015161016086015193518594600160a060020a039485169493909316927fdc47b3613d9fe400085f6dbdc99453462279057e6207385042827ed6b1a62cf7926130969233929061468a565b60405180910390a45050565b6000816014018351101515156130cd5760405160e560020a62461bcd0281526004016106af90614960565b500160140151600160a060020a031690565b60008082848115156130ed57fe5b04949350505050565b604080517f4f726465722800000000000000000000000000000000000000000000000000006020808301919091527f61646472657373206d616b6572416464726573732c000000000000000000000060268301527f616464726573732074616b6572416464726573732c0000000000000000000000603b8301527f6164647265737320666565526563697069656e74416464726573732c0000000060508301527f616464726573732073656e646572416464726573732c00000000000000000000606c8301527f75696e74323536206d616b65724173736574416d6f756e742c0000000000000060828301527f75696e743235362074616b65724173736574416d6f756e742c00000000000000609b8301527f75696e74323536206d616b65724665652c00000000000000000000000000000060b48301527f75696e743235362074616b65724665652c00000000000000000000000000000060c58301527f75696e743235362065787069726174696f6e54696d655365636f6e64732c000060d68301527f75696e743235362073616c742c0000000000000000000000000000000000000060f48301527f6279746573206d616b65724173736574446174612c00000000000000000000006101018301527f62797465732074616b65724173736574446174610000000000000000000000006101168301527f290000000000000000000000000000000000000000000000000000000000000061012a830152825161010b81840301815261012b90920192839052815160009384938493849391929182918401908083835b602083106133605780518252601f199092019160209182019101613341565b51815160209384036101000a60001901801990921691161790526040519190930181900381206101408b0151805191995095509093508392850191508083835b602083106133bf5780518252601f1990920191602091820191016133a0565b51815160209384036101000a60001901801990921691161790526040519190930181900381206101608b0151805191985095509093508392850191508083835b6020831061341e5780518252601f1990920191602091820191016133ff565b5181516020939093036101000a60001901801990911692169190911790526040519201829003909120601f19890180516101408b018051610160909c0180519a84529881529288526101a0822091529890525050509190525090919050565b6000808084116134a25760405160e560020a62461bcd0281526004016106af90614820565b8215806134ad575084155b156134bb5760009150610993565b838015156134c557fe5b85840990506134d48584612d36565b6134e06103e883612d36565b101595945050505050565b6000808084116135105760405160e560020a62461bcd0281526004016106af90614820565b82158061351b575084155b156135295760009150610993565b8380151561353357fe5b8584099050836135438583612642565b81151561354c57fe5b0690506134d48584612d36565b608060405190810160405280600081526020016000815260200160008152602001600081525090565b61012060405190810160405280613597613559565b81526020016135a4613559565b8152602001600081525090565b604080516060810182526000808252602082018190529181019190915290565b6000611e598235614a65565b6000601f820183136135ee57600080fd5b81356136016135fc82614a12565b6149eb565b81815260209384019390925082018360005b8381101561363f5781358601613629888261378f565b8452506020928301929190910190600101613613565b5050505092915050565b6000601f8201831361365a57600080fd5b81356136686135fc82614a12565b81815260209384019390925082018360005b8381101561363f578135860161369088826137de565b845250602092830192919091019060010161367a565b6000601f820183136136b757600080fd5b81356136c56135fc82614a12565b915081818352602084019350602081019050838560208402820111156136ea57600080fd5b60005b8381101561363f57816137008882613722565b84525060209283019291909101906001016136ed565b6000611e598235614a71565b6000611e598235614a76565b6000611e598235614a79565b6000611e598251614a79565b600080601f8301841361375857600080fd5b50813567ffffffffffffffff81111561377057600080fd5b60208301915083600182028301111561378857600080fd5b9250929050565b6000601f820183136137a057600080fd5b81356137ae6135fc82614a33565b915080825260208301602083018583830111156137ca57600080fd5b6137d5838284614a97565b50505092915050565b600061018082840312156137f157600080fd5b6137fc6101806149eb565b9050600061380a84846135d1565b825250602061381b848483016135d1565b602083015250604061382f848285016135d1565b6040830152506060613843848285016135d1565b606083015250608061385784828501613722565b60808301525060a061386b84828501613722565b60a08301525060c061387f84828501613722565b60c08301525060e061389384828501613722565b60e0830152506101006138a884828501613722565b610100830152506101206138be84828501613722565b6101208301525061014082013567ffffffffffffffff8111156138e057600080fd5b6138ec8482850161378f565b6101408301525061016082013567ffffffffffffffff81111561390e57600080fd5b61391a8482850161378f565b6101608301525092915050565b60006020828403121561393957600080fd5b600061298d84846135d1565b6000806040838503121561395857600080fd5b600061396485856135d1565b9250506020613975858286016135d1565b9150509250929050565b6000806040838503121561399257600080fd5b600061399e85856135d1565b925050602061397585828601613716565b6000602082840312156139c157600080fd5b813567ffffffffffffffff8111156139d857600080fd5b61298d84828501613649565b6000806000606084860312156139f957600080fd5b833567ffffffffffffffff811115613a1057600080fd5b613a1c86828701613649565b935050602084013567ffffffffffffffff811115613a3957600080fd5b613a45868287016136a6565b925050604084013567ffffffffffffffff811115613a6257600080fd5b613a6e868287016135dd565b9150509250925092565b600080600060608486031215613a8d57600080fd5b833567ffffffffffffffff811115613aa457600080fd5b613ab086828701613649565b9350506020613a4586828701613722565b600060208284031215613ad357600080fd5b600061298d8484613722565b60008060408385031215613af257600080fd5b60006139648585613722565b60008060008060608587031215613b1457600080fd5b6000613b208787613722565b9450506020613b31878288016135d1565b935050604085013567ffffffffffffffff811115613b4e57600080fd5b613b5a87828801613746565b95989497509550505050565b600080600060608486031215613b7b57600080fd5b6000613b878686613722565b9350506020613b98868287016135d1565b925050604084013567ffffffffffffffff811115613bb557600080fd5b613a6e8682870161378f565b600060208284031215613bd357600080fd5b600061298d848461372e565b600060208284031215613bf157600080fd5b600061298d848461373a565b600060208284031215613c0f57600080fd5b813567ffffffffffffffff811115613c2657600080fd5b61298d848285016137de565b60008060008060808587031215613c4857600080fd5b843567ffffffffffffffff811115613c5f57600080fd5b613c6b878288016137de565b945050602085013567ffffffffffffffff811115613c8857600080fd5b613c94878288016137de565b935050604085013567ffffffffffffffff811115613cb157600080fd5b613cbd8782880161378f565b925050606085013567ffffffffffffffff811115613cda57600080fd5b613ce68782880161378f565b91505092959194509250565b600080600060608486031215613d0757600080fd5b833567ffffffffffffffff811115613d1e57600080fd5b613d2a868287016137de565b9350506020613b9886828701613722565b60008060008060008060808789031215613d5457600080fd5b6000613d608989613722565b9650506020613d7189828a016135d1565b955050604087013567ffffffffffffffff811115613d8e57600080fd5b613d9a89828a01613746565b9450945050606087013567ffffffffffffffff811115613db957600080fd5b613dc589828a01613746565b92509250509295509295509295565b613ddd81614a65565b82525050565b6000613dee82614a61565b808452602084019350613e0083614a5b565b60005b82811015613e3057613e168683516145b8565b613e1f82614a5b565b606096909601959150600101613e03565b5093949350505050565b613ddd81614a71565b613ddd81614a76565b613ddd81614a79565b6000613e6082614a61565b808452613e74816020860160208601614aa3565b613e7d81614acf565b9093016020019392505050565b613ddd81614a8c565b601281527f4c454e4754485f36355f52455155495245440000000000000000000000000000602082015260400190565b600d81527f494e56414c49445f54414b455200000000000000000000000000000000000000602082015260400190565b600e81527f4f524445525f4f56455246494c4c000000000000000000000000000000000000602082015260400190565b601181527f55494e543235365f554e444552464c4f57000000000000000000000000000000602082015260400190565b601a81527f41535345545f50524f58595f414c52454144595f455849535453000000000000602082015260400190565b602681527f475245415445525f4f525f455155414c5f544f5f33325f4c454e4754485f524560208201527f5155495245440000000000000000000000000000000000000000000000000000604082015260600190565b601581527f5349474e41545552455f554e535550504f525445440000000000000000000000602082015260400190565b601081527f4449564953494f4e5f42595f5a45524f00000000000000000000000000000000602082015260400190565b601781527f494e56414c49445f4f524445525f5349474e4154555245000000000000000000602082015260400190565b600d81527f494e56414c49445f4d414b455200000000000000000000000000000000000000602082015260400190565b601081527f55494e543235365f4f564552464c4f5700000000000000000000000000000000602082015260400190565b600f81527f494e56414c49445f54585f484153480000000000000000000000000000000000602082015260400190565b601181527f494e56414c49445f5349474e4154555245000000000000000000000000000000602082015260400190565b600e81527f524f554e44494e475f4552524f52000000000000000000000000000000000000602082015260400190565b601081527f4641494c45445f455845435554494f4e00000000000000000000000000000000602082015260400190565b600d81527f54414b45525f4f56455250415900000000000000000000000000000000000000602082015260400190565b601481527f494e56414c49445f54414b45525f414d4f554e54000000000000000000000000602082015260400190565b601a81527f41535345545f50524f58595f444f45535f4e4f545f4558495354000000000000602082015260400190565b602181527f475245415445525f5448414e5f5a45524f5f4c454e4754485f5245515549524560208201527f4400000000000000000000000000000000000000000000000000000000000000604082015260600190565b601181527f5349474e41545552455f494c4c4547414c000000000000000000000000000000602082015260400190565b601e81527f4c454e4754485f475245415445525f5448414e5f305f52455155495245440000602082015260400190565b601781527f494e56414c49445f4e45575f4f524445525f45504f4348000000000000000000602082015260400190565b601e81527f4c454e4754485f475245415445525f5448414e5f335f52455155495245440000602082015260400190565b601481527f434f4d504c4554455f46494c4c5f4641494c4544000000000000000000000000602082015260400190565b601281527f494e56414c49445f46494c4c5f50524943450000000000000000000000000000602082015260400190565b601281527f5245454e5452414e43595f494c4c4547414c0000000000000000000000000000602082015260400190565b601381527f4f4e4c595f434f4e54524143545f4f574e455200000000000000000000000000602082015260400190565b602681527f475245415445525f4f525f455155414c5f544f5f32305f4c454e4754485f524560208201527f5155495245440000000000000000000000000000000000000000000000000000604082015260600190565b601081527f4f524445525f554e46494c4c41424c4500000000000000000000000000000000602082015260400190565b600e81527f494e56414c49445f53454e444552000000000000000000000000000000000000602082015260400190565b601881527f4e454741544956455f5350524541445f52455155495245440000000000000000602082015260400190565b601481527f494e56414c49445f54585f5349474e4154555245000000000000000000000000602082015260400190565b601181527f4c454e4754485f305f5245515549524544000000000000000000000000000000602082015260400190565b805160808301906145468482613e43565b5060208201516145596020850182613e43565b50604082015161456c6040850182613e43565b506060820151611f556060850182613e43565b80516101208301906145918482614535565b5060208201516145a46080850182614535565b506040820151611f55610100850182613e43565b805160608301906145c984826145ef565b5060208201516145dc6020850182613e43565b506040820151611f556040850182613e43565b613ddd81614a86565b6020810161266c8284613dd4565b6101008101614615828b613dd4565b614622602083018a613dd4565b61462f6040830189613e43565b61463c6060830188613e43565b6146496080830187613e43565b61465660a0830186613e43565b81810360c08301526146688185613e55565b905081810360e083015261467c8184613e55565b9a9950505050505050505050565b606081016146988286613dd4565b81810360208301526146aa8185613e55565b905081810360408301526146be8184613e55565b95945050505050565b60208082528101611e598184613de3565b6020810161266c8284613e3a565b6020810161266c8284613e43565b606081016147028286613e43565b61470f6020830185613dd4565b81810360408301526146be8184613e55565b6040810161472f8285613e43565b818103602083015261298d8184613e55565b6080810161474f8287613e43565b61475c60208301866145ef565b6147696040830185613e43565b6146be6060830184613e43565b604081016147848285613e4c565b611e596020830184613dd4565b60208082528101611e598184613e55565b6020810161266c8284613e8a565b6020808252810161266c81613e93565b6020808252810161266c81613ec3565b6020808252810161266c81613ef3565b6020808252810161266c81613f23565b6020808252810161266c81613f53565b6020808252810161266c81613f83565b6020808252810161266c81613fd9565b6020808252810161266c81614009565b6020808252810161266c81614039565b6020808252810161266c81614069565b6020808252810161266c81614099565b6020808252810161266c816140c9565b6020808252810161266c816140f9565b6020808252810161266c81614129565b6020808252810161266c81614159565b6020808252810161266c81614189565b6020808252810161266c816141b9565b6020808252810161266c816141e9565b6020808252810161266c81614219565b6020808252810161266c8161426f565b6020808252810161266c8161429f565b6020808252810161266c816142cf565b6020808252810161266c816142ff565b6020808252810161266c8161432f565b6020808252810161266c8161435f565b6020808252810161266c8161438f565b6020808252810161266c816143bf565b6020808252810161266c816143ef565b6020808252810161266c81614445565b6020808252810161266c81614475565b6020808252810161266c816144a5565b6020808252810161266c816144d5565b6020808252810161266c81614505565b6080810161266c8284614535565b610120810161266c828461457f565b6060810161266c82846145b8565b60405181810167ffffffffffffffff81118282101715614a0a57600080fd5b604052919050565b600067ffffffffffffffff821115614a2957600080fd5b5060209081020190565b600067ffffffffffffffff821115614a4a57600080fd5b506020601f91909101601f19160190565b60200190565b5190565b600160a060020a031690565b151590565b90565b600160e060020a03191690565b60ff1690565b600061266c82614a65565b82818337506000910152565b60005b83811015614abe578181015183820152602001614aa6565b83811115611f555750506000910152565b601f01601f1916905600a265627a7a723058206e2837c1ded534c3c97f97bf4a480691c38aab19695f80d0077a1930408a58a06c6578706572696d656e74616cf50037",
  "source": "/*\n\n  Copyright 2018 ZeroEx Intl.\n\n  Licensed under the Apache License, Version 2.0 (the \"License\");\n  you may not use this file except in compliance with the License.\n  You may obtain a copy of the License at\n\n    http://www.apache.org/licenses/LICENSE-2.0\n\n  Unless required by applicable law or agreed to in writing, software\n  distributed under the License is distributed on an \"AS IS\" BASIS,\n  WITHOUT WARRANTIES OR CONDITIONS OF ANY KIND, either express or implied.\n  See the License for the specific language governing permissions and\n  limitations under the License.\n\n*/\n\npragma solidity 0.4.24;\npragma experimental ABIEncoderV2;\n\nimport \"./libs/LibConstants.sol\";\nimport \"./MixinExchangeCore.sol\";\nimport \"./MixinSignatureValidator.sol\";\nimport \"./MixinWrapperFunctions.sol\";\nimport \"./MixinAssetProxyDispatcher.sol\";\nimport \"./MixinTransactions.sol\";\nimport \"./MixinMatchOrders.sol\";\n\n\n// solhint-disable no-empty-blocks\ncontract Exchange is\n    MixinExchangeCore,\n    MixinMatchOrders,\n    MixinSignatureValidator,\n    MixinTransactions,\n    MixinAssetProxyDispatcher,\n    MixinWrapperFunctions\n{\n    string constant public VERSION = \"2.0.1-alpha\";\n\n    // Mixins are instantiated in the order they are inherited\n    constructor (bytes memory _zrxAssetData)\n        public\n        LibConstants(_zrxAssetData) // @TODO: Remove when we deploy.\n        MixinExchangeCore()\n        MixinMatchOrders()\n        MixinSignatureValidator()\n        MixinTransactions()\n        MixinAssetProxyDispatcher()\n        MixinWrapperFunctions()\n    {}\n}\n",
  "sourcePath": "/Users/charlescrain/dev/pixura-contracts/truffle/node_modules/0x-monorepo/packages/contracts/contracts/protocol/Exchange/Exchange.sol",
  "compiler": {
    "name": "solc",
    "version": "0.4.24+commit.e67f0147.Emscripten.clang"
  },
  "schemaVersion": "2.0.1",
  "updatedAt": "2018-12-10T21:26:30.995Z"
}