{
  "contractName": "Forwarder",
  "abi": [
    {
      "constant": false,
      "inputs": [
        {
          "components": [
            {
              "name": "makerAddress",
              "type": "address"
            },
            {
              "name": "takerAddress",
              "type": "address"
            },
            {
              "name": "feeRecipientAddress",
              "type": "address"
            },
            {
              "name": "senderAddress",
              "type": "address"
            },
            {
              "name": "makerAssetAmount",
              "type": "uint256"
            },
            {
              "name": "takerAssetAmount",
              "type": "uint256"
            },
            {
              "name": "makerFee",
              "type": "uint256"
            },
            {
              "name": "takerFee",
              "type": "uint256"
            },
            {
              "name": "expirationTimeSeconds",
              "type": "uint256"
            },
            {
              "name": "salt",
              "type": "uint256"
            },
            {
              "name": "makerAssetData",
              "type": "bytes"
            },
            {
              "name": "takerAssetData",
              "type": "bytes"
            }
          ],
          "name": "orders",
          "type": "tuple[]"
        },
        {
          "name": "makerAssetFillAmount",
          "type": "uint256"
        },
        {
          "name": "signatures",
          "type": "bytes[]"
        },
        {
          "components": [
            {
              "name": "makerAddress",
              "type": "address"
            },
            {
              "name": "takerAddress",
              "type": "address"
            },
            {
              "name": "feeRecipientAddress",
              "type": "address"
            },
            {
              "name": "senderAddress",
              "type": "address"
            },
            {
              "name": "makerAssetAmount",
              "type": "uint256"
            },
            {
              "name": "takerAssetAmount",
              "type": "uint256"
            },
            {
              "name": "makerFee",
              "type": "uint256"
            },
            {
              "name": "takerFee",
              "type": "uint256"
            },
            {
              "name": "expirationTimeSeconds",
              "type": "uint256"
            },
            {
              "name": "salt",
              "type": "uint256"
            },
            {
              "name": "makerAssetData",
              "type": "bytes"
            },
            {
              "name": "takerAssetData",
              "type": "bytes"
            }
          ],
          "name": "feeOrders",
          "type": "tuple[]"
        },
        {
          "name": "feeSignatures",
          "type": "bytes[]"
        },
        {
          "name": "feePercentage",
          "type": "uint256"
        },
        {
          "name": "feeRecipient",
          "type": "address"
        }
      ],
      "name": "marketBuyOrdersWithEth",
      "outputs": [
        {
          "components": [
            {
              "name": "makerAssetFilledAmount",
              "type": "uint256"
            },
            {
              "name": "takerAssetFilledAmount",
              "type": "uint256"
            },
            {
              "name": "makerFeePaid",
              "type": "uint256"
            },
            {
              "name": "takerFeePaid",
              "type": "uint256"
            }
          ],
          "name": "orderFillResults",
          "type": "tuple"
        },
        {
          "components": [
            {
              "name": "makerAssetFilledAmount",
              "type": "uint256"
            },
            {
              "name": "takerAssetFilledAmount",
              "type": "uint256"
            },
            {
              "name": "makerFeePaid",
              "type": "uint256"
            },
            {
              "name": "takerFeePaid",
              "type": "uint256"
            }
          ],
          "name": "feeOrderFillResults",
          "type": "tuple"
        }
      ],
      "payable": true,
      "stateMutability": "payable",
      "type": "function"
    },
    {
      "constant": false,
      "inputs": [
        {
          "name": "assetData",
          "type": "bytes"
        },
        {
          "name": "amount",
          "type": "uint256"
        }
      ],
      "name": "withdrawAsset",
      "outputs": [],
      "payable": false,
      "stateMutability": "nonpayable",
      "type": "function"
    },
    {
      "constant": true,
      "inputs": [],
      "name": "owner",
      "outputs": [
        {
          "name": "",
          "type": "address"
        }
      ],
      "payable": false,
      "stateMutability": "view",
      "type": "function"
    },
    {
      "constant": false,
      "inputs": [
        {
          "components": [
            {
              "name": "makerAddress",
              "type": "address"
            },
            {
              "name": "takerAddress",
              "type": "address"
            },
            {
              "name": "feeRecipientAddress",
              "type": "address"
            },
            {
              "name": "senderAddress",
              "type": "address"
            },
            {
              "name": "makerAssetAmount",
              "type": "uint256"
            },
            {
              "name": "takerAssetAmount",
              "type": "uint256"
            },
            {
              "name": "makerFee",
              "type": "uint256"
            },
            {
              "name": "takerFee",
              "type": "uint256"
            },
            {
              "name": "expirationTimeSeconds",
              "type": "uint256"
            },
            {
              "name": "salt",
              "type": "uint256"
            },
            {
              "name": "makerAssetData",
              "type": "bytes"
            },
            {
              "name": "takerAssetData",
              "type": "bytes"
            }
          ],
          "name": "orders",
          "type": "tuple[]"
        },
        {
          "name": "signatures",
          "type": "bytes[]"
        },
        {
          "components": [
            {
              "name": "makerAddress",
              "type": "address"
            },
            {
              "name": "takerAddress",
              "type": "address"
            },
            {
              "name": "feeRecipientAddress",
              "type": "address"
            },
            {
              "name": "senderAddress",
              "type": "address"
            },
            {
              "name": "makerAssetAmount",
              "type": "uint256"
            },
            {
              "name": "takerAssetAmount",
              "type": "uint256"
            },
            {
              "name": "makerFee",
              "type": "uint256"
            },
            {
              "name": "takerFee",
              "type": "uint256"
            },
            {
              "name": "expirationTimeSeconds",
              "type": "uint256"
            },
            {
              "name": "salt",
              "type": "uint256"
            },
            {
              "name": "makerAssetData",
              "type": "bytes"
            },
            {
              "name": "takerAssetData",
              "type": "bytes"
            }
          ],
          "name": "feeOrders",
          "type": "tuple[]"
        },
        {
          "name": "feeSignatures",
          "type": "bytes[]"
        },
        {
          "name": "feePercentage",
          "type": "uint256"
        },
        {
          "name": "feeRecipient",
          "type": "address"
        }
      ],
      "name": "marketSellOrdersWithEth",
      "outputs": [
        {
          "components": [
            {
              "name": "makerAssetFilledAmount",
              "type": "uint256"
            },
            {
              "name": "takerAssetFilledAmount",
              "type": "uint256"
            },
            {
              "name": "makerFeePaid",
              "type": "uint256"
            },
            {
              "name": "takerFeePaid",
              "type": "uint256"
            }
          ],
          "name": "orderFillResults",
          "type": "tuple"
        },
        {
          "components": [
            {
              "name": "makerAssetFilledAmount",
              "type": "uint256"
            },
            {
              "name": "takerAssetFilledAmount",
              "type": "uint256"
            },
            {
              "name": "makerFeePaid",
              "type": "uint256"
            },
            {
              "name": "takerFeePaid",
              "type": "uint256"
            }
          ],
          "name": "feeOrderFillResults",
          "type": "tuple"
        }
      ],
      "payable": true,
      "stateMutability": "payable",
      "type": "function"
    },
    {
      "constant": false,
      "inputs": [
        {
          "name": "newOwner",
          "type": "address"
        }
      ],
      "name": "transferOwnership",
      "outputs": [],
      "payable": false,
      "stateMutability": "nonpayable",
      "type": "function"
    },
    {
      "inputs": [
        {
          "name": "_exchange",
          "type": "address"
        },
        {
          "name": "_zrxAssetData",
          "type": "bytes"
        },
        {
          "name": "_wethAssetData",
          "type": "bytes"
        }
      ],
      "payable": false,
      "stateMutability": "nonpayable",
      "type": "constructor"
    },
    {
      "payable": true,
      "stateMutability": "payable",
      "type": "fallback"
    }
  ],
  "bytecode": "0x60806040523480156200001157600080fd5b50604051620028b3380380620028b383398101806040526200003791908101906200051d565b6000805433600160a060020a031991821617825560018054909116600160a060020a0386161790558251849084908490849081906200007e906004906020870190620003d0565b50825162000094906005906020860190620003d0565b50620000b0836010640100000000620015346200036f82021704565b9150620000cd846010640100000000620015346200036f82021704565b60028054600160a060020a03948516600160a060020a031991821617909155600380549285169290911691909117905550600154604080517f4552433230546f6b656e28616464726573732900000000000000000000000000815290519081900360130181207f6070410800000000000000000000000000000000000000000000000000000000825291909216945063607041089350620001739250906004016200068e565b602060405180830381600087803b1580156200018e57600080fd5b505af1158015620001a3573d6000803e3d6000fd5b505050506040513d601f19601f82011682018060405250620001c99190810190620004f4565b9050600160a060020a038116151562000219576040517f08c379a00000000000000000000000000000000000000000000000000000000081526004016200021090620006b0565b60405180910390fd5b6002546040517f095ea7b3000000000000000000000000000000000000000000000000000000008152600160a060020a039091169063095ea7b39062000268908490600019906004016200066f565b602060405180830381600087803b1580156200028357600080fd5b505af115801562000298573d6000803e3d6000fd5b505050506040513d601f19601f82011682018060405250620002be9190810190620005a1565b506003546040517f095ea7b3000000000000000000000000000000000000000000000000000000008152600160a060020a039091169063095ea7b3906200030e908490600019906004016200066f565b602060405180830381600087803b1580156200032957600080fd5b505af11580156200033e573d6000803e3d6000fd5b505050506040513d601f19601f82011682018060405250620003649190810190620005a1565b50505050506200077a565b600081601401835110151515620003b4576040517f08c379a000000000000000000000000000000000000000000000000000000000815260040162000210906200069e565b506014818301810151910190600160a060020a03165b92915050565b828054600181600116156101000203166002900490600052602060002090601f016020900481019282601f106200041357805160ff191683800117855562000443565b8280016001018555821562000443579182015b828111156200044357825182559160200191906001019062000426565b506200045192915062000455565b5090565b6200047291905b808211156200045157600081556001016200045c565b90565b600062000483825162000711565b9392505050565b600062000483825162000742565b6000601f82018313620004aa57600080fd5b8151620004c1620004bb82620006e9565b620006c2565b91508082526020830160208301858383011115620004de57600080fd5b620004eb83828462000747565b50505092915050565b6000602082840312156200050757600080fd5b600062000515848462000475565b949350505050565b6000806000606084860312156200053357600080fd5b600062000541868662000475565b93505060208401516001604060020a038111156200055e57600080fd5b6200056c8682870162000498565b92505060408401516001604060020a038111156200058957600080fd5b620005978682870162000498565b9150509250925092565b600060208284031215620005b457600080fd5b60006200051584846200048a565b620005cd8162000711565b82525050565b620005cd816200071d565b602681527f475245415445525f4f525f455155414c5f544f5f32305f4c454e4754485f524560208201527f5155495245440000000000000000000000000000000000000000000000000000604082015260600190565b601881527f554e524547495354455245445f41535345545f50524f58590000000000000000602082015260400190565b620005cd8162000472565b604081016200067f8285620005c2565b62000483602083018462000664565b60208101620003ca8284620005d3565b60208082528101620003ca81620005de565b60208082528101620003ca8162000634565b6040518181016001604060020a0381118282101715620006e157600080fd5b604052919050565b60006001604060020a038211156200070057600080fd5b506020601f91909101601f19160190565b600160a060020a031690565b7fffffffff000000000000000000000000000000000000000000000000000000001690565b151590565b60005b83811015620007645781810151838201526020016200074a565b8381111562000774576000848401525b50505050565b612129806200078a6000396000f30060806040526004361061006c5763ffffffff7c010000000000000000000000000000000000000000000000000000000060003504166318978e8281146100a4578063630f1e6c146100ce5780638da5cb5b146100ee5780639395525c14610110578063f2fde38b14610123575b600254600160a060020a031633146100a25760405160e560020a62461bcd02815260040161009990611f3a565b60405180910390fd5b005b6100b76100b23660046119a3565b610143565b6040516100c592919061203a565b60405180910390f35b3480156100da57600080fd5b506100a26100e9366004611a9e565b6102b5565b3480156100fa57600080fd5b50610103610322565b6040516100c59190611ee9565b6100b761011e3660046118bd565b610331565b34801561012f57600080fd5b506100a261013e366004611897565b610479565b61014b6115ac565b6101536115ac565b60008061015e6104e1565b60048054604080516020601f6002600019610100600188161502019095169490940493840181900481028201810190925282815261021a93909290918301828280156101eb5780601f106101c0576101008083540402835291602001916101eb565b820191906000526020600020905b8154815290600101906020018083116101ce57829003601f168201915b50505050508c60008151811015156101ff57fe5b6020908102909101015161014001519063ffffffff61058b16565b156102455761022a8b8b8b61065e565b935061023e84600001518560600151610909565b905061026c565b6102508b8b8b610934565b93508360600151915061026488838961065e565b845190935090505b610280846020015184602001518888610b11565b6102a78b600081518110151561029257fe5b90602001906020020151610140015182610cc6565b505097509795505050505050565b600054600160a060020a031633146102e25760405160e560020a62461bcd02815260040161009990611fea565b61031d83838080601f01602080910402602001604051908101604052809392919081815260200183838082843750879450610cc69350505050565b505050565b600054600160a060020a031681565b6103396115ac565b6103416115ac565b600080600061034e6104e1565b60048054604080516020601f600260001961010060018816150201909516949094049384018190048102820181019092528281526103b093909290918301828280156101eb5780601f106101c0576101008083540402835291602001916101eb565b15610401576103d9670de0b6b3a76400006103d3670de0b6b3a76400008a610d9b565b34610dce565b92506103e68b848c610e0f565b94506103fa85600001518660600151610909565b9050610445565b61041c670d2f13f7789f0000670de0b6b3a764000034610dce565b92506104298b848c610e0f565b94508460600151915061043d89838a61065e565b855190945090505b610459856020015185602001518989610b11565b61046b8b600081518110151561029257fe5b505050965096945050505050565b600054600160a060020a031633146104a65760405160e560020a62461bcd02815260040161009990611fea565b600160a060020a038116156104de576000805473ffffffffffffffffffffffffffffffffffffffff1916600160a060020a0383161790555b50565b600034116105045760405160e560020a62461bcd02815260040161009990611f4a565b600260009054906101000a9004600160a060020a0316600160a060020a031663d0e30db0346040518263ffffffff167c01000000000000000000000000000000000000000000000000000000000281526004016000604051808303818588803b15801561057057600080fd5b505af1158015610584573d6000803e3d6000fd5b5050505050565b6000815183511480156106555750816040518082805190602001908083835b602083106105c95780518252601f1990920191602091820191016105aa565b51815160209384036101000a6000190180199092169116179052604051919093018190038120885190955088945090928392508401908083835b602083106106225780518252601f199092019160209182019101610603565b6001836020036101000a038019825116818451168082178552505050505050905001915050604051809103902060001916145b90505b92915050565b6106666115ac565b60608060008060008060006106796115ac565b8a1515610685576108fa565b6004805460408051602060026001851615610100026000190190941693909304601f8101849004840282018401909252818152929183018282801561070b5780601f106106e05761010080835404028352916020019161070b565b820191906000526020600020905b8154815290600101906020018083116106ee57829003601f168201915b505060058054604080516020601f60026000196101006001881615020190951694909404938401819004810282018101909252828152969e509194509250840190508282801561079c5780601f106107715761010080835404028352916020019161079c565b820191906000526020600020905b81548152906001019060200180831161077f57829003601f168201915b50505050509650600095508b519450600093505b8385146108d757878c858151811015156107c657fe5b6020908102909101015161014001528b5187908d90869081106107e557fe5b6020908102909101015161016001526107fe8b87610909565b92506108658c8581518110151561081157fe5b9060200190602002015160a0015161085f8e8781518110151561083057fe5b90602001906020020151608001518f8881518110151561084c57fe5b9060200190602002015160e00151610909565b85610f95565b91506108a08c8581518110151561087857fe5b90602001906020020151838c8781518110151561089157fe5b90602001906020020151610fd9565b90506108ac8982611044565b6108be89600001518a60600151610909565b95508a86106108cc576108d7565b6001909301926107b0565b8a8610156108fa5760405160e560020a62461bcd02815260040161009990611fca565b50505050505050509392505050565b60008282111561092e5760405160e560020a62461bcd02815260040161009990611f6a565b50900390565b61093c6115ac565b60608060008060008061094d6115ac565b60008b600081518110151561095e57fe5b6020908102919091018101516101400151600580546040805160026001841615610100026000190190931692909204601f8101869004860283018601909152808252929b50929091908301828280156109f85780601f106109cd576101008083540402835291602001916109f8565b820191906000526020600020905b8154815290600101906020018083116109db57829003601f168201915b505050505096508b519550600094505b848614610aee57878c86815181101515610a1e57fe5b6020908102909101015161014001528b5187908d9087908110610a3d57fe5b6020908102909101015161016001528851610a59908c90610909565b9350610a9c8c86815181101515610a6c57fe5b9060200190602002015160a001518d87815181101515610a8857fe5b906020019060200201516080015186610f95565b9250610ac88c86815181101515610aaf57fe5b90602001906020020151848c8881518110151561089157fe5b9150610ad48983611044565b5087518a8110610ae357610aee565b600190940193610a08565b8a8110156108fa5760405160e560020a62461bcd02815260040161009990611fca565b600080808066b1a2bc2ec50000861115610b405760405160e560020a62461bcd02815260040161009990611ffa565b610b4a8888610d9b565b935034841115610b6f5760405160e560020a62461bcd02815260040161009990611f5a565b610b793485610909565b9250610b8e86670de0b6b3a76400008a610dce565b915082821115610bb35760405160e560020a62461bcd02815260040161009990611fda565b6000831115610cbc576002546040517f2e1a7d4d000000000000000000000000000000000000000000000000000000008152600160a060020a0390911690632e1a7d4d90610c05908690600401612056565b600060405180830381600087803b158015610c1f57600080fd5b505af1158015610c33573d6000803e3d6000fd5b505050506000821115610c7857604051600160a060020a0386169083156108fc029084906000818181858888f19350505050158015610c76573d6000803e3d6000fd5b505b610c828383610909565b90506000811115610cbc57604051339082156108fc029083906000818181858888f19350505050158015610cba573d6000803e3d6000fd5b505b5050505050505050565b6000610cd8838263ffffffff6110a616565b604080517f4552433230546f6b656e2861646472657373290000000000000000000000000081529051908190036013019020909150600160e060020a031980831691161415610d3057610d2b83836110e4565b61031d565b604080517f455243373231546f6b656e28616464726573732c75696e7432353629000000008152905190819003601c019020600160e060020a031982811691161415610d8057610d2b8383611261565b60405160e560020a62461bcd02815260040161009990611faa565b600082820183811015610dc35760405160e560020a62461bcd02815260040161009990611f9a565b8091505b5092915050565b6000808311610df25760405160e560020a62461bcd02815260040161009990611f8a565b610e05610dff8584611325565b84611369565b90505b9392505050565b610e176115ac565b6060806000806000610e276115ac565b896000815181101515610e3657fe5b6020908102919091018101516101400151600580546040805160026001841615610100026000190190931692909204601f810186900486028301860190915280825292995092909190830182828015610ed05780601f10610ea557610100808354040283529160200191610ed0565b820191906000526020600020905b815481529060010190602001808311610eb357829003601f168201915b5050505050945089519350600092505b828414610f8857858a84815181101515610ef657fe5b602090810290910101516101400152895185908b9085908110610f1557fe5b906020019060200201516101600181905250610f35898860200151610909565b9150610f618a84815181101515610f4857fe5b90602001906020020151838a8681518110151561089157fe5b9050610f6d8782611044565b60208701518911610f7d57610f88565b600190920191610ee0565b5050505050509392505050565b6000808311610fb95760405160e560020a62461bcd02815260040161009990611f8a565b610e05610dff610fc98685611325565b610fd4866001610909565b610d9b565b610fe16115ac565b60606000610ff0868686611380565b6001548151919350600160a060020a031691506080908390602082016000855af1801561103a57825184526020830151602085015260408301516040850152606083015160608501525b5050509392505050565b815181516110529190610d9b565b8252602080830151908201516110689190610d9b565b6020830152604080830151908201516110819190610d9b565b60408301526060808301519082015161109a9190610d9b565b60609092019190915250565b6000816004018351101515156110d15760405160e560020a62461bcd0281526004016100999061201a565b500160200151600160e060020a03191690565b6000806110f884601063ffffffff61153416565b604080517f7472616e7366657228616464726573732c75696e74323536290000000000000081529051908190036019018120919350600160a060020a03841691906111499033908790602401611f1f565b60408051601f198184030181529181526020820180517bffffffffffffffffffffffffffffffffffffffffffffffffffffffff16600160e060020a03199094169390931783525181519192909182919080838360005b838110156111b757818101518382015260200161119f565b50505050905090810190601f1680156111e45780820380516001836020036101000a031916815260200191505b509150506000604051808303816000865af19250505080151561121c5760405160e560020a62461bcd02815260040161009990611fba565b3d15611239575060003d602014156112395760206000803e506000515b80151561125b5760405160e560020a62461bcd02815260040161009990611fba565b50505050565b600080600183146112875760405160e560020a62461bcd0281526004016100999061202a565b61129884601063ffffffff61153416565b91506112ab84602463ffffffff61157116565b6040517f23b872dd000000000000000000000000000000000000000000000000000000008152909150600160a060020a038316906323b872dd906112f790309033908690600401611ef7565b600060405180830381600087803b15801561131157600080fd5b505af1158015610cbc573d6000803e3d6000fd5b6000808315156113385760009150610dc7565b5082820282848281151561134857fe5b0414610dc35760405160e560020a62461bcd02815260040161009990611f9a565b600080828481151561137757fe5b04949350505050565b604080517fb4be83d5000000000000000000000000000000000000000000000000000000006020808301919091526060602483018181528751608485019081528884015160a48601529488015160c48501529087015160e4840152608087015161010484015260a087015161012484015260c087015161014484015260e08701516101648401526101008701516101848401526101208701516101a4840152610140870180516101c485019081526101608901516101e4860152610180905251805161020485018190529394919384936044870192849261022489019291820191601f82010460005b81811015611487578351855260209485019490930192600101611469565b50505050818103610160808401919091528a0151805180835260209283019291820191601f82010460005b818110156114d05783518552602094850194909301926001016114b2565b50505089845250848103602093840190815288518083529093918201918981019190601f82010460005b818110156115185783518552602094850194909301926001016114fa565b505050601f198883030188525060405250505050509392505050565b60008160140183511015151561155f5760405160e560020a62461bcd0281526004016100999061200a565b500160140151600160a060020a031690565b600061065583836000816020018351101515156115a35760405160e560020a62461bcd02815260040161009990611f7a565b50016020015190565b608060405190810160405280600081526020016000815260200160008152602001600081525090565b600061065582356120d4565b6000601f820183136115f257600080fd5b81356116056116008261208b565b612064565b81815260209384019390925082018360005b83811015611643578135860161162d88826116f3565b8452506020928301929190910190600101611617565b5050505092915050565b6000601f8201831361165e57600080fd5b813561166c6116008261208b565b81815260209384019390925082018360005b8381101561164357813586016116948882611742565b845250602092830192919091019060010161167e565b600080601f830184136116bc57600080fd5b50813567ffffffffffffffff8111156116d457600080fd5b6020830191508360018202830111156116ec57600080fd5b9250929050565b6000601f8201831361170457600080fd5b8135611712611600826120ac565b9150808252602083016020830185838301111561172e57600080fd5b6117398382846120e3565b50505092915050565b6000610180828403121561175557600080fd5b611760610180612064565b9050600061176e84846115d5565b825250602061177f848483016115d5565b6020830152506040611793848285016115d5565b60408301525060606117a7848285016115d5565b60608301525060806117bb8482850161188b565b60808301525060a06117cf8482850161188b565b60a08301525060c06117e38482850161188b565b60c08301525060e06117f78482850161188b565b60e08301525061010061180c8482850161188b565b610100830152506101206118228482850161188b565b6101208301525061014082013567ffffffffffffffff81111561184457600080fd5b611850848285016116f3565b6101408301525061016082013567ffffffffffffffff81111561187257600080fd5b61187e848285016116f3565b6101608301525092915050565b600061065582356120e0565b6000602082840312156118a957600080fd5b60006118b584846115d5565b949350505050565b60008060008060008060c087890312156118d657600080fd5b863567ffffffffffffffff8111156118ed57600080fd5b6118f989828a0161164d565b965050602087013567ffffffffffffffff81111561191657600080fd5b61192289828a016115e1565b955050604087013567ffffffffffffffff81111561193f57600080fd5b61194b89828a0161164d565b945050606087013567ffffffffffffffff81111561196857600080fd5b61197489828a016115e1565b935050608061198589828a0161188b565b92505060a061199689828a016115d5565b9150509295509295509295565b600080600080600080600060e0888a0312156119be57600080fd5b873567ffffffffffffffff8111156119d557600080fd5b6119e18a828b0161164d565b97505060206119f28a828b0161188b565b965050604088013567ffffffffffffffff811115611a0f57600080fd5b611a1b8a828b016115e1565b955050606088013567ffffffffffffffff811115611a3857600080fd5b611a448a828b0161164d565b945050608088013567ffffffffffffffff811115611a6157600080fd5b611a6d8a828b016115e1565b93505060a0611a7e8a828b0161188b565b92505060c0611a8f8a828b016115d5565b91505092959891949750929550565b600080600060408486031215611ab357600080fd5b833567ffffffffffffffff811115611aca57600080fd5b611ad6868287016116aa565b93509350506020611ae98682870161188b565b9150509250925092565b611afc816120d4565b82525050565b602381527f44454641554c545f46554e4354494f4e5f574554485f434f4e54524143545f4f60208201527f4e4c590000000000000000000000000000000000000000000000000000000000604082015260600190565b601181527f494e56414c49445f4d53475f56414c5545000000000000000000000000000000602082015260400190565b600d81527f4f564552534f4c445f5745544800000000000000000000000000000000000000602082015260400190565b601181527f55494e543235365f554e444552464c4f57000000000000000000000000000000602082015260400190565b602681527f475245415445525f4f525f455155414c5f544f5f33325f4c454e4754485f524560208201527f5155495245440000000000000000000000000000000000000000000000000000604082015260600190565b601081527f4449564953494f4e5f42595f5a45524f00000000000000000000000000000000602082015260400190565b601081527f55494e543235365f4f564552464c4f5700000000000000000000000000000000602082015260400190565b601781527f554e535550504f525445445f41535345545f50524f5859000000000000000000602082015260400190565b600f81527f5452414e534645525f4641494c45440000000000000000000000000000000000602082015260400190565b601481527f434f4d504c4554455f46494c4c5f4641494c4544000000000000000000000000602082015260400190565b601a81527f494e53554646494349454e545f4554485f52454d41494e494e47000000000000602082015260400190565b601381527f4f4e4c595f434f4e54524143545f4f574e455200000000000000000000000000602082015260400190565b601881527f4645455f50455243454e544147455f544f4f5f4c415247450000000000000000602082015260400190565b602681527f475245415445525f4f525f455155414c5f544f5f32305f4c454e4754485f524560208201527f5155495245440000000000000000000000000000000000000000000000000000604082015260600190565b602581527f475245415445525f4f525f455155414c5f544f5f345f4c454e4754485f52455160208201527f5549524544000000000000000000000000000000000000000000000000000000604082015260600190565b600e81527f494e56414c49445f414d4f554e54000000000000000000000000000000000000602082015260400190565b80516080830190611eab8482611ee0565b506020820151611ebe6020850182611ee0565b506040820151611ed16040850182611ee0565b50606082015161125b60608501825b611afc816120e0565b602081016106588284611af3565b60608101611f058286611af3565b611f126020830185611af3565b6118b56040830184611ee0565b60408101611f2d8285611af3565b610e086020830184611ee0565b6020808252810161065881611b02565b6020808252810161065881611b58565b6020808252810161065881611b88565b6020808252810161065881611bb8565b6020808252810161065881611be8565b6020808252810161065881611c3e565b6020808252810161065881611c6e565b6020808252810161065881611c9e565b6020808252810161065881611cce565b6020808252810161065881611cfe565b6020808252810161065881611d2e565b6020808252810161065881611d5e565b6020808252810161065881611d8e565b6020808252810161065881611dbe565b6020808252810161065881611e14565b6020808252810161065881611e6a565b61010081016120498285611e9a565b610e086080830184611e9a565b602081016106588284611ee0565b60405181810167ffffffffffffffff8111828210171561208357600080fd5b604052919050565b600067ffffffffffffffff8211156120a257600080fd5b5060209081020190565b600067ffffffffffffffff8211156120c357600080fd5b506020601f91909101601f19160190565b600160a060020a031690565b90565b828183375060009101525600a265627a7a72305820f504596e39a4ac625034b5340f2c157e54927c68bd9fb35674dd07b89c8cc1426c6578706572696d656e74616cf50037",
  "source": "/*\n\n  Copyright 2018 ZeroEx Intl.\n\n  Licensed under the Apache License, Version 2.0 (the \"License\");\n  you may not use this file except in compliance with the License.\n  You may obtain a copy of the License at\n\n    http://www.apache.org/licenses/LICENSE-2.0\n\n  Unless required by applicable law or agreed to in writing, software\n  distributed under the License is distributed on an \"AS IS\" BASIS,\n  WITHOUT WARRANTIES OR CONDITIONS OF ANY KIND, either express or implied.\n  See the License for the specific language governing permissions and\n  limitations under the License.\n\n*/\n\npragma solidity 0.4.24;\npragma experimental ABIEncoderV2;\n\nimport \"./MixinWeth.sol\";\nimport \"./MixinForwarderCore.sol\";\nimport \"./libs/LibConstants.sol\";\nimport \"./MixinAssets.sol\";\nimport \"./MixinExchangeWrapper.sol\";\n\n\n// solhint-disable no-empty-blocks\ncontract Forwarder is\n    LibConstants,\n    MixinWeth,\n    MixinAssets,\n    MixinExchangeWrapper,\n    MixinForwarderCore\n{\n    constructor (\n        address _exchange,\n        bytes memory _zrxAssetData,\n        bytes memory _wethAssetData\n    )\n        public\n        LibConstants(\n            _exchange,\n            _zrxAssetData,\n            _wethAssetData\n        )\n        MixinForwarderCore()\n    {}\n}\n",
  "sourcePath": "/Users/charlescrain/dev/pixura-contracts/truffle/node_modules/0x-monorepo/packages/contracts/contracts/extensions/Forwarder/Forwarder.sol",
  "compiler": {
    "name": "solc",
    "version": "0.4.24+commit.e67f0147.Emscripten.clang"
  },
  "schemaVersion": "2.0.1",
  "updatedAt": "2019-02-19T13:26:53.813Z"
}