{
  "contractName": "LibConstants",
  "abi": [
    {
      "constant": true,
      "inputs": [],
      "name": "ZRX_ASSET_DATA",
      "outputs": [
        {
          "name": "",
          "type": "bytes"
        }
      ],
      "payable": false,
      "stateMutability": "view",
      "type": "function"
    },
    {
      "inputs": [
        {
          "name": "zrxAssetData",
          "type": "bytes"
        }
      ],
      "payable": false,
      "stateMutability": "nonpayable",
      "type": "constructor"
    }
  ],
  "bytecode": "0x608060405234801561001057600080fd5b5060405161027438038061027483398101604052805101805161003a906000906020840190610041565b50506100dc565b828054600181600116156101000203166002900490600052602060002090601f016020900481019282601f1061008257805160ff19168380011785556100af565b828001600101855582156100af579182015b828111156100af578251825591602001919060010190610094565b506100bb9291506100bf565b5090565b6100d991905b808211156100bb57600081556001016100c5565b90565b610189806100eb6000396000f3006080604052600436106100405763ffffffff7c0100000000000000000000000000000000000000000000000000000000600035041663db123b1a8114610045575b600080fd5b34801561005157600080fd5b5061005a6100cf565b6040805160208082528351818301528351919283929083019185019080838360005b8381101561009457818101518382015260200161007c565b50505050905090810190601f1680156100c15780820380516001836020036101000a031916815260200191505b509250505060405180910390f35b6000805460408051602060026001851615610100026000190190941693909304601f810184900484028201840190925281815292918301828280156101555780601f1061012a57610100808354040283529160200191610155565b820191906000526020600020905b81548152906001019060200180831161013857829003601f168201915b5050505050815600a165627a7a723058206219698e150dad2ec9d04717bbf70eee0734dac3800563cb218df5e1a35ae6ba0029",
  "source": "/*\n\n  Copyright 2018 ZeroEx Intl.\n\n  Licensed under the Apache License, Version 2.0 (the \"License\");\n  you may not use this file except in compliance with the License.\n  You may obtain a copy of the License at\n\n    http://www.apache.org/licenses/LICENSE-2.0\n\n  Unless required by applicable law or agreed to in writing, software\n  distributed under the License is distributed on an \"AS IS\" BASIS,\n  WITHOUT WARRANTIES OR CONDITIONS OF ANY KIND, either express or implied.\n  See the License for the specific language governing permissions and\n  limitations under the License.\n\n*/\n\npragma solidity 0.4.24;\n\n\n// solhint-disable max-line-length\ncontract LibConstants {\n   \n    // Asset data for ZRX token. Used for fee transfers.\n    // @TODO: Hardcode constant when we deploy. Currently \n    //        not constant to make testing easier.\n\n    // The proxyId for ZRX_ASSET_DATA is bytes4(keccak256(\"ERC20Token(address)\")) = 0xf47261b0\n    \n    // Kovan ZRX address is 0x6ff6c0ff1d68b964901f986d4c9fa3ac68346570.\n    // The ABI encoded proxyId and address is 0xf47261b00000000000000000000000006ff6c0ff1d68b964901f986d4c9fa3ac68346570\n    // bytes constant public ZRX_ASSET_DATA = \"\\xf4\\x72\\x61\\xb0\\x00\\x00\\x00\\x00\\x00\\x00\\x00\\x00\\x00\\x00\\x00\\x00\\x6f\\xf6\\xc0\\xff\\x1d\\x68\\xb9\\x64\\x90\\x1f\\x98\\x6d\\x4c\\x9f\\xa3\\xac\\x68\\x34\\x65\\x70\";\n    \n    // Mainnet ZRX address is 0xe41d2489571d322189246dafa5ebde1f4699f498.\n    // The ABI encoded proxyId and address is 0xf47261b0000000000000000000000000e41d2489571d322189246dafa5ebde1f4699f498\n    // bytes constant public ZRX_ASSET_DATA = \"\\xf4\\x72\\x61\\xb0\\x00\\x00\\x00\\x00\\x00\\x00\\x00\\x00\\x00\\x00\\x00\\x00\\xe4\\x1d\\x24\\x89\\x57\\x1d\\x32\\x21\\x89\\x24\\x6d\\xaf\\xa5\\xeb\\xde\\x1f\\x46\\x99\\xf4\\x98\";\n    \n    // solhint-disable-next-line var-name-mixedcase\n    bytes public ZRX_ASSET_DATA;\n\n    // @TODO: Remove when we deploy.\n    constructor (bytes memory zrxAssetData)\n        public\n    {\n        ZRX_ASSET_DATA = zrxAssetData;\n    }\n}\n// solhint-enable max-line-length\n",
  "sourcePath": "/Users/charlescrain/dev/pixura-contracts/truffle/node_modules/0x-monorepo/packages/contracts/contracts/protocol/Exchange/libs/LibConstants.sol",
  "compiler": {
    "name": "solc",
    "version": "0.4.24+commit.e67f0147.Emscripten.clang"
  },
  "schemaVersion": "2.0.1",
  "updatedAt": "2019-01-15T21:55:22.843Z"
}