{
  "contractName": "Operated",
  "abi": [
    {
      "constant": true,
      "inputs": [],
      "name": "operator",
      "outputs": [
        {
          "name": "",
          "type": "address"
        }
      ],
      "payable": false,
      "stateMutability": "view",
      "type": "function"
    },
    {
      "constant": true,
      "inputs": [],
      "name": "operationCost",
      "outputs": [
        {
          "name": "",
          "type": "uint256"
        }
      ],
      "payable": false,
      "stateMutability": "view",
      "type": "function"
    },
    {
      "inputs": [
        {
          "name": "_operator",
          "type": "address"
        },
        {
          "name": "_operationCost",
          "type": "uint256"
        }
      ],
      "payable": false,
      "stateMutability": "nonpayable",
      "type": "constructor"
    },
    {
      "anonymous": false,
      "inputs": [
        {
          "indexed": true,
          "name": "_operator",
          "type": "address"
        }
      ],
      "name": "OperatorSet",
      "type": "event"
    },
    {
      "anonymous": false,
      "inputs": [
        {
          "indexed": true,
          "name": "_operationCost",
          "type": "uint256"
        }
      ],
      "name": "OperationCostSet",
      "type": "event"
    },
    {
      "constant": false,
      "inputs": [],
      "name": "removeOperator",
      "outputs": [],
      "payable": false,
      "stateMutability": "nonpayable",
      "type": "function"
    },
    {
      "constant": false,
      "inputs": [
        {
          "name": "_operationCost",
          "type": "uint256"
        }
      ],
      "name": "setOperationCost",
      "outputs": [],
      "payable": false,
      "stateMutability": "nonpayable",
      "type": "function"
    },
    {
      "constant": false,
      "inputs": [
        {
          "name": "_operator",
          "type": "address"
        }
      ],
      "name": "setOperator",
      "outputs": [],
      "payable": false,
      "stateMutability": "nonpayable",
      "type": "function"
    }
  ],
  "bytecode": "0x608060405234801561001057600080fd5b50604051604080610414833981016040819052815160209092015160008054600160a060020a031916600160a060020a0380861691909117808355600184905592939216917f99d737e0adf2c449d71890b86772885ec7959b152ddb265f76325b6e68e105d39190a26001546040517f70524409f1852b9903371526eb3765eb5462f72a3df57469113284ab8a76ec9590600090a2505061035e806100b66000396000f30060806040526004361061006c5763ffffffff7c010000000000000000000000000000000000000000000000000000000060003504166320e545488114610071578063570ca7351461008857806366c732f6146100c6578063b3ab15fb146100de578063cd23048b1461010c575b600080fd5b34801561007d57600080fd5b50610086610133565b005b34801561009457600080fd5b5061009d610149565b6040805173ffffffffffffffffffffffffffffffffffffffff9092168252519081900360200190f35b3480156100d257600080fd5b50610086600435610165565b3480156100ea57600080fd5b5061008673ffffffffffffffffffffffffffffffffffffffff60043516610244565b34801561011857600080fd5b5061012161032c565b60408051918252519081900360200190f35b61013d6000610244565b6101476000610165565b565b60005473ffffffffffffffffffffffffffffffffffffffff1681565b60005473ffffffffffffffffffffffffffffffffffffffff16331461021157604080517f08c379a000000000000000000000000000000000000000000000000000000000815260206004820152602260248201527f63616e206f6e6c792062652063616c6c656420627920746865206f706572617460448201527f6f72000000000000000000000000000000000000000000000000000000000000606482015290519081900360840190fd5b600181905560405181907f70524409f1852b9903371526eb3765eb5462f72a3df57469113284ab8a76ec9590600090a250565b60005473ffffffffffffffffffffffffffffffffffffffff1633146102f057604080517f08c379a000000000000000000000000000000000000000000000000000000000815260206004820152602260248201527f63616e206f6e6c792062652063616c6c656420627920746865206f706572617460448201527f6f72000000000000000000000000000000000000000000000000000000000000606482015290519081900360840190fd5b6000805473ffffffffffffffffffffffffffffffffffffffff191673ffffffffffffffffffffffffffffffffffffffff92909216919091179055565b600154815600a165627a7a72305820d10a980e86fef8f4f697e24ed1734174ce3ada38349a77949783089a0d384d530029",
  "source": "pragma solidity ^0.4.24;\n\nimport \"../node_modules/openzeppelin-solidity/contracts/math/SafeMath.sol\";\n\ncontract Operated {\n  // operator address\n  address public operator;\n  \n  // operation cost \n  uint256 public operationCost;\n\n  event OperatorSet(address indexed _operator); \n  event OperationCostSet(uint256 indexed _operationCost); \n\n  constructor(address _operator, uint256 _operationCost) {\n    operator = _operator;\n    operationCost = _operationCost;\n    emit OperatorSet(operator);\n    emit OperationCostSet(operationCost);\n  }\n\n  /**\n   * @dev Removes the operator and operational cost for the contract\n   */\n  function removeOperator() public {\n    setOperator(address(0));\n    setOperationCost(0);\n  }\n\n  /**\n   * @dev Set operational cost for the NFT contract\n   * @param _operationCost uint256 new cost to operate the contract\n   */\n  function setOperationCost(uint256 _operationCost) public {\n    require(operator == msg.sender, \"can only be called by the operator\");\n    operationCost = _operationCost;\n    emit OperationCostSet(operationCost);\n  }\n\n  /**\n   * @dev Set operational cost for the NFT contract\n   * @param _operator address new operator for the contract\n   */\n  function setOperator(address _operator) public {\n    require(operator == msg.sender, \"can only be called by the operator\");\n    operator = _operator;\n  }\n\n  /**\n   * @dev Internal function to pay the operator when there is one.\n   */\n  function payOperatorWhenNeeded() internal {\n    if (operator != address(0)) {\n      require(\n        operationCost <= msg.value, \n        \"must pay operation cost if operator set\"\n      );\n      operator.transfer(msg.value);\n    }\n  }\n}",
  "sourcePath": "/Users/charlescrain/dev/pixura-contracts/truffle/contracts/Operated.sol",
  "compiler": {
    "name": "solc",
    "version": "0.4.24+commit.e67f0147.Emscripten.clang"
  },
  "schemaVersion": "2.0.1",
  "updatedAt": "2019-08-03T00:40:14.239Z"
}