{
  "contractName": "OrderValidator",
  "abi": [
    {
      "inputs": [
        {
          "name": "_exchange",
          "type": "address"
        },
        {
          "name": "_zrxAssetData",
          "type": "bytes"
        }
      ],
      "payable": false,
      "stateMutability": "nonpayable",
      "type": "constructor"
    },
    {
      "constant": true,
      "inputs": [
        {
          "components": [
            {
              "name": "makerAddress",
              "type": "address"
            },
            {
              "name": "takerAddress",
              "type": "address"
            },
            {
              "name": "feeRecipientAddress",
              "type": "address"
            },
            {
              "name": "senderAddress",
              "type": "address"
            },
            {
              "name": "makerAssetAmount",
              "type": "uint256"
            },
            {
              "name": "takerAssetAmount",
              "type": "uint256"
            },
            {
              "name": "makerFee",
              "type": "uint256"
            },
            {
              "name": "takerFee",
              "type": "uint256"
            },
            {
              "name": "expirationTimeSeconds",
              "type": "uint256"
            },
            {
              "name": "salt",
              "type": "uint256"
            },
            {
              "name": "makerAssetData",
              "type": "bytes"
            },
            {
              "name": "takerAssetData",
              "type": "bytes"
            }
          ],
          "name": "order",
          "type": "tuple"
        },
        {
          "name": "takerAddress",
          "type": "address"
        }
      ],
      "name": "getOrderAndTraderInfo",
      "outputs": [
        {
          "components": [
            {
              "name": "orderStatus",
              "type": "uint8"
            },
            {
              "name": "orderHash",
              "type": "bytes32"
            },
            {
              "name": "orderTakerAssetFilledAmount",
              "type": "uint256"
            }
          ],
          "name": "orderInfo",
          "type": "tuple"
        },
        {
          "components": [
            {
              "name": "makerBalance",
              "type": "uint256"
            },
            {
              "name": "makerAllowance",
              "type": "uint256"
            },
            {
              "name": "takerBalance",
              "type": "uint256"
            },
            {
              "name": "takerAllowance",
              "type": "uint256"
            },
            {
              "name": "makerZrxBalance",
              "type": "uint256"
            },
            {
              "name": "makerZrxAllowance",
              "type": "uint256"
            },
            {
              "name": "takerZrxBalance",
              "type": "uint256"
            },
            {
              "name": "takerZrxAllowance",
              "type": "uint256"
            }
          ],
          "name": "traderInfo",
          "type": "tuple"
        }
      ],
      "payable": false,
      "stateMutability": "view",
      "type": "function"
    },
    {
      "constant": true,
      "inputs": [
        {
          "components": [
            {
              "name": "makerAddress",
              "type": "address"
            },
            {
              "name": "takerAddress",
              "type": "address"
            },
            {
              "name": "feeRecipientAddress",
              "type": "address"
            },
            {
              "name": "senderAddress",
              "type": "address"
            },
            {
              "name": "makerAssetAmount",
              "type": "uint256"
            },
            {
              "name": "takerAssetAmount",
              "type": "uint256"
            },
            {
              "name": "makerFee",
              "type": "uint256"
            },
            {
              "name": "takerFee",
              "type": "uint256"
            },
            {
              "name": "expirationTimeSeconds",
              "type": "uint256"
            },
            {
              "name": "salt",
              "type": "uint256"
            },
            {
              "name": "makerAssetData",
              "type": "bytes"
            },
            {
              "name": "takerAssetData",
              "type": "bytes"
            }
          ],
          "name": "orders",
          "type": "tuple[]"
        },
        {
          "name": "takerAddresses",
          "type": "address[]"
        }
      ],
      "name": "getOrdersAndTradersInfo",
      "outputs": [
        {
          "components": [
            {
              "name": "orderStatus",
              "type": "uint8"
            },
            {
              "name": "orderHash",
              "type": "bytes32"
            },
            {
              "name": "orderTakerAssetFilledAmount",
              "type": "uint256"
            }
          ],
          "name": "ordersInfo",
          "type": "tuple[]"
        },
        {
          "components": [
            {
              "name": "makerBalance",
              "type": "uint256"
            },
            {
              "name": "makerAllowance",
              "type": "uint256"
            },
            {
              "name": "takerBalance",
              "type": "uint256"
            },
            {
              "name": "takerAllowance",
              "type": "uint256"
            },
            {
              "name": "makerZrxBalance",
              "type": "uint256"
            },
            {
              "name": "makerZrxAllowance",
              "type": "uint256"
            },
            {
              "name": "takerZrxBalance",
              "type": "uint256"
            },
            {
              "name": "takerZrxAllowance",
              "type": "uint256"
            }
          ],
          "name": "tradersInfo",
          "type": "tuple[]"
        }
      ],
      "payable": false,
      "stateMutability": "view",
      "type": "function"
    },
    {
      "constant": true,
      "inputs": [
        {
          "components": [
            {
              "name": "makerAddress",
              "type": "address"
            },
            {
              "name": "takerAddress",
              "type": "address"
            },
            {
              "name": "feeRecipientAddress",
              "type": "address"
            },
            {
              "name": "senderAddress",
              "type": "address"
            },
            {
              "name": "makerAssetAmount",
              "type": "uint256"
            },
            {
              "name": "takerAssetAmount",
              "type": "uint256"
            },
            {
              "name": "makerFee",
              "type": "uint256"
            },
            {
              "name": "takerFee",
              "type": "uint256"
            },
            {
              "name": "expirationTimeSeconds",
              "type": "uint256"
            },
            {
              "name": "salt",
              "type": "uint256"
            },
            {
              "name": "makerAssetData",
              "type": "bytes"
            },
            {
              "name": "takerAssetData",
              "type": "bytes"
            }
          ],
          "name": "order",
          "type": "tuple"
        },
        {
          "name": "takerAddress",
          "type": "address"
        }
      ],
      "name": "getTraderInfo",
      "outputs": [
        {
          "components": [
            {
              "name": "makerBalance",
              "type": "uint256"
            },
            {
              "name": "makerAllowance",
              "type": "uint256"
            },
            {
              "name": "takerBalance",
              "type": "uint256"
            },
            {
              "name": "takerAllowance",
              "type": "uint256"
            },
            {
              "name": "makerZrxBalance",
              "type": "uint256"
            },
            {
              "name": "makerZrxAllowance",
              "type": "uint256"
            },
            {
              "name": "takerZrxBalance",
              "type": "uint256"
            },
            {
              "name": "takerZrxAllowance",
              "type": "uint256"
            }
          ],
          "name": "traderInfo",
          "type": "tuple"
        }
      ],
      "payable": false,
      "stateMutability": "view",
      "type": "function"
    },
    {
      "constant": true,
      "inputs": [
        {
          "components": [
            {
              "name": "makerAddress",
              "type": "address"
            },
            {
              "name": "takerAddress",
              "type": "address"
            },
            {
              "name": "feeRecipientAddress",
              "type": "address"
            },
            {
              "name": "senderAddress",
              "type": "address"
            },
            {
              "name": "makerAssetAmount",
              "type": "uint256"
            },
            {
              "name": "takerAssetAmount",
              "type": "uint256"
            },
            {
              "name": "makerFee",
              "type": "uint256"
            },
            {
              "name": "takerFee",
              "type": "uint256"
            },
            {
              "name": "expirationTimeSeconds",
              "type": "uint256"
            },
            {
              "name": "salt",
              "type": "uint256"
            },
            {
              "name": "makerAssetData",
              "type": "bytes"
            },
            {
              "name": "takerAssetData",
              "type": "bytes"
            }
          ],
          "name": "orders",
          "type": "tuple[]"
        },
        {
          "name": "takerAddresses",
          "type": "address[]"
        }
      ],
      "name": "getTradersInfo",
      "outputs": [
        {
          "components": [
            {
              "name": "makerBalance",
              "type": "uint256"
            },
            {
              "name": "makerAllowance",
              "type": "uint256"
            },
            {
              "name": "takerBalance",
              "type": "uint256"
            },
            {
              "name": "takerAllowance",
              "type": "uint256"
            },
            {
              "name": "makerZrxBalance",
              "type": "uint256"
            },
            {
              "name": "makerZrxAllowance",
              "type": "uint256"
            },
            {
              "name": "takerZrxBalance",
              "type": "uint256"
            },
            {
              "name": "takerZrxAllowance",
              "type": "uint256"
            }
          ],
          "name": "",
          "type": "tuple[]"
        }
      ],
      "payable": false,
      "stateMutability": "view",
      "type": "function"
    },
    {
      "constant": true,
      "inputs": [
        {
          "name": "target",
          "type": "address"
        },
        {
          "name": "assetData",
          "type": "bytes"
        }
      ],
      "name": "getBalanceAndAllowance",
      "outputs": [
        {
          "name": "balance",
          "type": "uint256"
        },
        {
          "name": "allowance",
          "type": "uint256"
        }
      ],
      "payable": false,
      "stateMutability": "view",
      "type": "function"
    },
    {
      "constant": true,
      "inputs": [
        {
          "name": "target",
          "type": "address"
        },
        {
          "name": "assetData",
          "type": "bytes[]"
        }
      ],
      "name": "getBalancesAndAllowances",
      "outputs": [
        {
          "name": "",
          "type": "uint256[]"
        },
        {
          "name": "",
          "type": "uint256[]"
        }
      ],
      "payable": false,
      "stateMutability": "view",
      "type": "function"
    },
    {
      "constant": true,
      "inputs": [
        {
          "name": "token",
          "type": "address"
        },
        {
          "name": "tokenId",
          "type": "uint256"
        }
      ],
      "name": "getERC721TokenOwner",
      "outputs": [
        {
          "name": "owner",
          "type": "address"
        }
      ],
      "payable": false,
      "stateMutability": "view",
      "type": "function"
    }
  ],
  "bytecode": "0x60806040523480156200001157600080fd5b5060405162001a9a38038062001a9a833981018060405262000037919081019062000186565b60008054600160a060020a031916600160a060020a03841617905580516200006790600190602084019062000070565b5050506200026b565b828054600181600116156101000203166002900490600052602060002090601f016020900481019282601f10620000b357805160ff1916838001178555620000e3565b82800160010185558215620000e3579182015b82811115620000e3578251825591602001919060010190620000c6565b50620000f1929150620000f5565b5090565b6200011291905b80821115620000f15760008155600101620000fc565b90565b60006200012382516200022c565b9392505050565b6000601f820183136200013c57600080fd5b8151620001536200014d8262000204565b620001dd565b915080825260208301602083018583830111156200017057600080fd5b6200017d83828462000238565b50505092915050565b600080604083850312156200019a57600080fd5b6000620001a8858562000115565b92505060208301516001604060020a03811115620001c557600080fd5b620001d3858286016200012a565b9150509250929050565b6040518181016001604060020a0381118282101715620001fc57600080fd5b604052919050565b60006001604060020a038211156200021b57600080fd5b506020601f91909101601f19160190565b600160a060020a031690565b60005b83811015620002555781810151838201526020016200023b565b8381111562000265576000848401525b50505050565b61181f806200027b6000396000f3006080604052600436106100825763ffffffff7c010000000000000000000000000000000000000000000000000000000060003504166304ad1e5381146100875780632cd0fc73146100be5780634b95de13146100ec578063690d31141461011a578063b698846314610147578063c6b7f4ee14610174578063f241ffb0146101a2575b600080fd5b34801561009357600080fd5b506100a76100a23660046110a2565b6101cf565b6040516100b59291906116ab565b60405180910390f35b3480156100ca57600080fd5b506100de6100d9366004610f5a565b61028f565b6040516100b59291906116e7565b3480156100f857600080fd5b5061010c610107366004611007565b61064f565b6040516100b59291906115f1565b34801561012657600080fd5b5061013a610135366004611007565b6106fb565b6040516100b59190611627565b34801561015357600080fd5b50610167610162366004610fa2565b6107b5565b6040516100b591906115c8565b34801561018057600080fd5b5061019461018f366004610f08565b610800565b6040516100b5929190611638565b3480156101ae57600080fd5b506101c26101bd3660046110a2565b6108dd565b6040516100b591906116d8565b6101d7610a9f565b6101df610abf565b6000546040517fc75e0a81000000000000000000000000000000000000000000000000000000008152600160a060020a039091169063c75e0a81906102289087906004016116c7565b606060405180830381600087803b15801561024257600080fd5b505af1158015610256573d6000803e3d6000fd5b505050506040513d601f19601f8201168201806040525061027a9190810190611084565b915061028684846108dd565b90509250929050565b6000808080808080806102a8898263ffffffff6109dd16565b95506102bb89601063ffffffff610a1b16565b6000546040517f60704108000000000000000000000000000000000000000000000000000000008152919650600160a060020a03169063607041089061030590899060040161165d565b602060405180830381600087803b15801561031f57600080fd5b505af1158015610333573d6000803e3d6000fd5b505050506040513d601f19601f820116820180604052506103579190810190610ee2565b604080517f4552433230546f6b656e2861646472657373290000000000000000000000000081529051908190036013019020909450600160e060020a0319878116911614156104da576040517f70a08231000000000000000000000000000000000000000000000000000000008152600160a060020a038616906370a08231906103e5908d906004016115c8565b602060405180830381600087803b1580156103ff57600080fd5b505af1158015610413573d6000803e3d6000fd5b505050506040513d601f19601f8201168201806040525061043791908101906110e9565b6040517fdd62ed3e000000000000000000000000000000000000000000000000000000008152909850600160a060020a0386169063dd62ed3e90610481908d9088906004016115d6565b602060405180830381600087803b15801561049b57600080fd5b505af11580156104af573d6000803e3d6000fd5b505050506040513d601f19601f820116820180604052506104d391908101906110e9565b9650610642565b604080517f455243373231546f6b656e28616464726573732c75696e7432353629000000008152905190819003601c019020600160e060020a03198781169116141561061e5761053189602463ffffffff610a5816565b925061053d85846107b5565b915081600160a060020a03168a600160a060020a03161461055f576000610562565b60015b60ff16975084600160a060020a031663e985e9c58b866040518363ffffffff167c01000000000000000000000000000000000000000000000000000000000281526004016105b19291906115d6565b602060405180830381600087803b1580156105cb57600080fd5b505af11580156105df573d6000803e3d6000fd5b505050506040513d601f19601f820116820180604052506106039190810190611066565b905080610611576000610614565b60015b60ff169650610642565b60405160e560020a62461bcd0281526004016106399061167b565b60405180910390fd5b5050505050509250929050565b6000546040517f7e9d74dc0000000000000000000000000000000000000000000000000000000081526060918291600160a060020a0390911690637e9d74dc9061069d908790600401611616565b600060405180830381600087803b1580156106b757600080fd5b505af11580156106cb573d6000803e3d6000fd5b505050506040513d6000823e601f3d908101601f191682016040526106f39190810190610fd2565b915061028684845b6060600060606000855192508260405190808252806020026020018201604052801561074157816020015b61072e610abf565b8152602001906001900390816107265790505b509150600090505b8083146107a857610788868281518110151561076157fe5b90602001906020020151868381518110151561077957fe5b906020019060200201516108dd565b828281518110151561079657fe5b60209081029091010152600101610749565b8193505b50505092915050565b60006040517f6352211e000000000000000000000000000000000000000000000000000000008152826004820152602081602483875afa80156107f757815192505b50505b92915050565b606080600060608060008651935083604051908082528060200260200182016040528015610838578160200160208202803883390190505b50925083604051908082528060200260200182016040528015610865578160200160208202803883390190505b509150600090505b8084146108d05761089588888381518110151561088657fe5b9060200190602002015161028f565b84838151811015156108a357fe5b90602001906020020184848151811015156108ba57fe5b602090810290910101919091525260010161086d565b5090969095509350505050565b6108e5610abf565b60606108fa846000015185610140015161028f565b6020840152825261016084015161091290849061028f565b60608401526040808401919091526001805482516020601f600260001961010086881615020190941693909304928301819004810282018101909452818152928301828280156109a35780601f10610978576101008083540402835291602001916109a3565b820191906000526020600020905b81548152906001019060200180831161098657829003601f168201915b505050505090506109b884600001518261028f565b60a084015260808301526109cc838261028f565b60e084015260c08301525092915050565b600081600401835110151515610a085760405160e560020a62461bcd0281526004016106399061169b565b500160200151600160e060020a03191690565b600081601401835110151515610a465760405160e560020a62461bcd0281526004016106399061168b565b500160140151600160a060020a031690565b6000610a648383610a6b565b9392505050565b600081602001835110151515610a965760405160e560020a62461bcd0281526004016106399061166b565b50016020015190565b604080516060810182526000808252602082018190529181019190915290565b6101006040519081016040528060008152602001600081526020016000815260200160008152602001600081526020016000815260200160008152602001600081525090565b6000610a64823561177c565b6000610a64825161177c565b6000601f82018313610b2e57600080fd5b8135610b41610b3c82611729565b611702565b91508181835260208401935060208101905083856020840282011115610b6657600080fd5b60005b83811015610b925781610b7c8882610b05565b8452506020928301929190910190600101610b69565b5050505092915050565b6000601f82018313610bad57600080fd5b8135610bbb610b3c82611729565b81815260209384019390925082018360005b83811015610b925781358601610be38882610ce0565b8452506020928301929190910190600101610bcd565b6000601f82018313610c0a57600080fd5b8151610c18610b3c82611729565b91508181835260208401935060208101905083856060840282011115610c3d57600080fd5b60005b83811015610b925781610c538882610d26565b84525060209092019160609190910190600101610c40565b6000601f82018313610c7c57600080fd5b8135610c8a610b3c82611729565b81815260209384019390925082018360005b83811015610b925781358601610cb28882610d81565b8452506020928301929190910190600101610c9c565b6000610a64825161179e565b6000610a648251611788565b6000601f82018313610cf157600080fd5b8135610cff610b3c8261174a565b91508082526020830160208301858383011115610d1b57600080fd5b6107ac8382846117a3565b600060608284031215610d3857600080fd5b610d426060611702565b90506000610d508484610ed6565b8252506020610d6184848301610cd4565b6020830152506040610d7584828501610cd4565b60408301525092915050565b60006101808284031215610d9457600080fd5b610d9f610180611702565b90506000610dad8484610b05565b8252506020610dbe84848301610b05565b6020830152506040610dd284828501610b05565b6040830152506060610de684828501610b05565b6060830152506080610dfa84828501610eca565b60808301525060a0610e0e84828501610eca565b60a08301525060c0610e2284828501610eca565b60c08301525060e0610e3684828501610eca565b60e083015250610100610e4b84828501610eca565b61010083015250610120610e6184828501610eca565b6101208301525061014082013567ffffffffffffffff811115610e8357600080fd5b610e8f84828501610ce0565b6101408301525061016082013567ffffffffffffffff811115610eb157600080fd5b610ebd84828501610ce0565b6101608301525092915050565b6000610a648235611788565b6000610a648251611798565b600060208284031215610ef457600080fd5b6000610f008484610b11565b949350505050565b60008060408385031215610f1b57600080fd5b6000610f278585610b05565b925050602083013567ffffffffffffffff811115610f4457600080fd5b610f5085828601610b9c565b9150509250929050565b60008060408385031215610f6d57600080fd5b6000610f798585610b05565b925050602083013567ffffffffffffffff811115610f9657600080fd5b610f5085828601610ce0565b60008060408385031215610fb557600080fd5b6000610fc18585610b05565b9250506020610f5085828601610eca565b600060208284031215610fe457600080fd5b815167ffffffffffffffff811115610ffb57600080fd5b610f0084828501610bf9565b6000806040838503121561101a57600080fd5b823567ffffffffffffffff81111561103157600080fd5b61103d85828601610c6b565b925050602083013567ffffffffffffffff81111561105a57600080fd5b610f5085828601610b1d565b60006020828403121561107857600080fd5b6000610f008484610cc8565b60006060828403121561109657600080fd5b6000610f008484610d26565b600080604083850312156110b557600080fd5b823567ffffffffffffffff8111156110cc57600080fd5b6110d885828601610d81565b9250506020610f5085828601610b05565b6000602082840312156110fb57600080fd5b6000610f008484610cd4565b6111108161177c565b82525050565b600061112182611778565b80845260208401935061113383611772565b60005b82811015611163576111498683516113e8565b61115282611772565b606096909601959150600101611136565b5093949350505050565b600061117882611778565b8084526020840193508360208202850161119185611772565b60005b848110156111c85783830388526111ac838351611425565b92506111b782611772565b602098909801979150600101611194565b50909695505050505050565b60006111df82611778565b8084526020840193506111f183611772565b60005b8281101561116357611207868351611528565b61121082611772565b610100969096019591506001016111f4565b600061122d82611778565b80845260208401935061123f83611772565b60005b828110156111635761125586835161126f565b61125e82611772565b602096909601959150600101611242565b61111081611788565b6111108161178b565b600061128c82611778565b8084526112a08160208601602086016117af565b6112a9816117db565b9093016020019392505050565b602681527f475245415445525f4f525f455155414c5f544f5f33325f4c454e4754485f524560208201527f5155495245440000000000000000000000000000000000000000000000000000604082015260600190565b601781527f554e535550504f525445445f41535345545f50524f5859000000000000000000602082015260400190565b602681527f475245415445525f4f525f455155414c5f544f5f32305f4c454e4754485f524560208201527f5155495245440000000000000000000000000000000000000000000000000000604082015260600190565b602581527f475245415445525f4f525f455155414c5f544f5f345f4c454e4754485f52455160208201527f5549524544000000000000000000000000000000000000000000000000000000604082015260600190565b805160608301906113f984826115bf565b50602082015161140c602085018261126f565b50604082015161141f604085018261126f565b50505050565b805160009061018084019061143a8582611107565b50602083015161144d6020860182611107565b5060408301516114606040860182611107565b5060608301516114736060860182611107565b506080830151611486608086018261126f565b5060a083015161149960a086018261126f565b5060c08301516114ac60c086018261126f565b5060e08301516114bf60e086018261126f565b506101008301516114d461010086018261126f565b506101208301516114e961012086018261126f565b506101408301518482036101408601526115038282611281565b91505061016083015184820361016086015261151f8282611281565b95945050505050565b805161010083019061153a848261126f565b50602082015161154d602085018261126f565b506040820151611560604085018261126f565b506060820151611573606085018261126f565b506080820151611586608085018261126f565b5060a082015161159960a085018261126f565b5060c08201516115ac60c085018261126f565b5060e082015161141f60e085018261126f565b61111081611798565b602081016107fa8284611107565b604081016115e48285611107565b610a646020830184611107565b604080825281016116028185611116565b90508181036020830152610f0081846111d4565b60208082528101610a64818461116d565b60208082528101610a6481846111d4565b604080825281016116498185611222565b90508181036020830152610f008184611222565b602081016107fa8284611278565b602080825281016107fa816112b6565b602080825281016107fa8161130c565b602080825281016107fa8161133c565b602080825281016107fa81611392565b61016081016116ba82856113e8565b610a646060830184611528565b60208082528101610a648184611425565b61010081016107fa8284611528565b604081016116f5828561126f565b610a64602083018461126f565b60405181810167ffffffffffffffff8111828210171561172157600080fd5b604052919050565b600067ffffffffffffffff82111561174057600080fd5b5060209081020190565b600067ffffffffffffffff82111561176157600080fd5b506020601f91909101601f19160190565b60200190565b5190565b600160a060020a031690565b90565b600160e060020a03191690565b60ff1690565b151590565b82818337506000910152565b60005b838110156117ca5781810151838201526020016117b2565b8381111561141f5750506000910152565b601f01601f1916905600a265627a7a72305820a71b970672963cfa49546b2c503bb6465ad3d6c4074e5c440f29ce25acf973686c6578706572696d656e74616cf50037",
  "source": "/*\n\n  Copyright 2018 ZeroEx Intl.\n\n  Licensed under the Apache License, Version 2.0 (the \"License\");\n  you may not use this file except in compliance with the License.\n  You may obtain a copy of the License at\n\n    http://www.apache.org/licenses/LICENSE-2.0\n\n  Unless required by applicable law or agreed to in writing, software\n  distributed under the License is distributed on an \"AS IS\" BASIS,\n  WITHOUT WARRANTIES OR CONDITIONS OF ANY KIND, either express or implied.\n  See the License for the specific language governing permissions and\n  limitations under the License.\n\n*/\n\npragma solidity 0.4.24;\npragma experimental ABIEncoderV2;\n\nimport \"../../protocol/Exchange/interfaces/IExchange.sol\";\nimport \"../../protocol/Exchange/libs/LibOrder.sol\";\nimport \"../../tokens/ERC20Token/IERC20Token.sol\";\nimport \"../../tokens/ERC721Token/IERC721Token.sol\";\nimport \"../../utils/LibBytes/LibBytes.sol\";\n\n\ncontract OrderValidator {\n\n    using LibBytes for bytes;\n\n    bytes4 constant internal ERC20_DATA_ID = bytes4(keccak256(\"ERC20Token(address)\"));\n    bytes4 constant internal ERC721_DATA_ID = bytes4(keccak256(\"ERC721Token(address,uint256)\"));\n\n    struct TraderInfo {\n        uint256 makerBalance;       // Maker's balance of makerAsset\n        uint256 makerAllowance;     // Maker's allowance to corresponding AssetProxy\n        uint256 takerBalance;       // Taker's balance of takerAsset\n        uint256 takerAllowance;     // Taker's allowance to corresponding AssetProxy\n        uint256 makerZrxBalance;    // Maker's balance of ZRX\n        uint256 makerZrxAllowance;  // Maker's allowance of ZRX to ERC20Proxy\n        uint256 takerZrxBalance;    // Taker's balance of ZRX\n        uint256 takerZrxAllowance;  // Taker's allowance of ZRX to ERC20Proxy\n    }\n\n    // solhint-disable var-name-mixedcase\n    IExchange internal EXCHANGE;\n    bytes internal ZRX_ASSET_DATA;\n    // solhint-enable var-name-mixedcase\n\n    constructor (address _exchange, bytes memory _zrxAssetData)\n        public\n    {\n        EXCHANGE = IExchange(_exchange);\n        ZRX_ASSET_DATA = _zrxAssetData;\n    }\n\n    /// @dev Fetches information for order and maker/taker of order.\n    /// @param order The order structure.\n    /// @param takerAddress Address that will be filling the order.\n    /// @return OrderInfo and TraderInfo instances for given order.\n    function getOrderAndTraderInfo(LibOrder.Order memory order, address takerAddress)\n        public\n        view\n        returns (LibOrder.OrderInfo memory orderInfo, TraderInfo memory traderInfo)\n    {\n        orderInfo = EXCHANGE.getOrderInfo(order);\n        traderInfo = getTraderInfo(order, takerAddress);\n        return (orderInfo, traderInfo);\n    }\n\n    /// @dev Fetches information for all passed in orders and the makers/takers of each order.\n    /// @param orders Array of order specifications.\n    /// @param takerAddresses Array of taker addresses corresponding to each order.\n    /// @return Arrays of OrderInfo and TraderInfo instances that correspond to each order.\n    function getOrdersAndTradersInfo(LibOrder.Order[] memory orders, address[] memory takerAddresses)\n        public\n        view\n        returns (LibOrder.OrderInfo[] memory ordersInfo, TraderInfo[] memory tradersInfo)\n    {\n        ordersInfo = EXCHANGE.getOrdersInfo(orders);\n        tradersInfo = getTradersInfo(orders, takerAddresses);\n        return (ordersInfo, tradersInfo);\n    }\n\n    /// @dev Fetches balance and allowances for maker and taker of order.\n    /// @param order The order structure.\n    /// @param takerAddress Address that will be filling the order.\n    /// @return Balances and allowances of maker and taker of order.\n    function getTraderInfo(LibOrder.Order memory order, address takerAddress)\n        public\n        view\n        returns (TraderInfo memory traderInfo)\n    {\n        (traderInfo.makerBalance, traderInfo.makerAllowance) = getBalanceAndAllowance(order.makerAddress, order.makerAssetData);\n        (traderInfo.takerBalance, traderInfo.takerAllowance) = getBalanceAndAllowance(takerAddress, order.takerAssetData);\n        bytes memory zrxAssetData = ZRX_ASSET_DATA;\n        (traderInfo.makerZrxBalance, traderInfo.makerZrxAllowance) = getBalanceAndAllowance(order.makerAddress, zrxAssetData);\n        (traderInfo.takerZrxBalance, traderInfo.takerZrxAllowance) = getBalanceAndAllowance(takerAddress, zrxAssetData);\n        return traderInfo;\n    }\n\n    /// @dev Fetches balances and allowances of maker and taker for each provided order.\n    /// @param orders Array of order specifications.\n    /// @param takerAddresses Array of taker addresses corresponding to each order.\n    /// @return Array of balances and allowances for maker and taker of each order.\n    function getTradersInfo(LibOrder.Order[] memory orders, address[] memory takerAddresses)\n        public\n        view\n        returns (TraderInfo[] memory)\n    {\n        uint256 ordersLength = orders.length;\n        TraderInfo[] memory tradersInfo = new TraderInfo[](ordersLength);\n        for (uint256 i = 0; i != ordersLength; i++) {\n            tradersInfo[i] = getTraderInfo(orders[i], takerAddresses[i]);\n        }\n        return tradersInfo;\n    }\n\n    /// @dev Fetches token balances and allowances of an address to given assetProxy. Supports ERC20 and ERC721.\n    /// @param target Address to fetch balances and allowances of.\n    /// @param assetData Encoded data that can be decoded by a specified proxy contract when transferring asset.\n    /// @return Balance of asset and allowance set to given proxy of asset.\n    ///         For ERC721 tokens, these values will always be 1 or 0.\n    function getBalanceAndAllowance(address target, bytes memory assetData)\n        public\n        view\n        returns (uint256 balance, uint256 allowance)\n    {\n        bytes4 assetProxyId = assetData.readBytes4(0);\n        address token = assetData.readAddress(16);\n        address assetProxy = EXCHANGE.getAssetProxy(assetProxyId);\n\n        if (assetProxyId == ERC20_DATA_ID) {\n            // Query balance\n            balance = IERC20Token(token).balanceOf(target);\n\n            // Query allowance\n            allowance = IERC20Token(token).allowance(target, assetProxy);\n        } else if (assetProxyId == ERC721_DATA_ID) {\n            uint256 tokenId = assetData.readUint256(36);\n\n            // Query owner of tokenId\n            address owner = getERC721TokenOwner(token, tokenId);\n\n            // Set balance to 1 if tokenId is owned by target\n            balance = target == owner ? 1 : 0;\n\n            // Check if ERC721Proxy is approved to spend tokenId\n            bool isApproved = IERC721Token(token).isApprovedForAll(target, assetProxy);\n            \n            // Set alowance to 1 if ERC721Proxy is approved to spend tokenId\n            allowance = isApproved ? 1 : 0;\n        } else {\n            revert(\"UNSUPPORTED_ASSET_PROXY\");\n        }\n        return (balance, allowance);\n    }\n\n    /// @dev Fetches token balances and allowances of an address for each given assetProxy. Supports ERC20 and ERC721.\n    /// @param target Address to fetch balances and allowances of.\n    /// @param assetData Array of encoded byte arrays that can be decoded by a specified proxy contract when transferring asset.\n    /// @return Balances and allowances of assets.\n    ///         For ERC721 tokens, these values will always be 1 or 0.\n    function getBalancesAndAllowances(address target, bytes[] memory assetData)\n        public\n        view\n        returns (uint256[] memory, uint256[] memory)\n    {\n        uint256 length = assetData.length;\n        uint256[] memory balances = new uint256[](length);\n        uint256[] memory allowances = new uint256[](length);\n        for (uint256 i = 0; i != length; i++) {\n            (balances[i], allowances[i]) = getBalanceAndAllowance(target, assetData[i]);\n        }\n        return (balances, allowances);\n    }\n\n    /// @dev Calls `token.ownerOf(tokenId)`, but returns a null owner instead of reverting on an unowned token.\n    /// @param token Address of ERC721 token.\n    /// @param tokenId The identifier for the specific NFT.\n    /// @return Owner of tokenId or null address if unowned.\n    function getERC721TokenOwner(address token, uint256 tokenId)\n        public\n        view\n        returns (address owner)\n    {\n        assembly {\n            // load free memory pointer\n            let cdStart := mload(64)\n\n            // bytes4(keccak256(ownerOf(uint256))) = 0x6352211e\n            mstore(cdStart, 0x6352211e00000000000000000000000000000000000000000000000000000000)\n            mstore(add(cdStart, 4), tokenId)\n\n            // staticcall `ownerOf(tokenId)`\n            // `ownerOf` will revert if tokenId is not owned\n            let success := staticcall(\n                gas,      // forward all gas\n                token,    // call token contract\n                cdStart,  // start of calldata\n                36,       // length of input is 36 bytes\n                cdStart,  // write output over input\n                32        // size of output is 32 bytes\n            )\n\n            // Success implies that tokenId is owned\n            // Copy owner from return data if successful\n            if success {\n                owner := mload(cdStart)\n            }    \n        }\n\n        // Owner initialized to address(0), no need to modify if call is unsuccessful\n        return owner;\n    }\n}\n",
  "sourcePath": "/Users/charlescrain/dev/pixura-contracts/truffle/node_modules/0x-monorepo/packages/contracts/contracts/extensions/OrderValidator/OrderValidator.sol",
  "compiler": {
    "name": "solc",
    "version": "0.4.24+commit.e67f0147.Emscripten.clang"
  },
  "schemaVersion": "2.0.1",
  "updatedAt": "2019-02-06T01:10:03.951Z"
}