{
  "contractName": "PixuraNFT",
  "abi": [
    {
      "constant": true,
      "inputs": [
        {
          "name": "interfaceId",
          "type": "bytes4"
        }
      ],
      "name": "supportsInterface",
      "outputs": [
        {
          "name": "",
          "type": "bool"
        }
      ],
      "payable": false,
      "stateMutability": "view",
      "type": "function"
    },
    {
      "constant": false,
      "inputs": [
        {
          "name": "_enabled",
          "type": "bool"
        }
      ],
      "name": "enableWhitelist",
      "outputs": [],
      "payable": false,
      "stateMutability": "nonpayable",
      "type": "function"
    },
    {
      "constant": true,
      "inputs": [],
      "name": "name",
      "outputs": [
        {
          "name": "",
          "type": "string"
        }
      ],
      "payable": false,
      "stateMutability": "view",
      "type": "function"
    },
    {
      "constant": true,
      "inputs": [
        {
          "name": "tokenId",
          "type": "uint256"
        }
      ],
      "name": "getApproved",
      "outputs": [
        {
          "name": "",
          "type": "address"
        }
      ],
      "payable": false,
      "stateMutability": "view",
      "type": "function"
    },
    {
      "constant": false,
      "inputs": [
        {
          "name": "to",
          "type": "address"
        },
        {
          "name": "tokenId",
          "type": "uint256"
        }
      ],
      "name": "approve",
      "outputs": [],
      "payable": false,
      "stateMutability": "nonpayable",
      "type": "function"
    },
    {
      "constant": true,
      "inputs": [],
      "name": "totalSupply",
      "outputs": [
        {
          "name": "",
          "type": "uint256"
        }
      ],
      "payable": false,
      "stateMutability": "view",
      "type": "function"
    },
    {
      "constant": false,
      "inputs": [
        {
          "name": "from",
          "type": "address"
        },
        {
          "name": "to",
          "type": "address"
        },
        {
          "name": "tokenId",
          "type": "uint256"
        }
      ],
      "name": "transferFrom",
      "outputs": [],
      "payable": false,
      "stateMutability": "nonpayable",
      "type": "function"
    },
    {
      "constant": true,
      "inputs": [
        {
          "name": "owner",
          "type": "address"
        },
        {
          "name": "index",
          "type": "uint256"
        }
      ],
      "name": "tokenOfOwnerByIndex",
      "outputs": [
        {
          "name": "",
          "type": "uint256"
        }
      ],
      "payable": false,
      "stateMutability": "view",
      "type": "function"
    },
    {
      "constant": true,
      "inputs": [
        {
          "name": "_address",
          "type": "address"
        }
      ],
      "name": "isWhitelisted",
      "outputs": [
        {
          "name": "",
          "type": "bool"
        }
      ],
      "payable": false,
      "stateMutability": "view",
      "type": "function"
    },
    {
      "constant": false,
      "inputs": [
        {
          "name": "from",
          "type": "address"
        },
        {
          "name": "to",
          "type": "address"
        },
        {
          "name": "tokenId",
          "type": "uint256"
        }
      ],
      "name": "safeTransferFrom",
      "outputs": [],
      "payable": false,
      "stateMutability": "nonpayable",
      "type": "function"
    },
    {
      "constant": true,
      "inputs": [
        {
          "name": "index",
          "type": "uint256"
        }
      ],
      "name": "tokenByIndex",
      "outputs": [
        {
          "name": "",
          "type": "uint256"
        }
      ],
      "payable": false,
      "stateMutability": "view",
      "type": "function"
    },
    {
      "constant": true,
      "inputs": [],
      "name": "operator",
      "outputs": [
        {
          "name": "",
          "type": "address"
        }
      ],
      "payable": false,
      "stateMutability": "view",
      "type": "function"
    },
    {
      "constant": true,
      "inputs": [
        {
          "name": "tokenId",
          "type": "uint256"
        }
      ],
      "name": "ownerOf",
      "outputs": [
        {
          "name": "",
          "type": "address"
        }
      ],
      "payable": false,
      "stateMutability": "view",
      "type": "function"
    },
    {
      "constant": true,
      "inputs": [
        {
          "name": "owner",
          "type": "address"
        }
      ],
      "name": "balanceOf",
      "outputs": [
        {
          "name": "",
          "type": "uint256"
        }
      ],
      "payable": false,
      "stateMutability": "view",
      "type": "function"
    },
    {
      "constant": false,
      "inputs": [],
      "name": "renounceOwnership",
      "outputs": [],
      "payable": false,
      "stateMutability": "nonpayable",
      "type": "function"
    },
    {
      "constant": false,
      "inputs": [
        {
          "name": "_removedAddress",
          "type": "address"
        }
      ],
      "name": "removeFromWhitelist",
      "outputs": [],
      "payable": false,
      "stateMutability": "nonpayable",
      "type": "function"
    },
    {
      "constant": true,
      "inputs": [],
      "name": "owner",
      "outputs": [
        {
          "name": "",
          "type": "address"
        }
      ],
      "payable": false,
      "stateMutability": "view",
      "type": "function"
    },
    {
      "constant": true,
      "inputs": [],
      "name": "isOwner",
      "outputs": [
        {
          "name": "",
          "type": "bool"
        }
      ],
      "payable": false,
      "stateMutability": "view",
      "type": "function"
    },
    {
      "constant": true,
      "inputs": [],
      "name": "symbol",
      "outputs": [
        {
          "name": "",
          "type": "string"
        }
      ],
      "payable": false,
      "stateMutability": "view",
      "type": "function"
    },
    {
      "constant": false,
      "inputs": [
        {
          "name": "to",
          "type": "address"
        },
        {
          "name": "approved",
          "type": "bool"
        }
      ],
      "name": "setApprovalForAll",
      "outputs": [],
      "payable": false,
      "stateMutability": "nonpayable",
      "type": "function"
    },
    {
      "constant": false,
      "inputs": [
        {
          "name": "from",
          "type": "address"
        },
        {
          "name": "to",
          "type": "address"
        },
        {
          "name": "tokenId",
          "type": "uint256"
        },
        {
          "name": "_data",
          "type": "bytes"
        }
      ],
      "name": "safeTransferFrom",
      "outputs": [],
      "payable": false,
      "stateMutability": "nonpayable",
      "type": "function"
    },
    {
      "constant": true,
      "inputs": [
        {
          "name": "tokenId",
          "type": "uint256"
        }
      ],
      "name": "tokenURI",
      "outputs": [
        {
          "name": "",
          "type": "string"
        }
      ],
      "payable": false,
      "stateMutability": "view",
      "type": "function"
    },
    {
      "constant": true,
      "inputs": [],
      "name": "operationCost",
      "outputs": [
        {
          "name": "",
          "type": "uint256"
        }
      ],
      "payable": false,
      "stateMutability": "view",
      "type": "function"
    },
    {
      "constant": false,
      "inputs": [
        {
          "name": "_newAddress",
          "type": "address"
        }
      ],
      "name": "addToWhitelist",
      "outputs": [],
      "payable": false,
      "stateMutability": "nonpayable",
      "type": "function"
    },
    {
      "constant": true,
      "inputs": [
        {
          "name": "owner",
          "type": "address"
        },
        {
          "name": "operator",
          "type": "address"
        }
      ],
      "name": "isApprovedForAll",
      "outputs": [
        {
          "name": "",
          "type": "bool"
        }
      ],
      "payable": false,
      "stateMutability": "view",
      "type": "function"
    },
    {
      "constant": false,
      "inputs": [
        {
          "name": "newOwner",
          "type": "address"
        }
      ],
      "name": "transferOwnership",
      "outputs": [],
      "payable": false,
      "stateMutability": "nonpayable",
      "type": "function"
    },
    {
      "inputs": [
        {
          "name": "_name",
          "type": "string"
        },
        {
          "name": "_symbol",
          "type": "string"
        },
        {
          "name": "_operator",
          "type": "address"
        },
        {
          "name": "_operationCost",
          "type": "uint256"
        }
      ],
      "payable": false,
      "stateMutability": "nonpayable",
      "type": "constructor"
    },
    {
      "anonymous": false,
      "inputs": [
        {
          "indexed": true,
          "name": "_tokenId",
          "type": "uint256"
        },
        {
          "indexed": true,
          "name": "_owner",
          "type": "address"
        },
        {
          "indexed": false,
          "name": "_uri",
          "type": "string"
        }
      ],
      "name": "TokenOwnerURISet",
      "type": "event"
    },
    {
      "anonymous": false,
      "inputs": [
        {
          "indexed": true,
          "name": "_newAddress",
          "type": "address"
        }
      ],
      "name": "AddToWhitelist",
      "type": "event"
    },
    {
      "anonymous": false,
      "inputs": [
        {
          "indexed": true,
          "name": "_newAddress",
          "type": "address"
        }
      ],
      "name": "RemoveFromWhitelist",
      "type": "event"
    },
    {
      "anonymous": false,
      "inputs": [
        {
          "indexed": true,
          "name": "previousOwner",
          "type": "address"
        },
        {
          "indexed": true,
          "name": "newOwner",
          "type": "address"
        }
      ],
      "name": "OwnershipTransferred",
      "type": "event"
    },
    {
      "anonymous": false,
      "inputs": [
        {
          "indexed": true,
          "name": "from",
          "type": "address"
        },
        {
          "indexed": true,
          "name": "to",
          "type": "address"
        },
        {
          "indexed": true,
          "name": "tokenId",
          "type": "uint256"
        }
      ],
      "name": "Transfer",
      "type": "event"
    },
    {
      "anonymous": false,
      "inputs": [
        {
          "indexed": true,
          "name": "owner",
          "type": "address"
        },
        {
          "indexed": true,
          "name": "approved",
          "type": "address"
        },
        {
          "indexed": true,
          "name": "tokenId",
          "type": "uint256"
        }
      ],
      "name": "Approval",
      "type": "event"
    },
    {
      "anonymous": false,
      "inputs": [
        {
          "indexed": true,
          "name": "owner",
          "type": "address"
        },
        {
          "indexed": true,
          "name": "operator",
          "type": "address"
        },
        {
          "indexed": false,
          "name": "approved",
          "type": "bool"
        }
      ],
      "name": "ApprovalForAll",
      "type": "event"
    },
    {
      "constant": false,
      "inputs": [
        {
          "name": "_uri",
          "type": "string"
        }
      ],
      "name": "addNewToken",
      "outputs": [],
      "payable": true,
      "stateMutability": "payable",
      "type": "function"
    },
    {
      "constant": false,
      "inputs": [
        {
          "name": "_tokenId",
          "type": "uint256"
        }
      ],
      "name": "deleteToken",
      "outputs": [],
      "payable": false,
      "stateMutability": "nonpayable",
      "type": "function"
    },
    {
      "constant": false,
      "inputs": [
        {
          "name": "_tokenId",
          "type": "uint256"
        },
        {
          "name": "_uri",
          "type": "string"
        }
      ],
      "name": "updateTokenMetadata",
      "outputs": [],
      "payable": false,
      "stateMutability": "nonpayable",
      "type": "function"
    },
    {
      "constant": false,
      "inputs": [
        {
          "name": "_tokenId",
          "type": "uint256"
        },
        {
          "name": "_uri",
          "type": "string"
        }
      ],
      "name": "updateTokenOwnerMetadata",
      "outputs": [],
      "payable": false,
      "stateMutability": "nonpayable",
      "type": "function"
    },
    {
      "constant": false,
      "inputs": [],
      "name": "removeOperator",
      "outputs": [],
      "payable": false,
      "stateMutability": "nonpayable",
      "type": "function"
    },
    {
      "constant": true,
      "inputs": [
        {
          "name": "_tokenId",
          "type": "uint256"
        }
      ],
      "name": "tokenCreator",
      "outputs": [
        {
          "name": "",
          "type": "address"
        }
      ],
      "payable": false,
      "stateMutability": "view",
      "type": "function"
    },
    {
      "constant": true,
      "inputs": [
        {
          "name": "_tokenId",
          "type": "uint256"
        }
      ],
      "name": "tokenOwnerURI",
      "outputs": [
        {
          "name": "",
          "type": "string"
        }
      ],
      "payable": false,
      "stateMutability": "view",
      "type": "function"
    }
  ],
  "bytecode": "0x6080604052600e805460ff1916600117905560006012553480156200002357600080fd5b506040516200202b3803806200202b8339810160409081528151602083015191830151606084015191840193929092019190838381816200008d7f01ffc9a700000000000000000000000000000000000000000000000000000000640100000000620001d8810204565b620000c17f80ac58cd00000000000000000000000000000000000000000000000000000000640100000000620001d8810204565b620000f57f780e9d6300000000000000000000000000000000000000000000000000000000640100000000620001d8810204565b81516200010a90600990602085019062000245565b5080516200012090600a90602084019062000245565b50620001557f5b5e139f00000000000000000000000000000000000000000000000000000000640100000000620001d8810204565b5050600c8054600160a060020a031916331790819055604051600160a060020a03919091169250600091507f8be0079c531659141344cd1fd0a4f28419497f9722a3daafe3b4186f6b6457e0908290a3600e8054600160a060020a039093166101000261010060a860020a031990931692909217909155600f5550620002ea9050565b7fffffffff0000000000000000000000000000000000000000000000000000000080821614156200020857600080fd5b7fffffffff00000000000000000000000000000000000000000000000000000000166000908152602081905260409020805460ff19166001179055565b828054600181600116156101000203166002900490600052602060002090601f016020900481019282601f106200028857805160ff1916838001178555620002b8565b82800160010185558215620002b8579182015b82811115620002b85782518255916020019190600101906200029b565b50620002c6929150620002ca565b5090565b620002e791905b80821115620002c65760008155600101620002d1565b90565b611d3180620002fa6000396000f3006080604052600436106101a05763ffffffff7c010000000000000000000000000000000000000000000000000000000060003504166301ffc9a781146101a5578063040b6583146101f057806306fdde031461020c578063081812fc14610296578063095ea7b3146102ca57806318160ddd146102ee57806320e545481461031557806323b872dd1461032a5780632cb2f52e146103545780632f745c59146103b25780633af32abf146103d657806340c1a064146103f757806342842e0e1461040f5780634f6ccce714610439578063570ca735146104515780635b248ca2146104665780636297c16c146104c45780636352211e146104dc57806370a08231146104f4578063715018a614610515578063896c77231461052a5780638ab1d681146105425780638da5cb5b146105635780638f32d59b1461057857806395d89b411461058d578063a22cb465146105a2578063b88d4fde146105c8578063c87b56dd14610637578063cd23048b1461064f578063d9856c2114610664578063e43252d7146106b0578063e985e9c5146106d1578063f2fde38b146106f8575b600080fd5b3480156101b157600080fd5b506101dc7bffffffffffffffffffffffffffffffffffffffffffffffffffffffff1960043516610719565b604080519115158252519081900360200190f35b3480156101fc57600080fd5b5061020a6004351515610751565b005b34801561021857600080fd5b50610221610777565b6040805160208082528351818301528351919283929083019185019080838360005b8381101561025b578181015183820152602001610243565b50505050905090810190601f1680156102885780820380516001836020036101000a031916815260200191505b509250505060405180910390f35b3480156102a257600080fd5b506102ae60043561080e565b60408051600160a060020a039092168252519081900360200190f35b3480156102d657600080fd5b5061020a600160a060020a0360043516602435610840565b3480156102fa57600080fd5b506103036108e9565b60408051918252519081900360200190f35b34801561032157600080fd5b5061020a6108ef565b34801561033657600080fd5b5061020a600160a060020a03600435811690602435166044356109a1565b34801561036057600080fd5b5060408051602060046024803582810135601f810185900485028601850190965285855261020a958335953695604494919390910191908190840183828082843750949750610a2f9650505050505050565b3480156103be57600080fd5b50610303600160a060020a0360043516602435610b1d565b3480156103e257600080fd5b506101dc600160a060020a0360043516610b6a565b34801561040357600080fd5b506102ae600435610ba2565b34801561041b57600080fd5b5061020a600160a060020a0360043581169060243516604435610bbd565b34801561044557600080fd5b50610303600435610bde565b34801561045d57600080fd5b506102ae610c13565b34801561047257600080fd5b5060408051602060046024803582810135601f810185900485028601850190965285855261020a958335953695604494919390910191908190840183828082843750949750610c279650505050505050565b3480156104d057600080fd5b5061020a600435610de4565b3480156104e857600080fd5b506102ae600435610e9a565b34801561050057600080fd5b50610303600160a060020a0360043516610ec4565b34801561052157600080fd5b5061020a610ef7565b34801561053657600080fd5b50610221600435610f54565b34801561054e57600080fd5b5061020a600160a060020a0360043516610ff5565b34801561056f57600080fd5b506102ae611051565b34801561058457600080fd5b506101dc611060565b34801561059957600080fd5b50610221611071565b3480156105ae57600080fd5b5061020a600160a060020a036004351660243515156110d2565b3480156105d457600080fd5b50604080516020601f60643560048181013592830184900484028501840190955281845261020a94600160a060020a0381358116956024803590921695604435953695608494019181908401838280828437509497506111569650505050505050565b34801561064357600080fd5b5061022160043561117e565b34801561065b57600080fd5b506103036111fc565b6040805160206004803580820135601f810184900484028501840190955284845261020a9436949293602493928401919081908401838280828437509497506112029650505050505050565b3480156106bc57600080fd5b5061020a600160a060020a036004351661129c565b3480156106dd57600080fd5b506101dc600160a060020a03600435811690602435166112fb565b34801561070457600080fd5b5061020a600160a060020a0360043516611329565b7bffffffffffffffffffffffffffffffffffffffffffffffffffffffff19811660009081526020819052604090205460ff165b919050565b610759611060565b151561076457600080fd5b600e805460ff1916911515919091179055565b60098054604080516020601f60026000196101006001881615020190951694909404938401819004810282018101909252828152606093909290918301828280156108035780601f106107d857610100808354040283529160200191610803565b820191906000526020600020905b8154815290600101906020018083116107e657829003601f168201915b505050505090505b90565b600061081982611348565b151561082457600080fd5b50600090815260026020526040902054600160a060020a031690565b600061084b82610e9a565b9050600160a060020a03838116908216141561086657600080fd5b33600160a060020a0382161480610882575061088281336112fb565b151561088d57600080fd5b6000828152600260205260408082208054600160a060020a031916600160a060020a0387811691821790925591518593918516917f8c5be1e5ebec7d5bd14f71427d1e84f3dd0314c0f7b2291e5b200ac8c7c3b92591a4505050565b60075490565b600e546101009004600160a060020a0316331461097c576040805160e560020a62461bcd02815260206004820152603960248201527f63616e206f6e6c792062652063616c6c656420627920746865206f706572617460448201527f6f7220746f2072656d6f766520746865206f70657261746f7200000000000000606482015290519081900360840190fd5b600e805474ffffffffffffffffffffffffffffffffffffffff00191690556000600f55565b6109ab3382611365565b15156109b657600080fd5b600160a060020a03821615156109cb57600080fd5b6109d583826113c4565b6109df8382611426565b6109e9828261152d565b8082600160a060020a031684600160a060020a03167fddf252ad1be2c89b69c2b068fc378daa952ba7f163c4a11628f55a4df523b3ef60405160405180910390a4505050565b816000610a3b82610e9a565b9050600160a060020a0381163314610a9d576040805160e560020a62461bcd02815260206004820152601e60248201527f6d75737420626520746865206f776e6572206f662074686520746f6b656e0000604482015290519081900360640190fd5b836000610aa982610ba2565b9050600160a060020a0381163314610b0b576040805160e560020a62461bcd02815260206004820181905260248201527f6d757374206265207468652063726561746f72206f662074686520746f6b656e604482015290519081900360640190fd5b610b158686611576565b505050505050565b6000610b2883610ec4565b8210610b3357600080fd5b600160a060020a0383166000908152600560205260409020805483908110610b5757fe5b9060005260206000200154905092915050565b600e5460009060ff1615610b9a5750600160a060020a0381166000908152600d602052604090205460ff1661074c565b50600161074c565b600090815260106020526040902054600160a060020a031690565b610bd98383836020604051908101604052806000815250611156565b505050565b6000610be86108e9565b8210610bf357600080fd5b6007805483908110610c0157fe5b90600052602060002001549050919050565b600e546101009004600160a060020a031681565b816000610c3382610e9a565b9050600160a060020a0381163314610c95576040805160e560020a62461bcd02815260206004820152601e60248201527f6d75737420626520746865206f776e6572206f662074686520746f6b656e0000604482015290519081900360640190fd5b610c9e84611348565b1515610d1a576040805160e560020a62461bcd02815260206004820152602d60248201527f746f6b656e206d75737420657869737420746f2075706461746520746865206f60448201527f776e6572206d6574616461746100000000000000000000000000000000000000606482015290519081900360840190fd5b60008481526011602090815260409091208451610d3992860190611c09565b5033600160a060020a0316847f8a8b453e9bcfb39debba2c5ddcc97d3d9daf4c65ec6b5f9626c5ea6da3db4a5d856040518080602001828103825283818151815260200191508051906020019080838360005b83811015610da4578181015183820152602001610d8c565b50505050905090810190601f168015610dd15780820380516001836020036101000a031916815260200191505b509250505060405180910390a350505050565b806000610df082610e9a565b9050600160a060020a0381163314610e52576040805160e560020a62461bcd02815260206004820152601e60248201527f6d75737420626520746865206f776e6572206f662074686520746f6b656e0000604482015290519081900360640190fd5b6000838152601160205260409020546002600019610100600184161502019091160415610e90576000838152601160205260408120610e9091611c87565b610bd933846115a9565b600081815260016020526040812054600160a060020a0316801515610ebe57600080fd5b92915050565b6000600160a060020a0382161515610edb57600080fd5b50600160a060020a031660009081526003602052604090205490565b610eff611060565b1515610f0a57600080fd5b600c54604051600091600160a060020a0316907f8be0079c531659141344cd1fd0a4f28419497f9722a3daafe3b4186f6b6457e0908390a3600c8054600160a060020a0319169055565b60008181526011602090815260409182902080548351601f6002600019610100600186161502019093169290920491820184900484028101840190945280845260609392830182828015610fe95780601f10610fbe57610100808354040283529160200191610fe9565b820191906000526020600020905b815481529060010190602001808311610fcc57829003601f168201915b50505050509050919050565b610ffd611060565b151561100857600080fd5b600160a060020a0381166000818152600d6020526040808220805460ff19169055517f1f756c8b089af6b33ee121fee8badac2553a2fa89c0575ea91ff8792617746c29190a250565b600c54600160a060020a031690565b600c54600160a060020a0316331490565b600a8054604080516020601f60026000196101006001881615020190951694909404938401819004810282018101909252828152606093909290918301828280156108035780601f106107d857610100808354040283529160200191610803565b600160a060020a0382163314156110e857600080fd5b336000818152600460209081526040808320600160a060020a03871680855290835292819020805460ff1916861515908117909155815190815290519293927f17307eab39ab6107e8899845ad3d59bd9653f200f220920489ca2b5937696c31929181900390910190a35050565b6111618484846109a1565b61116d848484846115f1565b151561117857600080fd5b50505050565b606061118982611348565b151561119457600080fd5b6000828152600b602090815260409182902080548351601f600260001961010060018616150201909316929092049182018490048402810184019094528084529091830182828015610fe95780601f10610fbe57610100808354040283529160200191610fe9565b600f5481565b61120b33610b6a565b1515611286576040805160e560020a62461bcd028152602060048201526024808201527f6d7573742062652077686974656c697374656420746f2063726561746520746f60448201527f6b656e7300000000000000000000000000000000000000000000000000000000606482015290519081900360840190fd5b61128e611773565b611298813361184b565b5050565b6112a4611060565b15156112af57600080fd5b600160a060020a0381166000818152600d6020526040808220805460ff19166001179055517f75b2135d1c8c3519f3c09c43fe6527089ef09f40c7981ebf0ed46e79e79032c79190a250565b600160a060020a03918216600090815260046020908152604080832093909416825291909152205460ff1690565b611331611060565b151561133c57600080fd5b6113458161189e565b50565b600090815260016020526040902054600160a060020a0316151590565b60008061137183610e9a565b905080600160a060020a031684600160a060020a031614806113ac575083600160a060020a03166113a18461080e565b600160a060020a0316145b806113bc57506113bc81856112fb565b949350505050565b81600160a060020a03166113d782610e9a565b600160a060020a0316146113ea57600080fd5b600081815260026020526040902054600160a060020a0316156112985760009081526002602052604090208054600160a060020a031916905550565b6000806000611435858561190f565b600084815260066020908152604080832054600160a060020a038916845260059092529091205490935061147090600163ffffffff61199816565b600160a060020a03861660009081526005602052604090208054919350908390811061149857fe5b90600052602060002001549050806005600087600160a060020a0316600160a060020a03168152602001908152602001600020848154811015156114d857fe5b6000918252602080832090910192909255600160a060020a038716815260059091526040902080549061150f906000198301611ccb565b50600093845260066020526040808520859055908452909220555050565b600061153983836119af565b50600160a060020a039091166000908152600560209081526040808320805460018101825590845282842081018590559383526006909152902055565b61157f82611348565b151561158a57600080fd5b6000828152600b602090815260409091208251610bd992840190611c09565b6115b38282611a32565b6000818152600b60205260409020546002600019610100600184161502019091160415611298576000818152600b6020526040812061129891611c87565b60008061160685600160a060020a0316611aee565b1515611615576001915061176a565b6040517f150b7a020000000000000000000000000000000000000000000000000000000081523360048201818152600160a060020a03898116602485015260448401889052608060648501908152875160848601528751918a169463150b7a0294938c938b938b93909160a490910190602085019080838360005b838110156116a8578181015183820152602001611690565b50505050905090810190601f1680156116d55780820380516001836020036101000a031916815260200191505b5095505050505050602060405180830381600087803b1580156116f757600080fd5b505af115801561170b573d6000803e3d6000fd5b505050506040513d602081101561172157600080fd5b50517bffffffffffffffffffffffffffffffffffffffffffffffffffffffff1981167f150b7a020000000000000000000000000000000000000000000000000000000014925090505b50949350505050565b600e546101009004600160a060020a03161561184957600f54341015611809576040805160e560020a62461bcd02815260206004820152602760248201527f6d75737420706179206f7065726174696f6e20636f7374206966206f7065726160448201527f746f722073657400000000000000000000000000000000000000000000000000606482015290519081900360840190fd5b600e54604051600160a060020a0361010090920491909116903480156108fc02916000818181858888f19350505050158015611345573d6000803e3d6000fd5b565b60128054600181019091556000906118638382611af6565b61186d8185611576565b60008181526010602052604090208054600160a060020a038516600160a060020a0319909116179055905092915050565b600160a060020a03811615156118b357600080fd5b600c54604051600160a060020a038084169216907f8be0079c531659141344cd1fd0a4f28419497f9722a3daafe3b4186f6b6457e090600090a3600c8054600160a060020a031916600160a060020a0392909216919091179055565b81600160a060020a031661192282610e9a565b600160a060020a03161461193557600080fd5b600160a060020a03821660009081526003602052604090205461195f90600163ffffffff61199816565b600160a060020a039092166000908152600360209081526040808320949094559181526001909152208054600160a060020a0319169055565b600080838311156119a857600080fd5b5050900390565b600081815260016020526040902054600160a060020a0316156119d157600080fd5b60008181526001602081815260408084208054600160a060020a031916600160a060020a0388169081179091558452600390915290912054611a1291611b45565b600160a060020a0390921660009081526003602052604090209190915550565b6000806000611a418585611b5e565b600084815260086020526040902054600754909350611a6790600163ffffffff61199816565b9150600782815481101515611a7857fe5b9060005260206000200154905080600784815481101515611a9557fe5b60009182526020822001919091556007805484908110611ab157fe5b6000918252602090912001556007805490611ad0906000198301611ccb565b50600093845260086020526040808520859055908452909220555050565b6000903b1190565b611b008282611bae565b600780546000838152600860205260408120829055600182018355919091527fa66cc928b5edb82af9bd49922954155ab7b0942694bea4ce44661d9a8736c688015550565b600082820183811015611b5757600080fd5b9392505050565b611b6882826113c4565b611b728282611426565b6040518190600090600160a060020a038516907fddf252ad1be2c89b69c2b068fc378daa952ba7f163c4a11628f55a4df523b3ef908390a45050565b600160a060020a0382161515611bc357600080fd5b611bcd828261152d565b6040518190600160a060020a038416906000907fddf252ad1be2c89b69c2b068fc378daa952ba7f163c4a11628f55a4df523b3ef908290a45050565b828054600181600116156101000203166002900490600052602060002090601f016020900481019282601f10611c4a57805160ff1916838001178555611c77565b82800160010185558215611c77579182015b82811115611c77578251825591602001919060010190611c5c565b50611c83929150611ceb565b5090565b50805460018160011615610100020316600290046000825580601f10611cad5750611345565b601f0160209004906000526020600020908101906113459190611ceb565b815481835581811115610bd957600083815260209020610bd99181019083015b61080b91905b80821115611c835760008155600101611cf15600a165627a7a72305820412d0103ecec5b7b822bbc52bd2cc8daf926842b44f7330ea8acde70f17b2d750029",
  "source": "pragma solidity ^0.4.24;\n\n\nimport \"../node_modules/openzeppelin-solidity/contracts/token/ERC721/ERC721Full.sol\";\nimport \"../node_modules/openzeppelin-solidity/contracts/ownership/Ownable.sol\";\nimport \"../node_modules/openzeppelin-solidity/contracts/math/SafeMath.sol\";\nimport \"./IERC721Creator.sol\";\nimport \"./Whitelist.sol\";\n\ncontract PixuraNFT is ERC721Full, IERC721Creator, Ownable, Whitelist {\n    using SafeMath for uint256;\n\n    // operator address\n    address public operator;\n    \n    // operationCost \n    uint256 public operationCost;\n\n    // Mapping from token ID to the creator's address\n    mapping(uint256 => address) private tokenCreators;\n\n    // Mapping from token ID to the owner metadata uri\n    mapping(uint256 => string) private tokenOwnerURIs;\n\n    // Counter for creating token IDs\n    uint256 private idCounter = 0;\n\n    event TokenOwnerURISet(\n      uint256 indexed _tokenId,\n      address indexed _owner,\n      string  _uri\n    );\n\n    constructor(\n      string _name, \n      string _symbol, \n      address _operator, \n      uint256 _operationCost\n    ) \n    ERC721Full(_name, _symbol)\n    // Whitelist()\n    {\n      operator = _operator;\n      operationCost = _operationCost;\n    }\n\n\n    /**\n     * @dev Checks that the token is owned by the sender\n     * @param _tokenId uint256 ID of the token\n     */\n    modifier onlyTokenOwner(uint256 _tokenId) {\n      address owner = ownerOf(_tokenId);\n      require(owner == msg.sender, \"must be the owner of the token\");\n      _;\n    }\n\n    /**\n     * @dev Checks that the token is created by the sender\n     * @param _tokenId uint256 ID of the token\n     */\n    modifier onlyTokenCreator(uint256 _tokenId) {\n      address creator = tokenCreator(_tokenId);\n      require(creator == msg.sender, \"must be the creator of the token\");\n      _;\n    }\n\n    /**\n     * @dev Adds a new unique token to the supply\n     * @param _uri string metadata uri associated with the token\n     */\n    function addNewToken(string _uri) public payable {\n      require(isWhitelisted(msg.sender), \"must be whitelisted to create tokens\");\n      payOperatorWhenNeeded();\n      createToken(_uri, msg.sender);\n    }\n\n    /**\n     * @dev Deletes the token with the provided ID\n     * @param _tokenId uint256 ID of the token\n     */\n    function deleteToken(uint256 _tokenId) public onlyTokenOwner(_tokenId) {\n      // Clear owner metadata (if any)\n      if (bytes(tokenOwnerURIs[_tokenId]).length != 0) {\n        delete tokenOwnerURIs[_tokenId];\n      }\n      _burn(msg.sender, _tokenId);\n    }\n\n    /**\n     * @dev Updates the token metadata URI ONLY if the owner is also the\n     *      creator.\n     * @param _tokenId uint256 ID of the token\n     * @param _uri string metadata URI\n     */\n    function updateTokenMetadata(uint256 _tokenId, string _uri)\n      public\n      onlyTokenOwner(_tokenId)\n      onlyTokenCreator(_tokenId)\n    {\n      _setTokenURI(_tokenId, _uri);\n    }\n\n    /**\n     * @dev Updates the token owner metadata URI.\n     * @param _tokenId uint256 ID of the token\n     * @param _uri string metadata URI\n     */\n    function updateTokenOwnerMetadata(uint256 _tokenId, string _uri)\n      public\n      onlyTokenOwner(_tokenId)\n    {\n      require(_exists(_tokenId), \"token must exist to update the owner metadata\");\n      tokenOwnerURIs[_tokenId] = _uri;\n      emit TokenOwnerURISet(_tokenId, msg.sender, _uri);\n    }\n\n    /**\n     * @dev Removes the operator and operational cost for the NFT contract\n     */\n    function removeOperator() public {\n      require(operator == msg.sender, \"can only be called by the operator to remove the operator\");\n      operator = address(0);\n      operationCost = 0;\n    }\n\n    /**\n    * @dev Gets the creator of the token\n    * @param _tokenId uint256 ID of the token\n    * @return address of the creator\n    */\n    function tokenCreator(uint256 _tokenId) public view returns (address) {\n        return tokenCreators[_tokenId];\n    }\n\n    /**\n     * @dev Gets the owner metadata uri of the token\n     * @param _tokenId uint256 ID of the token\n     * @return metadata uri of the owner\n     */\n    function tokenOwnerURI(uint256 _tokenId) public view returns (string) {\n      return tokenOwnerURIs[_tokenId];\n    }\n    \n    /**\n     * @dev Internal function creating a new token.\n     * @param _uri string metadata uri associated with the token\n     */\n    function createToken(string _uri, address _creator) private returns (uint256){\n      uint256 newId = idCounter;\n      idCounter++;\n      _mint(_creator, newId);\n      _setTokenURI(newId, _uri);\n      tokenCreators[newId] = _creator;\n      return newId;\n    }\n\n    /**\n     * @dev Internal function to pay the operator when there is one.\n     */\n    function payOperatorWhenNeeded() private {\n      if (operator != address(0)) {\n        require(\n          operationCost <= msg.value, \n          \"must pay operation cost if operator set\"\n        );\n        operator.transfer(msg.value);\n      }\n    }\n\n}\n",
  "sourcePath": "/Users/charlescrain/dev/pixura-contracts/truffle/contracts/PixuraNFT.sol",
  "compiler": {
    "name": "solc",
    "version": "0.4.24+commit.e67f0147.Emscripten.clang"
  },
  "schemaVersion": "2.0.1",
  "updatedAt": "2019-01-14T19:00:16.116Z"
}