{
  "contractName": "PixuraNFT",
  "abi": [
    {
      "constant": true,
      "inputs": [
        {
          "name": "interfaceId",
          "type": "bytes4"
        }
      ],
      "name": "supportsInterface",
      "outputs": [
        {
          "name": "",
          "type": "bool"
        }
      ],
      "payable": false,
      "stateMutability": "view",
      "type": "function"
    },
    {
      "constant": false,
      "inputs": [
        {
          "name": "_enabled",
          "type": "bool"
        }
      ],
      "name": "enableWhitelist",
      "outputs": [],
      "payable": false,
      "stateMutability": "nonpayable",
      "type": "function"
    },
    {
      "constant": true,
      "inputs": [],
      "name": "name",
      "outputs": [
        {
          "name": "",
          "type": "string"
        }
      ],
      "payable": false,
      "stateMutability": "view",
      "type": "function"
    },
    {
      "constant": true,
      "inputs": [
        {
          "name": "tokenId",
          "type": "uint256"
        }
      ],
      "name": "getApproved",
      "outputs": [
        {
          "name": "",
          "type": "address"
        }
      ],
      "payable": false,
      "stateMutability": "view",
      "type": "function"
    },
    {
      "constant": false,
      "inputs": [
        {
          "name": "to",
          "type": "address"
        },
        {
          "name": "tokenId",
          "type": "uint256"
        }
      ],
      "name": "approve",
      "outputs": [],
      "payable": false,
      "stateMutability": "nonpayable",
      "type": "function"
    },
    {
      "constant": true,
      "inputs": [],
      "name": "totalSupply",
      "outputs": [
        {
          "name": "",
          "type": "uint256"
        }
      ],
      "payable": false,
      "stateMutability": "view",
      "type": "function"
    },
    {
      "constant": false,
      "inputs": [],
      "name": "removeOperator",
      "outputs": [],
      "payable": false,
      "stateMutability": "nonpayable",
      "type": "function"
    },
    {
      "constant": false,
      "inputs": [
        {
          "name": "from",
          "type": "address"
        },
        {
          "name": "to",
          "type": "address"
        },
        {
          "name": "tokenId",
          "type": "uint256"
        }
      ],
      "name": "transferFrom",
      "outputs": [],
      "payable": false,
      "stateMutability": "nonpayable",
      "type": "function"
    },
    {
      "constant": true,
      "inputs": [
        {
          "name": "owner",
          "type": "address"
        },
        {
          "name": "index",
          "type": "uint256"
        }
      ],
      "name": "tokenOfOwnerByIndex",
      "outputs": [
        {
          "name": "",
          "type": "uint256"
        }
      ],
      "payable": false,
      "stateMutability": "view",
      "type": "function"
    },
    {
      "constant": true,
      "inputs": [
        {
          "name": "_address",
          "type": "address"
        }
      ],
      "name": "isWhitelisted",
      "outputs": [
        {
          "name": "",
          "type": "bool"
        }
      ],
      "payable": false,
      "stateMutability": "view",
      "type": "function"
    },
    {
      "constant": false,
      "inputs": [
        {
          "name": "from",
          "type": "address"
        },
        {
          "name": "to",
          "type": "address"
        },
        {
          "name": "tokenId",
          "type": "uint256"
        }
      ],
      "name": "safeTransferFrom",
      "outputs": [],
      "payable": false,
      "stateMutability": "nonpayable",
      "type": "function"
    },
    {
      "constant": true,
      "inputs": [
        {
          "name": "index",
          "type": "uint256"
        }
      ],
      "name": "tokenByIndex",
      "outputs": [
        {
          "name": "",
          "type": "uint256"
        }
      ],
      "payable": false,
      "stateMutability": "view",
      "type": "function"
    },
    {
      "constant": true,
      "inputs": [],
      "name": "operator",
      "outputs": [
        {
          "name": "",
          "type": "address"
        }
      ],
      "payable": false,
      "stateMutability": "view",
      "type": "function"
    },
    {
      "constant": true,
      "inputs": [
        {
          "name": "tokenId",
          "type": "uint256"
        }
      ],
      "name": "ownerOf",
      "outputs": [
        {
          "name": "",
          "type": "address"
        }
      ],
      "payable": false,
      "stateMutability": "view",
      "type": "function"
    },
    {
      "constant": false,
      "inputs": [
        {
          "name": "_operationCost",
          "type": "uint256"
        }
      ],
      "name": "setOperationCost",
      "outputs": [],
      "payable": false,
      "stateMutability": "nonpayable",
      "type": "function"
    },
    {
      "constant": true,
      "inputs": [
        {
          "name": "owner",
          "type": "address"
        }
      ],
      "name": "balanceOf",
      "outputs": [
        {
          "name": "",
          "type": "uint256"
        }
      ],
      "payable": false,
      "stateMutability": "view",
      "type": "function"
    },
    {
      "constant": false,
      "inputs": [],
      "name": "renounceOwnership",
      "outputs": [],
      "payable": false,
      "stateMutability": "nonpayable",
      "type": "function"
    },
    {
      "constant": false,
      "inputs": [
        {
          "name": "_removedAddress",
          "type": "address"
        }
      ],
      "name": "removeFromWhitelist",
      "outputs": [],
      "payable": false,
      "stateMutability": "nonpayable",
      "type": "function"
    },
    {
      "constant": true,
      "inputs": [],
      "name": "owner",
      "outputs": [
        {
          "name": "",
          "type": "address"
        }
      ],
      "payable": false,
      "stateMutability": "view",
      "type": "function"
    },
    {
      "constant": true,
      "inputs": [],
      "name": "isOwner",
      "outputs": [
        {
          "name": "",
          "type": "bool"
        }
      ],
      "payable": false,
      "stateMutability": "view",
      "type": "function"
    },
    {
      "constant": true,
      "inputs": [],
      "name": "symbol",
      "outputs": [
        {
          "name": "",
          "type": "string"
        }
      ],
      "payable": false,
      "stateMutability": "view",
      "type": "function"
    },
    {
      "constant": false,
      "inputs": [
        {
          "name": "to",
          "type": "address"
        },
        {
          "name": "approved",
          "type": "bool"
        }
      ],
      "name": "setApprovalForAll",
      "outputs": [],
      "payable": false,
      "stateMutability": "nonpayable",
      "type": "function"
    },
    {
      "constant": false,
      "inputs": [
        {
          "name": "_operator",
          "type": "address"
        }
      ],
      "name": "setOperator",
      "outputs": [],
      "payable": false,
      "stateMutability": "nonpayable",
      "type": "function"
    },
    {
      "constant": false,
      "inputs": [
        {
          "name": "from",
          "type": "address"
        },
        {
          "name": "to",
          "type": "address"
        },
        {
          "name": "tokenId",
          "type": "uint256"
        },
        {
          "name": "_data",
          "type": "bytes"
        }
      ],
      "name": "safeTransferFrom",
      "outputs": [],
      "payable": false,
      "stateMutability": "nonpayable",
      "type": "function"
    },
    {
      "constant": true,
      "inputs": [
        {
          "name": "tokenId",
          "type": "uint256"
        }
      ],
      "name": "tokenURI",
      "outputs": [
        {
          "name": "",
          "type": "string"
        }
      ],
      "payable": false,
      "stateMutability": "view",
      "type": "function"
    },
    {
      "constant": true,
      "inputs": [],
      "name": "operationCost",
      "outputs": [
        {
          "name": "",
          "type": "uint256"
        }
      ],
      "payable": false,
      "stateMutability": "view",
      "type": "function"
    },
    {
      "constant": false,
      "inputs": [
        {
          "name": "_newAddress",
          "type": "address"
        }
      ],
      "name": "addToWhitelist",
      "outputs": [],
      "payable": false,
      "stateMutability": "nonpayable",
      "type": "function"
    },
    {
      "constant": true,
      "inputs": [
        {
          "name": "owner",
          "type": "address"
        },
        {
          "name": "operator",
          "type": "address"
        }
      ],
      "name": "isApprovedForAll",
      "outputs": [
        {
          "name": "",
          "type": "bool"
        }
      ],
      "payable": false,
      "stateMutability": "view",
      "type": "function"
    },
    {
      "constant": false,
      "inputs": [
        {
          "name": "newOwner",
          "type": "address"
        }
      ],
      "name": "transferOwnership",
      "outputs": [],
      "payable": false,
      "stateMutability": "nonpayable",
      "type": "function"
    },
    {
      "inputs": [
        {
          "name": "_name",
          "type": "string"
        },
        {
          "name": "_symbol",
          "type": "string"
        },
        {
          "name": "_operator",
          "type": "address"
        },
        {
          "name": "_operationCost",
          "type": "uint256"
        }
      ],
      "payable": false,
      "stateMutability": "nonpayable",
      "type": "constructor"
    },
    {
      "anonymous": false,
      "inputs": [
        {
          "indexed": true,
          "name": "_tokenId",
          "type": "uint256"
        },
        {
          "indexed": true,
          "name": "_owner",
          "type": "address"
        },
        {
          "indexed": false,
          "name": "_uri",
          "type": "string"
        }
      ],
      "name": "TokenOwnerURISet",
      "type": "event"
    },
    {
      "anonymous": false,
      "inputs": [
        {
          "indexed": true,
          "name": "_operator",
          "type": "address"
        }
      ],
      "name": "OperatorSet",
      "type": "event"
    },
    {
      "anonymous": false,
      "inputs": [
        {
          "indexed": true,
          "name": "_operationCost",
          "type": "uint256"
        }
      ],
      "name": "OperationCostSet",
      "type": "event"
    },
    {
      "anonymous": false,
      "inputs": [
        {
          "indexed": true,
          "name": "_newAddress",
          "type": "address"
        }
      ],
      "name": "AddToWhitelist",
      "type": "event"
    },
    {
      "anonymous": false,
      "inputs": [
        {
          "indexed": true,
          "name": "_newAddress",
          "type": "address"
        }
      ],
      "name": "RemoveFromWhitelist",
      "type": "event"
    },
    {
      "anonymous": false,
      "inputs": [
        {
          "indexed": true,
          "name": "previousOwner",
          "type": "address"
        },
        {
          "indexed": true,
          "name": "newOwner",
          "type": "address"
        }
      ],
      "name": "OwnershipTransferred",
      "type": "event"
    },
    {
      "anonymous": false,
      "inputs": [
        {
          "indexed": true,
          "name": "from",
          "type": "address"
        },
        {
          "indexed": true,
          "name": "to",
          "type": "address"
        },
        {
          "indexed": true,
          "name": "tokenId",
          "type": "uint256"
        }
      ],
      "name": "Transfer",
      "type": "event"
    },
    {
      "anonymous": false,
      "inputs": [
        {
          "indexed": true,
          "name": "owner",
          "type": "address"
        },
        {
          "indexed": true,
          "name": "approved",
          "type": "address"
        },
        {
          "indexed": true,
          "name": "tokenId",
          "type": "uint256"
        }
      ],
      "name": "Approval",
      "type": "event"
    },
    {
      "anonymous": false,
      "inputs": [
        {
          "indexed": true,
          "name": "owner",
          "type": "address"
        },
        {
          "indexed": true,
          "name": "operator",
          "type": "address"
        },
        {
          "indexed": false,
          "name": "approved",
          "type": "bool"
        }
      ],
      "name": "ApprovalForAll",
      "type": "event"
    },
    {
      "constant": false,
      "inputs": [
        {
          "name": "_uri",
          "type": "string"
        }
      ],
      "name": "addNewToken",
      "outputs": [],
      "payable": true,
      "stateMutability": "payable",
      "type": "function"
    },
    {
      "constant": false,
      "inputs": [
        {
          "name": "_tokenId",
          "type": "uint256"
        }
      ],
      "name": "deleteToken",
      "outputs": [],
      "payable": false,
      "stateMutability": "nonpayable",
      "type": "function"
    },
    {
      "constant": false,
      "inputs": [
        {
          "name": "_tokenId",
          "type": "uint256"
        },
        {
          "name": "_uri",
          "type": "string"
        }
      ],
      "name": "updateTokenMetadata",
      "outputs": [],
      "payable": false,
      "stateMutability": "nonpayable",
      "type": "function"
    },
    {
      "constant": false,
      "inputs": [
        {
          "name": "_tokenId",
          "type": "uint256"
        },
        {
          "name": "_uri",
          "type": "string"
        }
      ],
      "name": "updateTokenOwnerMetadata",
      "outputs": [],
      "payable": false,
      "stateMutability": "nonpayable",
      "type": "function"
    },
    {
      "constant": true,
      "inputs": [
        {
          "name": "_tokenId",
          "type": "uint256"
        }
      ],
      "name": "tokenCreator",
      "outputs": [
        {
          "name": "",
          "type": "address"
        }
      ],
      "payable": false,
      "stateMutability": "view",
      "type": "function"
    },
    {
      "constant": true,
      "inputs": [
        {
          "name": "_tokenId",
          "type": "uint256"
        }
      ],
      "name": "tokenOwnerURI",
      "outputs": [
        {
          "name": "",
          "type": "string"
        }
      ],
      "payable": false,
      "stateMutability": "view",
      "type": "function"
    }
  ],
  "bytecode": "0x6080604052600e805460ff1916600117905560006012553480156200002357600080fd5b50604051620021be380380620021be83398101604090815281516020830151918301516060840151918401939290920191908181858581816200008f7f01ffc9a70000000000000000000000000000000000000000000000000000000064010000000062000238810204565b620000c37f80ac58cd0000000000000000000000000000000000000000000000000000000064010000000062000238810204565b620000f77f780e9d630000000000000000000000000000000000000000000000000000000064010000000062000238810204565b81516200010c906009906020850190620002a5565b5080516200012290600a906020840190620002a5565b50620001577f5b5e139f0000000000000000000000000000000000000000000000000000000064010000000062000238810204565b5050600c8054600160a060020a031916331790819055604051600160a060020a03919091169250600091507f8be0079c531659141344cd1fd0a4f28419497f9722a3daafe3b4186f6b6457e0908290a3600e805461010060a860020a031916610100600160a060020a0385811682029290921792839055600f849055604051920416907f99d737e0adf2c449d71890b86772885ec7959b152ddb265f76325b6e68e105d390600090a2600f546040517f70524409f1852b9903371526eb3765eb5462f72a3df57469113284ab8a76ec9590600090a25050505050506200034a565b7fffffffff0000000000000000000000000000000000000000000000000000000080821614156200026857600080fd5b7fffffffff00000000000000000000000000000000000000000000000000000000166000908152602081905260409020805460ff19166001179055565b828054600181600116156101000203166002900490600052602060002090601f016020900481019282601f10620002e857805160ff191683800117855562000318565b8280016001018555821562000318579182015b8281111562000318578251825591602001919060010190620002fb565b50620003269291506200032a565b5090565b6200034791905b8082111562000326576000815560010162000331565b90565b611e64806200035a6000396000f3006080604052600436106101b65763ffffffff7c010000000000000000000000000000000000000000000000000000000060003504166301ffc9a781146101bb578063040b65831461020657806306fdde0314610222578063081812fc146102ac578063095ea7b3146102e057806318160ddd1461030457806320e545481461032b57806323b872dd146103405780632cb2f52e1461036a5780632f745c59146103c85780633af32abf146103ec57806340c1a0641461040d57806342842e0e146104255780634f6ccce71461044f578063570ca735146104675780635b248ca21461047c5780636297c16c146104da5780636352211e146104f257806366c732f61461050a57806370a0823114610522578063715018a614610543578063896c7723146105585780638ab1d681146105705780638da5cb5b146105915780638f32d59b146105a657806395d89b41146105bb578063a22cb465146105d0578063b3ab15fb146105f6578063b88d4fde14610617578063c87b56dd14610686578063cd23048b1461069e578063d9856c21146106b3578063e43252d7146106ff578063e985e9c514610720578063f2fde38b14610747575b600080fd5b3480156101c757600080fd5b506101f27bffffffffffffffffffffffffffffffffffffffffffffffffffffffff1960043516610768565b604080519115158252519081900360200190f35b34801561021257600080fd5b5061022060043515156107a0565b005b34801561022e57600080fd5b506102376107c6565b6040805160208082528351818301528351919283929083019185019080838360005b83811015610271578181015183820152602001610259565b50505050905090810190601f16801561029e5780820380516001836020036101000a031916815260200191505b509250505060405180910390f35b3480156102b857600080fd5b506102c460043561085d565b60408051600160a060020a039092168252519081900360200190f35b3480156102ec57600080fd5b50610220600160a060020a036004351660243561088f565b34801561031057600080fd5b50610319610938565b60408051918252519081900360200190f35b34801561033757600080fd5b5061022061093e565b34801561034c57600080fd5b50610220600160a060020a0360043581169060243516604435610954565b34801561037657600080fd5b5060408051602060046024803582810135601f81018590048502860185019096528585526102209583359536956044949193909101919081908401838280828437509497506109e29650505050505050565b3480156103d457600080fd5b50610319600160a060020a0360043516602435610ad0565b3480156103f857600080fd5b506101f2600160a060020a0360043516610b1d565b34801561041957600080fd5b506102c4600435610b55565b34801561043157600080fd5b50610220600160a060020a0360043581169060243516604435610b70565b34801561045b57600080fd5b50610319600435610b91565b34801561047357600080fd5b506102c4610bc6565b34801561048857600080fd5b5060408051602060046024803582810135601f8101859004850286018501909652858552610220958335953695604494919390910191908190840183828082843750949750610bda9650505050505050565b3480156104e657600080fd5b50610220600435610d97565b3480156104fe57600080fd5b506102c4600435610e4d565b34801561051657600080fd5b50610220600435610e77565b34801561052e57600080fd5b50610319600160a060020a0360043516610f37565b34801561054f57600080fd5b50610220610f6a565b34801561056457600080fd5b50610237600435610fc7565b34801561057c57600080fd5b50610220600160a060020a0360043516611068565b34801561059d57600080fd5b506102c46110c4565b3480156105b257600080fd5b506101f26110d3565b3480156105c757600080fd5b506102376110e4565b3480156105dc57600080fd5b50610220600160a060020a03600435166024351515611145565b34801561060257600080fd5b50610220600160a060020a03600435166111c9565b34801561062357600080fd5b50604080516020601f60643560048181013592830184900484028501840190955281845261022094600160a060020a03813581169560248035909216956044359536956084940191819084018382808284375094975061128b9650505050505050565b34801561069257600080fd5b506102376004356112b3565b3480156106aa57600080fd5b50610319611331565b6040805160206004803580820135601f81018490048402850184019095528484526102209436949293602493928401919081908401838280828437509497506113379650505050505050565b34801561070b57600080fd5b50610220600160a060020a03600435166113d1565b34801561072c57600080fd5b506101f2600160a060020a0360043581169060243516611430565b34801561075357600080fd5b50610220600160a060020a036004351661145e565b7bffffffffffffffffffffffffffffffffffffffffffffffffffffffff19811660009081526020819052604090205460ff165b919050565b6107a86110d3565b15156107b357600080fd5b600e805460ff1916911515919091179055565b60098054604080516020601f60026000196101006001881615020190951694909404938401819004810282018101909252828152606093909290918301828280156108525780601f1061082757610100808354040283529160200191610852565b820191906000526020600020905b81548152906001019060200180831161083557829003601f168201915b505050505090505b90565b60006108688261147d565b151561087357600080fd5b50600090815260026020526040902054600160a060020a031690565b600061089a82610e4d565b9050600160a060020a0383811690821614156108b557600080fd5b33600160a060020a03821614806108d157506108d18133611430565b15156108dc57600080fd5b6000828152600260205260408082208054600160a060020a031916600160a060020a0387811691821790925591518593918516917f8c5be1e5ebec7d5bd14f71427d1e84f3dd0314c0f7b2291e5b200ac8c7c3b92591a4505050565b60075490565b61094860006111c9565b6109526000610e77565b565b61095e338261149a565b151561096957600080fd5b600160a060020a038216151561097e57600080fd5b61098883826114f9565b610992838261155b565b61099c8282611662565b8082600160a060020a031684600160a060020a03167fddf252ad1be2c89b69c2b068fc378daa952ba7f163c4a11628f55a4df523b3ef60405160405180910390a4505050565b8160006109ee82610e4d565b9050600160a060020a0381163314610a50576040805160e560020a62461bcd02815260206004820152601e60248201527f6d75737420626520746865206f776e6572206f662074686520746f6b656e0000604482015290519081900360640190fd5b836000610a5c82610b55565b9050600160a060020a0381163314610abe576040805160e560020a62461bcd02815260206004820181905260248201527f6d757374206265207468652063726561746f72206f662074686520746f6b656e604482015290519081900360640190fd5b610ac886866116ab565b505050505050565b6000610adb83610f37565b8210610ae657600080fd5b600160a060020a0383166000908152600560205260409020805483908110610b0a57fe5b9060005260206000200154905092915050565b600e5460009060ff1615610b4d5750600160a060020a0381166000908152600d602052604090205460ff1661079b565b50600161079b565b600090815260106020526040902054600160a060020a031690565b610b8c838383602060405190810160405280600081525061128b565b505050565b6000610b9b610938565b8210610ba657600080fd5b6007805483908110610bb457fe5b90600052602060002001549050919050565b600e546101009004600160a060020a031681565b816000610be682610e4d565b9050600160a060020a0381163314610c48576040805160e560020a62461bcd02815260206004820152601e60248201527f6d75737420626520746865206f776e6572206f662074686520746f6b656e0000604482015290519081900360640190fd5b610c518461147d565b1515610ccd576040805160e560020a62461bcd02815260206004820152602d60248201527f746f6b656e206d75737420657869737420746f2075706461746520746865206f60448201527f776e6572206d6574616461746100000000000000000000000000000000000000606482015290519081900360840190fd5b60008481526011602090815260409091208451610cec92860190611d3c565b5033600160a060020a0316847f8a8b453e9bcfb39debba2c5ddcc97d3d9daf4c65ec6b5f9626c5ea6da3db4a5d856040518080602001828103825283818151815260200191508051906020019080838360005b83811015610d57578181015183820152602001610d3f565b50505050905090810190601f168015610d845780820380516001836020036101000a031916815260200191505b509250505060405180910390a350505050565b806000610da382610e4d565b9050600160a060020a0381163314610e05576040805160e560020a62461bcd02815260206004820152601e60248201527f6d75737420626520746865206f776e6572206f662074686520746f6b656e0000604482015290519081900360640190fd5b6000838152601160205260409020546002600019610100600184161502019091160415610e43576000838152601160205260408120610e4391611dba565b610b8c33846116de565b600081815260016020526040812054600160a060020a0316801515610e7157600080fd5b92915050565b600e546101009004600160a060020a03163314610f04576040805160e560020a62461bcd02815260206004820152602260248201527f63616e206f6e6c792062652063616c6c656420627920746865206f706572617460448201527f6f72000000000000000000000000000000000000000000000000000000000000606482015290519081900360840190fd5b600f81905560405181907f70524409f1852b9903371526eb3765eb5462f72a3df57469113284ab8a76ec9590600090a250565b6000600160a060020a0382161515610f4e57600080fd5b50600160a060020a031660009081526003602052604090205490565b610f726110d3565b1515610f7d57600080fd5b600c54604051600091600160a060020a0316907f8be0079c531659141344cd1fd0a4f28419497f9722a3daafe3b4186f6b6457e0908390a3600c8054600160a060020a0319169055565b60008181526011602090815260409182902080548351601f600260001961010060018616150201909316929092049182018490048402810184019094528084526060939283018282801561105c5780601f106110315761010080835404028352916020019161105c565b820191906000526020600020905b81548152906001019060200180831161103f57829003601f168201915b50505050509050919050565b6110706110d3565b151561107b57600080fd5b600160a060020a0381166000818152600d6020526040808220805460ff19169055517f1f756c8b089af6b33ee121fee8badac2553a2fa89c0575ea91ff8792617746c29190a250565b600c54600160a060020a031690565b600c54600160a060020a0316331490565b600a8054604080516020601f60026000196101006001881615020190951694909404938401819004810282018101909252828152606093909290918301828280156108525780601f1061082757610100808354040283529160200191610852565b600160a060020a03821633141561115b57600080fd5b336000818152600460209081526040808320600160a060020a03871680855290835292819020805460ff1916861515908117909155815190815290519293927f17307eab39ab6107e8899845ad3d59bd9653f200f220920489ca2b5937696c31929181900390910190a35050565b600e546101009004600160a060020a03163314611256576040805160e560020a62461bcd02815260206004820152602260248201527f63616e206f6e6c792062652063616c6c656420627920746865206f706572617460448201527f6f72000000000000000000000000000000000000000000000000000000000000606482015290519081900360840190fd5b600e8054600160a060020a039092166101000274ffffffffffffffffffffffffffffffffffffffff0019909216919091179055565b611296848484610954565b6112a284848484611726565b15156112ad57600080fd5b50505050565b60606112be8261147d565b15156112c957600080fd5b6000828152600b602090815260409182902080548351601f60026000196101006001861615020190931692909204918201849004840281018401909452808452909183018282801561105c5780601f106110315761010080835404028352916020019161105c565b600f5481565b61134033610b1d565b15156113bb576040805160e560020a62461bcd028152602060048201526024808201527f6d7573742062652077686974656c697374656420746f2063726561746520746f60448201527f6b656e7300000000000000000000000000000000000000000000000000000000606482015290519081900360840190fd5b6113c36118a8565b6113cd813361197e565b5050565b6113d96110d3565b15156113e457600080fd5b600160a060020a0381166000818152600d6020526040808220805460ff19166001179055517f75b2135d1c8c3519f3c09c43fe6527089ef09f40c7981ebf0ed46e79e79032c79190a250565b600160a060020a03918216600090815260046020908152604080832093909416825291909152205460ff1690565b6114666110d3565b151561147157600080fd5b61147a816119d1565b50565b600090815260016020526040902054600160a060020a0316151590565b6000806114a683610e4d565b905080600160a060020a031684600160a060020a031614806114e1575083600160a060020a03166114d68461085d565b600160a060020a0316145b806114f157506114f18185611430565b949350505050565b81600160a060020a031661150c82610e4d565b600160a060020a03161461151f57600080fd5b600081815260026020526040902054600160a060020a0316156113cd5760009081526002602052604090208054600160a060020a031916905550565b600080600061156a8585611a42565b600084815260066020908152604080832054600160a060020a03891684526005909252909120549093506115a590600163ffffffff611acb16565b600160a060020a0386166000908152600560205260409020805491935090839081106115cd57fe5b90600052602060002001549050806005600087600160a060020a0316600160a060020a031681526020019081526020016000208481548110151561160d57fe5b6000918252602080832090910192909255600160a060020a0387168152600590915260409020805490611644906000198301611dfe565b50600093845260066020526040808520859055908452909220555050565b600061166e8383611ae2565b50600160a060020a039091166000908152600560209081526040808320805460018101825590845282842081018590559383526006909152902055565b6116b48261147d565b15156116bf57600080fd5b6000828152600b602090815260409091208251610b8c92840190611d3c565b6116e88282611b65565b6000818152600b602052604090205460026000196101006001841615020190911604156113cd576000818152600b602052604081206113cd91611dba565b60008061173b85600160a060020a0316611c21565b151561174a576001915061189f565b6040517f150b7a020000000000000000000000000000000000000000000000000000000081523360048201818152600160a060020a03898116602485015260448401889052608060648501908152875160848601528751918a169463150b7a0294938c938b938b93909160a490910190602085019080838360005b838110156117dd5781810151838201526020016117c5565b50505050905090810190601f16801561180a5780820380516001836020036101000a031916815260200191505b5095505050505050602060405180830381600087803b15801561182c57600080fd5b505af1158015611840573d6000803e3d6000fd5b505050506040513d602081101561185657600080fd5b50517bffffffffffffffffffffffffffffffffffffffffffffffffffffffff1981167f150b7a020000000000000000000000000000000000000000000000000000000014925090505b50949350505050565b600e546101009004600160a060020a03161561095257600f5434101561193e576040805160e560020a62461bcd02815260206004820152602760248201527f6d75737420706179206f7065726174696f6e20636f7374206966206f7065726160448201527f746f722073657400000000000000000000000000000000000000000000000000606482015290519081900360840190fd5b600e54604051600160a060020a0361010090920491909116903480156108fc02916000818181858888f1935050505015801561147a573d6000803e3d6000fd5b60128054600181019091556000906119968382611c29565b6119a081856116ab565b60008181526010602052604090208054600160a060020a038516600160a060020a0319909116179055905092915050565b600160a060020a03811615156119e657600080fd5b600c54604051600160a060020a038084169216907f8be0079c531659141344cd1fd0a4f28419497f9722a3daafe3b4186f6b6457e090600090a3600c8054600160a060020a031916600160a060020a0392909216919091179055565b81600160a060020a0316611a5582610e4d565b600160a060020a031614611a6857600080fd5b600160a060020a038216600090815260036020526040902054611a9290600163ffffffff611acb16565b600160a060020a039092166000908152600360209081526040808320949094559181526001909152208054600160a060020a0319169055565b60008083831115611adb57600080fd5b5050900390565b600081815260016020526040902054600160a060020a031615611b0457600080fd5b60008181526001602081815260408084208054600160a060020a031916600160a060020a0388169081179091558452600390915290912054611b4591611c78565b600160a060020a0390921660009081526003602052604090209190915550565b6000806000611b748585611c91565b600084815260086020526040902054600754909350611b9a90600163ffffffff611acb16565b9150600782815481101515611bab57fe5b9060005260206000200154905080600784815481101515611bc857fe5b60009182526020822001919091556007805484908110611be457fe5b6000918252602090912001556007805490611c03906000198301611dfe565b50600093845260086020526040808520859055908452909220555050565b6000903b1190565b611c338282611ce1565b600780546000838152600860205260408120829055600182018355919091527fa66cc928b5edb82af9bd49922954155ab7b0942694bea4ce44661d9a8736c688015550565b600082820183811015611c8a57600080fd5b9392505050565b611c9b82826114f9565b611ca5828261155b565b6040518190600090600160a060020a038516907fddf252ad1be2c89b69c2b068fc378daa952ba7f163c4a11628f55a4df523b3ef908390a45050565b600160a060020a0382161515611cf657600080fd5b611d008282611662565b6040518190600160a060020a038416906000907fddf252ad1be2c89b69c2b068fc378daa952ba7f163c4a11628f55a4df523b3ef908290a45050565b828054600181600116156101000203166002900490600052602060002090601f016020900481019282601f10611d7d57805160ff1916838001178555611daa565b82800160010185558215611daa579182015b82811115611daa578251825591602001919060010190611d8f565b50611db6929150611e1e565b5090565b50805460018160011615610100020316600290046000825580601f10611de0575061147a565b601f01602090049060005260206000209081019061147a9190611e1e565b815481835581811115610b8c57600083815260209020610b8c9181019083015b61085a91905b80821115611db65760008155600101611e245600a165627a7a7230582019c7c977819a0ce7ec108d3d90c87c902df5bdf4b17ac1edc76f704d27c3b9490029",
  "source": "pragma solidity ^0.4.24;\n\n\nimport \"../node_modules/openzeppelin-solidity/contracts/token/ERC721/ERC721Full.sol\";\nimport \"../node_modules/openzeppelin-solidity/contracts/ownership/Ownable.sol\";\nimport \"../node_modules/openzeppelin-solidity/contracts/math/SafeMath.sol\";\nimport \"./IERC721Creator.sol\";\nimport \"./Operated.sol\";\nimport \"./Whitelist.sol\";\n\ncontract PixuraNFT is ERC721Full, IERC721Creator, Ownable, Whitelist, Operated {\n    using SafeMath for uint256;\n\n    // Mapping from token ID to the creator's address\n    mapping(uint256 => address) private tokenCreators;\n\n    // Mapping from token ID to the owner metadata uri\n    mapping(uint256 => string) private tokenOwnerURIs;\n\n    // Counter for creating token IDs\n    uint256 private idCounter = 0;\n\n    event TokenOwnerURISet(\n      uint256 indexed _tokenId,\n      address indexed _owner,\n      string  _uri\n    );\n\n    constructor(\n      string _name, \n      string _symbol, \n      address _operator, \n      uint256 _operationCost\n    ) \n    ERC721Full(_name, _symbol)\n    Operated(_operator, _operationCost)\n    { }\n\n\n    /**\n     * @dev Checks that the token is owned by the sender\n     * @param _tokenId uint256 ID of the token\n     */\n    modifier onlyTokenOwner(uint256 _tokenId) {\n      address owner = ownerOf(_tokenId);\n      require(owner == msg.sender, \"must be the owner of the token\");\n      _;\n    }\n\n    /**\n     * @dev Checks that the token is created by the sender\n     * @param _tokenId uint256 ID of the token\n     */\n    modifier onlyTokenCreator(uint256 _tokenId) {\n      address creator = tokenCreator(_tokenId);\n      require(creator == msg.sender, \"must be the creator of the token\");\n      _;\n    }\n\n    /**\n     * @dev Adds a new unique token to the supply\n     * @param _uri string metadata uri associated with the token\n     */\n    function addNewToken(string _uri) public payable {\n      require(isWhitelisted(msg.sender), \"must be whitelisted to create tokens\");\n      payOperatorWhenNeeded();\n      createToken(_uri, msg.sender);\n    }\n\n    /**\n     * @dev Deletes the token with the provided ID\n     * @param _tokenId uint256 ID of the token\n     */\n    function deleteToken(uint256 _tokenId) public onlyTokenOwner(_tokenId) {\n      // Clear owner metadata (if any)\n      if (bytes(tokenOwnerURIs[_tokenId]).length != 0) {\n        delete tokenOwnerURIs[_tokenId];\n      }\n      _burn(msg.sender, _tokenId);\n    }\n\n    /**\n     * @dev Updates the token metadata URI ONLY if the owner is also the\n     *      creator.\n     * @param _tokenId uint256 ID of the token\n     * @param _uri string metadata URI\n     */\n    function updateTokenMetadata(uint256 _tokenId, string _uri)\n      public\n      onlyTokenOwner(_tokenId)\n      onlyTokenCreator(_tokenId)\n    {\n      _setTokenURI(_tokenId, _uri);\n    }\n\n    /**\n     * @dev Updates the token owner metadata URI.\n     * @param _tokenId uint256 ID of the token\n     * @param _uri string metadata URI\n     */\n    function updateTokenOwnerMetadata(uint256 _tokenId, string _uri)\n      public\n      onlyTokenOwner(_tokenId)\n    {\n      require(_exists(_tokenId), \"token must exist to update the owner metadata\");\n      tokenOwnerURIs[_tokenId] = _uri;\n      emit TokenOwnerURISet(_tokenId, msg.sender, _uri);\n    }\n\n    /**\n    * @dev Gets the creator of the token\n    * @param _tokenId uint256 ID of the token\n    * @return address of the creator\n    */\n    function tokenCreator(uint256 _tokenId) public view returns (address) {\n        return tokenCreators[_tokenId];\n    }\n\n    /**\n     * @dev Gets the owner metadata uri of the token\n     * @param _tokenId uint256 ID of the token\n     * @return metadata uri of the owner\n     */\n    function tokenOwnerURI(uint256 _tokenId) public view returns (string) {\n      return tokenOwnerURIs[_tokenId];\n    }\n    \n    /**\n     * @dev Internal function creating a new token.\n     * @param _uri string metadata uri associated with the token\n     */\n    function createToken(string _uri, address _creator) private returns (uint256){\n      uint256 newId = idCounter;\n      idCounter++;\n      _mint(_creator, newId);\n      _setTokenURI(newId, _uri);\n      tokenCreators[newId] = _creator;\n      return newId;\n    }\n}\n",
  "sourcePath": "/Users/charlescrain/dev/pixura-contracts/truffle/contracts/PixuraNFT.sol",
  "compiler": {
    "name": "solc",
    "version": "0.4.24+commit.e67f0147.Emscripten.clang"
  },
  "schemaVersion": "2.0.1",
  "updatedAt": "2019-07-05T21:48:27.658Z"
}