{
  "contractName": "PixuraFungibleToken",
  "abi": [
    {
      "constant": true,
      "inputs": [],
      "name": "name",
      "outputs": [
        {
          "name": "",
          "type": "string"
        }
      ],
      "payable": false,
      "stateMutability": "view",
      "type": "function"
    },
    {
      "constant": false,
      "inputs": [
        {
          "name": "spender",
          "type": "address"
        },
        {
          "name": "value",
          "type": "uint256"
        }
      ],
      "name": "approve",
      "outputs": [
        {
          "name": "",
          "type": "bool"
        }
      ],
      "payable": false,
      "stateMutability": "nonpayable",
      "type": "function"
    },
    {
      "constant": true,
      "inputs": [],
      "name": "totalSupply",
      "outputs": [
        {
          "name": "",
          "type": "uint256"
        }
      ],
      "payable": false,
      "stateMutability": "view",
      "type": "function"
    },
    {
      "constant": false,
      "inputs": [
        {
          "name": "from",
          "type": "address"
        },
        {
          "name": "to",
          "type": "address"
        },
        {
          "name": "value",
          "type": "uint256"
        }
      ],
      "name": "transferFrom",
      "outputs": [
        {
          "name": "",
          "type": "bool"
        }
      ],
      "payable": false,
      "stateMutability": "nonpayable",
      "type": "function"
    },
    {
      "constant": true,
      "inputs": [],
      "name": "decimals",
      "outputs": [
        {
          "name": "",
          "type": "uint8"
        }
      ],
      "payable": false,
      "stateMutability": "view",
      "type": "function"
    },
    {
      "constant": false,
      "inputs": [
        {
          "name": "spender",
          "type": "address"
        },
        {
          "name": "addedValue",
          "type": "uint256"
        }
      ],
      "name": "increaseAllowance",
      "outputs": [
        {
          "name": "",
          "type": "bool"
        }
      ],
      "payable": false,
      "stateMutability": "nonpayable",
      "type": "function"
    },
    {
      "constant": true,
      "inputs": [
        {
          "name": "owner",
          "type": "address"
        }
      ],
      "name": "balanceOf",
      "outputs": [
        {
          "name": "",
          "type": "uint256"
        }
      ],
      "payable": false,
      "stateMutability": "view",
      "type": "function"
    },
    {
      "constant": false,
      "inputs": [],
      "name": "renounceOwnership",
      "outputs": [],
      "payable": false,
      "stateMutability": "nonpayable",
      "type": "function"
    },
    {
      "constant": true,
      "inputs": [],
      "name": "owner",
      "outputs": [
        {
          "name": "",
          "type": "address"
        }
      ],
      "payable": false,
      "stateMutability": "view",
      "type": "function"
    },
    {
      "constant": true,
      "inputs": [],
      "name": "isOwner",
      "outputs": [
        {
          "name": "",
          "type": "bool"
        }
      ],
      "payable": false,
      "stateMutability": "view",
      "type": "function"
    },
    {
      "constant": true,
      "inputs": [],
      "name": "symbol",
      "outputs": [
        {
          "name": "",
          "type": "string"
        }
      ],
      "payable": false,
      "stateMutability": "view",
      "type": "function"
    },
    {
      "constant": false,
      "inputs": [
        {
          "name": "spender",
          "type": "address"
        },
        {
          "name": "subtractedValue",
          "type": "uint256"
        }
      ],
      "name": "decreaseAllowance",
      "outputs": [
        {
          "name": "",
          "type": "bool"
        }
      ],
      "payable": false,
      "stateMutability": "nonpayable",
      "type": "function"
    },
    {
      "constant": false,
      "inputs": [
        {
          "name": "to",
          "type": "address"
        },
        {
          "name": "value",
          "type": "uint256"
        }
      ],
      "name": "transfer",
      "outputs": [
        {
          "name": "",
          "type": "bool"
        }
      ],
      "payable": false,
      "stateMutability": "nonpayable",
      "type": "function"
    },
    {
      "constant": true,
      "inputs": [
        {
          "name": "owner",
          "type": "address"
        },
        {
          "name": "spender",
          "type": "address"
        }
      ],
      "name": "allowance",
      "outputs": [
        {
          "name": "",
          "type": "uint256"
        }
      ],
      "payable": false,
      "stateMutability": "view",
      "type": "function"
    },
    {
      "constant": false,
      "inputs": [
        {
          "name": "newOwner",
          "type": "address"
        }
      ],
      "name": "transferOwnership",
      "outputs": [],
      "payable": false,
      "stateMutability": "nonpayable",
      "type": "function"
    },
    {
      "inputs": [
        {
          "name": "name",
          "type": "string"
        },
        {
          "name": "symbol",
          "type": "string"
        },
        {
          "name": "decimals",
          "type": "uint8"
        },
        {
          "name": "uri",
          "type": "string"
        }
      ],
      "payable": false,
      "stateMutability": "nonpayable",
      "type": "constructor"
    },
    {
      "anonymous": false,
      "inputs": [
        {
          "indexed": true,
          "name": "tokenURI",
          "type": "string"
        }
      ],
      "name": "TokenURIUpdated",
      "type": "event"
    },
    {
      "anonymous": false,
      "inputs": [
        {
          "indexed": true,
          "name": "previousOwner",
          "type": "address"
        },
        {
          "indexed": true,
          "name": "newOwner",
          "type": "address"
        }
      ],
      "name": "OwnershipTransferred",
      "type": "event"
    },
    {
      "anonymous": false,
      "inputs": [
        {
          "indexed": true,
          "name": "from",
          "type": "address"
        },
        {
          "indexed": true,
          "name": "to",
          "type": "address"
        },
        {
          "indexed": false,
          "name": "value",
          "type": "uint256"
        }
      ],
      "name": "Transfer",
      "type": "event"
    },
    {
      "anonymous": false,
      "inputs": [
        {
          "indexed": true,
          "name": "owner",
          "type": "address"
        },
        {
          "indexed": true,
          "name": "spender",
          "type": "address"
        },
        {
          "indexed": false,
          "name": "value",
          "type": "uint256"
        }
      ],
      "name": "Approval",
      "type": "event"
    },
    {
      "constant": true,
      "inputs": [],
      "name": "tokenURI",
      "outputs": [
        {
          "name": "",
          "type": "string"
        }
      ],
      "payable": false,
      "stateMutability": "view",
      "type": "function"
    },
    {
      "constant": false,
      "inputs": [
        {
          "name": "uri",
          "type": "string"
        }
      ],
      "name": "updateTokenURI",
      "outputs": [],
      "payable": false,
      "stateMutability": "nonpayable",
      "type": "function"
    }
  ],
  "bytecode": "0x608060405234801561001057600080fd5b50604051610d37380380610d378339810160409081528151602080840151928401516060850151928501805190959485019491939091019185918591859161005e91600391908601906100f6565b5081516100729060049060208501906100f6565b506005805460ff191660ff929092169190911761010060a860020a0319166101003381029190911791829055604051600160a060020a0391909204169250600091507f8be0079c531659141344cd1fd0a4f28419497f9722a3daafe3b4186f6b6457e0908290a380516100ec9060069060208401906100f6565b5050505050610191565b828054600181600116156101000203166002900490600052602060002090601f016020900481019282601f1061013757805160ff1916838001178555610164565b82800160010185558215610164579182015b82811115610164578251825591602001919060010190610149565b50610170929150610174565b5090565b61018e91905b80821115610170576000815560010161017a565b90565b610b97806101a06000396000f3006080604052600436106100f05763ffffffff7c010000000000000000000000000000000000000000000000000000000060003504166306fdde0381146100f5578063095ea7b31461017f57806318160ddd146101b757806323b872dd146101de578063313ce5671461020857806339509351146102335780633c130d901461025757806370a082311461026c578063715018a61461028d5780638da5cb5b146102a45780638f32d59b146102d557806395d89b41146102ea57806398cd6153146102ff578063a457c2d714610358578063a9059cbb1461037c578063dd62ed3e146103a0578063f2fde38b146103c7575b600080fd5b34801561010157600080fd5b5061010a6103e8565b6040805160208082528351818301528351919283929083019185019080838360005b8381101561014457818101518382015260200161012c565b50505050905090810190601f1680156101715780820380516001836020036101000a031916815260200191505b509250505060405180910390f35b34801561018b57600080fd5b506101a3600160a060020a036004351660243561047f565b604080519115158252519081900360200190f35b3480156101c357600080fd5b506101cc6104fd565b60408051918252519081900360200190f35b3480156101ea57600080fd5b506101a3600160a060020a0360043581169060243516604435610503565b34801561021457600080fd5b5061021d6105a0565b6040805160ff9092168252519081900360200190f35b34801561023f57600080fd5b506101a3600160a060020a03600435166024356105a9565b34801561026357600080fd5b5061010a610659565b34801561027857600080fd5b506101cc600160a060020a03600435166106ba565b34801561029957600080fd5b506102a26106d5565b005b3480156102b057600080fd5b506102b9610745565b60408051600160a060020a039092168252519081900360200190f35b3480156102e157600080fd5b506101a3610759565b3480156102f657600080fd5b5061010a61076f565b34801561030b57600080fd5b506040805160206004803580820135601f81018490048402850184019095528484526102a29436949293602493928401919081908401838280828437509497506107d09650505050505050565b34801561036457600080fd5b506101a3600160a060020a036004351660243561087d565b34801561038857600080fd5b506101a3600160a060020a03600435166024356108c8565b3480156103ac57600080fd5b506101cc600160a060020a03600435811690602435166108de565b3480156103d357600080fd5b506102a2600160a060020a0360043516610909565b60038054604080516020601f60026000196101006001881615020190951694909404938401819004810282018101909252828152606093909290918301828280156104745780601f1061044957610100808354040283529160200191610474565b820191906000526020600020905b81548152906001019060200180831161045757829003601f168201915b505050505090505b90565b6000600160a060020a038316151561049657600080fd5b336000818152600160209081526040808320600160a060020a03881680855290835292819020869055805186815290519293927f8c5be1e5ebec7d5bd14f71427d1e84f3dd0314c0f7b2291e5b200ac8c7c3b925929181900390910190a350600192915050565b60025490565b600160a060020a038316600090815260016020908152604080832033845290915281205482111561053357600080fd5b600160a060020a0384166000908152600160209081526040808320338452909152902054610567908363ffffffff61092816565b600160a060020a038516600090815260016020908152604080832033845290915290205561059684848461093f565b5060019392505050565b60055460ff1690565b6000600160a060020a03831615156105c057600080fd5b336000908152600160209081526040808320600160a060020a03871684529091529020546105f4908363ffffffff610a3116565b336000818152600160209081526040808320600160a060020a0389168085529083529281902085905580519485525191937f8c5be1e5ebec7d5bd14f71427d1e84f3dd0314c0f7b2291e5b200ac8c7c3b925929081900390910190a350600192915050565b60068054604080516020601f60026000196101006001881615020190951694909404938401819004810282018101909252828152606093909290918301828280156104745780601f1061044957610100808354040283529160200191610474565b600160a060020a031660009081526020819052604090205490565b6106dd610759565b15156106e857600080fd5b6005546040516000916101009004600160a060020a0316907f8be0079c531659141344cd1fd0a4f28419497f9722a3daafe3b4186f6b6457e0908390a36005805474ffffffffffffffffffffffffffffffffffffffff0019169055565b6005546101009004600160a060020a031690565b6005546101009004600160a060020a0316331490565b60048054604080516020601f60026000196101006001881615020190951694909404938401819004810282018101909252828152606093909290918301828280156104745780601f1061044957610100808354040283529160200191610474565b6107d8610759565b15156107e357600080fd5b806040518082805190602001908083835b602083106108135780518252601f1990920191602091820191016107f4565b5181516020939093036101000a60001901801990911692169190911790526040519201829003822093507f3d25540fafb277423a5c9552c25096f7c0c69178c044fd61c947046f08fb09ca92506000919050a28051610879906006906020840190610ad3565b5050565b6000600160a060020a038316151561089457600080fd5b336000908152600160209081526040808320600160a060020a03871684529091529020546105f4908363ffffffff61092816565b60006108d533848461093f565b50600192915050565b600160a060020a03918216600090815260016020908152604080832093909416825291909152205490565b610911610759565b151561091c57600080fd5b61092581610a4a565b50565b6000808383111561093857600080fd5b5050900390565b600160a060020a03831660009081526020819052604090205481111561096457600080fd5b600160a060020a038216151561097957600080fd5b600160a060020a0383166000908152602081905260409020546109a2908263ffffffff61092816565b600160a060020a0380851660009081526020819052604080822093909355908416815220546109d7908263ffffffff610a3116565b600160a060020a038084166000818152602081815260409182902094909455805185815290519193928716927fddf252ad1be2c89b69c2b068fc378daa952ba7f163c4a11628f55a4df523b3ef92918290030190a3505050565b600082820183811015610a4357600080fd5b9392505050565b600160a060020a0381161515610a5f57600080fd5b600554604051600160a060020a0380841692610100900416907f8be0079c531659141344cd1fd0a4f28419497f9722a3daafe3b4186f6b6457e090600090a360058054600160a060020a039092166101000274ffffffffffffffffffffffffffffffffffffffff0019909216919091179055565b828054600181600116156101000203166002900490600052602060002090601f016020900481019282601f10610b1457805160ff1916838001178555610b41565b82800160010185558215610b41579182015b82811115610b41578251825591602001919060010190610b26565b50610b4d929150610b51565b5090565b61047c91905b80821115610b4d5760008155600101610b575600a165627a7a723058206547106df49a1224b030e496f9f20af6760b92b5daf880be37c954194963d0490029",
  "source": "pragma solidity ^0.4.24;\n\nimport \"../node_modules/openzeppelin-solidity/contracts/token/ERC20/ERC20.sol\";\nimport \"../node_modules/openzeppelin-solidity/contracts/token/ERC20/ERC20Detailed.sol\";\nimport \"../node_modules/openzeppelin-solidity/contracts/ownership/Ownable.sol\";\nimport \"../node_modules/openzeppelin-solidity/contracts/math/SafeMath.sol\";\n\ncontract PixuraFungibleToken is ERC20, ERC20Detailed, Ownable {\n    using SafeMath for uint256;\n\n    // String uri holding the metadata for the token.\n    string private _uri;\n\n    event TokenURIUpdated(string indexed tokenURI);\n\n    constructor(\n      string memory name,\n      string memory symbol,\n      uint8 decimals,\n      string memory uri\n    )\n    ERC20Detailed(name, symbol, decimals)\n    {\n        _uri = uri;\n    }\n\n    /**\n     * @dev Update the token metadata URI.\n     * @return string\n     */\n    function tokenURI() external view returns (string) {\n        return _uri;\n    }\n\n    /**\n     * @dev Update the token metadata URI.\n     * @param uri string new uri.\n     */\n    function updateTokenURI(string memory uri) public onlyOwner {\n        emit TokenURIUpdated(uri);\n        _uri = uri;\n    }\n\n}",
  "sourcePath": "/Users/charlescrain/dev/pixura-contracts/truffle/contracts/PixuraFungibleToken.sol",
  "compiler": {
    "name": "solc",
    "version": "0.4.24+commit.e67f0147.Emscripten.clang"
  },
  "schemaVersion": "2.0.1",
  "updatedAt": "2019-07-05T22:03:43.049Z"
}