{
  "contractName": "PixuraNFTContractGenerator",
  "abi": [
    {
      "constant": false,
      "inputs": [],
      "name": "removeOperator",
      "outputs": [],
      "payable": false,
      "stateMutability": "nonpayable",
      "type": "function"
    },
    {
      "constant": true,
      "inputs": [],
      "name": "nftOperationCost",
      "outputs": [
        {
          "name": "",
          "type": "uint256"
        }
      ],
      "payable": false,
      "stateMutability": "view",
      "type": "function"
    },
    {
      "constant": true,
      "inputs": [],
      "name": "operator",
      "outputs": [
        {
          "name": "",
          "type": "address"
        }
      ],
      "payable": false,
      "stateMutability": "view",
      "type": "function"
    },
    {
      "constant": false,
      "inputs": [
        {
          "name": "_operationCost",
          "type": "uint256"
        }
      ],
      "name": "setOperationCost",
      "outputs": [],
      "payable": false,
      "stateMutability": "nonpayable",
      "type": "function"
    },
    {
      "constant": false,
      "inputs": [],
      "name": "renounceOwnership",
      "outputs": [],
      "payable": false,
      "stateMutability": "nonpayable",
      "type": "function"
    },
    {
      "constant": true,
      "inputs": [],
      "name": "owner",
      "outputs": [
        {
          "name": "",
          "type": "address"
        }
      ],
      "payable": false,
      "stateMutability": "view",
      "type": "function"
    },
    {
      "constant": true,
      "inputs": [],
      "name": "isOwner",
      "outputs": [
        {
          "name": "",
          "type": "bool"
        }
      ],
      "payable": false,
      "stateMutability": "view",
      "type": "function"
    },
    {
      "constant": false,
      "inputs": [
        {
          "name": "_operator",
          "type": "address"
        }
      ],
      "name": "setOperator",
      "outputs": [],
      "payable": false,
      "stateMutability": "nonpayable",
      "type": "function"
    },
    {
      "constant": true,
      "inputs": [],
      "name": "operationCost",
      "outputs": [
        {
          "name": "",
          "type": "uint256"
        }
      ],
      "payable": false,
      "stateMutability": "view",
      "type": "function"
    },
    {
      "constant": false,
      "inputs": [
        {
          "name": "newOwner",
          "type": "address"
        }
      ],
      "name": "transferOwnership",
      "outputs": [],
      "payable": false,
      "stateMutability": "nonpayable",
      "type": "function"
    },
    {
      "inputs": [
        {
          "name": "_operationCost",
          "type": "uint256"
        },
        {
          "name": "_nftOperationCost",
          "type": "uint256"
        }
      ],
      "payable": false,
      "stateMutability": "nonpayable",
      "type": "constructor"
    },
    {
      "anonymous": false,
      "inputs": [
        {
          "indexed": true,
          "name": "_contractAddress",
          "type": "address"
        },
        {
          "indexed": true,
          "name": "_owner",
          "type": "address"
        }
      ],
      "name": "PixuraNFTContractCreated",
      "type": "event"
    },
    {
      "anonymous": false,
      "inputs": [
        {
          "indexed": true,
          "name": "_operator",
          "type": "address"
        }
      ],
      "name": "OperatorSet",
      "type": "event"
    },
    {
      "anonymous": false,
      "inputs": [
        {
          "indexed": true,
          "name": "_operationCost",
          "type": "uint256"
        }
      ],
      "name": "OperationCostSet",
      "type": "event"
    },
    {
      "anonymous": false,
      "inputs": [
        {
          "indexed": true,
          "name": "previousOwner",
          "type": "address"
        },
        {
          "indexed": true,
          "name": "newOwner",
          "type": "address"
        }
      ],
      "name": "OwnershipTransferred",
      "type": "event"
    },
    {
      "constant": false,
      "inputs": [
        {
          "name": "_name",
          "type": "string"
        },
        {
          "name": "_symbol",
          "type": "string"
        }
      ],
      "name": "createNFTContract",
      "outputs": [
        {
          "name": "",
          "type": "address"
        }
      ],
      "payable": true,
      "stateMutability": "payable",
      "type": "function"
    },
    {
      "constant": false,
      "inputs": [
        {
          "name": "_cost",
          "type": "uint256"
        }
      ],
      "name": "setNftOperationCost",
      "outputs": [],
      "payable": false,
      "stateMutability": "nonpayable",
      "type": "function"
    }
  ],
  "bytecode": "0x608060405234801561001057600080fd5b50604051604080612c5a833981016040819052815160209092015160008054600160a060020a03191633908117808355929390928592600160a060020a0391909116917f8be0079c531659141344cd1fd0a4f28419497f9722a3daafe3b4186f6b6457e0908290a360018054600160a060020a031916600160a060020a03848116919091179182905560028390556040519116907f99d737e0adf2c449d71890b86772885ec7959b152ddb265f76325b6e68e105d390600090a26002546040517f70524409f1852b9903371526eb3765eb5462f72a3df57469113284ab8a76ec9590600090a2505060035550612b4f8061010b6000396000f300608060405260043610620000c65763ffffffff7c010000000000000000000000000000000000000000000000000000000060003504166314d76ffc8114620000cb57806320e5454814620001735780633b229af4146200018d578063570ca73514620001b757806366c732f614620001cf578063715018a614620001ea5780638b3c88e614620002025780638da5cb5b146200021d5780638f32d59b1462000235578063b3ab15fb1462000261578063cd23048b1462000285578063f2fde38b146200029d575b600080fd5b6040805160206004803580820135601f81018490048402850184019095528484526200015794369492936024939284019190819084018382808284375050604080516020601f89358b018035918201839004830284018301909452808352979a999881019791965091820194509250829150840183828082843750949750620002c19650505050505050565b60408051600160a060020a039092168252519081900360200190f35b3480156200018057600080fd5b506200018b6200052e565b005b3480156200019a57600080fd5b50620001a562000548565b60408051918252519081900360200190f35b348015620001c457600080fd5b50620001576200054e565b348015620001dc57600080fd5b506200018b6004356200055d565b348015620001f757600080fd5b506200018b62000619565b3480156200020f57600080fd5b506200018b60043562000686565b3480156200022a57600080fd5b5062000157620006f5565b3480156200024257600080fd5b506200024d62000704565b604080519115158252519081900360200190f35b3480156200026e57600080fd5b506200018b600160a060020a036004351662000715565b3480156200029257600080fd5b50620001a5620007cd565b348015620002aa57600080fd5b506200018b600160a060020a0360043516620007d3565b600080620002ce620007f7565b60015460035485918591600160a060020a0390911690620002ee62000942565b600160a060020a03831660408201526060810182905260808082528551908201528451819060208083019160a084019189019080838360005b838110156200034157818101518382015260200162000327565b50505050905090810190601f1680156200036f5780820380516001836020036101000a031916815260200191505b50838103825286518152865160209182019188019080838360005b83811015620003a45781810151838201526020016200038a565b50505050905090810190601f168015620003d25780820380516001836020036101000a031916815260200191505b509650505050505050604051809103906000f080158015620003f8573d6000803e3d6000fd5b50604080517fe43252d70000000000000000000000000000000000000000000000000000000081523360048201529051919250600160a060020a0383169163e43252d79160248082019260009290919082900301818387803b1580156200045e57600080fd5b505af115801562000473573d6000803e3d6000fd5b5050604080517ff2fde38b0000000000000000000000000000000000000000000000000000000081523360048201529051600160a060020a038516935063f2fde38b9250602480830192600092919082900301818387803b158015620004d857600080fd5b505af1158015620004ed573d6000803e3d6000fd5b5050604051339250600160a060020a03841691507f881314b912dd33ad3324ab01ca953fddb5d8c197f5b3dace581dc8af49cd8e1290600090a39392505050565b6200053a600062000715565b6200054660006200055d565b565b60035481565b600154600160a060020a031681565b600154600160a060020a03163314620005e6576040805160e560020a62461bcd02815260206004820152602260248201527f63616e206f6e6c792062652063616c6c656420627920746865206f706572617460448201527f6f72000000000000000000000000000000000000000000000000000000000000606482015290519081900360840190fd5b600281905560405181907f70524409f1852b9903371526eb3765eb5462f72a3df57469113284ab8a76ec9590600090a250565b6200062362000704565b15156200062f57600080fd5b60008054604051600160a060020a03909116907f8be0079c531659141344cd1fd0a4f28419497f9722a3daafe3b4186f6b6457e0908390a36000805473ffffffffffffffffffffffffffffffffffffffff19169055565b62000690620006f5565b600160a060020a03163314620006f0576040805160e560020a62461bcd02815260206004820152601860248201527f73656e646572206d75737420626520746865206f776e65720000000000000000604482015290519081900360640190fd5b600355565b600054600160a060020a031690565b600054600160a060020a0316331490565b600154600160a060020a031633146200079e576040805160e560020a62461bcd02815260206004820152602260248201527f63616e206f6e6c792062652063616c6c656420627920746865206f706572617460448201527f6f72000000000000000000000000000000000000000000000000000000000000606482015290519081900360840190fd5b6001805473ffffffffffffffffffffffffffffffffffffffff1916600160a060020a0392909216919091179055565b60025481565b620007dd62000704565b1515620007e957600080fd5b620007f481620008c4565b50565b600154600160a060020a03161562000546576002543410156200088a576040805160e560020a62461bcd02815260206004820152602760248201527f6d75737420706179206f7065726174696f6e20636f7374206966206f7065726160448201527f746f722073657400000000000000000000000000000000000000000000000000606482015290519081900360840190fd5b600154604051600160a060020a03909116903480156108fc02916000818181858888f19350505050158015620007f4573d6000803e3d6000fd5b600160a060020a0381161515620008da57600080fd5b60008054604051600160a060020a03808516939216917f8be0079c531659141344cd1fd0a4f28419497f9722a3daafe3b4186f6b6457e091a36000805473ffffffffffffffffffffffffffffffffffffffff1916600160a060020a0392909216919091179055565b6040516121d080620009548339019056006080604052600e805460ff1916600117905560006012553480156200002357600080fd5b50604051620021d0380380620021d083398101604090815281516020830151918301516060840151918401939290920191908181858581816200008f7f01ffc9a70000000000000000000000000000000000000000000000000000000064010000000062000238810204565b620000c37f80ac58cd0000000000000000000000000000000000000000000000000000000064010000000062000238810204565b620000f77f780e9d630000000000000000000000000000000000000000000000000000000064010000000062000238810204565b81516200010c906009906020850190620002a5565b5080516200012290600a906020840190620002a5565b50620001577f5b5e139f0000000000000000000000000000000000000000000000000000000064010000000062000238810204565b5050600c8054600160a060020a031916331790819055604051600160a060020a03919091169250600091507f8be0079c531659141344cd1fd0a4f28419497f9722a3daafe3b4186f6b6457e0908290a3600e805461010060a860020a031916610100600160a060020a0385811682029290921792839055600f849055604051920416907f99d737e0adf2c449d71890b86772885ec7959b152ddb265f76325b6e68e105d390600090a2600f546040517f70524409f1852b9903371526eb3765eb5462f72a3df57469113284ab8a76ec9590600090a25050505050506200034a565b7fffffffff0000000000000000000000000000000000000000000000000000000080821614156200026857600080fd5b7fffffffff00000000000000000000000000000000000000000000000000000000166000908152602081905260409020805460ff19166001179055565b828054600181600116156101000203166002900490600052602060002090601f016020900481019282601f10620002e857805160ff191683800117855562000318565b8280016001018555821562000318579182015b8281111562000318578251825591602001919060010190620002fb565b50620003269291506200032a565b5090565b6200034791905b8082111562000326576000815560010162000331565b90565b611e76806200035a6000396000f3006080604052600436106101b65763ffffffff7c010000000000000000000000000000000000000000000000000000000060003504166301ffc9a781146101bb578063040b65831461020657806306fdde0314610222578063081812fc146102ac578063095ea7b3146102e057806318160ddd1461030457806320e545481461032b57806323b872dd146103405780632cb2f52e1461036a5780632f745c59146103c85780633af32abf146103ec57806340c1a0641461040d57806342842e0e146104255780634f6ccce71461044f578063570ca735146104675780635b248ca21461047c5780636297c16c146104da5780636352211e146104f257806366c732f61461050a57806370a0823114610522578063715018a614610543578063896c7723146105585780638ab1d681146105705780638da5cb5b146105915780638f32d59b146105a657806395d89b41146105bb578063a22cb465146105d0578063b3ab15fb146105f6578063b88d4fde14610617578063c87b56dd14610686578063cd23048b1461069e578063d9856c21146106b3578063e43252d7146106ff578063e985e9c514610720578063f2fde38b14610747575b600080fd5b3480156101c757600080fd5b506101f27bffffffffffffffffffffffffffffffffffffffffffffffffffffffff1960043516610768565b604080519115158252519081900360200190f35b34801561021257600080fd5b5061022060043515156107a0565b005b34801561022e57600080fd5b506102376107c6565b6040805160208082528351818301528351919283929083019185019080838360005b83811015610271578181015183820152602001610259565b50505050905090810190601f16801561029e5780820380516001836020036101000a031916815260200191505b509250505060405180910390f35b3480156102b857600080fd5b506102c460043561085d565b60408051600160a060020a039092168252519081900360200190f35b3480156102ec57600080fd5b50610220600160a060020a036004351660243561088f565b34801561031057600080fd5b50610319610938565b60408051918252519081900360200190f35b34801561033757600080fd5b5061022061093e565b34801561034c57600080fd5b50610220600160a060020a0360043581169060243516604435610954565b34801561037657600080fd5b5060408051602060046024803582810135601f81018590048502860185019096528585526102209583359536956044949193909101919081908401838280828437509497506109e29650505050505050565b3480156103d457600080fd5b50610319600160a060020a0360043516602435610ad0565b3480156103f857600080fd5b506101f2600160a060020a0360043516610b1d565b34801561041957600080fd5b506102c4600435610b55565b34801561043157600080fd5b50610220600160a060020a0360043581169060243516604435610b70565b34801561045b57600080fd5b50610319600435610b91565b34801561047357600080fd5b506102c4610bc6565b34801561048857600080fd5b5060408051602060046024803582810135601f8101859004850286018501909652858552610220958335953695604494919390910191908190840183828082843750949750610bda9650505050505050565b3480156104e657600080fd5b50610220600435610d97565b3480156104fe57600080fd5b506102c4600435610e4d565b34801561051657600080fd5b50610220600435610e77565b34801561052e57600080fd5b50610319600160a060020a0360043516610f37565b34801561054f57600080fd5b50610220610f6a565b34801561056457600080fd5b50610237600435610fc7565b34801561057c57600080fd5b50610220600160a060020a0360043516611068565b34801561059d57600080fd5b506102c4611087565b3480156105b257600080fd5b506101f2611096565b3480156105c757600080fd5b506102376110a7565b3480156105dc57600080fd5b50610220600160a060020a03600435166024351515611108565b34801561060257600080fd5b50610220600160a060020a036004351661118c565b34801561062357600080fd5b50604080516020601f60643560048181013592830184900484028501840190955281845261022094600160a060020a03813581169560248035909216956044359536956084940191819084018382808284375094975061124e9650505050505050565b34801561069257600080fd5b50610237600435611276565b3480156106aa57600080fd5b506103196112f4565b6040805160206004803580820135601f81018490048402850184019095528484526102209436949293602493928401919081908401838280828437509497506112fa9650505050505050565b34801561070b57600080fd5b50610220600160a060020a0360043516611394565b34801561072c57600080fd5b506101f2600160a060020a03600435811690602435166113b0565b34801561075357600080fd5b50610220600160a060020a03600435166113de565b7bffffffffffffffffffffffffffffffffffffffffffffffffffffffff19811660009081526020819052604090205460ff165b919050565b6107a8611096565b15156107b357600080fd5b600e805460ff1916911515919091179055565b60098054604080516020601f60026000196101006001881615020190951694909404938401819004810282018101909252828152606093909290918301828280156108525780601f1061082757610100808354040283529160200191610852565b820191906000526020600020905b81548152906001019060200180831161083557829003601f168201915b505050505090505b90565b6000610868826113fa565b151561087357600080fd5b50600090815260026020526040902054600160a060020a031690565b600061089a82610e4d565b9050600160a060020a0383811690821614156108b557600080fd5b33600160a060020a03821614806108d157506108d181336113b0565b15156108dc57600080fd5b6000828152600260205260408082208054600160a060020a031916600160a060020a0387811691821790925591518593918516917f8c5be1e5ebec7d5bd14f71427d1e84f3dd0314c0f7b2291e5b200ac8c7c3b92591a4505050565b60075490565b610948600061118c565b6109526000610e77565b565b61095e3382611417565b151561096957600080fd5b600160a060020a038216151561097e57600080fd5b6109888382611476565b61099283826114d8565b61099c82826115df565b8082600160a060020a031684600160a060020a03167fddf252ad1be2c89b69c2b068fc378daa952ba7f163c4a11628f55a4df523b3ef60405160405180910390a4505050565b8160006109ee82610e4d565b9050600160a060020a0381163314610a50576040805160e560020a62461bcd02815260206004820152601e60248201527f6d75737420626520746865206f776e6572206f662074686520746f6b656e0000604482015290519081900360640190fd5b836000610a5c82610b55565b9050600160a060020a0381163314610abe576040805160e560020a62461bcd02815260206004820181905260248201527f6d757374206265207468652063726561746f72206f662074686520746f6b656e604482015290519081900360640190fd5b610ac88686611628565b505050505050565b6000610adb83610f37565b8210610ae657600080fd5b600160a060020a0383166000908152600560205260409020805483908110610b0a57fe5b9060005260206000200154905092915050565b600e5460009060ff1615610b4d5750600160a060020a0381166000908152600d602052604090205460ff1661079b565b50600161079b565b600090815260106020526040902054600160a060020a031690565b610b8c838383602060405190810160405280600081525061124e565b505050565b6000610b9b610938565b8210610ba657600080fd5b6007805483908110610bb457fe5b90600052602060002001549050919050565b600e546101009004600160a060020a031681565b816000610be682610e4d565b9050600160a060020a0381163314610c48576040805160e560020a62461bcd02815260206004820152601e60248201527f6d75737420626520746865206f776e6572206f662074686520746f6b656e0000604482015290519081900360640190fd5b610c51846113fa565b1515610ccd576040805160e560020a62461bcd02815260206004820152602d60248201527f746f6b656e206d75737420657869737420746f2075706461746520746865206f60448201527f776e6572206d6574616461746100000000000000000000000000000000000000606482015290519081900360840190fd5b60008481526011602090815260409091208451610cec92860190611d4e565b5033600160a060020a0316847f8a8b453e9bcfb39debba2c5ddcc97d3d9daf4c65ec6b5f9626c5ea6da3db4a5d856040518080602001828103825283818151815260200191508051906020019080838360005b83811015610d57578181015183820152602001610d3f565b50505050905090810190601f168015610d845780820380516001836020036101000a031916815260200191505b509250505060405180910390a350505050565b806000610da382610e4d565b9050600160a060020a0381163314610e05576040805160e560020a62461bcd02815260206004820152601e60248201527f6d75737420626520746865206f776e6572206f662074686520746f6b656e0000604482015290519081900360640190fd5b6000838152601160205260409020546002600019610100600184161502019091160415610e43576000838152601160205260408120610e4391611dcc565b610b8c338461165b565b600081815260016020526040812054600160a060020a0316801515610e7157600080fd5b92915050565b600e546101009004600160a060020a03163314610f04576040805160e560020a62461bcd02815260206004820152602260248201527f63616e206f6e6c792062652063616c6c656420627920746865206f706572617460448201527f6f72000000000000000000000000000000000000000000000000000000000000606482015290519081900360840190fd5b600f81905560405181907f70524409f1852b9903371526eb3765eb5462f72a3df57469113284ab8a76ec9590600090a250565b6000600160a060020a0382161515610f4e57600080fd5b50600160a060020a031660009081526003602052604090205490565b610f72611096565b1515610f7d57600080fd5b600c54604051600091600160a060020a0316907f8be0079c531659141344cd1fd0a4f28419497f9722a3daafe3b4186f6b6457e0908390a3600c8054600160a060020a0319169055565b60008181526011602090815260409182902080548351601f600260001961010060018616150201909316929092049182018490048402810184019094528084526060939283018282801561105c5780601f106110315761010080835404028352916020019161105c565b820191906000526020600020905b81548152906001019060200180831161103f57829003601f168201915b50505050509050919050565b611070611096565b151561107b57600080fd5b611084816116a3565b50565b600c54600160a060020a031690565b600c54600160a060020a0316331490565b600a8054604080516020601f60026000196101006001881615020190951694909404938401819004810282018101909252828152606093909290918301828280156108525780601f1061082757610100808354040283529160200191610852565b600160a060020a03821633141561111e57600080fd5b336000818152600460209081526040808320600160a060020a03871680855290835292819020805460ff1916861515908117909155815190815290519293927f17307eab39ab6107e8899845ad3d59bd9653f200f220920489ca2b5937696c31929181900390910190a35050565b600e546101009004600160a060020a03163314611219576040805160e560020a62461bcd02815260206004820152602260248201527f63616e206f6e6c792062652063616c6c656420627920746865206f706572617460448201527f6f72000000000000000000000000000000000000000000000000000000000000606482015290519081900360840190fd5b600e8054600160a060020a039092166101000274ffffffffffffffffffffffffffffffffffffffff0019909216919091179055565b611259848484610954565b611265848484846116ec565b151561127057600080fd5b50505050565b6060611281826113fa565b151561128c57600080fd5b6000828152600b602090815260409182902080548351601f60026000196101006001861615020190931692909204918201849004840281018401909452808452909183018282801561105c5780601f106110315761010080835404028352916020019161105c565b600f5481565b61130333610b1d565b151561137e576040805160e560020a62461bcd028152602060048201526024808201527f6d7573742062652077686974656c697374656420746f2063726561746520746f60448201527f6b656e7300000000000000000000000000000000000000000000000000000000606482015290519081900360840190fd5b61138661186e565b6113908133611944565b5050565b61139c611096565b15156113a757600080fd5b61108481611997565b600160a060020a03918216600090815260046020908152604080832093909416825291909152205460ff1690565b6113e6611096565b15156113f157600080fd5b611084816119e3565b600090815260016020526040902054600160a060020a0316151590565b60008061142383610e4d565b905080600160a060020a031684600160a060020a0316148061145e575083600160a060020a03166114538461085d565b600160a060020a0316145b8061146e575061146e81856113b0565b949350505050565b81600160a060020a031661148982610e4d565b600160a060020a03161461149c57600080fd5b600081815260026020526040902054600160a060020a0316156113905760009081526002602052604090208054600160a060020a031916905550565b60008060006114e78585611a54565b600084815260066020908152604080832054600160a060020a038916845260059092529091205490935061152290600163ffffffff611add16565b600160a060020a03861660009081526005602052604090208054919350908390811061154a57fe5b90600052602060002001549050806005600087600160a060020a0316600160a060020a031681526020019081526020016000208481548110151561158a57fe5b6000918252602080832090910192909255600160a060020a03871681526005909152604090208054906115c1906000198301611e10565b50600093845260066020526040808520859055908452909220555050565b60006115eb8383611af4565b50600160a060020a039091166000908152600560209081526040808320805460018101825590845282842081018590559383526006909152902055565b611631826113fa565b151561163c57600080fd5b6000828152600b602090815260409091208251610b8c92840190611d4e565b6116658282611b77565b6000818152600b60205260409020546002600019610100600184161502019091160415611390576000818152600b6020526040812061139091611dcc565b600160a060020a0381166000818152600d6020526040808220805460ff19169055517f1f756c8b089af6b33ee121fee8badac2553a2fa89c0575ea91ff8792617746c29190a250565b60008061170185600160a060020a0316611c33565b15156117105760019150611865565b6040517f150b7a020000000000000000000000000000000000000000000000000000000081523360048201818152600160a060020a03898116602485015260448401889052608060648501908152875160848601528751918a169463150b7a0294938c938b938b93909160a490910190602085019080838360005b838110156117a357818101518382015260200161178b565b50505050905090810190601f1680156117d05780820380516001836020036101000a031916815260200191505b5095505050505050602060405180830381600087803b1580156117f257600080fd5b505af1158015611806573d6000803e3d6000fd5b505050506040513d602081101561181c57600080fd5b50517bffffffffffffffffffffffffffffffffffffffffffffffffffffffff1981167f150b7a020000000000000000000000000000000000000000000000000000000014925090505b50949350505050565b600e546101009004600160a060020a03161561095257600f54341015611904576040805160e560020a62461bcd02815260206004820152602760248201527f6d75737420706179206f7065726174696f6e20636f7374206966206f7065726160448201527f746f722073657400000000000000000000000000000000000000000000000000606482015290519081900360840190fd5b600e54604051600160a060020a0361010090920491909116903480156108fc02916000818181858888f19350505050158015611084573d6000803e3d6000fd5b601280546001810190915560009061195c8382611c3b565b6119668185611628565b60008181526010602052604090208054600160a060020a038516600160a060020a0319909116179055905092915050565b600160a060020a0381166000818152600d6020526040808220805460ff19166001179055517f75b2135d1c8c3519f3c09c43fe6527089ef09f40c7981ebf0ed46e79e79032c79190a250565b600160a060020a03811615156119f857600080fd5b600c54604051600160a060020a038084169216907f8be0079c531659141344cd1fd0a4f28419497f9722a3daafe3b4186f6b6457e090600090a3600c8054600160a060020a031916600160a060020a0392909216919091179055565b81600160a060020a0316611a6782610e4d565b600160a060020a031614611a7a57600080fd5b600160a060020a038216600090815260036020526040902054611aa490600163ffffffff611add16565b600160a060020a039092166000908152600360209081526040808320949094559181526001909152208054600160a060020a0319169055565b60008083831115611aed57600080fd5b5050900390565b600081815260016020526040902054600160a060020a031615611b1657600080fd5b60008181526001602081815260408084208054600160a060020a031916600160a060020a0388169081179091558452600390915290912054611b5791611c8a565b600160a060020a0390921660009081526003602052604090209190915550565b6000806000611b868585611ca3565b600084815260086020526040902054600754909350611bac90600163ffffffff611add16565b9150600782815481101515611bbd57fe5b9060005260206000200154905080600784815481101515611bda57fe5b60009182526020822001919091556007805484908110611bf657fe5b6000918252602090912001556007805490611c15906000198301611e10565b50600093845260086020526040808520859055908452909220555050565b6000903b1190565b611c458282611cf3565b600780546000838152600860205260408120829055600182018355919091527fa66cc928b5edb82af9bd49922954155ab7b0942694bea4ce44661d9a8736c688015550565b600082820183811015611c9c57600080fd5b9392505050565b611cad8282611476565b611cb782826114d8565b6040518190600090600160a060020a038516907fddf252ad1be2c89b69c2b068fc378daa952ba7f163c4a11628f55a4df523b3ef908390a45050565b600160a060020a0382161515611d0857600080fd5b611d1282826115df565b6040518190600160a060020a038416906000907fddf252ad1be2c89b69c2b068fc378daa952ba7f163c4a11628f55a4df523b3ef908290a45050565b828054600181600116156101000203166002900490600052602060002090601f016020900481019282601f10611d8f57805160ff1916838001178555611dbc565b82800160010185558215611dbc579182015b82811115611dbc578251825591602001919060010190611da1565b50611dc8929150611e30565b5090565b50805460018160011615610100020316600290046000825580601f10611df25750611084565b601f0160209004906000526020600020908101906110849190611e30565b815481835581811115610b8c57600083815260209020610b8c9181019083015b61085a91905b80821115611dc85760008155600101611e365600a165627a7a7230582015a5533f0e396d6cc5fe32de4270cf549c1c969449837cfd8bbde7dc9fa7982c0029a165627a7a72305820e6fe1d651493e669d0a974bfce42939b0eaa955aff0f17ffe23b87cec95ef1200029",
  "source": "pragma solidity ^0.4.24;\n\nimport \"../node_modules/openzeppelin-solidity/contracts/ownership/Ownable.sol\";\nimport \"./PixuraNFT.sol\";\nimport \"./Operated.sol\";\n\ncontract PixuraNFTContractGenerator is Ownable, Operated {\n    using SafeMath for uint256;\n\n    // Operating cost for the NFT Contracts\n    uint256 public nftOperationCost;\n\n    event PixuraNFTContractCreated(\n      address indexed _contractAddress,\n      address indexed _owner\n    );\n\n    constructor(\n      uint256 _operationCost,\n      uint256 _nftOperationCost\n    ) \n    Operated(msg.sender, _operationCost)\n    {\n      nftOperationCost = _nftOperationCost;\n    }\n    \n    /**\n     * @dev Creates an NFT smart contract \n     * @param _name string name of the contract\n     * @param _symbol string symbol of the token\n     */\n    function createNFTContract(string _name, string _symbol) public payable returns (address) {\n      payOperatorWhenNeeded();\n      PixuraNFT nftContract = new PixuraNFT(_name, _symbol, operator, nftOperationCost);\n      nftContract.addToWhitelist(msg.sender);\n      nftContract.transferOwnership(msg.sender);\n      emit PixuraNFTContractCreated(nftContract, msg.sender);\n      return nftContract;\n    }\n\n    /**\n     * @dev Set the default operating cost for generated NFT contracts\n     * @param _cost uint256 initial cost to create NFT for the generated contracts\n     */\n    function setNftOperationCost(uint256 _cost) public {\n      require(msg.sender == owner(), \"sender must be the owner\");\n      nftOperationCost = _cost;\n    }\n}\n",
  "sourcePath": "/Users/charlescrain/dev/pixura-contracts/truffle/contracts/PixuraNFTContractGenerator.sol",
  "compiler": {
    "name": "solc",
    "version": "0.4.24+commit.e67f0147.Emscripten.clang"
  },
  "schemaVersion": "2.0.1",
  "updatedAt": "2019-08-01T18:21:34.106Z"
}