{
  "contractName": "SupeRare",
  "abi": [
    {
      "constant": true,
      "inputs": [],
      "name": "totalSupply",
      "outputs": [
        {
          "name": "",
          "type": "uint256"
        }
      ],
      "payable": false,
      "stateMutability": "view",
      "type": "function"
    },
    {
      "constant": true,
      "inputs": [
        {
          "name": "_tokenId",
          "type": "uint256"
        }
      ],
      "name": "approvedFor",
      "outputs": [
        {
          "name": "",
          "type": "address"
        }
      ],
      "payable": false,
      "stateMutability": "view",
      "type": "function"
    },
    {
      "constant": true,
      "inputs": [
        {
          "name": "_owner",
          "type": "address"
        }
      ],
      "name": "tokensOf",
      "outputs": [
        {
          "name": "",
          "type": "uint256[]"
        }
      ],
      "payable": false,
      "stateMutability": "view",
      "type": "function"
    },
    {
      "constant": true,
      "inputs": [
        {
          "name": "_tokenId",
          "type": "uint256"
        }
      ],
      "name": "ownerOf",
      "outputs": [
        {
          "name": "",
          "type": "address"
        }
      ],
      "payable": false,
      "stateMutability": "view",
      "type": "function"
    },
    {
      "constant": true,
      "inputs": [
        {
          "name": "_owner",
          "type": "address"
        }
      ],
      "name": "balanceOf",
      "outputs": [
        {
          "name": "",
          "type": "uint256"
        }
      ],
      "payable": false,
      "stateMutability": "view",
      "type": "function"
    },
    {
      "constant": true,
      "inputs": [],
      "name": "owner",
      "outputs": [
        {
          "name": "",
          "type": "address"
        }
      ],
      "payable": false,
      "stateMutability": "view",
      "type": "function"
    },
    {
      "constant": false,
      "inputs": [
        {
          "name": "_tokenId",
          "type": "uint256"
        }
      ],
      "name": "takeOwnership",
      "outputs": [],
      "payable": false,
      "stateMutability": "nonpayable",
      "type": "function"
    },
    {
      "constant": true,
      "inputs": [],
      "name": "creatorPercentage",
      "outputs": [
        {
          "name": "",
          "type": "uint256"
        }
      ],
      "payable": false,
      "stateMutability": "view",
      "type": "function"
    },
    {
      "constant": true,
      "inputs": [],
      "name": "maintainerPercentage",
      "outputs": [
        {
          "name": "",
          "type": "uint256"
        }
      ],
      "payable": false,
      "stateMutability": "view",
      "type": "function"
    },
    {
      "constant": false,
      "inputs": [
        {
          "name": "newOwner",
          "type": "address"
        }
      ],
      "name": "transferOwnership",
      "outputs": [],
      "payable": false,
      "stateMutability": "nonpayable",
      "type": "function"
    },
    {
      "anonymous": false,
      "inputs": [
        {
          "indexed": true,
          "name": "_creator",
          "type": "address"
        }
      ],
      "name": "WhitelistCreator",
      "type": "event"
    },
    {
      "anonymous": false,
      "inputs": [
        {
          "indexed": true,
          "name": "_bidder",
          "type": "address"
        },
        {
          "indexed": true,
          "name": "_amount",
          "type": "uint256"
        },
        {
          "indexed": true,
          "name": "_tokenId",
          "type": "uint256"
        }
      ],
      "name": "Bid",
      "type": "event"
    },
    {
      "anonymous": false,
      "inputs": [
        {
          "indexed": true,
          "name": "_bidder",
          "type": "address"
        },
        {
          "indexed": true,
          "name": "_seller",
          "type": "address"
        },
        {
          "indexed": false,
          "name": "_amount",
          "type": "uint256"
        },
        {
          "indexed": true,
          "name": "_tokenId",
          "type": "uint256"
        }
      ],
      "name": "AcceptBid",
      "type": "event"
    },
    {
      "anonymous": false,
      "inputs": [
        {
          "indexed": true,
          "name": "_bidder",
          "type": "address"
        },
        {
          "indexed": true,
          "name": "_amount",
          "type": "uint256"
        },
        {
          "indexed": true,
          "name": "_tokenId",
          "type": "uint256"
        }
      ],
      "name": "CancelBid",
      "type": "event"
    },
    {
      "anonymous": false,
      "inputs": [
        {
          "indexed": true,
          "name": "_buyer",
          "type": "address"
        },
        {
          "indexed": true,
          "name": "_seller",
          "type": "address"
        },
        {
          "indexed": false,
          "name": "_amount",
          "type": "uint256"
        },
        {
          "indexed": true,
          "name": "_tokenId",
          "type": "uint256"
        }
      ],
      "name": "Sold",
      "type": "event"
    },
    {
      "anonymous": false,
      "inputs": [
        {
          "indexed": true,
          "name": "_tokenId",
          "type": "uint256"
        },
        {
          "indexed": true,
          "name": "_price",
          "type": "uint256"
        }
      ],
      "name": "SalePriceSet",
      "type": "event"
    },
    {
      "anonymous": false,
      "inputs": [
        {
          "indexed": true,
          "name": "previousOwner",
          "type": "address"
        },
        {
          "indexed": true,
          "name": "newOwner",
          "type": "address"
        }
      ],
      "name": "OwnershipTransferred",
      "type": "event"
    },
    {
      "anonymous": false,
      "inputs": [
        {
          "indexed": true,
          "name": "_from",
          "type": "address"
        },
        {
          "indexed": true,
          "name": "_to",
          "type": "address"
        },
        {
          "indexed": false,
          "name": "_tokenId",
          "type": "uint256"
        }
      ],
      "name": "Transfer",
      "type": "event"
    },
    {
      "anonymous": false,
      "inputs": [
        {
          "indexed": true,
          "name": "_owner",
          "type": "address"
        },
        {
          "indexed": true,
          "name": "_approved",
          "type": "address"
        },
        {
          "indexed": false,
          "name": "_tokenId",
          "type": "uint256"
        }
      ],
      "name": "Approval",
      "type": "event"
    },
    {
      "constant": false,
      "inputs": [
        {
          "name": "_to",
          "type": "address"
        },
        {
          "name": "_tokenId",
          "type": "uint256"
        }
      ],
      "name": "transfer",
      "outputs": [],
      "payable": false,
      "stateMutability": "nonpayable",
      "type": "function"
    },
    {
      "constant": false,
      "inputs": [
        {
          "name": "_uri",
          "type": "string"
        }
      ],
      "name": "addNewToken",
      "outputs": [],
      "payable": false,
      "stateMutability": "nonpayable",
      "type": "function"
    },
    {
      "constant": false,
      "inputs": [
        {
          "name": "_uri",
          "type": "string"
        },
        {
          "name": "_editions",
          "type": "uint256"
        },
        {
          "name": "_salePrice",
          "type": "uint256"
        }
      ],
      "name": "addNewTokenWithEditions",
      "outputs": [],
      "payable": false,
      "stateMutability": "nonpayable",
      "type": "function"
    },
    {
      "constant": false,
      "inputs": [
        {
          "name": "_tokenId",
          "type": "uint256"
        }
      ],
      "name": "bid",
      "outputs": [],
      "payable": true,
      "stateMutability": "payable",
      "type": "function"
    },
    {
      "constant": false,
      "inputs": [
        {
          "name": "_tokenId",
          "type": "uint256"
        }
      ],
      "name": "acceptBid",
      "outputs": [],
      "payable": false,
      "stateMutability": "nonpayable",
      "type": "function"
    },
    {
      "constant": false,
      "inputs": [
        {
          "name": "_tokenId",
          "type": "uint256"
        }
      ],
      "name": "cancelBid",
      "outputs": [],
      "payable": false,
      "stateMutability": "nonpayable",
      "type": "function"
    },
    {
      "constant": false,
      "inputs": [
        {
          "name": "_tokenId",
          "type": "uint256"
        }
      ],
      "name": "buy",
      "outputs": [],
      "payable": true,
      "stateMutability": "payable",
      "type": "function"
    },
    {
      "constant": false,
      "inputs": [
        {
          "name": "_tokenId",
          "type": "uint256"
        },
        {
          "name": "_salePrice",
          "type": "uint256"
        }
      ],
      "name": "setSalePrice",
      "outputs": [],
      "payable": false,
      "stateMutability": "nonpayable",
      "type": "function"
    },
    {
      "constant": false,
      "inputs": [
        {
          "name": "_creator",
          "type": "address"
        }
      ],
      "name": "whitelistCreator",
      "outputs": [],
      "payable": false,
      "stateMutability": "nonpayable",
      "type": "function"
    },
    {
      "constant": false,
      "inputs": [
        {
          "name": "_percentage",
          "type": "uint256"
        }
      ],
      "name": "setMaintainerPercentage",
      "outputs": [],
      "payable": false,
      "stateMutability": "nonpayable",
      "type": "function"
    },
    {
      "constant": false,
      "inputs": [
        {
          "name": "_percentage",
          "type": "uint256"
        }
      ],
      "name": "setCreatorPercentage",
      "outputs": [],
      "payable": false,
      "stateMutability": "nonpayable",
      "type": "function"
    },
    {
      "constant": true,
      "inputs": [],
      "name": "name",
      "outputs": [
        {
          "name": "_name",
          "type": "string"
        }
      ],
      "payable": false,
      "stateMutability": "pure",
      "type": "function"
    },
    {
      "constant": true,
      "inputs": [],
      "name": "symbol",
      "outputs": [
        {
          "name": "_symbol",
          "type": "string"
        }
      ],
      "payable": false,
      "stateMutability": "pure",
      "type": "function"
    },
    {
      "constant": false,
      "inputs": [
        {
          "name": "_to",
          "type": "address"
        },
        {
          "name": "_tokenId",
          "type": "uint256"
        }
      ],
      "name": "approve",
      "outputs": [],
      "payable": false,
      "stateMutability": "nonpayable",
      "type": "function"
    },
    {
      "constant": true,
      "inputs": [
        {
          "name": "_creator",
          "type": "address"
        }
      ],
      "name": "isWhitelisted",
      "outputs": [
        {
          "name": "",
          "type": "bool"
        }
      ],
      "payable": false,
      "stateMutability": "view",
      "type": "function"
    },
    {
      "constant": true,
      "inputs": [
        {
          "name": "_tokenId",
          "type": "uint256"
        }
      ],
      "name": "tokenURI",
      "outputs": [
        {
          "name": "",
          "type": "string"
        }
      ],
      "payable": false,
      "stateMutability": "view",
      "type": "function"
    },
    {
      "constant": true,
      "inputs": [
        {
          "name": "_uri",
          "type": "string"
        }
      ],
      "name": "originalTokenOfUri",
      "outputs": [
        {
          "name": "",
          "type": "uint256"
        }
      ],
      "payable": false,
      "stateMutability": "view",
      "type": "function"
    },
    {
      "constant": true,
      "inputs": [
        {
          "name": "_tokenId",
          "type": "uint256"
        }
      ],
      "name": "currentBidDetailsOfToken",
      "outputs": [
        {
          "name": "",
          "type": "uint256"
        },
        {
          "name": "",
          "type": "address"
        }
      ],
      "payable": false,
      "stateMutability": "view",
      "type": "function"
    },
    {
      "constant": true,
      "inputs": [
        {
          "name": "_tokenId",
          "type": "uint256"
        }
      ],
      "name": "creatorOfToken",
      "outputs": [
        {
          "name": "",
          "type": "address"
        }
      ],
      "payable": false,
      "stateMutability": "view",
      "type": "function"
    },
    {
      "constant": true,
      "inputs": [
        {
          "name": "_tokenId",
          "type": "uint256"
        }
      ],
      "name": "salePriceOfToken",
      "outputs": [
        {
          "name": "",
          "type": "uint256"
        }
      ],
      "payable": false,
      "stateMutability": "view",
      "type": "function"
    }
  ],
  "bytecode": "0x6080604052601e600655606460075560058054600160a060020a031916331790556118be8061002f6000396000f30060806040526004361061017f5763ffffffff7c0100000000000000000000000000000000000000000000000000000000600035041663019871e98114610184578063053992c5146101e857806306fdde0314610203578063095ea7b31461028d57806318160ddd146102b15780631a289aea146102d85780632a6dd48f146103115780632b1fd58a146103455780633af32abf1461035d578063454a2ab3146103925780635a3f26721461039d5780635c68a5571461040e57806362f11dd2146104265780636352211e14610447578063653436fd1461045f57806370a08231146104b85780638da5cb5b146104d957806395d89b41146104ee5780639703ef35146105035780639f2a3c321461051b578063a9059cbb14610533578063b2e6ceeb14610557578063c0ec93e71461056f578063c87b56dd14610587578063d5da8d441461059f578063d96a094a146105b7578063d9856c21146105c2578063f071bf4f1461061b578063f2bf6b8c14610630578063f2fde38b14610645575b600080fd5b34801561019057600080fd5b506040805160206004803580820135601f81018490048402850184019095528484526101e69436949293602493928401919081908401838280828437509497505084359550505060209092013591506106669050565b005b3480156101f457600080fd5b506101e66004356024356107d1565b34801561020f57600080fd5b5061021861084f565b6040805160208082528351818301528351919283929083019185019080838360005b8381101561025257818101518382015260200161023a565b50505050905090810190601f16801561027f5780820380516001836020036101000a031916815260200191505b509250505060405180910390f35b34801561029957600080fd5b506101e6600160a060020a036004351660243561017f565b3480156102bd57600080fd5b506102c6610887565b60408051918252519081900360200190f35b3480156102e457600080fd5b506102f060043561088d565b60408051928352600160a060020a0390911660208301528051918290030190f35b34801561031d57600080fd5b506103296004356108b6565b60408051600160a060020a039092168252519081900360200190f35b34801561035157600080fd5b506101e66004356108d1565b34801561036957600080fd5b5061037e600160a060020a03600435166109d3565b604080519115158252519081900360200190f35b6101e66004356109f1565b3480156103a957600080fd5b506103be600160a060020a0360043516610a8c565b60408051602080825283518183015283519192839290830191858101910280838360005b838110156103fa5781810151838201526020016103e2565b505050509050019250505060405180910390f35b34801561041a57600080fd5b506101e6600435610af8565b34801561043257600080fd5b506101e6600160a060020a0360043516610b14565b34801561045357600080fd5b50610329600435610b77565b34801561046b57600080fd5b506040805160206004803580820135601f81018490048402850184019095528484526102c6943694929360249392840191908190840183828082843750949750610ba19650505050505050565b3480156104c457600080fd5b506102c6600160a060020a0360043516610c18565b3480156104e557600080fd5b50610329610c33565b3480156104fa57600080fd5b50610218610c42565b34801561050f57600080fd5b506101e6600435610c79565b34801561052757600080fd5b506102c6600435610d23565b34801561053f57600080fd5b506101e6600160a060020a0360043516602435610d35565b34801561056357600080fd5b506101e6600435610d87565b34801561057b57600080fd5b506101e6600435610db2565b34801561059357600080fd5b50610218600435610dce565b3480156105ab57600080fd5b50610329600435610e6f565b6101e6600435610e8a565b3480156105ce57600080fd5b506040805160206004803580820135601f81018490048402850184019095528484526101e6943694929360249392840191908190840183828082843750949750610f9e9650505050505050565b34801561062757600080fd5b506102c66110a3565b34801561063c57600080fd5b506102c66110a9565b34801561065157600080fd5b506101e6600160a060020a03600435166110af565b600080600085600d816040518082805190602001908083835b6020831061069e5780518252601f19909201916020918201910161067f565b51815160209384036101000a60001901801990921691161790529201948552506040519384900301909220541591506106d8905057600080fd5b336000908152600f602052604090205460ff1615156001146106f957600080fd5b6107038733611137565b935083600d886040518082805190602001908083835b602083106107385780518252601f199092019160209182019101610719565b51815160209384036101000a60001901801990921691161790529201948552506040519384900301909220929092555060009350505b858310156107c8576107808733611137565b6000818152600a602052604080822088905551919350869184917fe23ea816dce6d7f5c0b85cbd597e7c3b97b2453791152c0b94e5e5c5f314d2f091a360019092019161076e565b50505050505050565b600082336107de82610b77565b600160a060020a0316146107f157600080fd5b600084815260096020526040902054915081831161080e57600080fd5b6000848152600a602052604080822085905551849186917fe23ea816dce6d7f5c0b85cbd597e7c3b97b2453791152c0b94e5e5c5f314d2f09190a350505050565b60408051808201909152600881527f537570655261726500000000000000000000000000000000000000000000000060208201525b90565b60005490565b600081815260096020908152604080832054600890925290912054600160a060020a0316915091565b600090815260026020526040902054600160a060020a031690565b600080808084336108e182610b77565b600160a060020a0316146108f457600080fd5b600086815260096020908152604080832054600890925290912054909550600160a060020a0316935061092686610b77565b6000878152600b6020526040902054909350600160a060020a0316915061094e338588611198565b600554610968908690600160a060020a031684868a611262565b610971866113b8565b8583600160a060020a031685600160a060020a03167fd6deddb2e105b46d4644d24aac8c58493a0f107e7973b2fe8d8fa7931a2912be886040518082815260200191505060405180910390a450505060009283525050600a6020526040812055565b600160a060020a03166000908152600f602052604090205460ff1690565b80336109fc82610b77565b600160a060020a03161415610a1057600080fd5b610a19826113e1565b1515610a2457600080fd5b610a2d826113f5565b60008281526008602090815260408083208054600160a060020a0319163390811790915560099092528083203490819055905185939192917f19421268847f42dd61705778018ddfc43bcdce8517e7a630acb12f122c70948191a45050565b600160a060020a038116600090815260036020908152604091829020805483518184028101840190945280845260609392830182828015610aec57602002820191906000526020600020905b815481526020019060010190808311610ad8575b50505050509050919050565b600554600160a060020a03163314610b0f57600080fd5b600655565b600554600160a060020a03163314610b2b57600080fd5b600160a060020a0381166000818152600f6020526040808220805460ff19166001179055517f55eed0aed3ec6e015b9ad5e984675fe36c0ce3aebdcb70f467670773f19f7f8d9190a250565b600081815260016020526040812054600160a060020a0316801515610b9b57600080fd5b92915050565b600080600d836040518082805190602001908083835b60208310610bd65780518252601f199092019160209182019101610bb7565b51815160209384036101000a60001901801990921691161790529201948552506040519384900301909220549250610c119150829050610b77565b5092915050565b600160a060020a031660009081526003602052604090205490565b600554600160a060020a031681565b60408051808201909152600481527f5355505200000000000000000000000000000000000000000000000000000000602082015290565b600081815260086020526040812054600160a060020a031690338214610c9e57600080fd5b506000828152600960205260408082205490519091339183156108fc0291849190818181858888f19350505050158015610cdc573d6000803e3d6000fd5b50610ce6836113b8565b828183600160a060020a03167f09dcebe16a733e22cc47e4959c50d4f21624d9f1815db32c2e439fbbd7b3eda060405160405180910390a4505050565b6000908152600a602052604090205490565b8033610d4082610b77565b600160a060020a031614610d5357600080fd5b6000828152600e60209081526040808320805460ff19166001179055600a909152812055610d82338484611198565b505050565b610d91338261145b565b1515610d9c57600080fd5b610daf610da882610b77565b3383611198565b50565b600554600160a060020a03163314610dc957600080fd5b600755565b6060610dd982610b77565b506000828152600c602090815260409182902080548351601f600260001961010060018616150201909316929092049182018490048402810184019094528084529091830182828015610aec5780601f10610e4257610100808354040283529160200191610aec565b820191906000526020600020905b815481529060010190602001808311610e505750939695505050505050565b6000908152600b6020526040902054600160a060020a031690565b6000808080808533610e9b82610b77565b600160a060020a03161415610eaf57600080fd5b6000878152600a60205260409020549550349450339350610ecf87610b77565b6000888152600b6020526040812054919450600160a060020a0390911692508611610ef957600080fd5b85851015610f0657600080fd5b610f0f876113f5565b610f18876113b8565b610f23838589611198565b600554610f3d908690600160a060020a031684868b611262565b6000878152600a6020908152604080832092909255815187815291518992600160a060020a0380881693908916927f16dd16959a056953a63cf14bf427881e762e54f03d86b864efea8238dd3b822f9281900390910190a450505050505050565b600081600d816040518082805190602001908083835b60208310610fd35780518252601f199092019160209182019101610fb4565b51815160209384036101000a600019018019909216911617905292019485525060405193849003019092205415915061100d905057600080fd5b336000908152600f602052604090205460ff16151560011461102e57600080fd5b6110388333611137565b915081600d846040518082805190602001908083835b6020831061106d5780518252601f19909201916020918201910161104e565b51815160209384036101000a60001901801990921691161790529201948552506040519384900301909220929092555050505050565b60075481565b60065481565b600554600160a060020a031633146110c657600080fd5b600160a060020a03811615156110db57600080fd5b600554604051600160a060020a038084169216907f8be0079c531659141344cd1fd0a4f28419497f9722a3daafe3b4186f6b6457e090600090a360058054600160a060020a031916600160a060020a0392909216919091179055565b600080611142610887565b60010190506111518382611481565b6000818152600b602090815260408083208054600160a060020a031916600160a060020a038816179055600c82529091208551611190928701906117da565b509392505050565b600160a060020a03821615156111ad57600080fd5b6111b681610b77565b600160a060020a03838116911614156111ce57600080fd5b82600160a060020a03166111e182610b77565b600160a060020a0316146111f457600080fd5b6111fe83826114e5565b6112088382611568565b61121282826116c6565b81600160a060020a031683600160a060020a03167fddf252ad1be2c89b69c2b068fc378daa952ba7f163c4a11628f55a4df523b3ef836040518082815260200191505060405180910390a3505050565b6000818152600e60205260408120548190819060ff16156112ea576112a46103e86112986006548b61177090919063ffffffff16565b9063ffffffff6117a216565b92506112c16103e86112986007548b61177090919063ffffffff16565b91506112e3836112d78a8563ffffffff6117b916565b9063ffffffff6117b916565b9050611309565b5050506000818152600e60205260408120805460ff1916600117905585815b604051600160a060020a0388169084156108fc029085906000818181858888f1935050505015801561133f573d6000803e3d6000fd5b50604051600160a060020a0387169083156108fc029084906000818181858888f19350505050158015611376573d6000803e3d6000fd5b50604051600160a060020a0386169082156108fc029083906000818181858888f193505050501580156113ad573d6000803e3d6000fd5b505050505050505050565b60009081526008602090815260408083208054600160a060020a03191690556009909152812055565b600090815260096020526040902054341190565b600081815260096020908152604080832054600890925290912054600160a060020a03168015610d8257604051600160a060020a0382169083156108fc029084906000818181858888f19350505050158015611455573d6000803e3d6000fd5b50505050565b600082600160a060020a0316611470836108b6565b600160a060020a0316149392505050565b600160a060020a038216151561149657600080fd5b6114a082826116c6565b604080518281529051600160a060020a038416916000917fddf252ad1be2c89b69c2b068fc378daa952ba7f163c4a11628f55a4df523b3ef9181900360200190a35050565b81600160a060020a03166114f882610b77565b600160a060020a03161461150b57600080fd5b60008181526002602090815260408083208054600160a060020a031916905580518481529051600160a060020a038616927f8c5be1e5ebec7d5bd14f71427d1e84f3dd0314c0f7b2291e5b200ac8c7c3b925928290030190a35050565b600080600084600160a060020a031661158085610b77565b600160a060020a03161461159357600080fd5b60008481526004602052604090205492506115b260016112d787610c18565b600160a060020a0386166000908152600360205260409020805491935090839081106115da57fe5b60009182526020808320909101548683526001825260408084208054600160a060020a0319169055600160a060020a038916845260039092529120805491925082918590811061162657fe5b6000918252602080832090910192909255600160a060020a038716815260039091526040812080548490811061165857fe5b6000918252602080832090910192909255600160a060020a038716815260039091526040902080549061168f906000198301611858565b506000848152600460205260408082208290558282528120849055546116bc90600163ffffffff6117b916565b6000555050505050565b600081815260016020526040812054600160a060020a0316156116e857600080fd5b60008281526001602052604090208054600160a060020a031916600160a060020a03851617905561171883610c18565b600160a060020a038416600090815260036020908152604080832080546001818101835591855283852001879055868452600490925282208390559054919250611768919063ffffffff6117cb16565b600055505050565b6000808315156117835760009150610c11565b5082820282848281151561179357fe5b041461179b57fe5b9392505050565b60008082848115156117b057fe5b04949350505050565b6000828211156117c557fe5b50900390565b60008282018381101561179b57fe5b828054600181600116156101000203166002900490600052602060002090601f016020900481019282601f1061181b57805160ff1916838001178555611848565b82800160010185558215611848579182015b8281111561184857825182559160200191906001019061182d565b50611854929150611878565b5090565b815481835581811115610d8257600083815260209020610d829181019083015b61088491905b80821115611854576000815560010161187e5600a165627a7a7230582015bbcaa1d38b243cede41d874d7a67a43c7ead5ce23c1aa0cb7faa8bbbf113820029",
  "source": "pragma solidity ^0.4.18;\n\n\nimport '../node_modules/zeppelin-solidity/contracts/token/ERC721/ERC721Token.sol';\nimport '../node_modules/zeppelin-solidity/contracts/ownership/Ownable.sol';\nimport '../node_modules/zeppelin-solidity/contracts/math/SafeMath.sol';\nimport './ERC721Metadata.sol';\n\ncontract SupeRare is ERC721Token, Ownable, ERC721Metadata {\n    using SafeMath for uint256;\n    \n    // Percentage to owner of SupeRare. (* 10) to allow for < 1% \n    uint256 public maintainerPercentage = 30; \n    \n    // Percentage to creator of artwork. (* 10) to allow for tens decimal. \n    uint256 public creatorPercentage = 100; \n    \n    // Mapping from token ID to the address bidding\n    mapping(uint256 => address) private tokenBidder;\n\n    // Mapping from token ID to the current bid amount\n    mapping(uint256 => uint256) private tokenCurrentBid;\n    \n    // Mapping from token ID to the owner sale price\n    mapping(uint256 => uint256) private tokenSalePrice;\n\n    // Mapping from token ID to the creator's address\n    mapping(uint256 => address) private tokenCreator;\n  \n    // Mapping from token ID to the metadata uri\n    mapping(uint256 => string) private tokenToURI;\n    \n    // Mapping from metadata uri to the token ID\n    mapping(string => uint256) private uriOriginalToken;\n    \n    // Mapping from token ID to whether the token has been sold before.\n    mapping(uint256 => bool) private tokenSold;\n\n    // Mapping of address to boolean indicating whether the add\n    mapping(address => bool) private creatorWhitelist;\n\n\n    event WhitelistCreator(address indexed _creator);\n    event Bid(address indexed _bidder, uint256 indexed _amount, uint256 indexed _tokenId);\n    event AcceptBid(address indexed _bidder, address indexed _seller, uint256 _amount, uint256 indexed _tokenId);\n    event CancelBid(address indexed _bidder, uint256 indexed _amount, uint256 indexed _tokenId);\n    event Sold(address indexed _buyer, address indexed _seller, uint256 _amount, uint256 indexed _tokenId);\n    event SalePriceSet(uint256 indexed _tokenId, uint256 indexed _price);\n\n    /**\n     * @dev Guarantees _uri has not been used with a token already\n     * @param _uri string of the metadata uri associated with the token\n     */\n    modifier uniqueURI(string _uri) {\n        require(uriOriginalToken[_uri] == 0);\n        _;\n    }\n\n    /**\n     * @dev Guarantees msg.sender is not the owner of the given token\n     * @param _tokenId uint256 ID of the token to validate its ownership does not belongs to msg.sender\n     */\n    modifier notOwnerOf(uint256 _tokenId) {\n        require(ownerOf(_tokenId) != msg.sender);\n        _;\n    }\n\n    /**\n     * @dev Guarantees msg.sender is a whitelisted creator of SupeRare\n     */\n    modifier onlyCreator() {\n        require(creatorWhitelist[msg.sender] == true);\n        _;\n    }\n\n    /**\n     * @dev Transfers the ownership of a given token ID to another address.\n     * Sets the token to be on its second sale.\n     * @param _to address to receive the ownership of the given token ID\n     * @param _tokenId uint256 ID of the token to be transferred\n     */\n    function transfer(address _to, uint256 _tokenId) public onlyOwnerOf(_tokenId) {\n        tokenSold[_tokenId] = true;\n        tokenSalePrice[_tokenId] = 0;\n        clearApprovalAndTransfer(msg.sender, _to, _tokenId);\n    }\n\n    /**\n     * @dev Adds a new unique token to the supply\n     * @param _uri string metadata uri associated with the token\n     */\n    function addNewToken(string _uri) public uniqueURI(_uri) onlyCreator {\n        uint256 newId = createToken(_uri, msg.sender);\n        uriOriginalToken[_uri] = newId;\n    }\n\n    /**\n     * @dev Adds a new unique token to the supply with N editions. The sale price is set for all editions\n     * @param _uri string metadata uri associated with the token.\n     * @param _editions uint256 number of editions to create.\n     * @param _salePrice uint256 wei price of editions.\n     */\n    function addNewTokenWithEditions(string _uri, uint256 _editions, uint256 _salePrice) public uniqueURI(_uri) onlyCreator {\n      uint256 originalId = createToken(_uri, msg.sender);\n      uriOriginalToken[_uri] = originalId;\n\n      for (uint256 i=0; i<_editions; i++){\n        uint256 newId = createToken(_uri, msg.sender);\n        tokenSalePrice[newId] = _salePrice;\n        SalePriceSet(newId, _salePrice);\n      }\n    }\n\n    /**\n    * @dev Bids on the token, replacing the bid if the bid is higher than the current bid. You cannot bid on a token you already own.\n    * @param _tokenId uint256 ID of the token to bid on\n    */\n    function bid(uint256 _tokenId) public payable notOwnerOf(_tokenId) {\n        require(isGreaterBid(_tokenId));\n        returnCurrentBid(_tokenId);\n        tokenBidder[_tokenId] = msg.sender;\n        tokenCurrentBid[_tokenId] = msg.value;\n        Bid(msg.sender, msg.value, _tokenId);\n    }\n\n    /**\n     * @dev Accept the bid on the token, transferring ownership to the current bidder and paying out the owner.\n     * @param _tokenId uint256 ID of the token with the standing bid\n     */\n    function acceptBid(uint256 _tokenId) public onlyOwnerOf(_tokenId) {\n        uint256 currentBid = tokenCurrentBid[_tokenId];\n        address currentBidder = tokenBidder[_tokenId];\n        address tokenOwner = ownerOf(_tokenId);\n        address creator = tokenCreator[_tokenId];\n        clearApprovalAndTransfer(msg.sender, currentBidder, _tokenId);\n        payout(currentBid, owner, creator, tokenOwner, _tokenId);\n        clearBid(_tokenId);\n        AcceptBid(currentBidder, tokenOwner, currentBid, _tokenId);\n        tokenSalePrice[_tokenId] = 0;\n    }\n    \n    /**\n     * @dev Cancels the bid on the token, returning the bid amount to the bidder.\n     * @param _tokenId uint256 ID of the token with a bid\n     */\n    function cancelBid(uint256 _tokenId) public {\n        address bidder = tokenBidder[_tokenId];\n        require(msg.sender == bidder);\n        uint256 bidAmount = tokenCurrentBid[_tokenId];\n        msg.sender.transfer(bidAmount);\n        clearBid(_tokenId);\n        CancelBid(bidder, bidAmount, _tokenId);\n    }\n    \n    /**\n     * @dev Purchase the token if there is a sale price; transfers ownership to buyer and pays out owner.\n     * @param _tokenId uint256 ID of the token to be purchased\n     */\n    function buy(uint256 _tokenId) public payable notOwnerOf(_tokenId) {\n        uint256 salePrice = tokenSalePrice[_tokenId];\n        uint256 sentPrice = msg.value;\n        address buyer = msg.sender;\n        address tokenOwner = ownerOf(_tokenId);\n        address creator = tokenCreator[_tokenId];\n        require(salePrice > 0);\n        require(sentPrice >= salePrice);\n        returnCurrentBid(_tokenId);\n        clearBid(_tokenId);\n        clearApprovalAndTransfer(tokenOwner, buyer, _tokenId);\n        payout(sentPrice, owner, creator, tokenOwner, _tokenId);\n        tokenSalePrice[_tokenId] = 0;\n        Sold(buyer, tokenOwner, sentPrice, _tokenId);\n    }\n\n    /**\n     * @dev Set the sale price of the token\n     * @param _tokenId uint256 ID of the token with the standing bid\n     */\n    function setSalePrice(uint256 _tokenId, uint256 _salePrice) public onlyOwnerOf(_tokenId) {\n        uint256 currentBid = tokenCurrentBid[_tokenId];\n        require(_salePrice > currentBid);\n        tokenSalePrice[_tokenId] = _salePrice;\n        SalePriceSet(_tokenId, _salePrice);\n    }\n\n    /**\n     * @dev Adds the provided address to the whitelist of creators\n     * @param _creator address to be added to the whitelist\n     */\n    function whitelistCreator(address _creator) public onlyOwner {\n      creatorWhitelist[_creator] = true;\n      WhitelistCreator(_creator);\n    }\n    \n    /**\n     * @dev Set the maintainer Percentage. Needs to be 10 * target percentage\n     * @param _percentage uint256 percentage * 10.\n     */\n    function setMaintainerPercentage(uint256 _percentage) public onlyOwner() {\n       maintainerPercentage = _percentage;\n    }\n    \n    /**\n     * @dev Set the creator Percentage. Needs to be 10 * target percentage\n     * @param _percentage uint256 percentage * 10.\n     */\n    function setCreatorPercentage(uint256 _percentage) public onlyOwner() {\n       creatorPercentage = _percentage;\n    }\n    \n    /**\n     * @notice A descriptive name for a collection of NFTs in this contract\n     */\n    function name() external pure returns (string _name) {\n        return 'SupeRare';\n    }\n\n    /**\n     * @notice An abbreviated name for NFTs in this contract\n     */\n    function symbol() external pure returns (string _symbol) {\n        return 'SUPR';\n    }\n\n    /**\n     * @notice approve is not a supported function for this contract\n     */\n    function approve(address _to, uint256 _tokenId) public {\n        revert();\n    }\n\n    /** \n     * @dev Returns whether the creator is whitelisted\n     * @param _creator address to check\n     * @return bool \n     */\n    function isWhitelisted(address _creator) external view returns (bool) {\n      return creatorWhitelist[_creator];\n    }\n\n    /** \n     * @notice A distinct Uniform Resource Identifier (URI) for a given asset.\n     * @dev Throws if `_tokenId` is not a valid NFT. URIs are defined in RFC\n     * 3986. The URI may point to a JSON file that conforms to the \"ERC721\n     * Metadata JSON Schema\".\n     */\n    function tokenURI(uint256 _tokenId) external view returns (string) {\n        ownerOf(_tokenId);\n        return tokenToURI[_tokenId];\n    }\n\n    /**\n    * @dev Gets the specified token ID of the uri. It only\n    * returns ids of originals.\n    * Throw if not connected to a token ID.\n    * @param _uri string uri of metadata\n    * @return uint256 token ID\n    */\n    function originalTokenOfUri(string _uri) public view returns (uint256) {\n        uint256 tokenId = uriOriginalToken[_uri];\n        ownerOf(tokenId);\n        return tokenId;\n    }\n\n    /**\n    * @dev Gets the current bid and bidder of the token\n    * @param _tokenId uint256 ID of the token to get bid details\n    * @return bid amount and bidder address of token\n    */\n    function currentBidDetailsOfToken(uint256 _tokenId) public view returns (uint256, address) {\n        return (tokenCurrentBid[_tokenId], tokenBidder[_tokenId]);\n    }\n\n    /**\n    * @dev Gets the creator of the token\n    * @param _tokenId uint256 ID of the token\n    * @return address of the creator\n    */\n    function creatorOfToken(uint256 _tokenId) public view returns (address) {\n        return tokenCreator[_tokenId];\n    }\n    \n    /**\n    * @dev Gets the sale price of the token\n    * @param _tokenId uint256 ID of the token\n    * @return sale price of the token\n    */\n    function salePriceOfToken(uint256 _tokenId) public view returns (uint256) {\n        return tokenSalePrice[_tokenId];\n    }\n    \n    /**\n    * @dev Internal function to return funds to current bidder.\n    * @param _tokenId uint256 ID of the token with the standing bid\n    */\n    function returnCurrentBid(uint256 _tokenId) private {\n        uint256 currentBid = tokenCurrentBid[_tokenId];\n        address currentBidder = tokenBidder[_tokenId];\n        if(currentBidder != address(0)) {\n            currentBidder.transfer(currentBid);\n        }\n    }\n    \n    /**\n    * @dev Internal function to check that the bid is larger than current bid\n    * @param _tokenId uint256 ID of the token with the standing bid\n    */\n    function isGreaterBid(uint256 _tokenId) private view returns (bool) {\n        return msg.value > tokenCurrentBid[_tokenId];\n    }\n    \n    /**\n    * @dev Internal function to clear bid\n    * @param _tokenId uint256 ID of the token with the standing bid\n    */\n    function clearBid(uint256 _tokenId) private {\n        tokenBidder[_tokenId] = address(0);\n        tokenCurrentBid[_tokenId] = 0;\n    }\n    \n    /**\n    * @dev Internal function to pay the bidder, creator, and maintainer\n    * @param _val uint256 value to be split\n    * @param _maintainer address of account maintaining SupeRare\n    * @param _creator address of the creator of token\n    * @param _maintainer address of the owner of token\n    */\n    function payout(uint256 _val, address _maintainer, address _creator, address _tokenOwner, uint256 _tokenId) private {\n        uint256 maintainerPayment;\n        uint256 creatorPayment;\n        uint256 ownerPayment;\n        if (tokenSold[_tokenId]) {\n            maintainerPayment = _val.mul(maintainerPercentage).div(1000);\n            creatorPayment = _val.mul(creatorPercentage).div(1000);\n            ownerPayment = _val.sub(creatorPayment).sub(maintainerPayment); \n        } else {\n            maintainerPayment = 0;\n            creatorPayment = _val;\n            ownerPayment = 0;\n            tokenSold[_tokenId] = true;\n        }\n        _maintainer.transfer(maintainerPayment);\n        _creator.transfer(creatorPayment);\n        _tokenOwner.transfer(ownerPayment);\n      \n    }\n\n    /**\n     * @dev Internal function creating a new token.\n     * @param _uri string metadata uri associated with the token\n     */\n    function createToken(string _uri, address _creator) private  returns (uint256){\n      uint256 newId = totalSupply() + 1;\n      _mint(_creator, newId);\n      tokenCreator[newId] = _creator;\n      tokenToURI[newId] = _uri;\n      return newId;\n    }\n\n}\n",
  "sourcePath": "/Users/jcrain/Dev/Pixura/pixura-contracts/truffle/contracts/SuperRare.sol",
  "compiler": {
    "name": "solc",
    "version": "0.4.24+commit.e67f0147.Emscripten.clang"
  },
  "schemaVersion": "2.0.1",
  "updatedAt": "2019-08-06T18:19:35.667Z"
}