{
  "contractName": "SuperRareMarketAuction",
  "abi": [
    {
      "constant": false,
      "inputs": [],
      "name": "renounceOwnership",
      "outputs": [],
      "payable": false,
      "stateMutability": "nonpayable",
      "type": "function"
    },
    {
      "constant": true,
      "inputs": [],
      "name": "owner",
      "outputs": [
        {
          "name": "",
          "type": "address"
        }
      ],
      "payable": false,
      "stateMutability": "view",
      "type": "function"
    },
    {
      "constant": true,
      "inputs": [],
      "name": "isOwner",
      "outputs": [
        {
          "name": "",
          "type": "bool"
        }
      ],
      "payable": false,
      "stateMutability": "view",
      "type": "function"
    },
    {
      "constant": false,
      "inputs": [
        {
          "name": "newOwner",
          "type": "address"
        }
      ],
      "name": "transferOwnership",
      "outputs": [],
      "payable": false,
      "stateMutability": "nonpayable",
      "type": "function"
    },
    {
      "anonymous": false,
      "inputs": [
        {
          "indexed": true,
          "name": "_originContract",
          "type": "address"
        },
        {
          "indexed": true,
          "name": "_buyer",
          "type": "address"
        },
        {
          "indexed": true,
          "name": "_seller",
          "type": "address"
        },
        {
          "indexed": false,
          "name": "_amount",
          "type": "uint256"
        },
        {
          "indexed": false,
          "name": "_tokenId",
          "type": "uint256"
        }
      ],
      "name": "Sold",
      "type": "event"
    },
    {
      "anonymous": false,
      "inputs": [
        {
          "indexed": true,
          "name": "_originContract",
          "type": "address"
        },
        {
          "indexed": false,
          "name": "_amount",
          "type": "uint256"
        },
        {
          "indexed": false,
          "name": "_tokenId",
          "type": "uint256"
        }
      ],
      "name": "SetSalePrice",
      "type": "event"
    },
    {
      "anonymous": false,
      "inputs": [
        {
          "indexed": true,
          "name": "_originContract",
          "type": "address"
        },
        {
          "indexed": true,
          "name": "_bidder",
          "type": "address"
        },
        {
          "indexed": false,
          "name": "_amount",
          "type": "uint256"
        },
        {
          "indexed": false,
          "name": "_tokenId",
          "type": "uint256"
        }
      ],
      "name": "Bid",
      "type": "event"
    },
    {
      "anonymous": false,
      "inputs": [
        {
          "indexed": true,
          "name": "_originContract",
          "type": "address"
        },
        {
          "indexed": true,
          "name": "_bidder",
          "type": "address"
        },
        {
          "indexed": true,
          "name": "_seller",
          "type": "address"
        },
        {
          "indexed": false,
          "name": "_amount",
          "type": "uint256"
        },
        {
          "indexed": false,
          "name": "_tokenId",
          "type": "uint256"
        }
      ],
      "name": "AcceptBid",
      "type": "event"
    },
    {
      "anonymous": false,
      "inputs": [
        {
          "indexed": true,
          "name": "_originContract",
          "type": "address"
        },
        {
          "indexed": true,
          "name": "_bidder",
          "type": "address"
        },
        {
          "indexed": false,
          "name": "_amount",
          "type": "uint256"
        },
        {
          "indexed": false,
          "name": "_tokenId",
          "type": "uint256"
        }
      ],
      "name": "CancelBid",
      "type": "event"
    },
    {
      "anonymous": false,
      "inputs": [
        {
          "indexed": true,
          "name": "previousOwner",
          "type": "address"
        },
        {
          "indexed": true,
          "name": "newOwner",
          "type": "address"
        }
      ],
      "name": "OwnershipTransferred",
      "type": "event"
    },
    {
      "constant": false,
      "inputs": [
        {
          "name": "_originContract",
          "type": "address"
        },
        {
          "name": "_tokenId",
          "type": "uint256"
        },
        {
          "name": "_amount",
          "type": "uint256"
        }
      ],
      "name": "setSalePrice",
      "outputs": [],
      "payable": true,
      "stateMutability": "payable",
      "type": "function"
    },
    {
      "constant": false,
      "inputs": [
        {
          "name": "_originContract",
          "type": "address"
        },
        {
          "name": "_tokenId",
          "type": "uint256"
        }
      ],
      "name": "buy",
      "outputs": [],
      "payable": true,
      "stateMutability": "payable",
      "type": "function"
    },
    {
      "constant": true,
      "inputs": [
        {
          "name": "_originContract",
          "type": "address"
        },
        {
          "name": "_tokenId",
          "type": "uint256"
        }
      ],
      "name": "tokenPrice",
      "outputs": [
        {
          "name": "",
          "type": "uint256"
        }
      ],
      "payable": false,
      "stateMutability": "view",
      "type": "function"
    },
    {
      "constant": false,
      "inputs": [
        {
          "name": "_newBidAmount",
          "type": "uint256"
        },
        {
          "name": "_originContract",
          "type": "address"
        },
        {
          "name": "_tokenId",
          "type": "uint256"
        }
      ],
      "name": "bid",
      "outputs": [],
      "payable": true,
      "stateMutability": "payable",
      "type": "function"
    },
    {
      "constant": false,
      "inputs": [
        {
          "name": "_originContract",
          "type": "address"
        },
        {
          "name": "_tokenId",
          "type": "uint256"
        }
      ],
      "name": "acceptBid",
      "outputs": [],
      "payable": false,
      "stateMutability": "nonpayable",
      "type": "function"
    },
    {
      "constant": false,
      "inputs": [
        {
          "name": "_originContract",
          "type": "address"
        },
        {
          "name": "_tokenId",
          "type": "uint256"
        }
      ],
      "name": "cancelBid",
      "outputs": [],
      "payable": false,
      "stateMutability": "nonpayable",
      "type": "function"
    },
    {
      "constant": true,
      "inputs": [
        {
          "name": "_originContract",
          "type": "address"
        },
        {
          "name": "_tokenId",
          "type": "uint256"
        }
      ],
      "name": "currentBidDetailsOfToken",
      "outputs": [
        {
          "name": "",
          "type": "uint256"
        },
        {
          "name": "",
          "type": "address"
        }
      ],
      "payable": false,
      "stateMutability": "view",
      "type": "function"
    }
  ],
  "bytecode": "0x6080604081905260036006819055600755600f60085560008054600160a060020a0319163317808255600160a060020a0316917f8be0079c531659141344cd1fd0a4f28419497f9722a3daafe3b4186f6b6457e0908290a3611bc4806100666000396000f3006080604052600436106100955763ffffffff60e060020a60003504166314df85e9811461009a57806339b6b1e5146100df578063508c1dbd14610105578063715018a61461011f5780638da5cb5b146101345780638f32d59b14610165578063916c03ba1461018e578063955a5a76146101c4578063c0f4ed31146101e8578063cce7ec1314610202578063f2fde38b14610219575b600080fd5b3480156100a657600080fd5b506100be600160a060020a036004351660243561023a565b60408051928352600160a060020a0390911660208301528051918290030190f35b3480156100eb57600080fd5b50610103600160a060020a036004351660243561027b565b005b610103600160a060020a036004351660243560443561038d565b34801561012b57600080fd5b5061010361069e565b34801561014057600080fd5b50610149610708565b60408051600160a060020a039092168252519081900360200190f35b34801561017157600080fd5b5061017a610717565b604080519115158252519081900360200190f35b34801561019a57600080fd5b506101b2600160a060020a0360043516602435610728565b60408051918252519081900360200190f35b3480156101d057600080fd5b50610103600160a060020a0360043516602435610750565b610103600435600160a060020a0360243516604435610b76565b610103600160a060020a0360043516602435610e51565b34801561022557600080fd5b50610103600160a060020a03600435166112b3565b600160a060020a0391821660008181526004602090815260408083208584528252808320549383526005825280832094835293905291909120549092911690565b3360006102898285856112d2565b1515610305576040805160e560020a62461bcd02815260206004820152602e60248201527f43616e6e6f742063616e63656c2061206269642069662073656e64657220686160448201527f736e2774206d616465206f6e652e000000000000000000000000000000000000606482015290519081900360840190fd5b50600160a060020a038316600090815260046020908152604080832085845290915290205461033484846112fe565b81600160a060020a031684600160a060020a03167f99a3761c98d7a0c3980cbeb3d8009b315a463f8020b43ca1e6901611b06547f98386604051808381526020018281526020019250505060405180910390a350505050565b828260008083915081600160a060020a0316636352211e846040518263ffffffff1660e060020a02815260040180828152602001915050602060405180830381600087803b1580156103de57600080fd5b505af11580156103f2573d6000803e3d6000fd5b505050506040513d602081101561040857600080fd5b5051604080517fe985e9c5000000000000000000000000000000000000000000000000000000008152600160a060020a03808416600483015230602483015291519293509084169163e985e9c5916044808201926020929091908290030181600087803b15801561047857600080fd5b505af115801561048c573d6000803e3d6000fd5b505050506040513d60208110156104a257600080fd5b50511515610520576040805160e560020a62461bcd02815260206004820152602160248201527f6f776e6572206d757374206861766520617070726f76656420636f6e7472616360448201527f7400000000000000000000000000000000000000000000000000000000000000606482015290519081900360840190fd5b8686600082905033600160a060020a031681600160a060020a0316636352211e846040518263ffffffff1660e060020a02815260040180828152602001915050602060405180830381600087803b15801561057a57600080fd5b505af115801561058e573d6000803e3d6000fd5b505050506040513d60208110156105a457600080fd5b5051600160a060020a031614610604576040805160e560020a62461bcd02815260206004820152601e60248201527f73656e646572206d7573742062652074686520746f6b656e206f776e65720000604482015290519081900360640190fd5b600160a060020a038a1660008181526001602090815260408083208d845282528083208c9055838352600282528083208d8452825291829020805473ffffffffffffffffffffffffffffffffffffffff19163317905581518b81529081018c905281517fb0b0e4adf2724af8f1646eae3a16f45d696c9334594729d09bf192da1f783871929181900390910190a250505050505050505050565b6106a6610717565b15156106b157600080fd5b60008054604051600160a060020a03909116907f8be0079c531659141344cd1fd0a4f28419497f9722a3daafe3b4186f6b6457e0908390a36000805473ffffffffffffffffffffffffffffffffffffffff19169055565b600054600160a060020a031690565b600054600160a060020a0316331490565b600160a060020a03919091166000908152600160209081526040808320938352929052205490565b6000806000848460008083915081600160a060020a0316636352211e846040518263ffffffff1660e060020a02815260040180828152602001915050602060405180830381600087803b1580156107a657600080fd5b505af11580156107ba573d6000803e3d6000fd5b505050506040513d60208110156107d057600080fd5b5051604080517fe985e9c5000000000000000000000000000000000000000000000000000000008152600160a060020a03808416600483015230602483015291519293509084169163e985e9c5916044808201926020929091908290030181600087803b15801561084057600080fd5b505af1158015610854573d6000803e3d6000fd5b505050506040513d602081101561086a57600080fd5b505115156108e8576040805160e560020a62461bcd02815260206004820152602160248201527f6f776e6572206d757374206861766520617070726f76656420636f6e7472616360448201527f7400000000000000000000000000000000000000000000000000000000000000606482015290519081900360840190fd5b8888600082905033600160a060020a031681600160a060020a0316636352211e846040518263ffffffff1660e060020a02815260040180828152602001915050602060405180830381600087803b15801561094257600080fd5b505af1158015610956573d6000803e3d6000fd5b505050506040513d602081101561096c57600080fd5b5051600160a060020a0316146109cc576040805160e560020a62461bcd02815260206004820152601e60248201527f73656e646572206d7573742062652074686520746f6b656e206f776e65720000604482015290519081900360640190fd5b6109d68c8c6113a6565b1515610a52576040805160e560020a62461bcd02815260206004820152602760248201527f43616e6e6f7420616363657074206120626964207768656e207468657265206960448201527f73206e6f6e652e00000000000000000000000000000000000000000000000000606482015290519081900360840190fd5b8b9950610a5f8c8c61023a565b98509850610a6e898d8d6113d0565b604080517f42842e0e000000000000000000000000000000000000000000000000000000008152336004820152600160a060020a038a81166024830152604482018e90529151918c16916342842e0e9160648082019260009290919082900301818387803b158015610adf57600080fd5b505af1158015610af3573d6000803e3d6000fd5b50505050610b018c8c61165e565b610b0b8c8c6116b5565b33600160a060020a031688600160a060020a03168d600160a060020a03167f2a9d06eec42acd217a17785dbec90b8b4f01a93ecd8c127edd36bfccf239f8b68c8f604051808381526020018281526020019250505060405180910390a4505050505050505050505050565b600080808080808811610bd3576040805160e560020a62461bcd02815260206004820152601160248201527f43616e6e6f74206269642030205765692e000000000000000000000000000000604482015290519081900360640190fd5b600160a060020a03871660009081526004602090815260408083208984529091529020549450848811610c76576040805160e560020a62461bcd02815260206004820152602860248201527f4d75737420706c6163652068696768657220626964207468616e20657869737460448201527f696e67206269642e000000000000000000000000000000000000000000000000606482015290519081900360840190fd5b610c7f8861170a565b88019350348414610d00576040805160e560020a62461bcd02815260206004820152602e60248201527f4d7573742070757263686173652074686520746f6b656e20666f72207468652060448201527f636f72726563742070726963652e000000000000000000000000000000000000606482015290519081900360840190fd5b86925082600160a060020a0316636352211e876040518263ffffffff1660e060020a02815260040180828152602001915050602060405180830381600087803b158015610d4c57600080fd5b505af1158015610d60573d6000803e3d6000fd5b505050506040513d6020811015610d7657600080fd5b50519150339050600160a060020a038216811415610dde576040805160e560020a62461bcd02815260206004820152601760248201527f4269646465722063616e6e6f74206265206f776e65722e000000000000000000604482015290519081900360640190fd5b610de887876112fe565b610df488828989611738565b80600160a060020a031687600160a060020a03167fd21fbaad97462831ad0c216f300fefb33a10b03bb18bb70ed668562e88d15d538a89604051808381526020018281526020019250505060405180910390a35050505050505050565b600080600080858560008083915081600160a060020a0316636352211e846040518263ffffffff1660e060020a02815260040180828152602001915050602060405180830381600087803b158015610ea857600080fd5b505af1158015610ebc573d6000803e3d6000fd5b505050506040513d6020811015610ed257600080fd5b5051604080517fe985e9c5000000000000000000000000000000000000000000000000000000008152600160a060020a03808416600483015230602483015291519293509084169163e985e9c5916044808201926020929091908290030181600087803b158015610f4257600080fd5b505af1158015610f56573d6000803e3d6000fd5b505050506040513d6020811015610f6c57600080fd5b50511515610fea576040805160e560020a62461bcd02815260206004820152602160248201527f6f776e6572206d757374206861766520617070726f76656420636f6e7472616360448201527f7400000000000000000000000000000000000000000000000000000000000000606482015290519081900360840190fd5b610ff48a8a6117f3565b600160a060020a038a1660009081526001602090815260408083208c845290915281205498508811611095576040805160e560020a62461bcd028152602060048201526024808201527f546f6b656e7320707269636564206174203020617265206e6f7420666f72207360448201527f616c652e00000000000000000000000000000000000000000000000000000000606482015290519081900360840190fd5b61109e8861170a565b8801965034871461111f576040805160e560020a62461bcd02815260206004820152602d60248201527f4d7573742070757263686173652074686520746f6b656e20666f72207468652060448201527f636f727265637420707269636500000000000000000000000000000000000000606482015290519081900360840190fd5b89955085600160a060020a0316636352211e8a6040518263ffffffff1660e060020a02815260040180828152602001915050602060405180830381600087803b15801561116b57600080fd5b505af115801561117f573d6000803e3d6000fd5b505050506040513d602081101561119557600080fd5b505194506111a4888b8b6113d0565b604080517f42842e0e000000000000000000000000000000000000000000000000000000008152600160a060020a038781166004830152336024830152604482018c90529151918816916342842e0e9160648082019260009290919082900301818387803b15801561121557600080fd5b505af1158015611229573d6000803e3d6000fd5b505050506112378a8a61165e565b611242338b8b6112d2565b15611251576112518a8a6112fe565b61125b8a8a61191b565b60408051898152602081018b90528151600160a060020a03808916933393918f16927f5764dbcef91eb6f946584f4ea671217c686fa7e858ce4f9f42d08422b86556a99281900390910190a450505050505050505050565b6112bb610717565b15156112c657600080fd5b6112cf8161197f565b50565b600160a060020a0391821660009081526005602090815260408083209383529290522054811691161490565b600160a060020a0380831660008181526005602090815260408083208684528252808320549383526004825280832086845290915281205491909216916113448261170a565b82019050600160a060020a038316151561135d5761139f565b61136785856116b5565b604051600160a060020a0384169082156108fc029083906000818181858888f1935050505015801561139d573d6000803e3d6000fd5b505b5050505050565b600160a060020a039182166000908152600560209081526040808320938352929052205416151590565b60008060008060008030600160a060020a0316638da5cb5b6040518163ffffffff1660e060020a028152600401602060405180830381600087803b15801561141757600080fd5b505af115801561142b573d6000803e3d6000fd5b505050506040513d602081101561144157600080fd5b5051604080517f40c1a064000000000000000000000000000000000000000000000000000000008152600481018a90529051919750600160a060020a038a16916340c1a064916024808201926020929091908290030181600087803b1580156114a957600080fd5b505af11580156114bd573d6000803e3d6000fd5b505050506040513d60208110156114d357600080fd5b5051604080517f6352211e000000000000000000000000000000000000000000000000000000008152600481018a90529051919650600160a060020a038a1691636352211e916024808201926020929091908290030181600087803b15801561153b57600080fd5b505af115801561154f573d6000803e3d6000fd5b505050506040513d602081101561156557600080fd5b505193506115748989896119fc565b9250611581898989611a72565b915061158e898989611ae0565b905060008311156115d157604051600160a060020a0387169084156108fc029085906000818181858888f193505050501580156115cf573d6000803e3d6000fd5b505b600082111561161257604051600160a060020a0385169083156108fc029084906000818181858888f19350505050158015611610573d6000803e3d6000fd5b505b600081111561165357604051600160a060020a0386169082156108fc029083906000818181858888f19350505050158015611651573d6000803e3d6000fd5b505b505050505050505050565b600160a060020a039091166000818152600160209081526040808320858452825280832083905592825260028152828220938252929092529020805473ffffffffffffffffffffffffffffffffffffffff19169055565b600160a060020a0390911660008181526005602090815260408083208584528252808320805473ffffffffffffffffffffffffffffffffffffffff191690559282526004815282822093825292909252812055565b6000611732606461172660065485611b3c90919063ffffffff16565b9063ffffffff611b7516565b92915050565b600160a060020a0383161515611798576040805160e560020a62461bcd02815260206004820152601b60248201527f4269646465722063616e6e6f74206265203020616464726573732e0000000000604482015290519081900360640190fd5b600160a060020a0391821660008181526005602090815260408083208584528252808320805473ffffffffffffffffffffffffffffffffffffffff191697909616969096179094559081526004835283812091815291522055565b600080600084925082600160a060020a0316636352211e856040518263ffffffff1660e060020a02815260040180828152602001915050602060405180830381600087803b15801561184457600080fd5b505af1158015611858573d6000803e3d6000fd5b505050506040513d602081101561186e57600080fd5b5051600160a060020a03808716600090815260026020908152604080832089845290915290205491935090811691508216811461139f576040805160e560020a62461bcd02815260206004820152602481018290527f43757272656e7420746f6b656e206f776e6572206d757374206265207468652060448201527f706572736f6e20746f206861766520746865206c61746573742070726963652e606482015290519081900360840190fd5b600160a060020a038216600090815260036020908152604080832084845290915290205460ff161561194c5761197b565b600160a060020a03821660009081526003602090815260408083208484529091529020805460ff191660011790555b5050565b600160a060020a038116151561199457600080fd5b60008054604051600160a060020a03808516939216917f8be0079c531659141344cd1fd0a4f28419497f9722a3daafe3b4186f6b6457e091a36000805473ffffffffffffffffffffffffffffffffffffffff1916600160a060020a0392909216919091179055565b600080600080611a0b8761170a565b600160a060020a038716600090815260036020908152604080832089845290915290205490935060ff161591508115611a6457611a5860646117266008548a611b3c90919063ffffffff16565b90508083019350611a68565b8293505b5050509392505050565b600160a060020a038216600090815260036020908152604080832084845290915281205460ff161581808215611ac857611abc60646117266008548a611b3c90919063ffffffff16565b91508187039350611a68565b611ad3878787611ae0565b9096039695505050505050565b600160a060020a038216600090815260036020908152604080832084845290915281205460ff16158015611b175760009150611b34565b611b31606461172660075488611b3c90919063ffffffff16565b91505b509392505050565b600080831515611b4f5760009150611b6e565b50828202828482811515611b5f57fe5b0414611b6a57600080fd5b8091505b5092915050565b600080808311611b8457600080fd5b8284811515611b8f57fe5b049493505050505600a165627a7a723058206d9733e8ef0cf47bd8a3b3de04d56ad4b623e1de3744f6e2dedf81ee1b995eb90029",
  "source": "pragma solidity ^0.4.24;\n\n\nimport \"../node_modules/openzeppelin-solidity/contracts/token/ERC721/IERC721.sol\";\nimport \"./IERC721Creator.sol\";\nimport \"../node_modules/openzeppelin-solidity/contracts/math/SafeMath.sol\";\nimport \"../node_modules/openzeppelin-solidity/contracts/ownership/Ownable.sol\";\n\ncontract SuperRareMarketAuction is Ownable {\n  using SafeMath for uint256;\n\n  /////////////////////////////////////////////////////////////////////////\n  // State Variables\n  /////////////////////////////////////////////////////////////////////////\n  // Mapping from ERC721 contract to mapping of tokenId to sale price\n  mapping (address => mapping (uint256 => uint256)) private tokenPrices;\n\n  // Mapping from ERC721 contract to mapping of tokenId to token owner that set the sale price.\n  mapping (address => mapping (uint256 => address)) private priceSetters;\n\n  // Mapping of ERC721 contract to mapping of token ID to whether the token has been sold before.\n  mapping (address => mapping (uint256 => bool)) private tokenSold;\n\n  // Mapping of ERC721 contract to mapping of token ID to the current bid amount\n  mapping (address => mapping (uint256 => uint256)) private tokenCurrentBids;\n\n  // Mapping of ERC721 contract to mapping of token ID to the current bid amount\n  mapping (address => mapping (uint256 => address)) private tokenCurrentBidders;\n\n  // Marketplace fee paid to the owner of the contract.\n  uint256 private marketplaceFee = 3; // 3 %\n\n  // Royalty fee paid to the creator of a token on secondary sales.\n  uint256 private royaltyFee = 3; // 3 %\n\n  // Primary sale fee split.\n  uint256 private primarySaleFee = 15; // 15 %\n\n  /////////////////////////////////////////////////////////////////////////////\n  // Events\n  /////////////////////////////////////////////////////////////////////////////\n  event Sold (\n    address indexed _originContract,\n    address indexed _buyer,\n    address indexed _seller,\n    uint256 _amount,\n    uint256 _tokenId\n  );\n\n  event SetSalePrice (\n    address indexed _originContract,\n    uint256 _amount,\n    uint256 _tokenId\n  );\n\n  event Bid (\n    address indexed _originContract,\n    address indexed _bidder,\n    uint256 _amount,\n    uint256 _tokenId\n  );\n\n  event AcceptBid (\n    address indexed _originContract,\n    address indexed _bidder,\n    address indexed _seller,\n    uint256 _amount,\n    uint256 _tokenId\n  );\n\n  event CancelBid (\n    address indexed _originContract,\n    address indexed _bidder,\n    uint256 _amount,\n    uint256 _tokenId\n  );\n\n  /////////////////////////////////////////////////////////////////////////\n  // Modifiers\n  /////////////////////////////////////////////////////////////////////////\n  /**\n   * @dev Checks that the token owner is approved for the ERC721Market\n   * @param _originContract address of the contract storing the token.\n   * @param _tokenId uint256 ID of the token\n   */\n  modifier ownerMustHaveMarketplaceApproved(address _originContract, uint256 _tokenId) {\n    IERC721 erc721 = IERC721(_originContract);\n    address owner = erc721.ownerOf(_tokenId);\n    require(erc721.isApprovedForAll(owner, this), \"owner must have approved contract\");\n    _;\n  }\n\n  /**\n   * @dev Checks that the token owned by the sender\n   * @param _originContract address of the contract storing the token.\n   * @param _tokenId uint256 ID of the token\n   */\n  modifier senderMustBeTokenOwner(address _originContract, uint256 _tokenId) {\n    IERC721 erc721 = IERC721(_originContract);\n    require(erc721.ownerOf(_tokenId) == msg.sender, \"sender must be the token owner\");\n    _;\n  }\n\n  /////////////////////////////////////////////////////////////////////////\n  // setSalePrice\n  /////////////////////////////////////////////////////////////////////////\n  /**\n   * @dev Set the token for sale\n   * @param _originContract address of the contract storing the token.\n   * @param _tokenId uint256 ID of the token\n   * @param _amount uint256 wei value that the item is for sale\n   */\n  function setSalePrice(\n    address _originContract,\n    uint256 _tokenId,\n    uint256 _amount\n  )\n    public\n    ownerMustHaveMarketplaceApproved(_originContract, _tokenId)\n    senderMustBeTokenOwner(_originContract, _tokenId)\n    payable\n  {\n    tokenPrices[_originContract][_tokenId] = _amount;\n    priceSetters[_originContract][_tokenId] = msg.sender;\n    emit SetSalePrice(_originContract, _amount, _tokenId);\n  }\n\n  /////////////////////////////////////////////////////////////////////////\n  // buy\n  /////////////////////////////////////////////////////////////////////////\n  /**\n   * @dev Purchases the token if it is for sale.\n   * @param _originContract address of the contract storing the token.\n   * @param _tokenId uint256 ID of the token.\n   */\n  function buy(\n    address _originContract,\n    uint256 _tokenId\n  )\n    public\n    ownerMustHaveMarketplaceApproved(_originContract, _tokenId)\n    payable\n  {\n    // Check that the person who set the price still owns the token.\n    _doesPriceSetterStillOwnTheToken(_originContract, _tokenId);\n\n    // Check that token is for sale.\n    uint256 tokenPrice = tokenPrices[_originContract][_tokenId];\n    require(tokenPrice > 0, \"Tokens priced at 0 are not for sale.\");\n\n    // Check that enough ether was sent.\n    uint256 requiredCost = tokenPrice + _calcMarketplaceFee(tokenPrice);\n    require(requiredCost == msg.value, \"Must purchase the token for the correct price\");\n\n    // Get token contract details.\n    IERC721 erc721 = IERC721(_originContract);\n    address tokenOwner = erc721.ownerOf(_tokenId);\n\n    // Payout all parties.\n    _payout(tokenPrice, _originContract, _tokenId);\n\n    // Transfer token.\n    erc721.safeTransferFrom(tokenOwner, msg.sender, _tokenId);\n\n    // Wipe the token price.\n    _resetTokenPrice(_originContract, _tokenId);\n\n    // if the buyer had an existing bid, return it\n    if (_addressHasBidOnToken(msg.sender, _originContract, _tokenId)) {\n      _refundBid(_originContract, _tokenId);\n    }\n\n    // set the token as sold\n    _setTokenAsSold(_originContract, _tokenId);\n\n    emit Sold(_originContract, msg.sender, tokenOwner, tokenPrice, _tokenId);\n  }\n\n  /////////////////////////////////////////////////////////////////////////\n  // tokenPrice\n  /////////////////////////////////////////////////////////////////////////\n  /**\n   * @dev Gets the sale price of the token\n   * @param _originContract address of the contract storing the token.\n   * @param _tokenId uint256 ID of the token\n   * @return sale price of the token\n   */\n  function tokenPrice(\n    address _originContract,\n    uint256 _tokenId\n  )\n    public view returns (uint256)\n  {\n    // TODO :: return 0 when owner is not price owner.\n    return tokenPrices[_originContract][_tokenId];\n  }\n\n  /////////////////////////////////////////////////////////////////////////\n  // bid\n  /////////////////////////////////////////////////////////////////////////\n  /**\n   * @dev Bids on the token, replacing the bid if the bid is higher than the current bid. You cannot bid on a token you already own.\n   * @param _newBidAmount uint256 value in wei to bid, plus marketplace fee.\n   * @param _originContract address of the contract storing the token.\n   * @param _tokenId uint256 ID of the token\n   */\n  function bid(\n    uint256 _newBidAmount,\n    address _originContract,\n    uint256 _tokenId\n  )\n    public\n    payable\n  {\n    // Check that bid is greater than 0.\n    require(_newBidAmount > 0, \"Cannot bid 0 Wei.\");\n\n    // Check that bid is higher than previous bid\n    uint256 currentBidAmount = tokenCurrentBids[_originContract][_tokenId];\n    require(_newBidAmount > currentBidAmount, \"Must place higher bid than existing bid.\");\n\n    // Check that enough ether was sent.\n    uint256 requiredCost = _newBidAmount + _calcMarketplaceFee(_newBidAmount);\n    require(requiredCost == msg.value, \"Must purchase the token for the correct price.\");\n\n    // Check that bidder is not owner.\n    IERC721 erc721 = IERC721(_originContract);\n    address tokenOwner = erc721.ownerOf(_tokenId);\n    address bidder = msg.sender;\n    require(tokenOwner != bidder, \"Bidder cannot be owner.\");\n\n    // Refund previous bidder.\n    _refundBid(_originContract, _tokenId);\n\n    // Set the new bid.\n    _setBid(_newBidAmount, bidder, _originContract, _tokenId);\n\n    emit Bid(_originContract, bidder, _newBidAmount, _tokenId);\n  }\n\n  /////////////////////////////////////////////////////////////////////////\n  // acceptBid\n  /////////////////////////////////////////////////////////////////////////\n  /**\n   * @dev Accept the bid on the token.\n   * @param _originContract address of the contract storing the token.\n   * @param _tokenId uint256 ID of the token\n   */\n  function acceptBid(\n    address _originContract,\n    uint256 _tokenId\n  )\n    public\n    ownerMustHaveMarketplaceApproved(_originContract, _tokenId)\n    senderMustBeTokenOwner(_originContract, _tokenId)\n  {\n    // Check that a bid exists.\n    require(_tokenHasBid(_originContract, _tokenId), \"Cannot accept a bid when there is none.\");\n\n    // Get token contract details.\n    IERC721 erc721 = IERC721(_originContract);\n\n    // Payout all parties.\n    (uint256 bidAmount, address bidder) = currentBidDetailsOfToken(_originContract, _tokenId);\n    _payout(bidAmount, _originContract, _tokenId);\n\n    // Transfer token.\n    erc721.safeTransferFrom(msg.sender, bidder, _tokenId);\n\n    // Wipe the token price and bid.\n    _resetTokenPrice(_originContract, _tokenId);\n    _resetBid(_originContract, _tokenId);\n\n    emit AcceptBid(_originContract, bidder, msg.sender, bidAmount, _tokenId);\n  }\n\n  /////////////////////////////////////////////////////////////////////////\n  // cancelBid\n  /////////////////////////////////////////////////////////////////////////\n  /**\n   * @dev Cancel the bid on the token.\n   * @param _originContract address of the contract storing the token.\n   * @param _tokenId uint256 ID of the token.\n   */\n  function cancelBid(\n    address _originContract,\n    uint256 _tokenId\n  )\n    public\n  {\n    // Check that a bid exists.\n    address bidder = msg.sender;\n    require(_addressHasBidOnToken(bidder, _originContract, _tokenId), \"Cannot cancel a bid if sender hasn't made one.\");\n    uint256 bidAmount = tokenCurrentBids[_originContract][_tokenId];\n\n    // Refund the bidder.\n    _refundBid(_originContract, _tokenId);\n\n    emit CancelBid(_originContract, bidder, bidAmount, _tokenId);\n  }\n\n  /////////////////////////////////////////////////////////////////////////\n  // currentBidDetailsOfToken\n  /////////////////////////////////////////////////////////////////////////\n  /**\n  * @dev Function to get current bid and bidder of a token.\n  * @param _originContract address of ERC721 contract.\n  * @param _tokenId uin256 id of the token.\n  */\n  function currentBidDetailsOfToken(\n    address _originContract,\n    uint256 _tokenId\n  )\n    public\n    view\n    returns (uint256, address)\n  {\n    return (tokenCurrentBids[_originContract][_tokenId], tokenCurrentBidders[_originContract][_tokenId]);\n  }\n\n  /////////////////////////////////////////////////////////////////////////\n  // _doesPriceSetterStillOwnTheToken\n  /////////////////////////////////////////////////////////////////////////\n  /**\n   * @dev Checks that the token is owned by the same person who set the sale price.\n   * @param _originContract address of the contract storing the token.\n   * @param _tokenId address of the contract storing the token.\n   */\n  function _doesPriceSetterStillOwnTheToken(\n    address _originContract,\n    uint256 _tokenId\n  )\n  internal view {\n    IERC721 erc721 = IERC721(_originContract);\n    address owner = erc721.ownerOf(_tokenId);\n    address priceSetter = priceSetters[_originContract][_tokenId];\n    require(owner == priceSetter, \"Current token owner must be the person to have the latest price.\");\n  }\n\n  /////////////////////////////////////////////////////////////////////////\n  // _payout\n  /////////////////////////////////////////////////////////////////////////\n  /**\n  * @dev Internal function to pay the bidder, creator, and maintainer.\n  * @param _amount uint256 value to be split.\n  * @param _originContract address of the token contract.\n  * @param _tokenId uint256 ID of the token.\n  */\n  function _payout(\n    uint256 _amount,\n    address _originContract,\n    uint256 _tokenId\n  )\n    private\n  {\n    address maintainer = this.owner();\n    address creator = IERC721Creator(_originContract).tokenCreator(_tokenId);\n    address seller = IERC721(_originContract).ownerOf(_tokenId);\n\n    uint256 marketplacePayment = _calcMarketplacePayment(_amount, _originContract, _tokenId);\n    uint256 sellerPayment = _calcSellerPayment(_amount, _originContract, _tokenId);\n    uint256 royaltyPayment = _calcRoyaltyPayment(_amount, _originContract, _tokenId);\n\n    if (marketplacePayment > 0) {\n      maintainer.transfer(marketplacePayment);\n    }\n    if (sellerPayment > 0) {\n      seller.transfer(sellerPayment);\n    }\n    if (royaltyPayment > 0) {\n      creator.transfer(royaltyPayment);\n    }\n  }\n\n  /////////////////////////////////////////////////////////////////////////\n  // _calcMarketplacePayment\n  /////////////////////////////////////////////////////////////////////////\n  /**\n  * @dev Internal function calculate Marketplace fees. \n  *      If primary sale:  fee + split with artist\n         otherwise:        just fee.\n  * @param _amount uint256 value to be split\n  * @param _originContract address of the token contract\n  * @param _tokenId id of the token\n  */\n  function _calcMarketplacePayment(\n    uint256 _amount,\n    address _originContract,\n    uint256 _tokenId\n  )\n    internal view returns (uint256) \n  {\n    uint256 marketplaceFeePayment = _calcMarketplaceFee(_amount);\n    bool isPrimarySale = !tokenSold[_originContract][_tokenId];\n    if (isPrimarySale) {\n      uint256 primarySalePayment = _amount.mul(primarySaleFee).div(100);\n      return marketplaceFeePayment + primarySalePayment;\n    }\n    return marketplaceFeePayment;\n  }\n  \n  /////////////////////////////////////////////////////////////////////////\n  // _calcRoyaltyPayment\n  /////////////////////////////////////////////////////////////////////////\n  /**\n  * @dev Internal function calculate royalty payment. \n  *      If primary sale: 0\n  *      otherwise:       artist royalty.\n  * @param _amount uint256 value to be split\n  * @param _originContract address of the token contract\n  * @param _tokenId id of the token\n  */\n  function _calcRoyaltyPayment(\n    uint256 _amount,\n    address _originContract,\n    uint256 _tokenId\n  ) \n    internal view returns (uint256) \n  {\n    bool isPrimarySale = !tokenSold[_originContract][_tokenId];\n    if (isPrimarySale) {\n      return 0;\n    }\n    return _amount.mul(royaltyFee).div(100);\n  }\n\n  /////////////////////////////////////////////////////////////////////////\n  // _calcSellerPayment\n  /////////////////////////////////////////////////////////////////////////\n  /**\n  * @dev Internal function calculate seller payment. \n  *      If primary sale: _amount - split with marketplace,\n  *      otherwise:       _amount - artist royalty.\n  * @param _amount uint256 value to be split\n  * @param _originContract address of the token contract\n  * @param _tokenId id of the token\n  */\n  function _calcSellerPayment(\n    uint256 _amount,\n    address _originContract,\n    uint256 _tokenId\n  ) \n    internal view returns (uint256) \n  {\n    bool isPrimarySale = !tokenSold[_originContract][_tokenId];\n    if (isPrimarySale) {\n      uint256 primarySalePayment = _amount.mul(primarySaleFee).div(100);\n      return _amount - primarySalePayment;\n    }\n    uint256 royaltyPayment = _calcRoyaltyPayment(_amount, _originContract, _tokenId);\n    return _amount - royaltyPayment;\n  }\n\n  /////////////////////////////////////////////////////////////////////////\n  // _calcMarketplaceFee\n  /////////////////////////////////////////////////////////////////////////\n  /**\n  * @dev Internal function calculate marketplace fee for a given amount. \n  *      f(_amount) =  _amount * (fee % / 100)\n  * @param _amount uint256 value to be split.\n  */\n  function _calcMarketplaceFee(\n    uint256 _amount\n  ) \n    internal view returns (uint256) \n  {\n    return _amount.mul(marketplaceFee).div(100);\n  }\n  \n  /////////////////////////////////////////////////////////////////////////\n  // _setTokenAsSold\n  /////////////////////////////////////////////////////////////////////////\n  /**\n  * @dev Internal function to set a token as sold.\n  * @param _originContract address of ERC721 contract.\n  * @param _tokenId uin256 id of the token.\n  */\n  function _setTokenAsSold(\n    address _originContract,\n    uint256 _tokenId\n  ) \n    internal\n  {\n    if (tokenSold[_originContract][_tokenId]) {\n      return;\n    }\n    tokenSold[_originContract][_tokenId] = true;\n  }\n\n  /////////////////////////////////////////////////////////////////////////\n  // _resetTokenPrice\n  /////////////////////////////////////////////////////////////////////////\n  /**\n  * @dev Internal function to set token price to 0 for a give contract.\n  * @param _originContract address of ERC721 contract.\n  * @param _tokenId uin256 id of the token.\n  */\n  function _resetTokenPrice(\n    address _originContract,\n    uint256 _tokenId\n  ) \n    internal\n  {\n    tokenPrices[_originContract][_tokenId] = 0;\n    priceSetters[_originContract][_tokenId] = address(0);\n  }\n\n\n  /////////////////////////////////////////////////////////////////////////\n  // _addressHasBidOnToken\n  /////////////////////////////////////////////////////////////////////////\n  /**\n  * @dev Internal function see if the given address has an existing bid on a token.\n  * @param _bidder address that may have a current bid.\n  * @param _originContract address of ERC721 contract.\n  * @param _tokenId uin256 id of the token.\n  */\n  function _addressHasBidOnToken(\n    address _bidder,\n    address _originContract,\n    uint256 _tokenId\n  ) \n    internal view returns (bool)\n  {\n    return tokenCurrentBidders[_originContract][_tokenId] == _bidder;\n  }\n\n  /////////////////////////////////////////////////////////////////////////\n  // _tokenHasBid\n  /////////////////////////////////////////////////////////////////////////\n  /**\n  * @dev Internal function see if the token has an existing bid.\n  * @param _originContract address of ERC721 contract.\n  * @param _tokenId uin256 id of the token.\n  */\n  function _tokenHasBid(\n    address _originContract,\n    uint256 _tokenId\n  ) \n    internal view returns (bool) \n  {\n    return tokenCurrentBidders[_originContract][_tokenId] != address(0);\n  }\n\n  /////////////////////////////////////////////////////////////////////////\n  // _refundBid\n  /////////////////////////////////////////////////////////////////////////\n  /**\n  * @dev Internal function to return an existing bid on a token to the \n  *      bidder and reset bid.\n  * @param _originContract address of ERC721 contract.\n  * @param _tokenId uin256 id of the token.\n  */\n  function _refundBid(\n    address _originContract,\n    uint256 _tokenId\n  ) \n    internal \n  {\n    address currentBidder = tokenCurrentBidders[_originContract][_tokenId];\n    uint256 currentBid = tokenCurrentBids[_originContract][_tokenId];\n    uint256 valueToReturn = currentBid + _calcMarketplaceFee(currentBid);\n    if (currentBidder == address(0)) {\n      return;\n    }\n    _resetBid(_originContract, _tokenId);\n    currentBidder.transfer(valueToReturn);\n  }\n\n  /////////////////////////////////////////////////////////////////////////\n  // _resetBid\n  /////////////////////////////////////////////////////////////////////////\n  /**\n  * @dev Internal function to reset bid by setting bidder and bid to 0.\n  * @param _originContract address of ERC721 contract.\n  * @param _tokenId uin256 id of the token.\n  */\n  function _resetBid(\n    address _originContract,\n    uint256 _tokenId\n  ) \n    internal \n  {\n    tokenCurrentBidders[_originContract][_tokenId] = address(0);\n    tokenCurrentBids[_originContract][_tokenId] = 0;\n  }\n\n  /////////////////////////////////////////////////////////////////////////\n  // _setBid\n  /////////////////////////////////////////////////////////////////////////\n  /**\n  * @dev Internal function to set a bid.\n  * @param _amount uint256 value in wei to bid. Does not include marketplace fee.\n  * @param _bidder address of the bidder.\n  * @param _originContract address of ERC721 contract.\n  * @param _tokenId uin256 id of the token.\n  */\n  function _setBid(\n    uint256 _amount,\n    address _bidder,\n    address _originContract,\n    uint256 _tokenId\n  ) \n    internal \n  {\n    // Check bidder not 0 address.\n    require(_bidder != address(0), \"Bidder cannot be 0 address.\");\n\n    // Set bid.\n    tokenCurrentBidders[_originContract][_tokenId] = _bidder;\n    tokenCurrentBids[_originContract][_tokenId] = _amount;\n  }\n}\n",
  "sourcePath": "/Users/jcrain/Dev/Pixura/pixura-contracts/truffle/contracts/SuperRareMarketAuction.sol",
  "compiler": {
    "name": "solc",
    "version": "0.4.24+commit.e67f0147.Emscripten.clang"
  },
  "schemaVersion": "2.0.1",
  "updatedAt": "2019-08-06T18:19:35.676Z"
}