{
  "contractName": "SuperRareV2",
  "abi": [
    {
      "constant": true,
      "inputs": [
        {
          "name": "interfaceId",
          "type": "bytes4"
        }
      ],
      "name": "supportsInterface",
      "outputs": [
        {
          "name": "",
          "type": "bool"
        }
      ],
      "payable": false,
      "stateMutability": "view",
      "type": "function"
    },
    {
      "constant": false,
      "inputs": [
        {
          "name": "_enabled",
          "type": "bool"
        }
      ],
      "name": "enableWhitelist",
      "outputs": [],
      "payable": false,
      "stateMutability": "nonpayable",
      "type": "function"
    },
    {
      "constant": true,
      "inputs": [],
      "name": "name",
      "outputs": [
        {
          "name": "",
          "type": "string"
        }
      ],
      "payable": false,
      "stateMutability": "view",
      "type": "function"
    },
    {
      "constant": true,
      "inputs": [
        {
          "name": "tokenId",
          "type": "uint256"
        }
      ],
      "name": "getApproved",
      "outputs": [
        {
          "name": "",
          "type": "address"
        }
      ],
      "payable": false,
      "stateMutability": "view",
      "type": "function"
    },
    {
      "constant": false,
      "inputs": [
        {
          "name": "to",
          "type": "address"
        },
        {
          "name": "tokenId",
          "type": "uint256"
        }
      ],
      "name": "approve",
      "outputs": [],
      "payable": false,
      "stateMutability": "nonpayable",
      "type": "function"
    },
    {
      "constant": true,
      "inputs": [],
      "name": "totalSupply",
      "outputs": [
        {
          "name": "",
          "type": "uint256"
        }
      ],
      "payable": false,
      "stateMutability": "view",
      "type": "function"
    },
    {
      "constant": false,
      "inputs": [
        {
          "name": "from",
          "type": "address"
        },
        {
          "name": "to",
          "type": "address"
        },
        {
          "name": "tokenId",
          "type": "uint256"
        }
      ],
      "name": "transferFrom",
      "outputs": [],
      "payable": false,
      "stateMutability": "nonpayable",
      "type": "function"
    },
    {
      "constant": true,
      "inputs": [
        {
          "name": "owner",
          "type": "address"
        },
        {
          "name": "index",
          "type": "uint256"
        }
      ],
      "name": "tokenOfOwnerByIndex",
      "outputs": [
        {
          "name": "",
          "type": "uint256"
        }
      ],
      "payable": false,
      "stateMutability": "view",
      "type": "function"
    },
    {
      "constant": true,
      "inputs": [
        {
          "name": "_address",
          "type": "address"
        }
      ],
      "name": "isWhitelisted",
      "outputs": [
        {
          "name": "",
          "type": "bool"
        }
      ],
      "payable": false,
      "stateMutability": "view",
      "type": "function"
    },
    {
      "constant": false,
      "inputs": [
        {
          "name": "from",
          "type": "address"
        },
        {
          "name": "to",
          "type": "address"
        },
        {
          "name": "tokenId",
          "type": "uint256"
        }
      ],
      "name": "safeTransferFrom",
      "outputs": [],
      "payable": false,
      "stateMutability": "nonpayable",
      "type": "function"
    },
    {
      "constant": true,
      "inputs": [
        {
          "name": "index",
          "type": "uint256"
        }
      ],
      "name": "tokenByIndex",
      "outputs": [
        {
          "name": "",
          "type": "uint256"
        }
      ],
      "payable": false,
      "stateMutability": "view",
      "type": "function"
    },
    {
      "constant": true,
      "inputs": [
        {
          "name": "tokenId",
          "type": "uint256"
        }
      ],
      "name": "ownerOf",
      "outputs": [
        {
          "name": "",
          "type": "address"
        }
      ],
      "payable": false,
      "stateMutability": "view",
      "type": "function"
    },
    {
      "constant": true,
      "inputs": [
        {
          "name": "owner",
          "type": "address"
        }
      ],
      "name": "balanceOf",
      "outputs": [
        {
          "name": "",
          "type": "uint256"
        }
      ],
      "payable": false,
      "stateMutability": "view",
      "type": "function"
    },
    {
      "constant": false,
      "inputs": [],
      "name": "renounceOwnership",
      "outputs": [],
      "payable": false,
      "stateMutability": "nonpayable",
      "type": "function"
    },
    {
      "constant": false,
      "inputs": [
        {
          "name": "_removedAddress",
          "type": "address"
        }
      ],
      "name": "removeFromWhitelist",
      "outputs": [],
      "payable": false,
      "stateMutability": "nonpayable",
      "type": "function"
    },
    {
      "constant": true,
      "inputs": [],
      "name": "owner",
      "outputs": [
        {
          "name": "",
          "type": "address"
        }
      ],
      "payable": false,
      "stateMutability": "view",
      "type": "function"
    },
    {
      "constant": true,
      "inputs": [],
      "name": "isOwner",
      "outputs": [
        {
          "name": "",
          "type": "bool"
        }
      ],
      "payable": false,
      "stateMutability": "view",
      "type": "function"
    },
    {
      "constant": true,
      "inputs": [],
      "name": "symbol",
      "outputs": [
        {
          "name": "",
          "type": "string"
        }
      ],
      "payable": false,
      "stateMutability": "view",
      "type": "function"
    },
    {
      "constant": false,
      "inputs": [
        {
          "name": "to",
          "type": "address"
        },
        {
          "name": "approved",
          "type": "bool"
        }
      ],
      "name": "setApprovalForAll",
      "outputs": [],
      "payable": false,
      "stateMutability": "nonpayable",
      "type": "function"
    },
    {
      "constant": false,
      "inputs": [
        {
          "name": "from",
          "type": "address"
        },
        {
          "name": "to",
          "type": "address"
        },
        {
          "name": "tokenId",
          "type": "uint256"
        },
        {
          "name": "_data",
          "type": "bytes"
        }
      ],
      "name": "safeTransferFrom",
      "outputs": [],
      "payable": false,
      "stateMutability": "nonpayable",
      "type": "function"
    },
    {
      "constant": true,
      "inputs": [
        {
          "name": "tokenId",
          "type": "uint256"
        }
      ],
      "name": "tokenURI",
      "outputs": [
        {
          "name": "",
          "type": "string"
        }
      ],
      "payable": false,
      "stateMutability": "view",
      "type": "function"
    },
    {
      "constant": false,
      "inputs": [
        {
          "name": "_newAddress",
          "type": "address"
        }
      ],
      "name": "addToWhitelist",
      "outputs": [],
      "payable": false,
      "stateMutability": "nonpayable",
      "type": "function"
    },
    {
      "constant": true,
      "inputs": [
        {
          "name": "owner",
          "type": "address"
        },
        {
          "name": "operator",
          "type": "address"
        }
      ],
      "name": "isApprovedForAll",
      "outputs": [
        {
          "name": "",
          "type": "bool"
        }
      ],
      "payable": false,
      "stateMutability": "view",
      "type": "function"
    },
    {
      "constant": false,
      "inputs": [
        {
          "name": "newOwner",
          "type": "address"
        }
      ],
      "name": "transferOwnership",
      "outputs": [],
      "payable": false,
      "stateMutability": "nonpayable",
      "type": "function"
    },
    {
      "inputs": [
        {
          "name": "_name",
          "type": "string"
        },
        {
          "name": "_symbol",
          "type": "string"
        },
        {
          "name": "_oldSuperRare",
          "type": "address"
        }
      ],
      "payable": false,
      "stateMutability": "nonpayable",
      "type": "constructor"
    },
    {
      "anonymous": false,
      "inputs": [
        {
          "indexed": true,
          "name": "_tokenId",
          "type": "uint256"
        },
        {
          "indexed": false,
          "name": "_uri",
          "type": "string"
        }
      ],
      "name": "TokenURIUpdated",
      "type": "event"
    },
    {
      "anonymous": false,
      "inputs": [
        {
          "indexed": true,
          "name": "_newAddress",
          "type": "address"
        }
      ],
      "name": "AddToWhitelist",
      "type": "event"
    },
    {
      "anonymous": false,
      "inputs": [
        {
          "indexed": true,
          "name": "_removedAddress",
          "type": "address"
        }
      ],
      "name": "RemoveFromWhitelist",
      "type": "event"
    },
    {
      "anonymous": false,
      "inputs": [
        {
          "indexed": true,
          "name": "previousOwner",
          "type": "address"
        },
        {
          "indexed": true,
          "name": "newOwner",
          "type": "address"
        }
      ],
      "name": "OwnershipTransferred",
      "type": "event"
    },
    {
      "anonymous": false,
      "inputs": [
        {
          "indexed": true,
          "name": "from",
          "type": "address"
        },
        {
          "indexed": true,
          "name": "to",
          "type": "address"
        },
        {
          "indexed": true,
          "name": "tokenId",
          "type": "uint256"
        }
      ],
      "name": "Transfer",
      "type": "event"
    },
    {
      "anonymous": false,
      "inputs": [
        {
          "indexed": true,
          "name": "owner",
          "type": "address"
        },
        {
          "indexed": true,
          "name": "approved",
          "type": "address"
        },
        {
          "indexed": true,
          "name": "tokenId",
          "type": "uint256"
        }
      ],
      "name": "Approval",
      "type": "event"
    },
    {
      "anonymous": false,
      "inputs": [
        {
          "indexed": true,
          "name": "owner",
          "type": "address"
        },
        {
          "indexed": true,
          "name": "operator",
          "type": "address"
        },
        {
          "indexed": false,
          "name": "approved",
          "type": "bool"
        }
      ],
      "name": "ApprovalForAll",
      "type": "event"
    },
    {
      "constant": false,
      "inputs": [
        {
          "name": "_uri",
          "type": "string"
        }
      ],
      "name": "addNewToken",
      "outputs": [],
      "payable": false,
      "stateMutability": "nonpayable",
      "type": "function"
    },
    {
      "constant": false,
      "inputs": [
        {
          "name": "_tokenId",
          "type": "uint256"
        }
      ],
      "name": "deleteToken",
      "outputs": [],
      "payable": false,
      "stateMutability": "nonpayable",
      "type": "function"
    },
    {
      "constant": false,
      "inputs": [
        {
          "name": "_tokenId",
          "type": "uint256"
        },
        {
          "name": "_uri",
          "type": "string"
        }
      ],
      "name": "updateTokenMetadata",
      "outputs": [],
      "payable": false,
      "stateMutability": "nonpayable",
      "type": "function"
    },
    {
      "constant": true,
      "inputs": [
        {
          "name": "_tokenId",
          "type": "uint256"
        }
      ],
      "name": "tokenCreator",
      "outputs": [
        {
          "name": "",
          "type": "address"
        }
      ],
      "payable": false,
      "stateMutability": "view",
      "type": "function"
    }
  ],
  "bytecode": "0x6080604052600e805460ff191660011790553480156200001e57600080fd5b5060405162001dcc38038062001dcc83398101604090815281516020830151918301519083019291909101906000808085858181620000867f01ffc9a70000000000000000000000000000000000000000000000000000000064010000000062000339810204565b620000ba7f80ac58cd0000000000000000000000000000000000000000000000000000000064010000000062000339810204565b620000ee7f780e9d630000000000000000000000000000000000000000000000000000000064010000000062000339810204565b81516200010390600990602085019062000405565b5080516200011990600a90602084019062000405565b506200014e7f5b5e139f0000000000000000000000000000000000000000000000000000000064010000000062000339810204565b5050600c8054600160a060020a031916331790819055604051600160a060020a03919091169250600091507f8be0079c531659141344cd1fd0a4f28419497f9722a3daafe3b4186f6b6457e0908290a360118054600160a060020a031916600160a060020a038681169190911791829055604080517f18160ddd000000000000000000000000000000000000000000000000000000008152905192909116916318160ddd916004808201926020929091908290030181600087803b1580156200021657600080fd5b505af11580156200022b573d6000803e3d6000fd5b505050506040513d60208110156200024257600080fd5b5051600180820160105590935091505b8282116200032d57601154604080517fd5da8d44000000000000000000000000000000000000000000000000000000008152600481018590529051600160a060020a039092169163d5da8d44916024808201926020929091908290030181600087803b158015620002c257600080fd5b505af1158015620002d7573d6000803e3d6000fd5b505050506040513d6020811015620002ee57600080fd5b505190506200030681640100000000620003a6810204565b151562000321576200032181640100000000620003e1810204565b60019091019062000252565b505050505050620004aa565b7fffffffff0000000000000000000000000000000000000000000000000000000080821614156200036957600080fd5b7fffffffff00000000000000000000000000000000000000000000000000000000166000908152602081905260409020805460ff19166001179055565b600e5460009060ff1615620003d85750600160a060020a0381166000908152600d602052604090205460ff16620003dc565b5060015b919050565b600160a060020a03166000908152600d60205260409020805460ff19166001179055565b828054600181600116156101000203166002900490600052602060002090601f016020900481019282601f106200044857805160ff191683800117855562000478565b8280016001018555821562000478579182015b82811115620004785782518255916020019190600101906200045b565b50620004869291506200048a565b5090565b620004a791905b8082111562000486576000815560010162000491565b90565b61191280620004ba6000396000f3006080604052600436106101695763ffffffff7c010000000000000000000000000000000000000000000000000000000060003504166301ffc9a7811461016e578063040b6583146101b957806306fdde03146101d5578063081812fc1461025f578063095ea7b31461029357806318160ddd146102b757806323b872dd146102de5780632cb2f52e146103085780632f745c59146103665780633af32abf1461038a57806340c1a064146103ab57806342842e0e146103c35780634f6ccce7146103ed5780636297c16c146104055780636352211e1461041d57806370a0823114610435578063715018a6146104565780638ab1d6811461046b5780638da5cb5b1461048c5780638f32d59b146104a157806395d89b41146104b6578063a22cb465146104cb578063b88d4fde146104f1578063c87b56dd14610560578063d9856c2114610578578063e43252d7146105d1578063e985e9c5146105f2578063f2fde38b14610619575b600080fd5b34801561017a57600080fd5b506101a57bffffffffffffffffffffffffffffffffffffffffffffffffffffffff196004351661063a565b604080519115158252519081900360200190f35b3480156101c557600080fd5b506101d36004351515610672565b005b3480156101e157600080fd5b506101ea610698565b6040805160208082528351818301528351919283929083019185019080838360005b8381101561022457818101518382015260200161020c565b50505050905090810190601f1680156102515780820380516001836020036101000a031916815260200191505b509250505060405180910390f35b34801561026b57600080fd5b5061027760043561072f565b60408051600160a060020a039092168252519081900360200190f35b34801561029f57600080fd5b506101d3600160a060020a0360043516602435610761565b3480156102c357600080fd5b506102cc61080a565b60408051918252519081900360200190f35b3480156102ea57600080fd5b506101d3600160a060020a0360043581169060243516604435610810565b34801561031457600080fd5b5060408051602060046024803582810135601f81018590048502860185019096528585526101d395833595369560449491939091019190819084018382808284375094975061089e9650505050505050565b34801561037257600080fd5b506102cc600160a060020a0360043516602435610a26565b34801561039657600080fd5b506101a5600160a060020a0360043516610a73565b3480156103b757600080fd5b50610277600435610aab565b3480156103cf57600080fd5b506101d3600160a060020a0360043581169060243516604435610ac6565b3480156103f957600080fd5b506102cc600435610ae7565b34801561041157600080fd5b506101d3600435610b1c565b34801561042957600080fd5b50610277600435610b94565b34801561044157600080fd5b506102cc600160a060020a0360043516610bbe565b34801561046257600080fd5b506101d3610bf1565b34801561047757600080fd5b506101d3600160a060020a0360043516610c4e565b34801561049857600080fd5b50610277610ca1565b3480156104ad57600080fd5b506101a5610cb0565b3480156104c257600080fd5b506101ea610cc1565b3480156104d757600080fd5b506101d3600160a060020a03600435166024351515610d22565b3480156104fd57600080fd5b50604080516020601f6064356004818101359283018490048402850184019095528184526101d394600160a060020a038135811695602480359092169560443595369560849401918190840183828082843750949750610da69650505050505050565b34801561056c57600080fd5b506101ea600435610dce565b34801561058457600080fd5b506040805160206004803580820135601f81018490048402850184019095528484526101d3943694929360249392840191908190840183828082843750949750610e839650505050505050565b3480156105dd57600080fd5b506101d3600160a060020a0360043516610f15565b3480156105fe57600080fd5b506101a5600160a060020a0360043581169060243516610f68565b34801561062557600080fd5b506101d3600160a060020a0360043516610f96565b7bffffffffffffffffffffffffffffffffffffffffffffffffffffffff19811660009081526020819052604090205460ff165b919050565b61067a610cb0565b151561068557600080fd5b600e805460ff1916911515919091179055565b60098054604080516020601f60026000196101006001881615020190951694909404938401819004810282018101909252828152606093909290918301828280156107245780601f106106f957610100808354040283529160200191610724565b820191906000526020600020905b81548152906001019060200180831161070757829003601f168201915b505050505090505b90565b600061073a82610fb5565b151561074557600080fd5b50600090815260026020526040902054600160a060020a031690565b600061076c82610b94565b9050600160a060020a03838116908216141561078757600080fd5b33600160a060020a03821614806107a357506107a38133610f68565b15156107ae57600080fd5b6000828152600260205260408082208054600160a060020a031916600160a060020a0387811691821790925591518593918516917f8c5be1e5ebec7d5bd14f71427d1e84f3dd0314c0f7b2291e5b200ac8c7c3b92591a4505050565b60075490565b61081a3382610fd2565b151561082557600080fd5b600160a060020a038216151561083a57600080fd5b6108448382611031565b61084e8382611093565b610858828261119a565b8082600160a060020a031684600160a060020a03167fddf252ad1be2c89b69c2b068fc378daa952ba7f163c4a11628f55a4df523b3ef60405160405180910390a4505050565b8160006108aa82610b94565b9050600160a060020a038116331461090c576040805160e560020a62461bcd02815260206004820152601e60248201527f6d75737420626520746865206f776e6572206f662074686520746f6b656e0000604482015290519081900360640190fd5b83600061091882610aab565b9050600160a060020a038116331461097a576040805160e560020a62461bcd02815260206004820181905260248201527f6d757374206265207468652063726561746f72206f662074686520746f6b656e604482015290519081900360640190fd5b61098486866111e3565b857f931f495b9a8e5d8e61946ea5d61e021f636cfe213a801f97589c18c152e408bd866040518080602001828103825283818151815260200191508051906020019080838360005b838110156109e45781810151838201526020016109cc565b50505050905090810190601f168015610a115780820380516001836020036101000a031916815260200191505b509250505060405180910390a2505050505050565b6000610a3183610bbe565b8210610a3c57600080fd5b600160a060020a0383166000908152600560205260409020805483908110610a6057fe5b9060005260206000200154905092915050565b600e5460009060ff1615610aa35750600160a060020a0381166000908152600d602052604090205460ff1661066d565b50600161066d565b6000908152600f6020526040902054600160a060020a031690565b610ae28383836020604051908101604052806000815250610da6565b505050565b6000610af161080a565b8210610afc57600080fd5b6007805483908110610b0a57fe5b90600052602060002001549050919050565b806000610b2882610b94565b9050600160a060020a0381163314610b8a576040805160e560020a62461bcd02815260206004820152601e60248201527f6d75737420626520746865206f776e6572206f662074686520746f6b656e0000604482015290519081900360640190fd5b610ae23384611216565b600081815260016020526040812054600160a060020a0316801515610bb857600080fd5b92915050565b6000600160a060020a0382161515610bd557600080fd5b50600160a060020a031660009081526003602052604090205490565b610bf9610cb0565b1515610c0457600080fd5b600c54604051600091600160a060020a0316907f8be0079c531659141344cd1fd0a4f28419497f9722a3daafe3b4186f6b6457e0908390a3600c8054600160a060020a0319169055565b610c56610cb0565b1515610c6157600080fd5b610c6a8161125e565b604051600160a060020a038216907f1f756c8b089af6b33ee121fee8badac2553a2fa89c0575ea91ff8792617746c290600090a250565b600c54600160a060020a031690565b600c54600160a060020a0316331490565b600a8054604080516020601f60026000196101006001881615020190951694909404938401819004810282018101909252828152606093909290918301828280156107245780601f106106f957610100808354040283529160200191610724565b600160a060020a038216331415610d3857600080fd5b336000818152600460209081526040808320600160a060020a03871680855290835292819020805460ff1916861515908117909155815190815290519293927f17307eab39ab6107e8899845ad3d59bd9653f200f220920489ca2b5937696c31929181900390910190a35050565b610db1848484610810565b610dbd8484848461127f565b1515610dc857600080fd5b50505050565b6060610dd982610fb5565b1515610de457600080fd5b6000828152600b602090815260409182902080548351601f600260001961010060018616150201909316929092049182018490048402810184019094528084529091830182828015610e775780601f10610e4c57610100808354040283529160200191610e77565b820191906000526020600020905b815481529060010190602001808311610e5a57829003601f168201915b50505050509050919050565b610e8c33610a73565b1515610f07576040805160e560020a62461bcd028152602060048201526024808201527f6d7573742062652077686974656c697374656420746f2063726561746520746f60448201527f6b656e7300000000000000000000000000000000000000000000000000000000606482015290519081900360840190fd5b610f118133611401565b5050565b610f1d610cb0565b1515610f2857600080fd5b610f3181611434565b604051600160a060020a038216907f75b2135d1c8c3519f3c09c43fe6527089ef09f40c7981ebf0ed46e79e79032c790600090a250565b600160a060020a03918216600090815260046020908152604080832093909416825291909152205460ff1690565b610f9e610cb0565b1515610fa957600080fd5b610fb281611458565b50565b600090815260016020526040902054600160a060020a0316151590565b600080610fde83610b94565b905080600160a060020a031684600160a060020a03161480611019575083600160a060020a031661100e8461072f565b600160a060020a0316145b8061102957506110298185610f68565b949350505050565b81600160a060020a031661104482610b94565b600160a060020a03161461105757600080fd5b600081815260026020526040902054600160a060020a031615610f115760009081526002602052604090208054600160a060020a031916905550565b60008060006110a285856114c9565b600084815260066020908152604080832054600160a060020a03891684526005909252909120549093506110dd90600163ffffffff61155216565b600160a060020a03861660009081526005602052604090208054919350908390811061110557fe5b90600052602060002001549050806005600087600160a060020a0316600160a060020a031681526020019081526020016000208481548110151561114557fe5b6000918252602080832090910192909255600160a060020a038716815260059091526040902080549061117c9060001983016117ea565b50600093845260066020526040808520859055908452909220555050565b60006111a68383611569565b50600160a060020a039091166000908152600560209081526040808320805460018101825590845282842081018590559383526006909152902055565b6111ec82610fb5565b15156111f757600080fd5b6000828152600b602090815260409091208251610ae29284019061180e565b61122082826115ec565b6000818152600b60205260409020546002600019610100600184161502019091160415610f11576000818152600b60205260408120610f119161188c565b600160a060020a03166000908152600d60205260409020805460ff19169055565b60008061129485600160a060020a03166116a8565b15156112a357600191506113f8565b6040517f150b7a020000000000000000000000000000000000000000000000000000000081523360048201818152600160a060020a03898116602485015260448401889052608060648501908152875160848601528751918a169463150b7a0294938c938b938b93909160a490910190602085019080838360005b8381101561133657818101518382015260200161131e565b50505050905090810190601f1680156113635780820380516001836020036101000a031916815260200191505b5095505050505050602060405180830381600087803b15801561138557600080fd5b505af1158015611399573d6000803e3d6000fd5b505050506040513d60208110156113af57600080fd5b50517bffffffffffffffffffffffffffffffffffffffffffffffffffffffff1981167f150b7a020000000000000000000000000000000000000000000000000000000014925090505b50949350505050565b601080546001810190915560009061141983826116b0565b61142381856111e3565b61142d81846116ff565b9392505050565b600160a060020a03166000908152600d60205260409020805460ff19166001179055565b600160a060020a038116151561146d57600080fd5b600c54604051600160a060020a038084169216907f8be0079c531659141344cd1fd0a4f28419497f9722a3daafe3b4186f6b6457e090600090a3600c8054600160a060020a031916600160a060020a0392909216919091179055565b81600160a060020a03166114dc82610b94565b600160a060020a0316146114ef57600080fd5b600160a060020a03821660009081526003602052604090205461151990600163ffffffff61155216565b600160a060020a039092166000908152600360209081526040808320949094559181526001909152208054600160a060020a0319169055565b6000808383111561156257600080fd5b5050900390565b600081815260016020526040902054600160a060020a03161561158b57600080fd5b60008181526001602081815260408084208054600160a060020a031916600160a060020a03881690811790915584526003909152909120546115cc9161172d565b600160a060020a0390921660009081526003602052604090209190915550565b60008060006115fb858561173f565b60008481526008602052604090205460075490935061162190600163ffffffff61155216565b915060078281548110151561163257fe5b906000526020600020015490508060078481548110151561164f57fe5b6000918252602082200191909155600780548490811061166b57fe5b600091825260209091200155600780549061168a9060001983016117ea565b50600093845260086020526040808520859055908452909220555050565b6000903b1190565b6116ba828261178f565b600780546000838152600860205260408120829055600182018355919091527fa66cc928b5edb82af9bd49922954155ab7b0942694bea4ce44661d9a8736c688015550565b6000918252600f60205260409091208054600160a060020a031916600160a060020a03909216919091179055565b60008282018381101561142d57600080fd5b6117498282611031565b6117538282611093565b6040518190600090600160a060020a038516907fddf252ad1be2c89b69c2b068fc378daa952ba7f163c4a11628f55a4df523b3ef908390a45050565b600160a060020a03821615156117a457600080fd5b6117ae828261119a565b6040518190600160a060020a038416906000907fddf252ad1be2c89b69c2b068fc378daa952ba7f163c4a11628f55a4df523b3ef908290a45050565b815481835581811115610ae257600083815260209020610ae29181019083016118cc565b828054600181600116156101000203166002900490600052602060002090601f016020900481019282601f1061184f57805160ff191683800117855561187c565b8280016001018555821561187c579182015b8281111561187c578251825591602001919060010190611861565b506118889291506118cc565b5090565b50805460018160011615610100020316600290046000825580601f106118b25750610fb2565b601f016020900490600052602060002090810190610fb291905b61072c91905b8082111561188857600081556001016118d25600a165627a7a723058203a4207f4ab944631aa851b438d18b6abc9564cdde1b8f61c8fc6980ce5ef91710029",
  "source": "pragma solidity ^0.4.24;\n\n\nimport \"../node_modules/openzeppelin-solidity/contracts/token/ERC721/ERC721Full.sol\";\nimport \"../node_modules/openzeppelin-solidity/contracts/ownership/Ownable.sol\";\nimport \"../node_modules/openzeppelin-solidity/contracts/math/SafeMath.sol\";\nimport \"./IERC721Creator.sol\";\nimport \"./Whitelist.sol\";\nimport \"./ISuperRare.sol\";\n\ncontract SuperRareV2 is ERC721Full, IERC721Creator, Ownable, Whitelist {\n    using SafeMath for uint256;\n\n    // Mapping from token ID to the creator's address.\n    mapping(uint256 => address) private tokenCreators;\n\n    // Counter for creating token IDs\n    uint256 private idCounter;\n\n    // Old SuperRare contract to look up token details.\n    ISuperRare private oldSuperRare;\n\n    // Event indicating metadata was updated.\n    event TokenURIUpdated(uint256 indexed _tokenId, string  _uri);\n\n    constructor(\n      string _name,\n      string _symbol,\n      address _oldSuperRare\n    )\n    ERC721Full(_name, _symbol)\n    {\n      // Get reference to old SR contract.\n      oldSuperRare = ISuperRare(_oldSuperRare);\n\n      uint256 oldSupply = oldSuperRare.totalSupply();\n      // Set id counter to be continuous with SuperRare.\n      idCounter = oldSupply + 1;\n      \n      // Copy over whitelisting permissions.\n      for (uint256 i = 1; i <= oldSupply; i++) {\n        address creator = oldSuperRare.creatorOfToken(i);\n        if (!isWhitelisted(creator)) {\n          _whitelist(creator);\n        }\n      }\n    }\n\n    /**\n     * @dev Checks that the token is owned by the sender.\n     * @param _tokenId uint256 ID of the token.\n     */\n    modifier onlyTokenOwner(uint256 _tokenId) {\n      address owner = ownerOf(_tokenId);\n      require(owner == msg.sender, \"must be the owner of the token\");\n      _;\n    }\n\n    /**\n     * @dev Checks that the token was created by the sender.\n     * @param _tokenId uint256 ID of the token.\n     */\n    modifier onlyTokenCreator(uint256 _tokenId) {\n      address creator = tokenCreator(_tokenId);\n      require(creator == msg.sender, \"must be the creator of the token\");\n      _;\n    }\n\n    /**\n     * @dev Adds a new unique token to the supply.\n     * @param _uri string metadata uri associated with the token.\n     */\n    function addNewToken(string _uri) public {\n      require(isWhitelisted(msg.sender), \"must be whitelisted to create tokens\");\n      _createToken(_uri, msg.sender);\n    }\n\n    /**\n     * @dev Deletes the token with the provided ID.\n     * @param _tokenId uint256 ID of the token.\n     */\n    function deleteToken(uint256 _tokenId) public onlyTokenOwner(_tokenId) {\n      _burn(msg.sender, _tokenId);\n    }\n\n    /**\n     * @dev Updates the token metadata if the owner is also the\n     *      creator.\n     * @param _tokenId uint256 ID of the token.\n     * @param _uri string metadata URI.\n     */\n    function updateTokenMetadata(uint256 _tokenId, string _uri)\n      public\n      onlyTokenOwner(_tokenId)\n      onlyTokenCreator(_tokenId)\n    {\n      _setTokenURI(_tokenId, _uri);\n      emit TokenURIUpdated(_tokenId, _uri);\n    }\n\n    /**\n    * @dev Gets the creator of the token.\n    * @param _tokenId uint256 ID of the token.\n    * @return address of the creator.\n    */\n    function tokenCreator(uint256 _tokenId) public view returns (address) {\n        return tokenCreators[_tokenId];\n    }\n\n    /**\n     * @dev Internal function for setting the token's creator.\n     * @param _tokenId uint256 id of the token.\n     * @param _creator address of the creator of the token.\n     */\n    function _setTokenCreator(uint256 _tokenId, address _creator) internal {\n      tokenCreators[_tokenId] = _creator;\n    }\n\n    /**\n     * @dev Internal function creating a new token.\n     * @param _uri string metadata uri associated with the token\n     * @param _creator address of the creator of the token.\n     */\n    function _createToken(string _uri, address _creator) internal returns (uint256) {\n      uint256 newId = idCounter;\n      idCounter++;\n      _mint(_creator, newId);\n      _setTokenURI(newId, _uri);\n      _setTokenCreator(newId, _creator);\n      return newId;\n    }\n}\n",
  "sourcePath": "/Users/charlescrain/dev/pixura-contracts/truffle/contracts/SuperRareV2.sol",
  "compiler": {
    "name": "solc",
    "version": "0.4.24+commit.e67f0147.Emscripten.clang"
  },
  "schemaVersion": "2.0.1",
  "updatedAt": "2019-08-06T23:43:51.907Z"
}