{
  "contractName": "SuperRareMarketAuction",
  "abi": [
    {
      "constant": false,
      "inputs": [],
      "name": "renounceOwnership",
      "outputs": [],
      "payable": false,
      "stateMutability": "nonpayable",
      "type": "function"
    },
    {
      "constant": true,
      "inputs": [],
      "name": "owner",
      "outputs": [
        {
          "name": "",
          "type": "address"
        }
      ],
      "payable": false,
      "stateMutability": "view",
      "type": "function"
    },
    {
      "constant": true,
      "inputs": [],
      "name": "isOwner",
      "outputs": [
        {
          "name": "",
          "type": "bool"
        }
      ],
      "payable": false,
      "stateMutability": "view",
      "type": "function"
    },
    {
      "constant": false,
      "inputs": [
        {
          "name": "newOwner",
          "type": "address"
        }
      ],
      "name": "transferOwnership",
      "outputs": [],
      "payable": false,
      "stateMutability": "nonpayable",
      "type": "function"
    },
    {
      "anonymous": false,
      "inputs": [
        {
          "indexed": true,
          "name": "_originContract",
          "type": "address"
        },
        {
          "indexed": true,
          "name": "_buyer",
          "type": "address"
        },
        {
          "indexed": true,
          "name": "_seller",
          "type": "address"
        },
        {
          "indexed": false,
          "name": "_amount",
          "type": "uint256"
        },
        {
          "indexed": false,
          "name": "_tokenId",
          "type": "uint256"
        }
      ],
      "name": "Sold",
      "type": "event"
    },
    {
      "anonymous": false,
      "inputs": [
        {
          "indexed": true,
          "name": "_originContract",
          "type": "address"
        },
        {
          "indexed": false,
          "name": "_amount",
          "type": "uint256"
        },
        {
          "indexed": false,
          "name": "_tokenId",
          "type": "uint256"
        }
      ],
      "name": "SetSalePrice",
      "type": "event"
    },
    {
      "anonymous": false,
      "inputs": [
        {
          "indexed": true,
          "name": "_originContract",
          "type": "address"
        },
        {
          "indexed": true,
          "name": "_bidder",
          "type": "address"
        },
        {
          "indexed": false,
          "name": "_amount",
          "type": "uint256"
        },
        {
          "indexed": false,
          "name": "_tokenId",
          "type": "uint256"
        }
      ],
      "name": "Bid",
      "type": "event"
    },
    {
      "anonymous": false,
      "inputs": [
        {
          "indexed": true,
          "name": "_originContract",
          "type": "address"
        },
        {
          "indexed": true,
          "name": "_bidder",
          "type": "address"
        },
        {
          "indexed": true,
          "name": "_seller",
          "type": "address"
        },
        {
          "indexed": false,
          "name": "_amount",
          "type": "uint256"
        },
        {
          "indexed": false,
          "name": "_tokenId",
          "type": "uint256"
        }
      ],
      "name": "AcceptBid",
      "type": "event"
    },
    {
      "anonymous": false,
      "inputs": [
        {
          "indexed": true,
          "name": "_originContract",
          "type": "address"
        },
        {
          "indexed": true,
          "name": "_bidder",
          "type": "address"
        },
        {
          "indexed": false,
          "name": "_amount",
          "type": "uint256"
        },
        {
          "indexed": false,
          "name": "_tokenId",
          "type": "uint256"
        }
      ],
      "name": "CancelBid",
      "type": "event"
    },
    {
      "anonymous": false,
      "inputs": [
        {
          "indexed": true,
          "name": "previousOwner",
          "type": "address"
        },
        {
          "indexed": true,
          "name": "newOwner",
          "type": "address"
        }
      ],
      "name": "OwnershipTransferred",
      "type": "event"
    },
    {
      "constant": false,
      "inputs": [
        {
          "name": "_originContract",
          "type": "address"
        },
        {
          "name": "_tokenId",
          "type": "uint256"
        },
        {
          "name": "_amount",
          "type": "uint256"
        }
      ],
      "name": "setSalePrice",
      "outputs": [],
      "payable": true,
      "stateMutability": "payable",
      "type": "function"
    },
    {
      "constant": false,
      "inputs": [
        {
          "name": "_originContract",
          "type": "address"
        },
        {
          "name": "_tokenId",
          "type": "uint256"
        }
      ],
      "name": "buy",
      "outputs": [],
      "payable": true,
      "stateMutability": "payable",
      "type": "function"
    },
    {
      "constant": true,
      "inputs": [
        {
          "name": "_originContract",
          "type": "address"
        },
        {
          "name": "_tokenId",
          "type": "uint256"
        }
      ],
      "name": "tokenPrice",
      "outputs": [
        {
          "name": "",
          "type": "uint256"
        }
      ],
      "payable": false,
      "stateMutability": "view",
      "type": "function"
    },
    {
      "constant": false,
      "inputs": [
        {
          "name": "_val",
          "type": "uint256"
        },
        {
          "name": "_originContract",
          "type": "address"
        },
        {
          "name": "_tokenId",
          "type": "uint256"
        }
      ],
      "name": "bid",
      "outputs": [],
      "payable": true,
      "stateMutability": "payable",
      "type": "function"
    },
    {
      "constant": false,
      "inputs": [
        {
          "name": "_originContract",
          "type": "address"
        },
        {
          "name": "_tokenId",
          "type": "uint256"
        }
      ],
      "name": "acceptBid",
      "outputs": [],
      "payable": true,
      "stateMutability": "payable",
      "type": "function"
    },
    {
      "constant": false,
      "inputs": [
        {
          "name": "_originContract",
          "type": "address"
        },
        {
          "name": "_tokenId",
          "type": "uint256"
        }
      ],
      "name": "cancelBid",
      "outputs": [],
      "payable": true,
      "stateMutability": "payable",
      "type": "function"
    },
    {
      "constant": true,
      "inputs": [
        {
          "name": "_originContract",
          "type": "address"
        },
        {
          "name": "_tokenId",
          "type": "uint256"
        }
      ],
      "name": "currentBidDetailsOfToken",
      "outputs": [
        {
          "name": "",
          "type": "uint256"
        },
        {
          "name": "",
          "type": "address"
        }
      ],
      "payable": false,
      "stateMutability": "view",
      "type": "function"
    }
  ],
  "bytecode": "0x6080604081905260036006819055600755600f60085560008054600160a060020a0319163317808255600160a060020a0316917f8be0079c531659141344cd1fd0a4f28419497f9722a3daafe3b4186f6b6457e0908290a3611beb806100666000396000f3006080604052600436106100955763ffffffff60e060020a60003504166314df85e9811461009a57806339b6b1e5146100df578063508c1dbd146100f8578063715018a6146101125780638da5cb5b146101275780638f32d59b14610158578063916c03ba14610181578063955a5a76146101b7578063c0f4ed31146101ce578063cce7ec13146101e8578063f2fde38b146101ff575b600080fd5b3480156100a657600080fd5b506100be600160a060020a0360043516602435610220565b60408051928352600160a060020a0390911660208301528051918290030190f35b6100f6600160a060020a0360043516602435610261565b005b6100f6600160a060020a0360043516602435604435610377565b34801561011e57600080fd5b506100f6610688565b34801561013357600080fd5b5061013c6106f2565b60408051600160a060020a039092168252519081900360200190f35b34801561016457600080fd5b5061016d610701565b604080519115158252519081900360200190f35b34801561018d57600080fd5b506101a5600160a060020a0360043516602435610712565b60408051918252519081900360200190f35b6100f6600160a060020a036004351660243561073a565b6100f6600435600160a060020a0360243516604435610c49565b6100f6600160a060020a0360043516602435610e7f565b34801561020b57600080fd5b506100f6600160a060020a03600435166112e1565b600160a060020a0391821660008181526004602090815260408083208584528252808320549383526005825280832094835293905291909120549092911690565b33600080610270838686611300565b15156102ec576040805160e560020a62461bcd02815260206004820152602e60248201527f43616e6e6f742063616e63656c2061206269642069662073656e64657220686160448201527f736e2774206d616465206f6e652e000000000000000000000000000000000000606482015290519081900360840190fd5b5050600160a060020a03831660009081526004602090815260408083208584529091529020548361031d818561132c565b82600160a060020a031685600160a060020a03167f99a3761c98d7a0c3980cbeb3d8009b315a463f8020b43ca1e6901611b06547f98487604051808381526020018281526020019250505060405180910390a35050505050565b828260008083915081600160a060020a0316636352211e846040518263ffffffff1660e060020a02815260040180828152602001915050602060405180830381600087803b1580156103c857600080fd5b505af11580156103dc573d6000803e3d6000fd5b505050506040513d60208110156103f257600080fd5b5051604080517fe985e9c5000000000000000000000000000000000000000000000000000000008152600160a060020a03808416600483015230602483015291519293509084169163e985e9c5916044808201926020929091908290030181600087803b15801561046257600080fd5b505af1158015610476573d6000803e3d6000fd5b505050506040513d602081101561048c57600080fd5b5051151561050a576040805160e560020a62461bcd02815260206004820152602160248201527f6f776e6572206d757374206861766520617070726f76656420636f6e7472616360448201527f7400000000000000000000000000000000000000000000000000000000000000606482015290519081900360840190fd5b8686600082905033600160a060020a031681600160a060020a0316636352211e846040518263ffffffff1660e060020a02815260040180828152602001915050602060405180830381600087803b15801561056457600080fd5b505af1158015610578573d6000803e3d6000fd5b505050506040513d602081101561058e57600080fd5b5051600160a060020a0316146105ee576040805160e560020a62461bcd02815260206004820152601e60248201527f73656e646572206d7573742062652074686520746f6b656e206f776e65720000604482015290519081900360640190fd5b600160a060020a038a1660008181526001602090815260408083208d845282528083208c9055838352600282528083208d8452825291829020805473ffffffffffffffffffffffffffffffffffffffff19163317905581518b81529081018c905281517fb0b0e4adf2724af8f1646eae3a16f45d696c9334594729d09bf192da1f783871929181900390910190a250505050505050505050565b610690610701565b151561069b57600080fd5b60008054604051600160a060020a03909116907f8be0079c531659141344cd1fd0a4f28419497f9722a3daafe3b4186f6b6457e0908390a36000805473ffffffffffffffffffffffffffffffffffffffff19169055565b600054600160a060020a031690565b600054600160a060020a0316331490565b600160a060020a03919091166000908152600160209081526040808320938352929052205490565b6000806000848460008083915081600160a060020a0316636352211e846040518263ffffffff1660e060020a02815260040180828152602001915050602060405180830381600087803b15801561079057600080fd5b505af11580156107a4573d6000803e3d6000fd5b505050506040513d60208110156107ba57600080fd5b5051604080517fe985e9c5000000000000000000000000000000000000000000000000000000008152600160a060020a03808416600483015230602483015291519293509084169163e985e9c5916044808201926020929091908290030181600087803b15801561082a57600080fd5b505af115801561083e573d6000803e3d6000fd5b505050506040513d602081101561085457600080fd5b505115156108d2576040805160e560020a62461bcd02815260206004820152602160248201527f6f776e6572206d757374206861766520617070726f76656420636f6e7472616360448201527f7400000000000000000000000000000000000000000000000000000000000000606482015290519081900360840190fd5b8888600082905033600160a060020a031681600160a060020a0316636352211e846040518263ffffffff1660e060020a02815260040180828152602001915050602060405180830381600087803b15801561092c57600080fd5b505af1158015610940573d6000803e3d6000fd5b505050506040513d602081101561095657600080fd5b5051600160a060020a0316146109b6576040805160e560020a62461bcd02815260206004820152601e60248201527f73656e646572206d7573742062652074686520746f6b656e206f776e65720000604482015290519081900360640190fd5b6109c08c8c611381565b1515610a3c576040805160e560020a62461bcd02815260206004820152602760248201527f43616e6e6f7420616363657074206120626964207768656e207468657265206960448201527f73206e6f6e652e00000000000000000000000000000000000000000000000000606482015290519081900360840190fd5b8b9950610a498c8c610220565b98509850610a58898d8d6113ab565b89600160a060020a03166342842e0e8b600160a060020a0316636352211e8e6040518263ffffffff1660e060020a02815260040180828152602001915050602060405180830381600087803b158015610ab057600080fd5b505af1158015610ac4573d6000803e3d6000fd5b505050506040513d6020811015610ada57600080fd5b50516040805160e060020a63ffffffff8516028152600160a060020a039283166004820152918c166024830152604482018f905251606480830192600092919082900301818387803b158015610b2f57600080fd5b505af1158015610b43573d6000803e3d6000fd5b50505050610b518c8c611639565b610b5b8c8c61132c565b89600160a060020a0316636352211e8c6040518263ffffffff1660e060020a02815260040180828152602001915050602060405180830381600087803b158015610ba457600080fd5b505af1158015610bb8573d6000803e3d6000fd5b505050506040513d6020811015610bce57600080fd5b8101908080519060200190929190505050600160a060020a031688600160a060020a03168d600160a060020a03167f2a9d06eec42acd217a17785dbec90b8b4f01a93ecd8c127edd36bfccf239f8b68c8f604051808381526020018281526020019250505060405180910390a4505050505050505050505050565b6000808080808711610ca5576040805160e560020a62461bcd02815260206004820152601160248201527f43616e6e6f74206269642030205765692e000000000000000000000000000000604482015290519081900360640190fd5b610cae87611690565b87019350348414610d2f576040805160e560020a62461bcd02815260206004820152602e60248201527f4d7573742070757263686173652074686520746f6b656e20666f72207468652060448201527f636f72726563742070726963652e000000000000000000000000000000000000606482015290519081900360840190fd5b85925082600160a060020a0316636352211e866040518263ffffffff1660e060020a02815260040180828152602001915050602060405180830381600087803b158015610d7b57600080fd5b505af1158015610d8f573d6000803e3d6000fd5b505050506040513d6020811015610da557600080fd5b50519150339050600160a060020a038216811415610e0d576040805160e560020a62461bcd02815260206004820152601760248201527f4269646465722063616e6e6f74206265206f776e65722e000000000000000000604482015290519081900360640190fd5b610e1786866116be565b610e238782888861175f565b80600160a060020a031686600160a060020a03167fd21fbaad97462831ad0c216f300fefb33a10b03bb18bb70ed668562e88d15d538988604051808381526020018281526020019250505060405180910390a350505050505050565b600080600080858560008083915081600160a060020a0316636352211e846040518263ffffffff1660e060020a02815260040180828152602001915050602060405180830381600087803b158015610ed657600080fd5b505af1158015610eea573d6000803e3d6000fd5b505050506040513d6020811015610f0057600080fd5b5051604080517fe985e9c5000000000000000000000000000000000000000000000000000000008152600160a060020a03808416600483015230602483015291519293509084169163e985e9c5916044808201926020929091908290030181600087803b158015610f7057600080fd5b505af1158015610f84573d6000803e3d6000fd5b505050506040513d6020811015610f9a57600080fd5b50511515611018576040805160e560020a62461bcd02815260206004820152602160248201527f6f776e6572206d757374206861766520617070726f76656420636f6e7472616360448201527f7400000000000000000000000000000000000000000000000000000000000000606482015290519081900360840190fd5b6110228a8a61181a565b600160a060020a038a1660009081526001602090815260408083208c8452909152812054985088116110c3576040805160e560020a62461bcd028152602060048201526024808201527f546f6b656e7320707269636564206174203020617265206e6f7420666f72207360448201527f616c652e00000000000000000000000000000000000000000000000000000000606482015290519081900360840190fd5b6110cc88611690565b8801965034871461114d576040805160e560020a62461bcd02815260206004820152602d60248201527f4d7573742070757263686173652074686520746f6b656e20666f72207468652060448201527f636f727265637420707269636500000000000000000000000000000000000000606482015290519081900360840190fd5b89955085600160a060020a0316636352211e8a6040518263ffffffff1660e060020a02815260040180828152602001915050602060405180830381600087803b15801561119957600080fd5b505af11580156111ad573d6000803e3d6000fd5b505050506040513d60208110156111c357600080fd5b505194506111d2888b8b6113ab565b604080517f42842e0e000000000000000000000000000000000000000000000000000000008152600160a060020a038781166004830152336024830152604482018c90529151918816916342842e0e9160648082019260009290919082900301818387803b15801561124357600080fd5b505af1158015611257573d6000803e3d6000fd5b505050506112658a8a611639565b611270338b8b611300565b1561127f5761127f8a8a6116be565b6112898a8a611942565b60408051898152602081018b90528151600160a060020a03808916933393918f16927f5764dbcef91eb6f946584f4ea671217c686fa7e858ce4f9f42d08422b86556a99281900390910190a450505050505050505050565b6112e9610701565b15156112f457600080fd5b6112fd816119a6565b50565b600160a060020a0391821660009081526005602090815260408083209383529290522054811691161490565b600160a060020a0390911660008181526005602090815260408083208584528252808320805473ffffffffffffffffffffffffffffffffffffffff191690559282526004815282822093825292909252812055565b600160a060020a039182166000908152600560209081526040808320938352929052205416151590565b60008060008060008030600160a060020a0316638da5cb5b6040518163ffffffff1660e060020a028152600401602060405180830381600087803b1580156113f257600080fd5b505af1158015611406573d6000803e3d6000fd5b505050506040513d602081101561141c57600080fd5b5051604080517f40c1a064000000000000000000000000000000000000000000000000000000008152600481018a90529051919750600160a060020a038a16916340c1a064916024808201926020929091908290030181600087803b15801561148457600080fd5b505af1158015611498573d6000803e3d6000fd5b505050506040513d60208110156114ae57600080fd5b5051604080517f6352211e000000000000000000000000000000000000000000000000000000008152600481018a90529051919650600160a060020a038a1691636352211e916024808201926020929091908290030181600087803b15801561151657600080fd5b505af115801561152a573d6000803e3d6000fd5b505050506040513d602081101561154057600080fd5b5051935061154f898989611a23565b925061155c898989611a99565b9150611569898989611b07565b905060008311156115ac57604051600160a060020a0387169084156108fc029085906000818181858888f193505050501580156115aa573d6000803e3d6000fd5b505b60008211156115ed57604051600160a060020a0385169083156108fc029084906000818181858888f193505050501580156115eb573d6000803e3d6000fd5b505b600081111561162e57604051600160a060020a0386169082156108fc029083906000818181858888f1935050505015801561162c573d6000803e3d6000fd5b505b505050505050505050565b600160a060020a039091166000818152600160209081526040808320858452825280832083905592825260028152828220938252929092529020805473ffffffffffffffffffffffffffffffffffffffff19169055565b60006116b860646116ac60065485611b6390919063ffffffff16565b9063ffffffff611b9c16565b92915050565b600160a060020a03808316600081815260056020908152604080832086845282528083205493835260048252808320868452909152812054919092169161170482611690565b82019050600160a060020a0383161561175857604051600160a060020a0384169082156108fc029083906000818181858888f1935050505015801561174d573d6000803e3d6000fd5b50611758858561132c565b5050505050565b600160a060020a03831615156117bf576040805160e560020a62461bcd02815260206004820152601b60248201527f4269646465722063616e6e6f74206265203020616464726573732e0000000000604482015290519081900360640190fd5b600160a060020a0391821660008181526005602090815260408083208584528252808320805473ffffffffffffffffffffffffffffffffffffffff191697909616969096179094559081526004835283812091815291522055565b600080600084925082600160a060020a0316636352211e856040518263ffffffff1660e060020a02815260040180828152602001915050602060405180830381600087803b15801561186b57600080fd5b505af115801561187f573d6000803e3d6000fd5b505050506040513d602081101561189557600080fd5b5051600160a060020a038087166000908152600260209081526040808320898452909152902054919350908116915082168114611758576040805160e560020a62461bcd02815260206004820152602481018290527f43757272656e7420746f6b656e206f776e6572206d757374206265207468652060448201527f706572736f6e20746f206861766520746865206c61746573742070726963652e606482015290519081900360840190fd5b600160a060020a038216600090815260036020908152604080832084845290915290205460ff1615611973576119a2565b600160a060020a03821660009081526003602090815260408083208484529091529020805460ff191660011790555b5050565b600160a060020a03811615156119bb57600080fd5b60008054604051600160a060020a03808516939216917f8be0079c531659141344cd1fd0a4f28419497f9722a3daafe3b4186f6b6457e091a36000805473ffffffffffffffffffffffffffffffffffffffff1916600160a060020a0392909216919091179055565b600080600080611a3287611690565b600160a060020a038716600090815260036020908152604080832089845290915290205490935060ff161591508115611a8b57611a7f60646116ac6008548a611b6390919063ffffffff16565b90508083019350611a8f565b8293505b5050509392505050565b600160a060020a038216600090815260036020908152604080832084845290915281205460ff161581808215611aef57611ae360646116ac6008548a611b6390919063ffffffff16565b91508187039350611a8f565b611afa878787611b07565b9096039695505050505050565b600160a060020a038216600090815260036020908152604080832084845290915281205460ff16158015611b3e5760009150611b5b565b611b5860646116ac60075488611b6390919063ffffffff16565b91505b509392505050565b600080831515611b765760009150611b95565b50828202828482811515611b8657fe5b0414611b9157600080fd5b8091505b5092915050565b600080808311611bab57600080fd5b8284811515611bb657fe5b049493505050505600a165627a7a72305820d7a30dfc538cd1cfff0b8f88452b4fcc81484db79cf8e05bc57b1886b8d48b1e0029",
  "source": "pragma solidity ^0.4.24;\n\n\nimport \"../node_modules/openzeppelin-solidity/contracts/token/ERC721/IERC721.sol\";\nimport \"./IERC721Creator.sol\";\nimport \"../node_modules/openzeppelin-solidity/contracts/math/SafeMath.sol\";\nimport \"../node_modules/openzeppelin-solidity/contracts/ownership/Ownable.sol\";\n\ncontract SuperRareMarketAuction is Ownable {\n  using SafeMath for uint256;\n\n  /////////////////////////////////////////////////////////////////////////\n  // State Variables\n  /////////////////////////////////////////////////////////////////////////\n  // Mapping from ERC721 contract to mapping of tokenId to sale price\n  mapping (address => mapping (uint256 => uint256)) private tokenPrices;\n\n  // Mapping from ERC721 contract to mapping of tokenId to token owner that set the sale price.\n  mapping (address => mapping (uint256 => address)) private tokenOwners;\n\n  // Mapping of ERC721 contract to mapping of token ID to whether the token has been sold before.\n  mapping (address => mapping (uint256 => bool)) private tokenSold;\n\n  // Mapping of ERC721 contract to mapping of token ID to the current bid amount\n  mapping (address => mapping (uint256 => uint256)) private tokenCurrentBids;\n\n  // Mapping of ERC721 contract to mapping of token ID to the current bid amount\n  mapping (address => mapping (uint256 => address)) private tokenCurrentBidders;\n\n  // Marketplace fee paid to the owner of the contract.\n  uint256 private marketplaceFee = 3; // 3 %\n\n  // Royalty fee paid to the creator of a token on secondary sales.\n  uint256 private royaltyFee = 3; // 3 %\n\n  // Primary sale fee split.\n  uint256 private primarySaleFee = 15; // 15 %\n\n  /////////////////////////////////////////////////////////////////////////////\n  // Events\n  /////////////////////////////////////////////////////////////////////////////\n  event Sold (\n    address indexed _originContract,\n    address indexed _buyer,\n    address indexed _seller,\n    uint256 _amount,\n    uint256 _tokenId\n  );\n\n  event SetSalePrice (\n    address indexed _originContract,\n    uint256 _amount,\n    uint256 _tokenId\n  );\n\n  event Bid (\n    address indexed _originContract,\n    address indexed _bidder,\n    uint256 _amount,\n    uint256 _tokenId\n  );\n\n  event AcceptBid (\n    address indexed _originContract,\n    address indexed _bidder,\n    address indexed _seller,\n    uint256 _amount,\n    uint256 _tokenId\n  );\n\n  event CancelBid (\n    address indexed _originContract,\n    address indexed _bidder,\n    uint256 _amount,\n    uint256 _tokenId\n  );\n\n  /////////////////////////////////////////////////////////////////////////\n  // Modifiers\n  /////////////////////////////////////////////////////////////////////////\n  /**\n   * @dev Checks that the token owner is approved for the ERC721Market\n   * @param _originContract address of the contract storing the token.\n   * @param _tokenId uint256 ID of the token\n   */\n  modifier ownerMustHaveMarketplaceApproved(address _originContract, uint256 _tokenId) {\n    IERC721 erc721 = IERC721(_originContract);\n    address owner = erc721.ownerOf(_tokenId);\n    require(erc721.isApprovedForAll(owner, this), \"owner must have approved contract\");\n    _;\n  }\n\n  /**\n   * @dev Checks that the token owned by the sender\n   * @param _originContract address of the contract storing the token.\n   * @param _tokenId uint256 ID of the token\n   */\n  modifier senderMustBeTokenOwner(address _originContract, uint256 _tokenId) {\n    IERC721 erc721 = IERC721(_originContract);\n    require(erc721.ownerOf(_tokenId) == msg.sender, \"sender must be the token owner\");\n    _;\n  }\n\n  /////////////////////////////////////////////////////////////////////////\n  // setSalePrice\n  /////////////////////////////////////////////////////////////////////////\n  /**\n   * @dev Set the token for sale\n   * @param _originContract address of the contract storing the token.\n   * @param _tokenId uint256 ID of the token\n   * @param _amount uint256 wei value that the item is for sale\n   */\n  function setSalePrice(\n    address _originContract,\n    uint256 _tokenId,\n    uint256 _amount\n  )\n    public\n    ownerMustHaveMarketplaceApproved(_originContract, _tokenId)\n    senderMustBeTokenOwner(_originContract, _tokenId)\n    payable\n  {\n    tokenPrices[_originContract][_tokenId] = _amount;\n    tokenOwners[_originContract][_tokenId] = msg.sender;\n    emit SetSalePrice(_originContract, _amount, _tokenId);\n  }\n\n  /////////////////////////////////////////////////////////////////////////\n  // buy\n  /////////////////////////////////////////////////////////////////////////\n  /**\n   * @dev Purchases the token if it is for sale.\n   * @param _originContract address of the contract storing the token.\n   * @param _tokenId uint256 ID of the token.\n   */\n  function buy(\n    address _originContract,\n    uint256 _tokenId\n  )\n    public\n    ownerMustHaveMarketplaceApproved(_originContract, _tokenId)\n    payable\n  {\n    // Check that the person who set the price still owns the token.\n    _doesPriceSetterStillOwnTheToken(_originContract, _tokenId);\n\n    // Check that token is for sale.\n    uint256 tokenPrice = tokenPrices[_originContract][_tokenId];\n    require(tokenPrice > 0, \"Tokens priced at 0 are not for sale.\");\n\n    // Check that enough ether was sent.\n    uint256 requiredCost = tokenPrice + _calcMarketplaceFee(tokenPrice);\n    require(requiredCost == msg.value, \"Must purchase the token for the correct price\");\n\n    // Get token contract details.\n    IERC721 erc721 = IERC721(_originContract);\n\n    // Payout all parties.\n    address tokenOwner = erc721.ownerOf(_tokenId);\n    _payout(tokenPrice, _originContract, _tokenId);\n\n    // Transfer token.\n    erc721.safeTransferFrom(tokenOwner, msg.sender, _tokenId);\n\n    // Wipe the token price.\n    _resetTokenPrice(_originContract, _tokenId);\n\n    // if the buyer had an existing bid, return it\n    if (_addressHasBidOnToken(msg.sender, _originContract, _tokenId)) {\n      _returnBid(_originContract, _tokenId);\n    }\n\n    // set the token as sold\n    _setTokenAsSold(_originContract, _tokenId);\n\n    emit Sold(_originContract, msg.sender, tokenOwner, tokenPrice, _tokenId);\n  }\n\n  /////////////////////////////////////////////////////////////////////////\n  // tokenPrice\n  /////////////////////////////////////////////////////////////////////////\n  /**\n   * @dev Gets the sale price of the token\n   * @param _originContract address of the contract storing the token.\n   * @param _tokenId uint256 ID of the token\n   * @return sale price of the token\n   */\n  function tokenPrice(\n    address _originContract,\n    uint256 _tokenId\n  )\n    public view returns (uint256)\n  {\n    return tokenPrices[_originContract][_tokenId];\n  }\n\n  /////////////////////////////////////////////////////////////////////////\n  // bid\n  /////////////////////////////////////////////////////////////////////////\n  /**\n   * @dev Bids on the token, replacing the bid if the bid is higher than the current bid. You cannot bid on a token you already own.\n   * @param _val uint256 value in wei to bid, plus marketplace fee.\n   * @param _originContract address of the contract storing the token.\n   * @param _tokenId uint256 ID of the token\n   */\n  function bid(\n    uint256 _val,\n    address _originContract,\n    uint256 _tokenId\n  )\n    public\n    payable\n  {\n    // Check that bid is greater than 0.\n    require(_val > 0, \"Cannot bid 0 Wei.\");\n\n    // Check that enough ether was sent.\n    uint256 requiredCost = _val + _calcMarketplaceFee(_val);\n    require(requiredCost == msg.value, \"Must purchase the token for the correct price.\");\n\n    // Check that bidder is not owner.\n    IERC721 erc721 = IERC721(_originContract);\n    address tokenOwner = erc721.ownerOf(_tokenId);\n    address bidder = msg.sender;\n    require(tokenOwner != bidder, \"Bidder cannot be owner.\");\n\n    // Return the current bid.\n    _returnBid(_originContract, _tokenId);\n\n    // set bid\n    _setBid(_val, bidder, _originContract, _tokenId);\n\n    emit Bid(_originContract, bidder, _val, _tokenId);\n  }\n\n  /////////////////////////////////////////////////////////////////////////\n  // acceptBid\n  /////////////////////////////////////////////////////////////////////////\n  /**\n   * @dev Accept the bid on the token.\n   * @param _originContract address of the contract storing the token.\n   * @param _tokenId uint256 ID of the token\n   */\n  function acceptBid(\n    address _originContract,\n    uint256 _tokenId\n  )\n    public\n    payable\n    ownerMustHaveMarketplaceApproved(_originContract, _tokenId)\n    senderMustBeTokenOwner(_originContract, _tokenId)\n  {\n    // Check that a bid exists.\n    require(_tokenHasBid(_originContract, _tokenId), \"Cannot accept a bid when there is none.\");\n\n    // Get token contract details.\n    IERC721 erc721 = IERC721(_originContract);\n\n    // Payout all parties.\n    (uint256 bidAmount, address bidder) = currentBidDetailsOfToken(_originContract, _tokenId);\n    _payout(bidAmount, _originContract, _tokenId);\n\n    // Transfer token.\n    erc721.safeTransferFrom(erc721.ownerOf(_tokenId), bidder, _tokenId);\n\n    // Wipe the token price and bid.\n    _resetTokenPrice(_originContract, _tokenId);\n    _resetBid(_originContract, _tokenId);\n    \n    emit AcceptBid(_originContract, bidder, erc721.ownerOf(_tokenId), bidAmount, _tokenId);\n  }\n\n  /////////////////////////////////////////////////////////////////////////\n  // cancelBid\n  /////////////////////////////////////////////////////////////////////////\n  /**\n   * @dev Cancel the bid on the token.\n   * @param _originContract address of the contract storing the token.\n   * @param _tokenId uint256 ID of the token\n   */\n  function cancelBid(\n    address _originContract,\n    uint256 _tokenId\n  )\n    public\n    payable\n  {\n    // Check that a bid exists.\n    address bidder = msg.sender;\n    require(_addressHasBidOnToken(bidder, _originContract, _tokenId), \"Cannot cancel a bid if sender hasn't made one.\");\n    uint256 bidAmount = tokenCurrentBids[_originContract][_tokenId];\n    // Get token contract details.\n    IERC721 erc721 = IERC721(_originContract);\n\n    // Wipe the bid.\n    _resetBid(_originContract, _tokenId);\n\n    emit CancelBid(_originContract, bidder, bidAmount, _tokenId);\n  }\n\n  /////////////////////////////////////////////////////////////////////////\n  // currentBidDetailsOfToken\n  /////////////////////////////////////////////////////////////////////////\n  /**\n  * @dev Function to get current bid and bidder of a token.\n  * @param _originContract address of ERC721 contract.\n  * @param _tokenId uin256 id of the token.\n  */\n  function currentBidDetailsOfToken(\n    address _originContract,\n    uint256 _tokenId\n  )\n    public\n    view\n    returns (uint256, address)\n  {\n    return (tokenCurrentBids[_originContract][_tokenId], tokenCurrentBidders[_originContract][_tokenId]);\n  }\n\n  /////////////////////////////////////////////////////////////////////////\n  // _doesPriceSetterStillOwnTheToken\n  /////////////////////////////////////////////////////////////////////////\n  /**\n   * @dev Checks that the token is owned by the same person who set the sale price/\n   * @param _originContract address of the contract storing the token.\n   * @param _tokenId address of the contract storing the token.\n   */\n  function _doesPriceSetterStillOwnTheToken(\n    address _originContract,\n    uint256 _tokenId\n  )\n  internal view {\n    IERC721 erc721 = IERC721(_originContract);\n    address owner = erc721.ownerOf(_tokenId);\n    address perceivedOwner = tokenOwners[_originContract][_tokenId];\n    require(owner == perceivedOwner, \"Current token owner must be the person to have the latest price.\");\n  }\n\n  /////////////////////////////////////////////////////////////////////////\n  // _payout\n  /////////////////////////////////////////////////////////////////////////\n  /**\n  * @dev Internal function to pay the bidder, creator, and maintainer.\n  * @param _val uint256 value to be split.\n  * @param _originContract address of the token contract.\n  * @param _tokenId uint256 ID of the token.\n  */\n  function _payout(\n    uint256 _val,\n    address _originContract,\n    uint256 _tokenId\n  )\n    private\n  {\n    address maintainer = this.owner();\n    address creator = IERC721Creator(_originContract).tokenCreator(_tokenId);\n    address tokenOwner = IERC721(_originContract).ownerOf(_tokenId);\n\n    uint256 marketplacePayment = _calcMarketplacePayment(_val, _originContract, _tokenId);\n    uint256 ownerPayment = _calcOwnerPayment(_val, _originContract, _tokenId);\n    uint256 royaltyPayment = _calcRoyaltyPayment(_val, _originContract, _tokenId);\n\n    if (marketplacePayment > 0) {\n      maintainer.transfer(marketplacePayment);\n    }\n    if (ownerPayment > 0) {\n      tokenOwner.transfer(ownerPayment);\n    }\n    if (royaltyPayment > 0) {\n      creator.transfer(royaltyPayment);\n    }\n  }\n\n  /////////////////////////////////////////////////////////////////////////\n  // _calcMarketplacePayment\n  /////////////////////////////////////////////////////////////////////////\n  /**\n  * @dev Internal function calculate Marketplace fees. \n  *      If primary sale:  fee + split with artist\n         otherwise:        just fee.\n  * @param _val uint256 value to be split\n  * @param _originContract address of the token contract\n  * @param _tokenId id of the token\n  */\n  function _calcMarketplacePayment(\n    uint256 _val,\n    address _originContract,\n    uint256 _tokenId\n  )\n    internal view returns (uint256) \n  {\n    uint256 marketplaceFeePayment = _calcMarketplaceFee(_val);\n    bool isPrimarySale = !tokenSold[_originContract][_tokenId];\n    if (isPrimarySale) {\n      uint256 primarySalePayment = _val.mul(primarySaleFee).div(100);\n      return marketplaceFeePayment + primarySalePayment;\n    }\n    return marketplaceFeePayment;\n  }\n  \n  /////////////////////////////////////////////////////////////////////////\n  // _calcRoyaltyPayment\n  /////////////////////////////////////////////////////////////////////////\n  /**\n  * @dev Internal function calculate royalty payment. \n  *      If primary sale: 0\n  *      otherwise:       artist royalty.\n  * @param _val uint256 value to be split\n  * @param _originContract address of the token contract\n  * @param _tokenId id of the token\n  */\n  function _calcRoyaltyPayment(\n    uint256 _val,\n    address _originContract,\n    uint256 _tokenId\n  ) \n    internal view returns (uint256) \n  {\n    bool isPrimarySale = !tokenSold[_originContract][_tokenId];\n    if (isPrimarySale) {\n      return 0;\n    }\n    return _val.mul(royaltyFee).div(100);\n  }\n\n  /////////////////////////////////////////////////////////////////////////\n  // _calcOwnerPayment\n  /////////////////////////////////////////////////////////////////////////\n  /**\n  * @dev Internal function calculate owner payment. \n  *      If primary sale: _val - split with marketplace,\n  *      otherwise:       _val - artist royalty.\n  * @param _val uint256 value to be split\n  * @param _originContract address of the token contract\n  * @param _tokenId id of the token\n  */\n  function _calcOwnerPayment(\n    uint256 _val,\n    address _originContract,\n    uint256 _tokenId\n  ) \n    internal view returns (uint256) \n  {\n    bool isPrimarySale = !tokenSold[_originContract][_tokenId];\n    if (isPrimarySale) {\n      uint256 primarySalePayment = _val.mul(primarySaleFee).div(100);\n      return _val - primarySalePayment;\n    }\n    uint256 royaltyPayment = _calcRoyaltyPayment(_val, _originContract, _tokenId);\n    return _val - royaltyPayment;\n  }\n\n  /////////////////////////////////////////////////////////////////////////\n  // _calcMarketplaceFee\n  /////////////////////////////////////////////////////////////////////////\n  /**\n  * @dev Internal function calculate marketplace fee for a given amount. \n  *      f(_val) =  _val * (fee % / 100)\n  * @param _val uint256 value to be split.\n  */\n  function _calcMarketplaceFee(\n    uint256 _val\n  ) \n    internal view returns (uint256) \n  {\n    return _val.mul(marketplaceFee).div(100);\n  }\n  \n  /////////////////////////////////////////////////////////////////////////\n  // _setTokenAsSold\n  /////////////////////////////////////////////////////////////////////////\n  /**\n  * @dev Internal function to set a token as sold.\n  * @param _originContract address of ERC721 contract.\n  * @param _tokenId uin256 id of the token.\n  */\n  function _setTokenAsSold(\n    address _originContract,\n    uint256 _tokenId\n  ) \n    internal\n  {\n    if (tokenSold[_originContract][_tokenId]) {\n      return;\n    }\n    tokenSold[_originContract][_tokenId] = true;\n  }\n\n  /////////////////////////////////////////////////////////////////////////\n  // _resetTokenPrice\n  /////////////////////////////////////////////////////////////////////////\n  /**\n  * @dev Internal function to set token price to 0 for a give contract.\n  * @param _originContract address of ERC721 contract.\n  * @param _tokenId uin256 id of the token.\n  */\n  function _resetTokenPrice(\n    address _originContract,\n    uint256 _tokenId\n  ) \n    internal\n  {\n    tokenPrices[_originContract][_tokenId] = 0;\n    tokenOwners[_originContract][_tokenId] = address(0);\n  }\n\n\n  /////////////////////////////////////////////////////////////////////////\n  // _addressHasBidOnToken\n  /////////////////////////////////////////////////////////////////////////\n  /**\n  * @dev Internal function see if the given address has an existing bid on a token\n  * @param _bidder address that may have a current bid.\n  * @param _originContract address of ERC721 contract.\n  * @param _tokenId uin256 id of the token.\n  */\n  function _addressHasBidOnToken(\n    address _bidder,\n    address _originContract,\n    uint256 _tokenId\n  ) \n    internal view returns (bool)\n  {\n    return tokenCurrentBidders[_originContract][_tokenId] == _bidder;\n  }\n\n  /////////////////////////////////////////////////////////////////////////\n  // _tokenHasBid\n  /////////////////////////////////////////////////////////////////////////\n  /**\n  * @dev Internal function see if the given address has an existing bid on a token\n  * @param _originContract address of ERC721 contract.\n  * @param _tokenId uin256 id of the token.\n  */\n  function _tokenHasBid(\n    address _originContract,\n    uint256 _tokenId\n  ) \n    internal view returns (bool) \n  {\n    return tokenCurrentBidders[_originContract][_tokenId] != address(0);\n  }\n\n  /////////////////////////////////////////////////////////////////////////\n  // _returnBid\n  /////////////////////////////////////////////////////////////////////////\n  /**\n  * @dev Internal function to return an existing bid on a token to the \n  *      bidder and reset bid.\n  * @param _originContract address of ERC721 contract.\n  * @param _tokenId uin256 id of the token.\n  */\n  function _returnBid(\n    address _originContract,\n    uint256 _tokenId\n  ) \n    internal \n  {\n    address currentBidder = tokenCurrentBidders[_originContract][_tokenId];\n    uint256 currentBid = tokenCurrentBids[_originContract][_tokenId];\n    uint256 valueToReturn = currentBid + _calcMarketplaceFee(currentBid);\n    if (currentBidder != address(0)) {\n      currentBidder.transfer(valueToReturn);\n      _resetBid(_originContract, _tokenId);\n    }\n  }\n\n  /////////////////////////////////////////////////////////////////////////\n  // _resetBid\n  /////////////////////////////////////////////////////////////////////////\n  /**\n  * @dev Internal function to return an existing bid on a token to the \n  *      bidder and reset bid.\n  * @param _originContract address of ERC721 contract.\n  * @param _tokenId uin256 id of the token.\n  */\n  function _resetBid(\n    address _originContract,\n    uint256 _tokenId\n  ) \n    internal \n  {\n    tokenCurrentBidders[_originContract][_tokenId] = address(0);\n    tokenCurrentBids[_originContract][_tokenId] = 0;\n  }\n\n  /////////////////////////////////////////////////////////////////////////\n  // _setBid\n  /////////////////////////////////////////////////////////////////////////\n  /**\n  * @dev Internal function to set a bid.\n  * @param _val uint256 value in wei to bid, plus marketplace fee.\n  * @param _bidder address of the bidder.\n  * @param _originContract address of ERC721 contract.\n  * @param _tokenId uin256 id of the token.\n  */\n  function _setBid(\n    uint256 _val,\n    address _bidder,\n    address _originContract,\n    uint256 _tokenId\n  ) \n    internal \n  {\n    // Check bidder not 0 address.\n    require(_bidder != address(0), \"Bidder cannot be 0 address.\");\n\n    // Set bid.\n    tokenCurrentBidders[_originContract][_tokenId] = _bidder;\n    tokenCurrentBids[_originContract][_tokenId] = _val;\n  }\n}\n",
  "sourcePath": "/Users/charlescrain/dev/pixura-contracts/truffle/contracts/SuperRareMarketAuction.sol",
  "compiler": {
    "name": "solc",
    "version": "0.4.24+commit.e67f0147.Emscripten.clang"
  },
  "schemaVersion": "2.0.1",
  "updatedAt": "2019-08-06T01:36:34.240Z"
}