{
  "contractName": "SuperRareV2",
  "abi": [
    {
      "constant": true,
      "inputs": [
        {
          "name": "interfaceId",
          "type": "bytes4"
        }
      ],
      "name": "supportsInterface",
      "outputs": [
        {
          "name": "",
          "type": "bool"
        }
      ],
      "payable": false,
      "stateMutability": "view",
      "type": "function"
    },
    {
      "constant": false,
      "inputs": [
        {
          "name": "_enabled",
          "type": "bool"
        }
      ],
      "name": "enableWhitelist",
      "outputs": [],
      "payable": false,
      "stateMutability": "nonpayable",
      "type": "function"
    },
    {
      "constant": true,
      "inputs": [],
      "name": "name",
      "outputs": [
        {
          "name": "",
          "type": "string"
        }
      ],
      "payable": false,
      "stateMutability": "view",
      "type": "function"
    },
    {
      "constant": true,
      "inputs": [
        {
          "name": "tokenId",
          "type": "uint256"
        }
      ],
      "name": "getApproved",
      "outputs": [
        {
          "name": "",
          "type": "address"
        }
      ],
      "payable": false,
      "stateMutability": "view",
      "type": "function"
    },
    {
      "constant": false,
      "inputs": [
        {
          "name": "to",
          "type": "address"
        },
        {
          "name": "tokenId",
          "type": "uint256"
        }
      ],
      "name": "approve",
      "outputs": [],
      "payable": false,
      "stateMutability": "nonpayable",
      "type": "function"
    },
    {
      "constant": true,
      "inputs": [],
      "name": "totalSupply",
      "outputs": [
        {
          "name": "",
          "type": "uint256"
        }
      ],
      "payable": false,
      "stateMutability": "view",
      "type": "function"
    },
    {
      "constant": false,
      "inputs": [
        {
          "name": "from",
          "type": "address"
        },
        {
          "name": "to",
          "type": "address"
        },
        {
          "name": "tokenId",
          "type": "uint256"
        }
      ],
      "name": "transferFrom",
      "outputs": [],
      "payable": false,
      "stateMutability": "nonpayable",
      "type": "function"
    },
    {
      "constant": true,
      "inputs": [
        {
          "name": "owner",
          "type": "address"
        },
        {
          "name": "index",
          "type": "uint256"
        }
      ],
      "name": "tokenOfOwnerByIndex",
      "outputs": [
        {
          "name": "",
          "type": "uint256"
        }
      ],
      "payable": false,
      "stateMutability": "view",
      "type": "function"
    },
    {
      "constant": true,
      "inputs": [
        {
          "name": "_address",
          "type": "address"
        }
      ],
      "name": "isWhitelisted",
      "outputs": [
        {
          "name": "",
          "type": "bool"
        }
      ],
      "payable": false,
      "stateMutability": "view",
      "type": "function"
    },
    {
      "constant": false,
      "inputs": [
        {
          "name": "from",
          "type": "address"
        },
        {
          "name": "to",
          "type": "address"
        },
        {
          "name": "tokenId",
          "type": "uint256"
        }
      ],
      "name": "safeTransferFrom",
      "outputs": [],
      "payable": false,
      "stateMutability": "nonpayable",
      "type": "function"
    },
    {
      "constant": true,
      "inputs": [
        {
          "name": "index",
          "type": "uint256"
        }
      ],
      "name": "tokenByIndex",
      "outputs": [
        {
          "name": "",
          "type": "uint256"
        }
      ],
      "payable": false,
      "stateMutability": "view",
      "type": "function"
    },
    {
      "constant": true,
      "inputs": [
        {
          "name": "tokenId",
          "type": "uint256"
        }
      ],
      "name": "ownerOf",
      "outputs": [
        {
          "name": "",
          "type": "address"
        }
      ],
      "payable": false,
      "stateMutability": "view",
      "type": "function"
    },
    {
      "constant": true,
      "inputs": [
        {
          "name": "owner",
          "type": "address"
        }
      ],
      "name": "balanceOf",
      "outputs": [
        {
          "name": "",
          "type": "uint256"
        }
      ],
      "payable": false,
      "stateMutability": "view",
      "type": "function"
    },
    {
      "constant": false,
      "inputs": [],
      "name": "renounceOwnership",
      "outputs": [],
      "payable": false,
      "stateMutability": "nonpayable",
      "type": "function"
    },
    {
      "constant": false,
      "inputs": [
        {
          "name": "_removedAddress",
          "type": "address"
        }
      ],
      "name": "removeFromWhitelist",
      "outputs": [],
      "payable": false,
      "stateMutability": "nonpayable",
      "type": "function"
    },
    {
      "constant": true,
      "inputs": [],
      "name": "owner",
      "outputs": [
        {
          "name": "",
          "type": "address"
        }
      ],
      "payable": false,
      "stateMutability": "view",
      "type": "function"
    },
    {
      "constant": true,
      "inputs": [],
      "name": "isOwner",
      "outputs": [
        {
          "name": "",
          "type": "bool"
        }
      ],
      "payable": false,
      "stateMutability": "view",
      "type": "function"
    },
    {
      "constant": true,
      "inputs": [],
      "name": "symbol",
      "outputs": [
        {
          "name": "",
          "type": "string"
        }
      ],
      "payable": false,
      "stateMutability": "view",
      "type": "function"
    },
    {
      "constant": false,
      "inputs": [
        {
          "name": "to",
          "type": "address"
        },
        {
          "name": "approved",
          "type": "bool"
        }
      ],
      "name": "setApprovalForAll",
      "outputs": [],
      "payable": false,
      "stateMutability": "nonpayable",
      "type": "function"
    },
    {
      "constant": false,
      "inputs": [
        {
          "name": "from",
          "type": "address"
        },
        {
          "name": "to",
          "type": "address"
        },
        {
          "name": "tokenId",
          "type": "uint256"
        },
        {
          "name": "_data",
          "type": "bytes"
        }
      ],
      "name": "safeTransferFrom",
      "outputs": [],
      "payable": false,
      "stateMutability": "nonpayable",
      "type": "function"
    },
    {
      "constant": true,
      "inputs": [
        {
          "name": "tokenId",
          "type": "uint256"
        }
      ],
      "name": "tokenURI",
      "outputs": [
        {
          "name": "",
          "type": "string"
        }
      ],
      "payable": false,
      "stateMutability": "view",
      "type": "function"
    },
    {
      "constant": false,
      "inputs": [
        {
          "name": "_newAddress",
          "type": "address"
        }
      ],
      "name": "addToWhitelist",
      "outputs": [],
      "payable": false,
      "stateMutability": "nonpayable",
      "type": "function"
    },
    {
      "constant": true,
      "inputs": [
        {
          "name": "owner",
          "type": "address"
        },
        {
          "name": "operator",
          "type": "address"
        }
      ],
      "name": "isApprovedForAll",
      "outputs": [
        {
          "name": "",
          "type": "bool"
        }
      ],
      "payable": false,
      "stateMutability": "view",
      "type": "function"
    },
    {
      "constant": false,
      "inputs": [
        {
          "name": "newOwner",
          "type": "address"
        }
      ],
      "name": "transferOwnership",
      "outputs": [],
      "payable": false,
      "stateMutability": "nonpayable",
      "type": "function"
    },
    {
      "inputs": [
        {
          "name": "_name",
          "type": "string"
        },
        {
          "name": "_symbol",
          "type": "string"
        },
        {
          "name": "_oldSuperRare",
          "type": "address"
        }
      ],
      "payable": false,
      "stateMutability": "nonpayable",
      "type": "constructor"
    },
    {
      "anonymous": false,
      "inputs": [
        {
          "indexed": true,
          "name": "_tokenId",
          "type": "uint256"
        },
        {
          "indexed": false,
          "name": "_uri",
          "type": "string"
        }
      ],
      "name": "TokenURIUpdated",
      "type": "event"
    },
    {
      "anonymous": false,
      "inputs": [
        {
          "indexed": true,
          "name": "_newAddress",
          "type": "address"
        }
      ],
      "name": "AddToWhitelist",
      "type": "event"
    },
    {
      "anonymous": false,
      "inputs": [
        {
          "indexed": true,
          "name": "_newAddress",
          "type": "address"
        }
      ],
      "name": "RemoveFromWhitelist",
      "type": "event"
    },
    {
      "anonymous": false,
      "inputs": [
        {
          "indexed": true,
          "name": "previousOwner",
          "type": "address"
        },
        {
          "indexed": true,
          "name": "newOwner",
          "type": "address"
        }
      ],
      "name": "OwnershipTransferred",
      "type": "event"
    },
    {
      "anonymous": false,
      "inputs": [
        {
          "indexed": true,
          "name": "from",
          "type": "address"
        },
        {
          "indexed": true,
          "name": "to",
          "type": "address"
        },
        {
          "indexed": true,
          "name": "tokenId",
          "type": "uint256"
        }
      ],
      "name": "Transfer",
      "type": "event"
    },
    {
      "anonymous": false,
      "inputs": [
        {
          "indexed": true,
          "name": "owner",
          "type": "address"
        },
        {
          "indexed": true,
          "name": "approved",
          "type": "address"
        },
        {
          "indexed": true,
          "name": "tokenId",
          "type": "uint256"
        }
      ],
      "name": "Approval",
      "type": "event"
    },
    {
      "anonymous": false,
      "inputs": [
        {
          "indexed": true,
          "name": "owner",
          "type": "address"
        },
        {
          "indexed": true,
          "name": "operator",
          "type": "address"
        },
        {
          "indexed": false,
          "name": "approved",
          "type": "bool"
        }
      ],
      "name": "ApprovalForAll",
      "type": "event"
    },
    {
      "constant": false,
      "inputs": [
        {
          "name": "_uri",
          "type": "string"
        }
      ],
      "name": "addNewToken",
      "outputs": [],
      "payable": true,
      "stateMutability": "payable",
      "type": "function"
    },
    {
      "constant": false,
      "inputs": [
        {
          "name": "_tokenId",
          "type": "uint256"
        }
      ],
      "name": "deleteToken",
      "outputs": [],
      "payable": false,
      "stateMutability": "nonpayable",
      "type": "function"
    },
    {
      "constant": false,
      "inputs": [
        {
          "name": "_tokenId",
          "type": "uint256"
        },
        {
          "name": "_uri",
          "type": "string"
        }
      ],
      "name": "updateTokenMetadata",
      "outputs": [],
      "payable": false,
      "stateMutability": "nonpayable",
      "type": "function"
    },
    {
      "constant": true,
      "inputs": [
        {
          "name": "_tokenId",
          "type": "uint256"
        }
      ],
      "name": "tokenCreator",
      "outputs": [
        {
          "name": "",
          "type": "address"
        }
      ],
      "payable": false,
      "stateMutability": "view",
      "type": "function"
    }
  ],
  "bytecode": "0x6080604052600e805460ff191660011790553480156200001e57600080fd5b5060405162001dc938038062001dc983398101604090815281516020830151918301519083019291909101906000808085858181620000867f01ffc9a70000000000000000000000000000000000000000000000000000000064010000000062000339810204565b620000ba7f80ac58cd0000000000000000000000000000000000000000000000000000000064010000000062000339810204565b620000ee7f780e9d630000000000000000000000000000000000000000000000000000000064010000000062000339810204565b8151620001039060099060208501906200042d565b5080516200011990600a9060208401906200042d565b506200014e7f5b5e139f0000000000000000000000000000000000000000000000000000000064010000000062000339810204565b5050600c8054600160a060020a031916331790819055604051600160a060020a03919091169250600091507f8be0079c531659141344cd1fd0a4f28419497f9722a3daafe3b4186f6b6457e0908290a360118054600160a060020a031916600160a060020a038681169190911791829055604080517f18160ddd000000000000000000000000000000000000000000000000000000008152905192909116916318160ddd916004808201926020929091908290030181600087803b1580156200021657600080fd5b505af11580156200022b573d6000803e3d6000fd5b505050506040513d60208110156200024257600080fd5b5051600180820160105590935091505b8282116200032d57601154604080517fd5da8d44000000000000000000000000000000000000000000000000000000008152600481018590529051600160a060020a039092169163d5da8d44916024808201926020929091908290030181600087803b158015620002c257600080fd5b505af1158015620002d7573d6000803e3d6000fd5b505050506040513d6020811015620002ee57600080fd5b505190506200030681640100000000620003a6810204565b151562000321576200032181640100000000620003e1810204565b60019091019062000252565b505050505050620004d2565b7fffffffff0000000000000000000000000000000000000000000000000000000080821614156200036957600080fd5b7fffffffff00000000000000000000000000000000000000000000000000000000166000908152602081905260409020805460ff19166001179055565b600e5460009060ff1615620003d85750600160a060020a0381166000908152600d602052604090205460ff16620003dc565b5060015b919050565b600160a060020a0381166000818152600d6020526040808220805460ff19166001179055517f75b2135d1c8c3519f3c09c43fe6527089ef09f40c7981ebf0ed46e79e79032c79190a250565b828054600181600116156101000203166002900490600052602060002090601f016020900481019282601f106200047057805160ff1916838001178555620004a0565b82800160010185558215620004a0579182015b82811115620004a057825182559160200191906001019062000483565b50620004ae929150620004b2565b5090565b620004cf91905b80821115620004ae5760008155600101620004b9565b90565b6118e780620004e26000396000f3006080604052600436106101695763ffffffff7c010000000000000000000000000000000000000000000000000000000060003504166301ffc9a7811461016e578063040b6583146101b957806306fdde03146101d5578063081812fc1461025f578063095ea7b31461029357806318160ddd146102b757806323b872dd146102de5780632cb2f52e146103085780632f745c59146103665780633af32abf1461038a57806340c1a064146103ab57806342842e0e146103c35780634f6ccce7146103ed5780636297c16c146104055780636352211e1461041d57806370a0823114610435578063715018a6146104565780638ab1d6811461046b5780638da5cb5b1461048c5780638f32d59b146104a157806395d89b41146104b6578063a22cb465146104cb578063b88d4fde146104f1578063c87b56dd14610560578063d9856c2114610578578063e43252d7146105c4578063e985e9c5146105e5578063f2fde38b1461060c575b600080fd5b34801561017a57600080fd5b506101a57bffffffffffffffffffffffffffffffffffffffffffffffffffffffff196004351661062d565b604080519115158252519081900360200190f35b3480156101c557600080fd5b506101d36004351515610665565b005b3480156101e157600080fd5b506101ea61068b565b6040805160208082528351818301528351919283929083019185019080838360005b8381101561022457818101518382015260200161020c565b50505050905090810190601f1680156102515780820380516001836020036101000a031916815260200191505b509250505060405180910390f35b34801561026b57600080fd5b50610277600435610722565b60408051600160a060020a039092168252519081900360200190f35b34801561029f57600080fd5b506101d3600160a060020a0360043516602435610754565b3480156102c357600080fd5b506102cc6107fd565b60408051918252519081900360200190f35b3480156102ea57600080fd5b506101d3600160a060020a0360043581169060243516604435610803565b34801561031457600080fd5b5060408051602060046024803582810135601f81018590048502860185019096528585526101d39583359536956044949193909101919081908401838280828437509497506108919650505050505050565b34801561037257600080fd5b506102cc600160a060020a0360043516602435610a19565b34801561039657600080fd5b506101a5600160a060020a0360043516610a66565b3480156103b757600080fd5b50610277600435610a9e565b3480156103cf57600080fd5b506101d3600160a060020a0360043581169060243516604435610ab9565b3480156103f957600080fd5b506102cc600435610ada565b34801561041157600080fd5b506101d3600435610b0f565b34801561042957600080fd5b50610277600435610b87565b34801561044157600080fd5b506102cc600160a060020a0360043516610bb1565b34801561046257600080fd5b506101d3610be4565b34801561047757600080fd5b506101d3600160a060020a0360043516610c41565b34801561049857600080fd5b50610277610c60565b3480156104ad57600080fd5b506101a5610c6f565b3480156104c257600080fd5b506101ea610c80565b3480156104d757600080fd5b506101d3600160a060020a03600435166024351515610ce1565b3480156104fd57600080fd5b50604080516020601f6064356004818101359283018490048402850184019095528184526101d394600160a060020a038135811695602480359092169560443595369560849401918190840183828082843750949750610d659650505050505050565b34801561056c57600080fd5b506101ea600435610d8d565b6040805160206004803580820135601f81018490048402850184019095528484526101d3943694929360249392840191908190840183828082843750949750610e429650505050505050565b3480156105d057600080fd5b506101d3600160a060020a0360043516610ed4565b3480156105f157600080fd5b506101a5600160a060020a0360043581169060243516610ef0565b34801561061857600080fd5b506101d3600160a060020a0360043516610f1e565b7bffffffffffffffffffffffffffffffffffffffffffffffffffffffff19811660009081526020819052604090205460ff165b919050565b61066d610c6f565b151561067857600080fd5b600e805460ff1916911515919091179055565b60098054604080516020601f60026000196101006001881615020190951694909404938401819004810282018101909252828152606093909290918301828280156107175780601f106106ec57610100808354040283529160200191610717565b820191906000526020600020905b8154815290600101906020018083116106fa57829003601f168201915b505050505090505b90565b600061072d82610f3a565b151561073857600080fd5b50600090815260026020526040902054600160a060020a031690565b600061075f82610b87565b9050600160a060020a03838116908216141561077a57600080fd5b33600160a060020a038216148061079657506107968133610ef0565b15156107a157600080fd5b6000828152600260205260408082208054600160a060020a031916600160a060020a0387811691821790925591518593918516917f8c5be1e5ebec7d5bd14f71427d1e84f3dd0314c0f7b2291e5b200ac8c7c3b92591a4505050565b60075490565b61080d3382610f57565b151561081857600080fd5b600160a060020a038216151561082d57600080fd5b6108378382610fb6565b6108418382611018565b61084b828261111f565b8082600160a060020a031684600160a060020a03167fddf252ad1be2c89b69c2b068fc378daa952ba7f163c4a11628f55a4df523b3ef60405160405180910390a4505050565b81600061089d82610b87565b9050600160a060020a03811633146108ff576040805160e560020a62461bcd02815260206004820152601e60248201527f6d75737420626520746865206f776e6572206f662074686520746f6b656e0000604482015290519081900360640190fd5b83600061090b82610a9e565b9050600160a060020a038116331461096d576040805160e560020a62461bcd02815260206004820181905260248201527f6d757374206265207468652063726561746f72206f662074686520746f6b656e604482015290519081900360640190fd5b6109778686611168565b857f931f495b9a8e5d8e61946ea5d61e021f636cfe213a801f97589c18c152e408bd866040518080602001828103825283818151815260200191508051906020019080838360005b838110156109d75781810151838201526020016109bf565b50505050905090810190601f168015610a045780820380516001836020036101000a031916815260200191505b509250505060405180910390a2505050505050565b6000610a2483610bb1565b8210610a2f57600080fd5b600160a060020a0383166000908152600560205260409020805483908110610a5357fe5b9060005260206000200154905092915050565b600e5460009060ff1615610a965750600160a060020a0381166000908152600d602052604090205460ff16610660565b506001610660565b6000908152600f6020526040902054600160a060020a031690565b610ad58383836020604051908101604052806000815250610d65565b505050565b6000610ae46107fd565b8210610aef57600080fd5b6007805483908110610afd57fe5b90600052602060002001549050919050565b806000610b1b82610b87565b9050600160a060020a0381163314610b7d576040805160e560020a62461bcd02815260206004820152601e60248201527f6d75737420626520746865206f776e6572206f662074686520746f6b656e0000604482015290519081900360640190fd5b610ad5338461119b565b600081815260016020526040812054600160a060020a0316801515610bab57600080fd5b92915050565b6000600160a060020a0382161515610bc857600080fd5b50600160a060020a031660009081526003602052604090205490565b610bec610c6f565b1515610bf757600080fd5b600c54604051600091600160a060020a0316907f8be0079c531659141344cd1fd0a4f28419497f9722a3daafe3b4186f6b6457e0908390a3600c8054600160a060020a0319169055565b610c49610c6f565b1515610c5457600080fd5b610c5d816111e3565b50565b600c54600160a060020a031690565b600c54600160a060020a0316331490565b600a8054604080516020601f60026000196101006001881615020190951694909404938401819004810282018101909252828152606093909290918301828280156107175780601f106106ec57610100808354040283529160200191610717565b600160a060020a038216331415610cf757600080fd5b336000818152600460209081526040808320600160a060020a03871680855290835292819020805460ff1916861515908117909155815190815290519293927f17307eab39ab6107e8899845ad3d59bd9653f200f220920489ca2b5937696c31929181900390910190a35050565b610d70848484610803565b610d7c8484848461122c565b1515610d8757600080fd5b50505050565b6060610d9882610f3a565b1515610da357600080fd5b6000828152600b602090815260409182902080548351601f600260001961010060018616150201909316929092049182018490048402810184019094528084529091830182828015610e365780601f10610e0b57610100808354040283529160200191610e36565b820191906000526020600020905b815481529060010190602001808311610e1957829003601f168201915b50505050509050919050565b610e4b33610a66565b1515610ec6576040805160e560020a62461bcd028152602060048201526024808201527f6d7573742062652077686974656c697374656420746f2063726561746520746f60448201527f6b656e7300000000000000000000000000000000000000000000000000000000606482015290519081900360840190fd5b610ed081336113ae565b5050565b610edc610c6f565b1515610ee757600080fd5b610c5d816113e1565b600160a060020a03918216600090815260046020908152604080832093909416825291909152205460ff1690565b610f26610c6f565b1515610f3157600080fd5b610c5d8161142d565b600090815260016020526040902054600160a060020a0316151590565b600080610f6383610b87565b905080600160a060020a031684600160a060020a03161480610f9e575083600160a060020a0316610f9384610722565b600160a060020a0316145b80610fae5750610fae8185610ef0565b949350505050565b81600160a060020a0316610fc982610b87565b600160a060020a031614610fdc57600080fd5b600081815260026020526040902054600160a060020a031615610ed05760009081526002602052604090208054600160a060020a031916905550565b6000806000611027858561149e565b600084815260066020908152604080832054600160a060020a038916845260059092529091205490935061106290600163ffffffff61152716565b600160a060020a03861660009081526005602052604090208054919350908390811061108a57fe5b90600052602060002001549050806005600087600160a060020a0316600160a060020a03168152602001908152602001600020848154811015156110ca57fe5b6000918252602080832090910192909255600160a060020a03871681526005909152604090208054906111019060001983016117bf565b50600093845260066020526040808520859055908452909220555050565b600061112b838361153e565b50600160a060020a039091166000908152600560209081526040808320805460018101825590845282842081018590559383526006909152902055565b61117182610f3a565b151561117c57600080fd5b6000828152600b602090815260409091208251610ad5928401906117e3565b6111a582826115c1565b6000818152600b60205260409020546002600019610100600184161502019091160415610ed0576000818152600b60205260408120610ed091611861565b600160a060020a0381166000818152600d6020526040808220805460ff19169055517f1f756c8b089af6b33ee121fee8badac2553a2fa89c0575ea91ff8792617746c29190a250565b60008061124185600160a060020a031661167d565b151561125057600191506113a5565b6040517f150b7a020000000000000000000000000000000000000000000000000000000081523360048201818152600160a060020a03898116602485015260448401889052608060648501908152875160848601528751918a169463150b7a0294938c938b938b93909160a490910190602085019080838360005b838110156112e35781810151838201526020016112cb565b50505050905090810190601f1680156113105780820380516001836020036101000a031916815260200191505b5095505050505050602060405180830381600087803b15801561133257600080fd5b505af1158015611346573d6000803e3d6000fd5b505050506040513d602081101561135c57600080fd5b50517bffffffffffffffffffffffffffffffffffffffffffffffffffffffff1981167f150b7a020000000000000000000000000000000000000000000000000000000014925090505b50949350505050565b60108054600181019091556000906113c68382611685565b6113d08185611168565b6113da81846116d4565b9392505050565b600160a060020a0381166000818152600d6020526040808220805460ff19166001179055517f75b2135d1c8c3519f3c09c43fe6527089ef09f40c7981ebf0ed46e79e79032c79190a250565b600160a060020a038116151561144257600080fd5b600c54604051600160a060020a038084169216907f8be0079c531659141344cd1fd0a4f28419497f9722a3daafe3b4186f6b6457e090600090a3600c8054600160a060020a031916600160a060020a0392909216919091179055565b81600160a060020a03166114b182610b87565b600160a060020a0316146114c457600080fd5b600160a060020a0382166000908152600360205260409020546114ee90600163ffffffff61152716565b600160a060020a039092166000908152600360209081526040808320949094559181526001909152208054600160a060020a0319169055565b6000808383111561153757600080fd5b5050900390565b600081815260016020526040902054600160a060020a03161561156057600080fd5b60008181526001602081815260408084208054600160a060020a031916600160a060020a03881690811790915584526003909152909120546115a191611702565b600160a060020a0390921660009081526003602052604090209190915550565b60008060006115d08585611714565b6000848152600860205260409020546007549093506115f690600163ffffffff61152716565b915060078281548110151561160757fe5b906000526020600020015490508060078481548110151561162457fe5b6000918252602082200191909155600780548490811061164057fe5b600091825260209091200155600780549061165f9060001983016117bf565b50600093845260086020526040808520859055908452909220555050565b6000903b1190565b61168f8282611764565b600780546000838152600860205260408120829055600182018355919091527fa66cc928b5edb82af9bd49922954155ab7b0942694bea4ce44661d9a8736c688015550565b6000918252600f60205260409091208054600160a060020a031916600160a060020a03909216919091179055565b6000828201838110156113da57600080fd5b61171e8282610fb6565b6117288282611018565b6040518190600090600160a060020a038516907fddf252ad1be2c89b69c2b068fc378daa952ba7f163c4a11628f55a4df523b3ef908390a45050565b600160a060020a038216151561177957600080fd5b611783828261111f565b6040518190600160a060020a038416906000907fddf252ad1be2c89b69c2b068fc378daa952ba7f163c4a11628f55a4df523b3ef908290a45050565b815481835581811115610ad557600083815260209020610ad59181019083016118a1565b828054600181600116156101000203166002900490600052602060002090601f016020900481019282601f1061182457805160ff1916838001178555611851565b82800160010185558215611851579182015b82811115611851578251825591602001919060010190611836565b5061185d9291506118a1565b5090565b50805460018160011615610100020316600290046000825580601f106118875750610c5d565b601f016020900490600052602060002090810190610c5d91905b61071f91905b8082111561185d57600081556001016118a75600a165627a7a72305820bdc2d3a7cb671ad523d9c33417f13b03d72e7e82b0d171e5bea8af3ddc5506440029",
  "source": "pragma solidity ^0.4.24;\n\n\nimport \"../node_modules/openzeppelin-solidity/contracts/token/ERC721/ERC721Full.sol\";\nimport \"../node_modules/openzeppelin-solidity/contracts/ownership/Ownable.sol\";\nimport \"../node_modules/openzeppelin-solidity/contracts/math/SafeMath.sol\";\nimport \"./IERC721Creator.sol\";\nimport \"./Operated.sol\";\nimport \"./Whitelist.sol\";\nimport \"./ISuperRare.sol\";\n\ncontract SuperRareV2 is ERC721Full, IERC721Creator, Ownable, Whitelist {\n    using SafeMath for uint256;\n\n    // Mapping from token ID to the creator's address.\n    mapping(uint256 => address) private tokenCreators;\n\n    // Counter for creating token IDs\n    uint256 private idCounter;\n\n    // Old SuperRare contract to look up token details.\n    ISuperRare private oldSuperRare;\n\n    // Event indicating metadata was updated.\n    event TokenURIUpdated(uint256 indexed _tokenId, string  _uri);\n\n    constructor(\n      string _name,\n      string _symbol,\n      address _oldSuperRare\n    )\n    ERC721Full(_name, _symbol)\n    {\n      // Get reference to old SR contract.\n      oldSuperRare = ISuperRare(_oldSuperRare);\n\n      uint256 oldSupply = oldSuperRare.totalSupply();\n      // Set id counter to be continuous with SuperRare.\n      idCounter = oldSupply + 1;\n      \n      // Copy over whitelisting permissions.\n      for (uint256 i = 1; i <= oldSupply; i++) {\n        address creator = oldSuperRare.creatorOfToken(i);\n        if (!isWhitelisted(creator)) {\n          _whitelist(creator);\n        }\n      }\n    }\n\n    /**\n     * @dev Checks that the token is owned by the sender.\n     * @param _tokenId uint256 ID of the token.\n     */\n    modifier onlyTokenOwner(uint256 _tokenId) {\n      address owner = ownerOf(_tokenId);\n      require(owner == msg.sender, \"must be the owner of the token\");\n      _;\n    }\n\n    /**\n     * @dev Checks that the token is created by the sender.\n     * @param _tokenId uint256 ID of the token.\n     */\n    modifier onlyTokenCreator(uint256 _tokenId) {\n      address creator = tokenCreator(_tokenId);\n      require(creator == msg.sender, \"must be the creator of the token\");\n      _;\n    }\n\n    /**\n     * @dev Adds a new unique token to the supply.\n     * @param _uri string metadata uri associated with the token.\n     */\n    function addNewToken(string _uri) public payable {\n      require(isWhitelisted(msg.sender), \"must be whitelisted to create tokens\");\n      _createToken(_uri, msg.sender);\n    }\n\n    /**\n     * @dev Deletes the token with the provided ID.\n     * @param _tokenId uint256 ID of the token.\n     */\n    function deleteToken(uint256 _tokenId) public onlyTokenOwner(_tokenId) {\n      _burn(msg.sender, _tokenId);\n    }\n\n    /**\n     * @dev Updates the token metadata URI ONLY if the owner is also the\n     *      creator.\n     * @param _tokenId uint256 ID of the token.\n     * @param _uri string metadata URI.\n     */\n    function updateTokenMetadata(uint256 _tokenId, string _uri)\n      public\n      onlyTokenOwner(_tokenId)\n      onlyTokenCreator(_tokenId)\n    {\n      _setTokenURI(_tokenId, _uri);\n      emit TokenURIUpdated(_tokenId, _uri);\n    }\n\n    /**\n    * @dev Gets the creator of the token.\n    * @param _tokenId uint256 ID of the token.\n    * @return address of the creator.\n    */\n    function tokenCreator(uint256 _tokenId) public view returns (address) {\n        return tokenCreators[_tokenId];\n    }\n\n    /**\n     * @dev Internal function for setting the token's creator.\n     * @param _tokenId uint256 id of the token.\n     * @param _creator address of the creator of the token.\n     */\n    function _setTokenCreator(uint256 _tokenId, address _creator) internal {\n      tokenCreators[_tokenId] = _creator;\n    }\n\n    /**\n     * @dev Internal function creating a new token.\n     * @param _uri string metadata uri associated with the token\n     * @param _creator address of the creator of the token.\n     */\n    function _createToken(string _uri, address _creator) internal returns (uint256){\n      uint256 newId = idCounter;\n      idCounter++;\n      _mint(_creator, newId);\n      _setTokenURI(newId, _uri);\n      _setTokenCreator(newId,_creator);\n      return newId;\n    }\n}\n",
  "sourcePath": "/Users/jcrain/Dev/Pixura/pixura-contracts/truffle/contracts/SuperRareV2.sol",
  "compiler": {
    "name": "solc",
    "version": "0.4.24+commit.e67f0147.Emscripten.clang"
  },
  "schemaVersion": "2.0.1",
  "updatedAt": "2019-08-06T18:19:35.682Z"
}