{
  "contractName": "Whitelist",
  "abi": [
    {
      "constant": false,
      "inputs": [],
      "name": "renounceOwnership",
      "outputs": [],
      "payable": false,
      "stateMutability": "nonpayable",
      "type": "function"
    },
    {
      "constant": true,
      "inputs": [],
      "name": "owner",
      "outputs": [
        {
          "name": "",
          "type": "address"
        }
      ],
      "payable": false,
      "stateMutability": "view",
      "type": "function"
    },
    {
      "constant": false,
      "inputs": [
        {
          "name": "_newOwner",
          "type": "address"
        }
      ],
      "name": "transferOwnership",
      "outputs": [],
      "payable": false,
      "stateMutability": "nonpayable",
      "type": "function"
    },
    {
      "anonymous": false,
      "inputs": [
        {
          "indexed": true,
          "name": "_newAddress",
          "type": "address"
        }
      ],
      "name": "AddToWhitelist",
      "type": "event"
    },
    {
      "anonymous": false,
      "inputs": [
        {
          "indexed": true,
          "name": "_newAddress",
          "type": "address"
        }
      ],
      "name": "RemoveFromWhitelist",
      "type": "event"
    },
    {
      "anonymous": false,
      "inputs": [
        {
          "indexed": true,
          "name": "previousOwner",
          "type": "address"
        }
      ],
      "name": "OwnershipRenounced",
      "type": "event"
    },
    {
      "anonymous": false,
      "inputs": [
        {
          "indexed": true,
          "name": "previousOwner",
          "type": "address"
        },
        {
          "indexed": true,
          "name": "newOwner",
          "type": "address"
        }
      ],
      "name": "OwnershipTransferred",
      "type": "event"
    },
    {
      "constant": false,
      "inputs": [
        {
          "name": "_newAddress",
          "type": "address"
        }
      ],
      "name": "addToWhitelist",
      "outputs": [],
      "payable": false,
      "stateMutability": "nonpayable",
      "type": "function"
    },
    {
      "constant": false,
      "inputs": [
        {
          "name": "_removedAddress",
          "type": "address"
        }
      ],
      "name": "removeFromWhitelist",
      "outputs": [],
      "payable": false,
      "stateMutability": "nonpayable",
      "type": "function"
    },
    {
      "constant": true,
      "inputs": [
        {
          "name": "_address",
          "type": "address"
        }
      ],
      "name": "isWhitelisted",
      "outputs": [
        {
          "name": "",
          "type": "bool"
        }
      ],
      "payable": false,
      "stateMutability": "view",
      "type": "function"
    }
  ],
  "bytecode": "0x608060405260008054600160a060020a0319163317905561038d806100256000396000f3006080604052600436106100775763ffffffff7c01000000000000000000000000000000000000000000000000000000006000350416633af32abf811461007c578063715018a6146100b15780638ab1d681146100c85780638da5cb5b146100e9578063e43252d71461011a578063f2fde38b1461013b575b600080fd5b34801561008857600080fd5b5061009d600160a060020a036004351661015c565b604080519115158252519081900360200190f35b3480156100bd57600080fd5b506100c661017a565b005b3480156100d457600080fd5b506100c6600160a060020a03600435166101e6565b3480156100f557600080fd5b506100fe61024c565b60408051600160a060020a039092168252519081900360200190f35b34801561012657600080fd5b506100c6600160a060020a036004351661025b565b34801561014757600080fd5b506100c6600160a060020a03600435166102c1565b600160a060020a031660009081526001602052604090205460ff1690565b600054600160a060020a0316331461019157600080fd5b60008054604051600160a060020a03909116917ff8df31144d9c2f0f6b59d69b8b98abd5459d07f2742c4df920b25aae33c6482091a26000805473ffffffffffffffffffffffffffffffffffffffff19169055565b600054600160a060020a031633146101fd57600080fd5b600160a060020a0381166000818152600160208190526040808320805460ff1916909217909155517f1f756c8b089af6b33ee121fee8badac2553a2fa89c0575ea91ff8792617746c29190a250565b600054600160a060020a031681565b600054600160a060020a0316331461027257600080fd5b600160a060020a0381166000818152600160208190526040808320805460ff1916909217909155517f75b2135d1c8c3519f3c09c43fe6527089ef09f40c7981ebf0ed46e79e79032c79190a250565b600054600160a060020a031633146102d857600080fd5b6102e1816102e4565b50565b600160a060020a03811615156102f957600080fd5b60008054604051600160a060020a03808516939216917f8be0079c531659141344cd1fd0a4f28419497f9722a3daafe3b4186f6b6457e091a36000805473ffffffffffffffffffffffffffffffffffffffff1916600160a060020a03929092169190911790555600a165627a7a723058208e7b4400398e2b1792c652ab112e2c413691ee4d02ed3c615da8e98a482337970029",
  "source": "pragma solidity ^0.4.24;\n\nimport '../node_modules/zeppelin-solidity/contracts/ownership/Ownable.sol';\nimport './WhitelistInterface.sol';\n\ncontract Whitelist is Ownable, WhitelistInterface {\n\n  // Mapping of address to boolean indicating whether the address is whitelisted\n  mapping(address => bool) private whitelist;\n\n  event AddToWhitelist(address indexed _newAddress);\n  event RemoveFromWhitelist(address indexed _newAddress);\n\n  /**\n   * @dev Adds the provided address to the whitelist\n   * @param _newAddress address to be added to the whitelist\n   */\n  function addToWhitelist(address _newAddress) public onlyOwner {\n    whitelist[_newAddress] = true;\n    emit AddToWhitelist(_newAddress);\n  }\n\n  /**\n   * @dev Removes the provided address to the whitelist\n   * @param _removedAddress address to be removed from the whitelist\n   */\n  function removeFromWhitelist(address _removedAddress) public onlyOwner {\n    whitelist[_removedAddress] = true;\n    emit RemoveFromWhitelist(_removedAddress);\n  }\n\n  /**\n   * @dev Returns whether the address is whitelisted\n   * @param _address address to check\n   * @return bool\n   */\n  function isWhitelisted(address _address) external view returns (bool) {\n    return whitelist[_address];\n  }\n}\n",
  "sourcePath": "/Users/charlescrain/dev/pixura-contracts/truffle/contracts/Whitelist.sol",
  "compiler": {
    "name": "solc",
    "version": "0.4.24+commit.e67f0147.Emscripten.clang"
  },
  "schemaVersion": "2.0.1",
  "updatedAt": "2018-12-10T21:24:41.914Z"
}