{
  "contractName": "Whitelist",
  "abi": [
    {
      "constant": false,
      "inputs": [],
      "name": "renounceOwnership",
      "outputs": [],
      "payable": false,
      "stateMutability": "nonpayable",
      "type": "function"
    },
    {
      "constant": true,
      "inputs": [],
      "name": "owner",
      "outputs": [
        {
          "name": "",
          "type": "address"
        }
      ],
      "payable": false,
      "stateMutability": "view",
      "type": "function"
    },
    {
      "constant": true,
      "inputs": [],
      "name": "isOwner",
      "outputs": [
        {
          "name": "",
          "type": "bool"
        }
      ],
      "payable": false,
      "stateMutability": "view",
      "type": "function"
    },
    {
      "constant": false,
      "inputs": [
        {
          "name": "newOwner",
          "type": "address"
        }
      ],
      "name": "transferOwnership",
      "outputs": [],
      "payable": false,
      "stateMutability": "nonpayable",
      "type": "function"
    },
    {
      "anonymous": false,
      "inputs": [
        {
          "indexed": true,
          "name": "_newAddress",
          "type": "address"
        }
      ],
      "name": "AddToWhitelist",
      "type": "event"
    },
    {
      "anonymous": false,
      "inputs": [
        {
          "indexed": true,
          "name": "_newAddress",
          "type": "address"
        }
      ],
      "name": "RemoveFromWhitelist",
      "type": "event"
    },
    {
      "anonymous": false,
      "inputs": [
        {
          "indexed": true,
          "name": "previousOwner",
          "type": "address"
        },
        {
          "indexed": true,
          "name": "newOwner",
          "type": "address"
        }
      ],
      "name": "OwnershipTransferred",
      "type": "event"
    },
    {
      "constant": false,
      "inputs": [
        {
          "name": "_enabled",
          "type": "bool"
        }
      ],
      "name": "enableWhitelist",
      "outputs": [],
      "payable": false,
      "stateMutability": "nonpayable",
      "type": "function"
    },
    {
      "constant": false,
      "inputs": [
        {
          "name": "_newAddress",
          "type": "address"
        }
      ],
      "name": "addToWhitelist",
      "outputs": [],
      "payable": false,
      "stateMutability": "nonpayable",
      "type": "function"
    },
    {
      "constant": false,
      "inputs": [
        {
          "name": "_removedAddress",
          "type": "address"
        }
      ],
      "name": "removeFromWhitelist",
      "outputs": [],
      "payable": false,
      "stateMutability": "nonpayable",
      "type": "function"
    },
    {
      "constant": true,
      "inputs": [
        {
          "name": "_address",
          "type": "address"
        }
      ],
      "name": "isWhitelisted",
      "outputs": [
        {
          "name": "",
          "type": "bool"
        }
      ],
      "payable": false,
      "stateMutability": "view",
      "type": "function"
    }
  ],
  "bytecode": "0x608060408190526002805460ff1916600117905560008054600160a060020a0319163317808255600160a060020a0316917f8be0079c531659141344cd1fd0a4f28419497f9722a3daafe3b4186f6b6457e0908290a3610422806100646000396000f30060806040526004361061008d5763ffffffff7c0100000000000000000000000000000000000000000000000000000000600035041663040b658381146100925780633af32abf146100ae578063715018a6146100e35780638ab1d681146100f85780638da5cb5b146101195780638f32d59b1461014a578063e43252d71461015f578063f2fde38b14610180575b600080fd5b34801561009e57600080fd5b506100ac60043515156101a1565b005b3480156100ba57600080fd5b506100cf600160a060020a03600435166101c7565b604080519115158252519081900360200190f35b3480156100ef57600080fd5b506100ac610200565b34801561010457600080fd5b506100ac600160a060020a036004351661026a565b34801561012557600080fd5b5061012e610289565b60408051600160a060020a039092168252519081900360200190f35b34801561015657600080fd5b506100cf610298565b34801561016b57600080fd5b506100ac600160a060020a03600435166102a9565b34801561018c57600080fd5b506100ac600160a060020a03600435166102c5565b6101a9610298565b15156101b457600080fd5b6002805460ff1916911515919091179055565b60025460009060ff16156101f75750600160a060020a03811660009081526001602052604090205460ff166101fb565b5060015b919050565b610208610298565b151561021357600080fd5b60008054604051600160a060020a03909116907f8be0079c531659141344cd1fd0a4f28419497f9722a3daafe3b4186f6b6457e0908390a36000805473ffffffffffffffffffffffffffffffffffffffff19169055565b610272610298565b151561027d57600080fd5b610286816102e1565b50565b600054600160a060020a031690565b600054600160a060020a0316331490565b6102b1610298565b15156102bc57600080fd5b6102868161032a565b6102cd610298565b15156102d857600080fd5b61028681610379565b600160a060020a038116600081815260016020526040808220805460ff19169055517f1f756c8b089af6b33ee121fee8badac2553a2fa89c0575ea91ff8792617746c29190a250565b600160a060020a0381166000818152600160208190526040808320805460ff1916909217909155517f75b2135d1c8c3519f3c09c43fe6527089ef09f40c7981ebf0ed46e79e79032c79190a250565b600160a060020a038116151561038e57600080fd5b60008054604051600160a060020a03808516939216917f8be0079c531659141344cd1fd0a4f28419497f9722a3daafe3b4186f6b6457e091a36000805473ffffffffffffffffffffffffffffffffffffffff1916600160a060020a03929092169190911790555600a165627a7a72305820985fd38b350f189436450ff0748ef37491914c660b9b0a748c60e4b4c88b29300029",
  "source": "pragma solidity ^0.4.24;\n\nimport \"../node_modules/openzeppelin-solidity/contracts/ownership/Ownable.sol\";\n\ncontract Whitelist is Ownable {\n\n  // Mapping of address to boolean indicating whether the address is whitelisted\n  mapping(address => bool) private whitelistMap;\n\n  // flag controlling whether whitelist is enabled.\n  bool private whitelistEnabled = true;\n\n  event AddToWhitelist(address indexed _newAddress);\n  event RemoveFromWhitelist(address indexed _newAddress);\n\n\n  /**\n   * @dev Enable or disable the whitelist\n   * @param _enabled bool of whether to enable the whitelist.\n   */\n  function enableWhitelist(bool _enabled) public onlyOwner {\n    whitelistEnabled = _enabled;\n  }\n\n  /**\n   * @dev Adds the provided address to the whitelist\n   * @param _newAddress address to be added to the whitelist\n   */\n  function addToWhitelist(address _newAddress) public onlyOwner {\n    _whitelist(_newAddress);\n  }\n\n  /**\n   * @dev Removes the provided address to the whitelist\n   * @param _removedAddress address to be removed from the whitelist\n   */\n  function removeFromWhitelist(address _removedAddress) public onlyOwner {\n    _unWhitelist(_removedAddress);\n  }\n\n  /**\n   * @dev Returns whether the address is whitelisted\n   * @param _address address to check\n   * @return bool\n   */\n  function isWhitelisted(address _address) public view returns (bool) {\n    if (whitelistEnabled) {\n      return whitelistMap[_address];\n    } else {\n      return true;\n    }\n  }\n\n  /**\n   * @dev Internal function for removing an address from the whitelist\n   * @param _removedAddress address to unwhitelisted\n   */\n  function _unWhitelist(address _removedAddress) internal {\n    whitelistMap[_removedAddress] = false;\n    emit RemoveFromWhitelist(_removedAddress);\n  }\n\n  /**\n   * @dev Internal function for adding the provided address to the whitelist\n   * @param _newAddress address to be added to the whitelist\n   */\n  function _whitelist(address _newAddress) internal {\n    whitelistMap[_newAddress] = true;\n    emit AddToWhitelist(_newAddress);\n  }\n}\n",
  "sourcePath": "/Users/charlescrain/dev/pixura-contracts/truffle/contracts/Whitelist.sol",
  "compiler": {
    "name": "solc",
    "version": "0.4.24+commit.e67f0147.Emscripten.clang"
  },
  "schemaVersion": "2.0.1",
  "updatedAt": "2019-08-03T00:40:14.251Z"
}